:04000000AEEF00F06F
:0400080036EF1EF0C1
:10001800D8CFF3F0E8CFF4F0E0CFF5F0E1CFF6F089
:10002800E2CFF7F0D9CFF8F0DACFF9F009C0FAF05B
:100038000AC0FBF00BC0FCF00CC0FDF01AEE7AF021
:100048009EA229EF00F02BEF00F097EF00F09DA2A1
:1000580030EF00F032EF00F097EF00F0D890213643
:1000680082B039EF00F03CEF00F0010E3DEF00F0F8
:10007800000E2112D890233680B845EF00F048EFE3
:1000880000F0010E49EF00F0000E2312D89025363B
:1000980080B651EF00F054EF00F0010E55EF00F07C
:1000A800000E2512D890273680B45DEF00F060EF7F
:1000B80000F0010E61EF00F0000E27127F0E2118EC
:1000C800D8A469EF00F06BEF00F06FEF00F0030EBB
:1000D800E66EEBEC29F07F0E2318D8A476EF00F03B
:1000E80078EF00F07CEF00F0040EE66EEBEC29F000
:1000F8007F0E2518D8A483EF00F085EF00F089EF74
:1001080000F0050EE66EEBEC29F07F0E2718D8A458
:1001180090EF00F092EF00F096EF00F0060EE66E1A
:10012800EBEC29F09E92FDC00CF0FCC00BF0FBC07C
:100138000AF0FAC009F0F9C0DAFFF8C0D9FFF7C031
:10014800E2FFF6C0E1FFF5C0E0FFF4C0E8FFF3C04E
:10015800D8FF100010EEFEF032EF29F02C0EE12649
:10016800000EE222FC0EE36ACE0EE3CF09F0CF0EBA
:10017800E3CF0AF0D00EE3CF0BF0D10EE3CF0CF0B3
:10018800DA0E09C0E3FFDB0E0AC0E3FFDC0E0BC08A
:10019800E3FFDD0E0CC0E3FFDD0EE3BED8EF00F099
:1001A800D6EF00F0F2EF00F0FC0EE36AE32ADA0E75
:1001B800E3CFE6FFE3CFE6FFE3CFE6FFE3CFE6FFDB
:1001C800EBEC28F0DA0E01C0E3FFDB0E02C0E3FF20
:1001D800DC0E03C0E3FFDD0E04C0E3FFEA0EE36AB2
:1001E800EB0EE36AEE0E35C0E3FFEF0E36C0E3FF19
:1001F800FC0EE350D8B403EF01F005EF01F02AEF4D
:1002080001F0FC0EE350D8A40CEF01F00EEF01F062
:100218001AEF01F02B0E0B6E000E0C6ED40E0BC0F5
:10022800E3FFD50E0CC0E3FF24EF01F02D0E0B6E9B
:10023800000E0C6ED40E0BC0E3FFD50E0CC0E3FF0E
:10024800D40EE3CF01F0FC0E01C0E3FFDA0EE3CFDA
:10025800E6FFE3CFE6FFE3CFE6FFE3CFE6FF00EC00
:100268001CF001040210D8A43CEF01F03EEF01F0AD
:100278008FEF01F0FC0EE350D8B445EF01F047EFE3
:1002880001F05EEF01F0FC0EE3CF60F0E150EE0FFD
:10029800D96EE250DA6EFF0EDA22DE06000EDD5A63
:1002A800010E0B6E000E0C6EEA0E0BC0E3FFEB0E98
:1002B8000CC0E3FFF20EE66EFF0EE66E600E0B6EEC
:1002C800000E0C6EE80EE3500B26E90EE3500C22EC
:1002D8000BC0E6FF0CC0E6FF37EC26F0E150EE0F4E
:1002E800D96EE250DA6EFF0EDA22FD0EDE26FF0E20
:1002F800DD22EE0EE3CFE6FFE3CFE6FF600EE66E0B
:10030800000EE66ECE0EE3CFE6FFE3CFE6FFFCEC91
:1003180023F072EF08F0DA0EE3CFE6FFE3CFE6FF53
:10032800E3CFE6FFE3CFE6FF00EC1CF0015002103C
:10033800D8A4A1EF01F0A3EF01F0D9EF01F0FC0E72
:10034800E350D8B4AAEF01F0ACEF01F0C3EF01F02D
:10035800FC0EE3CF60F0E150EE0FD96EE250DA6E9A
:10036800FF0EDA22DE06000EDD5A010E0B6E000EBD
:100378000C6EEA0E0BC0E3FFEB0E0CC0E3FFF60EAB
:10038800E66EFF0EE66E600E0B6E000E0C6EE80E4B
:10039800E3500B26E90EE3500C220BC0E6FF0CC01D
:1003A800E6FF37EC26F072EF01F0000E096E000E42
:1003B8000A6E800E0B6E3F0E0C6ED60E09C0E3FF60
:1003C800D70E0AC0E3FFD80E0BC0E3FFD90E0CC04E
:1003D800E3FFF00EE36AF10EE36A000EE66E000E2C
:1003E800E66E000EE66E000EE66ED60EE3CFE6FF72
:1003F800E3CFE6FFE3CFE6FFE3CFE6FFF9EC20F03B
:1004080001B009EF02F00BEF02F064EF03F034EFF4
:1004180002F0E60EE3CF09F0E70EE3CF0AF0E80EAC
:10042800E3CF0BF0E90EE3CF0CF0D60E09C0E3FFE3
:10043800D70E0AC0E3FFD80E0BC0E3FFD90E0CC0DD
:10044800E3FFF00EE350010F016EF00E01C0E3FF71
:10045800016AF10EE3500120016EF10E01C0E3FFC5
:10046800000EE66E000EE66E200EE66E410EE66E9B
:10047800D20EE3CFE6FFE3CFE6FFE3CFE6FFE3CF1D
:10048800E6FFE9EC0CF0E60E01C0E3FFE70E02C060
:10049800E3FFE80E03C0E3FFE90E04C0E3FFDA0E52
:1004A800E3CF09F0DB0EE3CF0AF0DC0EE3CF0BF06D
:1004B800DD0EE3CF0CF0E60EE350095EE70EE350E5
:1004C8000A5AE80EE3500B5AE90EE3500C5A09C0D9
:1004D800E6FF0AC0E6FF0BC0E6FF0CC0E6FFA1EC92
:1004E80027F004BE83EF02F004500310021009E164
:1004F800020E015CD8A083EF02F085EF02F00DEF49
:1005080002F0DA0EE3CFE6FFE3CFE6FFE3CFE6FF44
:10051800E3CFE6FFE20EE3CFE6FFE3CFE6FFE3CF6C
:10052800E6FFE3CFE6FFC9EC1CF001A09EEF02F066
:10053800A0EF02F00DEF02F0DA0EE3CF09F0DB0EC8
:10054800E3CF0AF0DC0EE3CF0BF0DD0EE3CF0CF0C7
:10055800D60EE350095ED70EE3500A5AD80EE35080
:100568000B5AD90EE3500C5A09C0E6FF0AC0E6FF41
:100578000BC0E6FF0CC0E6FFA1EC27F004BED2EFEB
:1005880002F004500310021007E1020E015CD8B01B
:10059800D0EF02F0D2EF02F049EF03F0D60EE3CF2E
:1005A80009F0D70EE3CF0AF0D80EE3CF0BF0D90E3F
:1005B800E3CF0CF0DA0E09C0E3FFDB0E0AC0E3FF5D
:1005C800DC0E0BC0E3FFDD0E0CC0E3FF64EF03F0AD
:1005D800000EE66E000EE66E200EE66E410EE66E2A
:1005E800D20EE3CFE6FFE3CFE6FFE3CFE6FFE3CFAC
:1005F800E6FF14EC11F0D60E01C0E3FFD70E02C0DF
:10060800E3FFD80E03C0E3FFD90E04C0E3FFE150B7
:10061800F00FD96EE250DA6EFF0EDA22DE06000E17
:10062800DD5ADA0EE3CF09F0DB0EE3CF0AF0DC0E79
:10063800E3CF0BF0DD0EE3CF0CF0D60EE350095EEE
:10064800D70EE3500A5AD80EE3500B5AD90EE3508E
:100658000C5A09C0E6FF0AC0E6FF0BC0E6FF0CC053
:10066800E6FFA1EC27F004BE47EF03F004500310A7
:10067800021007E1020E015CD8B045EF03F047EF26
:1006880003F049EF03F0D2EF02F0D60EE3CFE6FF16
:10069800E3CFE6FFE3CFE6FFE3CFE6FFD60EE3CFF7
:1006A800E6FFE3CFE6FFE3CFE6FFE3CFE6FFC9ECE3
:1006B8001CF001A062EF03F064EF03F0ECEF02F02E
:1006C800CD0EE3CF01F0FE0E01C0E3FFFE0EE3CF37
:1006D80001F0FD0E01C0E3FF38BE75EF03F077EFC0
:1006E80003F07FEF03F0F80E37C0E3FFF90E38C0D0
:1006F800E3FF89EF03F0060E0B6E000E0C6EF80E8A
:100708000BC0E3FFF90E0CC0E3FFF80EE3CF01F0D6
:10071800F20E01C0E3FFF90EE3CF01F0F30E01C0C2
:10072800E3FFF20EE350010F016EF20E01C0E3FF8A
:10073800016AF30EE3500120016EF30E01C0E3FFDE
:10074800FD0EE3CF01F0660E0118D8A4AEEF03F05A
:10075800B0EF03F0EEEF03F0F10EE3BEB8EF03F0F5
:10076800B6EF03F0D0EF03F0000E096E000E0A6E2C
:10077800800E0B6E3F0E0C6ED60E09C0E3FFD70E2F
:100788000AC0E3FFD80E0BC0E3FFD90E0CC0E3FF8D
:10079800F00EE36AF10EE36AFE0EE3CF01F0670E96
:1007A8000118D8B4DAEF03F0DCEF03F0EEEF03F052
:1007B800F20EE350016EF00EE3500126F20E01C076
:1007C800E3FFF30EE350016EF10EE3500122F30E46
:1007D80001C0E3FFEC0EE36AED0EE36ADA0EE3CF45
:1007E80009F0DB0EE3CF0AF0DC0EE3CF0BF0DD0EF1
:1007F800E3CF0CF0E20E09C0E3FFE30E0AC0E3FF0B
:10080800E40E0BC0E3FFE50E0CC0E3FFD60EE3CF0A
:1008180009F0D70EE3CF0AF0D80EE3CF0BF0D90ECC
:10082800E3CF0CF0E60E09C0E3FFE70E0AC0E3FFD2
:10083800E80E0BC0E3FFE90E0CC0E3FFC4EF04F0C1
:10084800D60EE3CFE6FFE3CFE6FFE3CFE6FFE3CF45
:10085800E6FFDE0EE3CFE6FFE3CFE6FFE3CFE6FFFA
:10086800E3CFE6FF14EC11F001C0E6FF02C0E6FF9B
:1008780003C0E6FF04C0E6FF62EC16F0DE0E01C01E
:10088800E3FFDF0E02C0E3FFE00E03C0E3FFE10E6B
:1008980004C0E3FFDE0EE3CFE6FFE3CFE6FFE3CFDE
:1008A800E6FFE3CFE6FF2CEC1BF001C00BF002C023
:1008B8000CF0F40E0BC0E3FFF50E0CC0E3FFDE0EE8
:1008C800E3CFE6FFE3CFE6FFE3CFE6FFE3CFE6FFC4
:1008D800D20EE3CFE6FFE3CFE6FFE3CFE6FFE3CFB9
:1008E800E6FFE9EC0CF001C0E6FF02C0E6FF03C03A
:1008F800E6FF04C0E6FFDE0EE3CFE6FFE3CFE6FF48
:10090800E3CFE6FFE3CFE6FF70EC29F0E20E01C08B
:10091800E3FFE30E02C0E3FFE40E03C0E3FFE50ECE
:1009280004C0E3FF000EE66E000EE66E200EE66ED3
:10093800410EE66ED20EE3CFE6FFE3CFE6FFE3CF4C
:10094800E6FFE3CFE6FF14EC11F0D60E01C0E3FF9B
:10095800D70E02C0E3FFD80E03C0E3FFD90E04C0D0
:10096800E3FFEC0EE350010F016EEC0E01C0E3FF54
:10097800016AED0EE3500120016EED0E01C0E3FFA8
:10098800E150EC0FD96EE250DA6EFF0EDA22F20E69
:10099800E350DE5CDE50800A016EF30EE350800AFD
:1009A8000158D8A0DAEF04F0DCEF04F024EF04F0EB
:1009B800000EE66E000EE66EA00EE66E400EE66EC7
:1009C800D20EE3CFE6FFE3CFE6FFE3CFE6FFE3CFC8
:1009D800E6FFE9EC0CF0DE0E01C0E3FFDF0E02C01B
:1009E800E3FFE00E03C0E3FFE10E04C0E3FFDE0E09
:1009F800E3CFE6FFE3CFE6FFE3CFE6FFE3CFE6FF93
:100A0800DE0EE3CFE6FFE3CFE6FFE3CFE6FFE3CF7B
:100A1800E6FFC9EC1CF001B014EF05F016EF05F085
:100A28002CEF05F0000E096E000E0A6E000E0B6E1C
:100A3800000E0C6EDE0E09C0E3FFDF0E0AC0E3FFF6
:100A4800E00E0BC0E3FFE10E0CC0E3FF63EF05F01F
:100A5800DE0EE3CFE6FFE3CFE6FFE3CFE6FFE3CF2B
:100A6800E6FFDE0EE3CFE6FFE3CFE6FFE3CFE6FFE8
:100A7800E3CFE6FFF9EC20F001A045EF05F047EFE2
:100A880005F063EF05F0F40EE3B04DEF05F04FEF1E
:100A980005F063EF05F0000E096E000E0A6E000EF9
:100AA8000B6E000E0C6EDE0E09C0E3FFDF0E0AC0EF
:100AB800E3FFE00E0BC0E3FFE10E0CC0E3FFDE0E28
:100AC800E3CFE6FFE3CFE6FFE3CFE6FFE3CFE6FFC2
:100AD800D60EE3CFE6FFE3CFE6FFE3CFE6FFE3CFB3
:100AE800E6FF77EC08F0E20E01C0E3FFE30E02C078
:100AF800E3FFE40E03C0E3FFE50E04C0E3FF000ECE
:100B0800E66E000EE66E200EE66E410EE66EE20E12
:100B1800E3CFE6FFE3CFE6FFE3CFE6FFE3CFE6FF71
:100B2800E9EC0CF001C0E6FF02C0E6FF03C0E6FFF7
:100B380004C0E6FFDE0EE3CFE6FFE3CFE6FFE3CF38
:100B4800E6FFE3CFE6FFC9EC1CF001A0AEEF05F02D
:100B5800B0EF05F0F9EF05F0F00EE350010F016E6C
:100B6800F00E01C0E3FF016AF10EE3500120016EAF
:100B7800F10E01C0E3FF000EE66E000EE66E200ED9
:100B8800E66E410EE66EE20EE3CFE6FFE3CFE6FF48
:100B9800E3CFE6FFE3CFE6FFE9EC0CF0E60E01C099
:100BA800E3FFE70E02C0E3FFE80E03C0E3FFE90E30
:100BB80004C0E3FFFD0EE3CF01F0660E0118D8A4D0
:100BC800E8EF05F0EAEF05F0F9EF05F0F20EE35073
:100BD800010F016EF20E01C0E3FF016AF30EE3504C
:100BE8000120016EF30E01C0E3FFE60EE3CF09F02A
:100BF800E70EE3CF0AF0E80EE3CF0BF0E90EE3CF00
:100C08000CF0D60E09C0E3FFD70E0AC0E3FFD80EDA
:100C18000BC0E3FFD90E0CC0E3FFF00EE3CF01F0E9
:100C2800FA0E01C0E3FFF10EE3CF01F0FB0E01C0A5
:100C3800E3FFFF0EE36AF60EE36AF70EE36AEC0ED3
:100C4800E36AED0EE36AA0EF07F0D60EE3CFE6FF06
:100C5800E3CFE6FFE3CFE6FFE3CFE6FFDE0EE3CF29
:100C6800E6FFE3CFE6FFE3CFE6FFE3CFE6FF14ECD2
:100C780011F001C0E6FF02C0E6FF03C0E6FF04C0B2
:100C8800E6FF62EC16F0DE0E01C0E3FFDF0E02C0E5
:100C9800E3FFE00E03C0E3FFE10E04C0E3FFDE0E56
:100CA800E3CFE6FFE3CFE6FFE3CFE6FFE3CFE6FFE0
:100CB8002CEC1BF001C00BF002C00CF00CBE70EF66
:100CC80006F00C5007E10A0E0B5CD8B06EEF06F088
:100CD80070EF06F087EF06F0DE0EE3CFE6FFE3CF16
:100CE800E6FFE3CFE6FFE3CFE6FF2CEC1BF001C005
:100CF8000BF002C00CF0F40E0BC0E3FFF50E0CC0B5
:100D0800E3FF91EF06F0090E0B6E000E0C6EF40E69
:100D18000BC0E3FFF50E0CC0E3FFFF0EE350D8A4B1
:100D280098EF06F09AEF06F0FFEF06F0FB0EE3BE31
:100D3800A2EF06F0A0EF06F0FFEF06F0EA0EE3CF11
:100D48000BF0EB0EE3CF0CF0600E0B24D96E000E07
:100D58000C20DA6E2E0EDF6EEA0EE350010F016EE4
:100D6800EA0E01C0E3FF016AEB0EE3500120016EB9
:100D7800EB0E01C0E3FFE150EE0FD96EE250DA6EE0
:100D8800FF0EDA22DE06000EDD5AFF0EE36AE32AC2
:100D9800FFEF06F0EA0EE3CF0BF0EB0EE3CF0CF01B
:100DA800600E0B24D96E000E0C20DA6E300EDF6E4A
:100DB800EA0EE350010F016EEA0E01C0E3FF016A7B
:100DC800EB0EE3500120016EEB0E01C0E3FFE15092
:100DD800EE0FD96EE250DA6EFF0EDA22DE06000E52
:100DE800DD5AE150F60FD96EE250DA6EFF0EDA22C4
:100DF800DE06000EDD5AF60EE3CF01F0F70EE350E3
:100E08000110D8A40AEF07F00CEF07F0CEEF06F0B8
:100E1800EA0EE3CF0BF0EB0EE3CF0CF0600E0B24E1
:100E2800D96E000E0C20DA6EF40EE350300FDF6E30
:100E3800EA0EE350010F016EEA0E01C0E3FF016AFA
:100E4800EB0EE3500120016EEB0E01C0E3FFE15011
:100E5800EE0FD96EE250DA6EFF0EDA22DE06000ED1
:100E6800DD5ADE0EE3CFE6FFE3CFE6FFE3CFE6FF92
:100E7800E3CFE6FFD20EE3CFE6FFE3CFE6FFE3CF13
:100E8800E6FFE3CFE6FFE9EC0CF001C0E6FF02C0A5
:100E9800E6FF03C0E6FF04C0E6FFDE0EE3CFE6FF91
:100EA800E3CFE6FFE3CFE6FFE3CFE6FF70EC29F000
:100EB800E20E01C0E3FFE30E02C0E3FFE40E03C04D
:100EC800E3FFE50E04C0E3FF000EE66E000EE66EDB
:100ED800200EE66E410EE66ED20EE3CFE6FFE3CFBC
:100EE800E6FFE3CFE6FFE3CFE6FF14EC11F0D60E02
:100EF80001C0E3FFD70E02C0E3FFD80E03C0E3FF33
:100F0800D90E04C0E3FFE150FA0FD96EE250DA6E51
:100F1800FF0EDA22DE06000EDD5AEC0EE350010F5A
:100F2800016EEC0E01C0E3FF016AED0EE3500120F3
:100F3800016EED0E01C0E3FFE150EC0FD96EE250F7
:100F4800DA6EFF0EDA22F20EE350DE5CDE50800A23
:100F5800016EF30EE350800A0158D8B0B6EF07F0DF
:100F6800B8EF07F0CBEF07F0EB0EE3BEC9EF07F0E1
:100F7800EB0EE3500CE1EA0EE3CF01F04B0E015EFD
:100F8800D8A0C9EF07F0CBEF07F029EF06F04F0E16
:100F98000B6E000E0C6EEC0E0BC0E3FFED0E0CC0DA
:100FA800E3FFEC0EE3CF0BF0ED0EE3CF0CF0600E99
:100FB8000B24D96E000E0C20DA6EDF6AEA0EE3CF3E
:100FC800E6FFE3CFE6FF600EE66E000EE66E600E0B
:100FD8000B6E000E0C6EE60EE3500B5EE70EE35050
:100FE8000C5AE80EE3500B26E90EE3500C220BC016
:100FF800E6FF0CC0E6FF6BEC21F0EC0EE3CF0BF044
:10100800ED0EE3CF0CF0EA0EE3500B5EEB0EE3506F
:101018000C5AEA0E0BC0E3FFEB0E0CC0E3FFFC0E0C
:10102800E350D8A41AEF08F01DEF08F0010E1EEFE8
:1010380008F0000E0B6E0C6AEC0E0BC0E3FFED0E11
:101048000CC0E3FFFC0EE350D8B42DEF08F02FEFEF
:1010580008F046EF08F0E150EA0FD96EE250DA6E78
:10106800FF0EDA22DE06000EDD5ADECF0BF0DDCFF2
:101078000CF0600E0B24D96E000E0C20DA6EFC0EFC
:10108800E3CFDFFFEE0EE350016EEC0EE350015E9E
:10109800EE0E01C0E3FFEF0EE350016EED0EE350DC
:1010A800015AEF0E01C0E3FFEE0EE3CFE6FFE3CFF8
:1010B800E6FF600E0B6E000E0C6EE80EE3500B267A
:1010C800E90EE3500C220BC0E6FF0CC0E6FFCE0E83
:1010D800E3CFE6FFE3CFE6FFFCEC23F0CD0EE126FD
:1010E800FF0EE2221200E652E652E652E652FB0EEC
:1010F800E124D96EFF0EE220DA6EDF500C6E800E0E
:101108000C16FF0E0CC0E3FFFB0EE124D96EFF0E98
:10111800E220DA6EDF500C6ED8900C340B6EFD0EA8
:101128000BC0E3FFFA0EE124D96EFF0EE220DA6E5F
:10113800DFAEA1EF08F0A3EF08F0A5EF08F0FD0E71
:10114800E380FD0EE350D8B4ACEF08F0AEEF08F042
:10115800D6EF08F0FD0EE328D8A4B5EF08F0B7EFF6
:1011680008F0CBEF08F0000E096E000E0A6E000EB4
:101178000B6E000E0C6EF80E09C0E3FFF90E0AC0E4
:10118800E3FFFA0E0BC0E3FFFB0E0CC0E3FFFA0E01
:10119800E38EFB0EE124D96EFF0EE220DA6EDF6AE1
:1011A800EAEF08F0000E096E000E0A6E000E0B6ED4
:1011B800000E0C6EF80E09C0E3FFF90E0AC0E3FF3B
:1011C800FA0E0BC0E3FFFB0E0CC0E3FFF70EE124A1
:1011D800D96EFF0EE220DA6EDF500C6E800E0C1610
:1011E800FE0E0CC0E3FFE150FE0FD96EE250DA6E3E
:1011F800FF0EDA22FF0EE350DE18D8B406EF09F02E
:1012080008EF09F00AEF09F0FF0EE38CF70EE1246E
:10121800D96EFF0EE220DA6EDF500C6ED8900C34D7
:101228000B6EFE0E0BC0E3FFF60EE124D96EFF0E27
:10123800E220DA6EDFAE23EF09F025EF09F027EFA1
:1012480009F0FE0EE380FE0EE350D8B42EEF09F04D
:1012580030EF09F058EF09F0FE0EE328D8A437EF75
:1012680009F039EF09F04DEF09F0000E096E000E94
:101278000A6E000E0B6E000E0C6EF40E09C0E3FF32
:10128800F50E0AC0E3FFF60E0BC0E3FFF70E0CC025
:10129800E3FFF60EE38EF70EE124D96EFF0EE2208F
:1012A800DA6EDF6A6CEF09F0000E096E000E0A6E46
:1012B800000E0B6E000E0C6EF40E09C0E3FFF50E67
:1012C8000AC0E3FFF60E0BC0E3FFF70E0CC0E3FF06
:1012D800E150FE0FD96EE250DA6EFF0EDA22FD0EF3
:1012E800E350DE5CD8B07BEF09F07DEF09F011EF39
:1012F8000AF0FF0EE3AC83EF09F085EF09F087EF02
:1013080009F0FF0EE37EFD0EE3CF01F0FC0E01C0F5
:10131800E3FFFE0EE3CF01F0FD0E01C0E3FFFC0E7C
:10132800E3CF01F0FE0E01C0E3FFF80EE3CF01F0BA
:10133800FC0E01C0E3FFF40EE3CF01F0F80E01C08C
:10134800E3FFFC0EE3CF01F0F40E01C0E3FFF90E5A
:10135800E124D96EFF0EE220DA6EDF500C6EFC0E2F
:101368000CC0E3FFF50EE124D96EFF0EE220DA6E21
:10137800F90EE124E96EFF0EE220EA6EDFCFEFFFFF
:10138800F50EE124D96EFF0EE220DA6EFC0EE3CFF3
:10139800DFFFFA0EE124D96EFF0EE220DA6EDF508D
:1013A8000C6EFC0E0CC0E3FFF60EE124D96EFF0EA6
:1013B800E220DA6EFA0EE124E96EFF0EE220EA6E10
:1013C800DFCFEFFFF60EE124D96EFF0EE220DA6ED2
:1013D800FC0EE3CFDFFFFB0EE124D96EFF0EE22007
:1013E800DA6EDF500C6EFC0E0CC0E3FFF70EE12442
:1013F800D96EFF0EE220DA6EFB0EE124E96EFF0ED5
:10140800E220EA6EDFCFEFFFF70EE124D96EFF0E80
:10141800E220DA6EFC0EE3CFDFFFFC0EE36AFE0E7D
:10142800E3500B6E0C6AFD0EE3500B5E000E0C5A77
:101438000CBE28EF0AF00C5009E11A0E0B5CD8A07C
:1014480028EF0AF02AEF0AF093EF0AF0F80EE350BB
:101458000DE1F90EE3500AE1FA0EE35007E1FB0E45
:10146800E350D8A43AEF0AF03EEF0AF00C6A0C2ACF
:101478003FEF0AF00C6AFC0E0CC0E3FFF80EE36ABB
:10148800F90EE36AFA0EE36AFB0EE36AFE0EE3CF97
:1014980001F0FD0E01C0E3FFA4EF0AF0FC0EE3A08B
:1014A80058EF0AF05AEF0AF066EF0AF0FC0EE3CFA5
:1014B8000CF0D8900C32010E0C12FC0E0CC0E3FF9D
:1014C8006FEF0AF0E150FC0FD96EE250DA6EFF0EB2
:1014D800DA22D890DF32F80EE3A075EF0AF077EF42
:1014E8000AF079EF0AF0FC0EE38E010E0C6EE15063
:1014F800F80FD96EE250DA6EFF0EDA220C28DE52AF
:101508008EEF0AF0DE52D890DCBED880DD32DD32B4
:10151800DD32DE32E82E86EF0AF0FD0EE32AE150D6
:10152800FD0FD96EE250DA6EFF0EDA22FE0EE3509E
:10153800DE5CD8A0A2EF0AF0A4EF0AF052EF0AF09E
:10154800FF0EE3BCAAEF0AF0ACEF0AF02EEF0BF0A7
:10155800FD0EE350D8A4B3EF0AF0B5EF0AF0BFEFE1
:101568000AF0000E016E000E026E000E036E000EF1
:10157800046EE4EF0CF0F80EE350016EF40EE35045
:101588000126F80E01C0E3FFF90EE350016EF50ED7
:10159800E3500122F90E01C0E3FFFA0EE350016E99
:1015A800F60EE3500122FA0E01C0E3FFFB0EE350F2
:1015B800016EF70EE3500122FB0E01C0E3FFFB0EA4
:1015C800E3A0E9EF0AF0EBEF0AF018EF0CF0FC0EDD
:1015D800E3A0F1EF0AF0F3EF0AF0FFEF0AF0FC0ED8
:1015E800E3CF0CF0D8900C32010E0C12FC0E0CC09C
:1015F800E3FF08EF0BF0E150FC0FD96EE250DA6E12
:10160800FF0EDA22D890DF32F80EE3A00EEF0BF0CF
:1016180010EF0BF012EF0BF0FC0EE38E010E0C6EC8
:10162800E150F80FD96EE250DA6EFF0EDA220C287C
:10163800DE5227EF0BF0DE52D890DCBED880DD32C8
:10164800DD32DD32DE32E82E1FEF0BF0FD0EE32A2D
:1016580018EF0CF0E150F80FD96EE250DA6EFF0E79
:10166800DA22F40EE350DE5CF50EE350DE58F60E97
:10167800E350DE58DE50800A016EF70EE350800A10
:101688000158D8B04AEF0BF04CEF0BF09CEF0BF081
:10169800F40EE3CF09F0F50EE3CF0AF0F60EE3CF30
:1016A8000BF0F70EE3CF0CF0F80EE350095EF90EDD
:1016B800E3500A5AFA0EE3500B5AFB0EE3500C5A49
:1016C800FF0E0924056EFF0E0A20066EFF0E0B2082
:1016D800076EFF0E0C20086EF80E05C0E3FFF90E2A
:1016E80006C0E3FFFA0E07C0E3FFFB0E08C0E3FFE6
:1016F800FF0EE37EFC0EE35000080C6EFC0E0CC0DF
:10170800E3FFFC0EE350D8A48CEF0BF08EEF0BF048
:10171800AFEF0BF0E150F80FD96EE250DA6EFF0E22
:10172800DA22DE2A000EDE22DE22DE22AFEF0BF006
:10173800E150F80FD96EE250DA6EFF0EDA22F40E9D
:10174800E350DE5EF50EE350DE5AF60EE350DE5A45
:10175800F70EE350DE5AF80EE3500DE1F90EE350B0
:101768000AE1FA0EE35007E1FB0EE350D8A4BFEFFD
:101778000BF0C1EF0BF010EF0CF0FC0EE350D8A407
:10178800C8EF0BF0CAEF0BF010EF0CF0000E016E73
:10179800000E026E000E036E000E046EE4EF0CF0F5
:1017A800D890F80EE336F90EE336FA0EE336FB0E60
:1017B800E336FC0EE3AEE3EF0BF0E5EF0BF0E7EFFB
:1017C8000BF0F80EE380FC0EE3A0EDEF0BF0EFEF6B
:1017D8000BF0FCEF0BF0FC0EE3CF0CF0D8900C34C0
:1017E8000B6E010E0B12FC0E0BC0E3FF05EF0CF0A5
:1017F800E150FC0FD96EE250DA6EFF0EDA22D89073
:10180800DF36FD0EE350D8B40CEF0CF00EEF0CF001
:1018180010EF0CF0FD0EE306FA0EE3AE16EF0CF037
:1018280018EF0CF0D4EF0BF0FE0EE36AFC0EE3AEFB
:1018380020EF0CF022EF0CF03DEF0CF0FC0EE3CFA4
:101848000CF07F0E0C16D8B42CEF0CF02EEF0CF029
:1018580033EF0CF0FE0EE36AE32A3DEF0CF0F80ECE
:10186800E3A039EF0CF03BEF0CF03DEF0CF02EEF5E
:101878000CF0FE0EE350D8B444EF0CF046EF0CF039
:101888007DEF0CF0E150F80FD96EE250DA6EFF0EE2
:10189800DA22DE2A000EDE22DE22DE22FB0EE3A0A2
:1018A80058EF0CF05AEF0CF07DEF0CF0010E0C6EB7
:1018B800E150F80FD96EE250DA6EFF0EDA220C28EA
:1018C800DE526FEF0CF0DE52D890DCBED880DD32ED
:1018D800DD32DD32DE32E82E67EF0CF0FD0EE32854
:1018E800D8B479EF0CF07BEF0CF07DEF0CF0FD0E27
:1018F800E32AFD0EE328D8B484EF0CF086EF0CF051
:101908008FEF0CF0FD0EE350D8A48DEF0CF08FEFA5
:101918000CF0A2EF0CF0F80EE36AF90EE36AFA0E87
:10192800E36AFB0EE36AFD0EE350D8A49EEF0CF0C9
:10193800A0EF0CF0A2EF0CF0FF0EE36AFD0EE3A09F
:10194800A8EF0CF0AAEF0CF0B4EF0CF0FA0EE124BB
:10195800D96EFF0EE220DA6E000EDB8EBCEF0CF0C3
:10196800FA0EE124D96EFF0EE220DA6E7F0EDF1642
:10197800FB0EE124D96EFF0EE220DA6EFD0EE3CFF6
:101988000CF0D8900C30DF6EFF0EE3AECEEF0CF00B
:10199800D0EF0CF0D8EF0CF0FB0EE124D96EFF0E5F
:1019A800E220DA6E000EDB8EF80EE3CF01F0F90EBE
:1019B800E3CF02F0FA0EE3CF03F0FB0EE3CF04F01F
:1019C800F40EE126FF0EE22212000D0EE126000EB3
:1019D800E222F20EE124D96EFF0EE220DA6EDF5029
:1019E8000C6E800E0C16FF0E0CC0E3FFF20EE12405
:1019F800D96EFF0EE220DA6EDF500C6ED8900C34F0
:101A08000B6EFD0E0BC0E3FFF10EE124D96EFF0E45
:101A1800E220DA6EDFAE13EF0DF015EF0DF017EFE1
:101A28000DF0FD0EE380FD0EE350D8B41EEF0DF06F
:101A380020EF0DF041EF0DF0FD0EE328D8A427EFBD
:101A48000DF029EF0DF03DEF0DF0000E096E000EC0
:101A58000A6E000E0B6E000E0C6EEF0E09C0E3FF4F
:101A6800F00E0AC0E3FFF10E0BC0E3FFF20E0CC04C
:101A7800E3FFF10EE38E55EF0DF0000E096E000E38
:101A88000A6E000E0B6E000E0C6EEF0E09C0E3FF1F
:101A9800F00E0AC0E3FFF10E0BC0E3FFF20E0CC01C
:101AA800E3FFEE0EE124D96EFF0EE220DA6EDF507E
:101AB8000C6E800E0C16E150FF0FD96EE250DA6EF4
:101AC800FF0EDA220C50DF1AEE0EE124D96EFF0E5B
:101AD800E220DA6EDF500C6ED8900C340B6EFE0EDE
:101AE8000BC0E3FFED0EE124D96EFF0EE220DA6EA3
:101AF800DFAE81EF0DF083EF0DF085EF0DF0FE0EF8
:101B0800E380FE0EE350D8B48CEF0DF08EEF0DF0AD
:101B1800AFEF0DF0FE0EE328D8A495EF0DF097EF88
:101B28000DF0ABEF0DF0000E096E000E0A6E000E00
:101B38000B6E000E0C6EEB0E09C0E3FFEC0E0AC034
:101B4800E3FFED0E0BC0E3FFEE0E0CC0E3FFED0E5E
:101B5800E38EC3EF0DF0000E096E000E0A6E000E44
:101B68000B6E000E0C6EEB0E09C0E3FFEC0E0AC004
:101B7800E3FFED0E0BC0E3FFEE0E0CC0E3FFFE0E1D
:101B8800E350D8B4CAEF0DF0CCEF0DF0D5EF0DF05F
:101B9800FD0EE350D8A4D3EF0DF0D5EF0DF0DFEF35
:101BA8000DF0000E016E000E026E000E036E000EA8
:101BB800046E0FEF11F0EF0EE3CF0CF0ED0EE12401
:101BC800D96EFF0EE220DA6EDF500C02FB0EF3CF67
:101BD800E3FFFC0EF4CFE3FFFB0EE3CF0CF00CC0E9
:101BE80005F0066A076A086AF70E05C0E3FFF80EF3
:101BF80006C0E3FFF90E07C0E3FFFA0E08C0E3FFD3
:101C0800FC0EE124D96EFF0EE220DA6EDF500C6E76
:101C18000CC005F0066A076A086AF30E05C0E3FF00
:101C2800F40E06C0E3FFF50E07C0E3FFF60E08C08A
:101C3800E3FFF00EE124D96EFF0EE220DA6EDF50EA
:101C48000C6EEC0EE124D96EFF0EE220DA6EDF5046
:101C58000C02FB0EF3CFE3FFFC0EF4CFE3FFE150E1
:101C6800F70FD96EE250DA6EFF0EDA22FB0EE35060
:101C7800DE26000EDE22DE22DE22E150F30FD96ED0
:101C8800E250DA6EFF0EDA22FC0EE124E96EFF0E56
:101C9800E220EA6EEF50DE26000EDE22DE22DE2291
:101CA800F10EE124D96EFF0EE220DA6EDF500C6EE1
:101CB800EB0EE3500C02FB0EF3CFE3FFFC0EF4CF68
:101CC800E3FFE150F70FD96EE250DA6EFF0EDA2229
:101CD800FB0EE350DE26000EDE22DE22DE22E1507D
:101CE800F30FD96EE250DA6EFF0EDA22FC0EE12411
:101CF800E96EFF0EE220EA6EEF50DE26000EDE22CD
:101D0800DE22DE22E150F70FD96EE250DA6EFF0EC6
:101D1800DA22080ED890DE36DE36DE36DD36DD52C3
:101D2800DD52E82E8EEF0EF0F00EE124D96EFF0E94
:101D3800E220DA6EDF500C6EEB0EE3500C02FB0E65
:101D4800F3CFE3FFFC0EF4CFE3FFFB0EE3CF0BF082
:101D5800FC0EE3CF0CF0E150F70FD96EE250DA6ECB
:101D6800FF0EDA220B50DE260C50DE22000EDE2299
:101D7800DE22EF0EE3CF0CF0EC0EE124D96EFF0E5D
:101D8800E220DA6EDF500C02FB0EF3CFE3FFFC0E0D
:101D9800F4CFE3FFFB0EE3CF0BF0FC0EE3CF0CF028
:101DA800E150F70FD96EE250DA6EFF0EDA220B50CF
:101DB800DE260C50DE22000EDE22DE22E150F70F76
:101DC800D96EE250DA6EFF0EDA22080ED890DE36AF
:101DD800DE36DE36DD36DD52DD52E82EEAEF0EF075
:101DE800EF0EE3CF0CF0EB0EE3500C02FB0EF3CF3B
:101DF800E3FFFC0EF4CFE3FFFB0EE3CF0BF0FC0E8A
:101E0800E3CF0CF0E150F70FD96EE250DA6EFF0E17
:101E1800DA220B50DE260C50DE22000EDE22DE22F5
:101E2800F00EE124D96EFF0EE220DA6EDF500C6E60
:101E3800ED0EE124D96EFF0EE220DA6EDF500C02BF
:101E4800FB0EF3CFE3FFFC0EF4CFE3FFFB0EE3CF73
:101E58000BF0FC0EE3CF0CF0E150F30FD96EE2501B
:101E6800DA6EFF0EDA220B50DE260C50DE22000E50
:101E7800DE22DE22F10EE124D96EFF0EE220DA6EB8
:101E8800DF500C6EEC0EE124D96EFF0EE220DA6E04
:101E9800DF500C02FB0EF3CFE3FFFC0EF4CFE3FFA1
:101EA800FB0EE3CF0BF0FC0EE3CF0CF0E150F30F89
:101EB800D96EE250DA6EFF0EDA220B50DE260C5095
:101EC800DE22000EDE22DE22F10EE124D96EFF0EA4
:101ED800E220DA6EDF500C6EED0EE124D96EFF0EB3
:101EE800E220DA6EDF500C02FB0EF3CFE3FFFC0EAC
:101EF800F4CFE3FFFB0EE3CF0BF0FC0EE3CF0CF0C7
:101F08000B50056E0C50066E076A086A07C008F089
:101F180006C007F005C006F0056AE150F30FD96E58
:101F2800E250DA6EFF0EDA220550DE260650DE2277
:101F38000750DE220850DE22E150F30FD96EE2503E
:101F4800DA6EFF0EDA22FA0EE124E96EFF0EE220C5
:101F5800EA6EEF50DE26000EDE22DE22DE22E1509F
:101F6800F70FD96EE250DA6EFF0EDA22080ED8901B
:101F7800DE36DE36DE36DD36DD52DD52E82EBBEFEC
:101F88000FF0FD0EE3500B6E0C6AFE0EE3500B26AD
:101F9800000E0C22820E0B24096EFF0E0C200A6E16
:101FA800FB0E09C0E3FFFC0E0AC0E3FF02EF10F0CE
:101FB800D890F30EE336F40EE336F50EE336F60E5C
:101FC800E336FA0EE3AEEBEF0FF0EDEF0FF0EFEFC5
:101FD8000FF0F30EE380D890F70EE336F80EE336F1
:101FE800F90EE336FA0EE336E150FB0FD96EE250F4
:101FF800DA6EFF0EDA22DE06000EDD5AF50EE3AECB
:1020080008EF10F00AEF10F0DCEF0FF0FE0EE36AB5
:10201800FA0EE3AE12EF10F014EF10F041EF10F0EB
:10202800E150F70FD96EE250DA6EFF0EDA22FF0E9A
:10203800DE14096EFF0EDE140A6EFF0EDE140B6E40
:102048007F0EDE140C6E09500A100B100C10D8B459
:1020580030EF10F032EF10F037EF10F0FE0EE36AB9
:10206800E32A41EF10F0F30EE3A03DEF10F03FEF4D
:1020780010F041EF10F032EF10F0FE0EE350D8B43C
:1020880048EF10F04AEF10F085EF10F0E150F30F31
:10209800D96EE250DA6EFF0EDA22DE2A000EDE2258
:1020A800DE22DE22F60EE3A05CEF10F05EEF10F009
:1020B80085EF10F0010E0C6EE150F30FD96EE2506F
:1020C800DA6EFF0EDA220C28DE5273EF10F0DE52C1
:1020D800D890DCBED880DD32DD32DD32DE32E82E4B
:1020E8006BEF10F0FB0EE350010F016EFB0E01C009
:1020F800E3FF016AFC0EE3500120016EFC0E01C0F3
:10210800E3FFFC0EE3BE93EF10F0FC0EE35009E191
:10211800FB0EE328D8A093EF10F095EF10F0ABEF8B
:1021280010F0000E096E000E0A6E800E0B6E7F0E08
:102138000C6EF30E09C0E3FFF40E0AC0E3FFF50EC0
:102148000BC0E3FFF60E0CC0E3FFF8EF10F0FC0E37
:10215800E3BEBBEF10F0FC0EE35007E1FB0EE30417
:10216800D8B0B9EF10F0BBEF10F0C7EF10F0F30ED6
:10217800E36AF40EE36AF50EE36AF60EE36AFF0E0D
:10218800E36AF8EF10F0FB0EE3CF01F0FD0E01C09B
:10219800E3FFE150F30FD96EE250DA6EFF0EDA2258
:1021A800FF0EDE16FF0EDE167F0EDE16000EDE16A2
:1021B800FD0EE3A0E2EF10F0E4EF10F0ECEF10F00A
:1021C800F50EE124D96EFF0EE220DA6E000EDB8EEA
:1021D800F60EE124D96EFF0EE220DA6EFD0EE3CF93
:1021E8000CF0D8900C30DF6EFF0EE3CF0CF0F60E3B
:1021F800E124D96EFF0EE220DA6E0C50DF12F30EE6
:10220800E3CF01F0F40EE3CF02F0F50EE3CF03F0D5
:10221800F60EE3CF04F0EB0EE126FF0EE2221200E9
:102228000D0EE126000EE222F20EE124D96EFF0E19
:10223800E220DA6EDF500C6E800E0C16FF0E0CC01A
:10224800E3FFF20EE124D96EFF0EE220DA6EDF50D2
:102258000C6ED8900C340B6EFE0E0BC0E3FFF10E23
:10226800E124D96EFF0EE220DA6EDFAE3EEF11F008
:1022780040EF11F042EF11F0FE0EE380FE0EE35046
:10228800D8B449EF11F04BEF11F073EF11F0FE0ED7
:10229800E328D8A452EF11F054EF11F068EF11F0D1
:1022A800000E096E000E0A6E000E0B6E000E0C6E0C
:1022B800EF0E09C0E3FFF00E0AC0E3FFF10E0BC0FA
:1022C800E3FFF20E0CC0E3FFF10EE38EF20EE12401
:1022D800D96EFF0EE220DA6EDF6A87EF11F0000E8A
:1022E800096E000E0A6E000E0B6E000E0C6EEF0EDD
:1022F80009C0E3FFF00E0AC0E3FFF10E0BC0E3FFD5
:10230800F20E0CC0E3FFEE0EE124D96EFF0EE220C0
:10231800DA6EDF500C6E800E0C16E150FF0FD96E8E
:10232800E250DA6EFF0EDA220C50DF1AEE0EE124CC
:10233800D96EFF0EE220DA6EDF500C6ED8900C34A6
:102348000B6EFD0E0BC0E3FFED0EE124D96EFF0E00
:10235800E220DA6EDFAEB3EF11F0B5EF11F0B7EFB0
:1023680011F0FD0EE380FD0EE350D8B4BEEF11F07E
:10237800C0EF11F0E8EF11F0FD0EE328D8A4C7EF85
:1023880011F0C9EF11F0DDEF11F0000E096E000E2B
:102398000A6E000E0B6E000E0C6EEB0E09C0E3FF0A
:1023A800EC0E0AC0E3FFED0E0BC0E3FFEE0E0CC00F
:1023B800E3FFED0EE38EEE0EE124D96EFF0EE22070
:1023C800DA6EDF6AFCEF11F0000E096E000E0A6E7D
:1023D800000E0B6E000E0C6EEB0E09C0E3FFEC0E48
:1023E8000AC0E3FFED0E0BC0E3FFEE0E0CC0E3FFE7
:1023F800EB0EE3500DE1EC0EE3500AE1ED0EE35075
:1024080007E1EE0EE350D8A40CEF12F00EEF12F035
:1024180039EF12F0EF0EE36AF00EE36AF10EE36AA9
:10242800F20EE36AF10EE124D96EFF0EE220DA6EB5
:10243800800EDE127F0EDD12FF0EE3CF0CF0F20EDF
:10244800E124D96EFF0EE220DA6E0C50DF12EF0E97
:10245800E3CF01F0F00EE3CF02F0F10EE3CF03F08B
:10246800F20EE3CF04F022EF14F0FE0EE350D8A4EE
:1024780040EF12F042EF12F04CEF12F0000E016E36
:10248800000E026E000E036E000E046E22EF14F0B2
:10249800FE0EE3500B6E0C6AFD0EE3500B5E000E51
:1024A8000C5A7F0E0B26000E0C22FB0E0BC0E3FF0E
:1024B800FC0E0CC0E3FFEF0EE3CF09F0F00EE3CF04
:1024C8000AF0F10EE3CF0BF0F20EE3CF0CF0F70EAB
:1024D80009C0E3FFF80E0AC0E3FFF90E0BC0E3FFE3
:1024E800FA0E0CC0E3FFEF0EE36AF00EE36AF10E9A
:1024F800E36AF20EE36AF30EE36AF40EE36AF50E9A
:10250800E36AF60EE36AFD0EE36AEAEF12F0FD0EE7
:10251800E350D8B492EF12F094EF12F0B9EF12F042
:10252800D890F70EE336F80EE336F90EE336FA0ED6
:10253800E336D890EF0EE336F00EE336F10EE336CD
:10254800F20EE336F60EE3AEACEF12F0AEEF12F099
:10255800B0EF12F0EF0EE380D890F30EE336F40EEE
:10256800E336F50EE336F60EE336E150F70FD96E93
:10257800E250DA6EFF0EDA22EB0EE350DE5CEC0E70
:10258800E350DE58ED0EE350DE58EE0EE350DE5811
:10259800D8A0D1EF12F0D3EF12F0E8EF12F0F60E58
:1025A800E38CE150F70FD96EE250DA6EFF0EDA22B3
:1025B800EB0EE350DE5EEC0EE350DE5AED0EE35018
:1025C800DE5AEE0EE350DE5AFD0EE32AFD0EE3CF8F
:1025D80001F0190E0164F3EF12F0F5EF12F08BEF32
:1025E80012F0F70EE3500FE1F80EE3500CE1F90E8C
:1025F800E35009E1FA0EE350D8B405EF13F007EF02
:1026080013F031EF13F0F30EE38031EF13F0D890AD
:10261800EF0EE336F00EE336F10EE336F20EE33654
:10262800F60EE3AE1AEF13F01CEF13F01EEF13F0E3
:10263800EF0EE380D890F30EE336F40EE336F50E92
:10264800E336F60EE336E150FB0FD96EE250DA6E50
:10265800FF0EDA22DE06000EDD5AF10EE3AE37EF8A
:1026680013F039EF13F00BEF13F0FD0EE36AF60EDB
:10267800E3AE41EF13F043EF13F070EF13F0E150C6
:10268800F30FD96EE250DA6EFF0EDA22FF0EDE1477
:10269800096EFF0EDE140A6EFF0EDE140B6E7F0E3F
:1026A800DE140C6E09500A100B100C10D8B45FEF32
:1026B80013F061EF13F066EF13F0FD0EE36AE32AFF
:1026C80070EF13F0EF0EE3A06CEF13F06EEF13F062
:1026D80070EF13F061EF13F0FD0EE350D8B477EF0D
:1026E80013F079EF13F0B4EF13F0E150EF0FD96E58
:1026F800E250DA6EFF0EDA22DE2A000EDE22DE2239
:10270800DE22F20EE3A08BEF13F08DEF13F0B4EF9F
:1027180013F0010E0C6EE150EF0FD96EE250DA6E35
:10272800FF0EDA220C28DE52A2EF13F0DE52D89008
:10273800DCBED880DD32DD32DD32DE32E82E9AEFC3
:1027480013F0FB0EE350010F016EFB0E01C0E3FF17
:10275800016AFC0EE3500120016EFC0E01C0E3FF8C
:10276800FC0EE3BEC2EF13F0FC0EE35009E1FB0ED2
:10277800E328D8A0C2EF13F0C4EF13F0D6EF13F09C
:10278800FF0E0B6E000E0C6EFB0E0BC0E3FFFC0E73
:102798000CC0E3FFEF0EE36AF00EE36AF10EE36AA2
:1027A800F20EE36AFC0EE3BEE6EF13F0FC0EE35014
:1027B80007E1FB0EE304D8B0E4EF13F0E6EF13F003
:1027C800F4EF13F0FB0EE36AFC0EE36AEF0EE36A24
:1027D800F00EE36AF10EE36AF20EE36AFF0EE36AB3
:1027E800FB0EE3CF01F0FE0E01C0E3FFFE0EE3A0F7
:1027F80000EF14F002EF14F00CEF14F0F10EE124E6
:10280800D96EFF0EE220DA6E000EDB8E14EF14F0A4
:10281800F10EE124D96EFF0EE220DA6E7F0EDF168C
:10282800F20EE124D96EFF0EE220DA6EFE0EE3CF3F
:102838000CF0D8900C30DF6E20EF12F0EB0EE12692
:10284800FF0EE2221200090EE126000EE222F30E2C
:10285800E3CFD9FFF40EE3CFDAFFDECFF6FFDDCF0B
:10286800F7FFF86A0800F550250AD8A43EEF14F0DF
:1028780040EF14F044EF16F0F30EE3CFD9FFF40E57
:10288800E3CFDAFFDE2A000EDD22356A366A3768C2
:102898003868F30EE3CFD9FFF40EE3CFDAFFDECFCB
:1028A800F6FFDDCFF7FFF86A0800F5502E0AD8A426
:1028B80060EF14F062EF14F07BEF14F0F30EE3CF47
:1028C800D9FFF40EE3CFDAFFDE2A000EDD22F10E87
:1028D800E3CFE6FFE3CFE6FFF10EE3CFE6FFE3CF7A
:1028E800E6FF60EC1FF001C037F002C038F0F30ECD
:1028F800E3CFD9FFF40EE3CFDAFFDECFF6FFDDCF6B
:10290800F7FFF86A0800F550730AD8B48EEF14F090
:1029180090EF14F0B1EF14F0030EE66E000EE66EC1
:10292800FA0EE66EFF0EE66EEF0EE3CFD9FFF00E5D
:10293800E3CFDAFFDECF0BF0DDCF0CF00BC0E6FF04
:102948000CC0E6FF3CEC1AF001500210D8A4AFEF1F
:1029580014F0B1EF14F00FEF15F0F30EE3CFD9FF39
:10296800F40EE3CFDAFFDECFF6FFDDCFF7FFF86A2C
:102978000800F550730AD8B4C4EF14F0C6EF14F089
:10298800D2EF14F0030E0B6E000E0C6EF70E0BC098
:10299800E3FFF80E0CC0E3FFDCEF14F0010E0B6E42
:1029A800000E0C6EF70E0BC0E3FFF80E0CC0E3FF31
:1029B800F70EE3CF0BF0F80EE3CF0CF0F30EE3CFF6
:1029C800D9FFF40EE3CFDAFF0B50DE260C50DD22E0
:1029D800F10EE3CFD9FFF20EE3CFDAFF020EDE5E8F
:1029E800000EDD5ADECF0BF0DDCF0CF00BC0D9FFA7
:1029F8000CC0DAFFDECF0BF0DDCF0CF00BC0E6FF2A
:102A08000CC0E6FFF30EE3CFE6FFE3CFE6FF30ECC2
:102A180019F05DEF16F0F30EE3CFD9FFF40EE3CF14
:102A2800DAFFDECF0BF0DDCF0CF0FE0E0CC0E3FFBB
:102A3800FD0E0BC0E3FFE150FD0FD96EE250DA6ED8
:102A4800FF0EDA22DECFF6FFDDCFF7FFF86A0800C7
:102A5800FF0EF5CFE3FF4DEF15F0FD0EE350010F2C
:102A6800016EFD0E01C0E3FF016AFE0EE350012076
:102A7800016EFE0E01C0E3FF67EF15F06C0E0C6EE1
:102A8800FF0E0CC0E3FF67EF15F0FF0EE36A67EF78
:102A980015F0FF0EE3500B6E0C6A0C50000AD8B408
:102AA80058EF15F049EF15F00B504C0AD8B431EF38
:102AB80015F02A0AD8B442EF15F00A0AD8B431EF53
:102AC80015F049EF15F0E150FD0FD96EE250DA6EBE
:102AD800FF0EDA22DECFF6FFDDCFF7FFF86A080037
:102AE800F550660AD8A47BEF15F07DEF15F039EFA5
:102AF80016F0CFEF15F0F10EE3CFD9FFF20EE3CFCA
:102B0800DAFF040EDE5E000EDD5ADECF0BF0DDCFFD
:102B18000CF00BC0D9FF0CC0DAFFDECF09F0DECF16
:102B28000AF0DECF0BF0DECF0CF0F90E09C0E3FFA0
:102B3800FA0E0AC0E3FFFB0E0BC0E3FFFC0E0CC04D
:102B4800E3FFE5EF15F0F10EE3CFD9FFF20EE3CF87
:102B5800DAFF040EDE5E000EDD5ADECF0BF0DDCFAD
:102B68000CF00BC0D9FF0CC0DAFFDECF09F0DECFC6
:102B78000AF0DECF0BF0DECF0CF0F90E09C0E3FF50
:102B8800FA0E0AC0E3FFFB0E0BC0E3FFFC0E0CC0FD
:102B9800E3FFE5EF15F0FF0EE3500B6E0C6A0C50E7
:102BA800000AD8B4DAEF15F0E5EF15F00B504C0A2F
:102BB800D8B4A7EF15F0200AD8B47FEF15F0E5EFE9
:102BC80015F0FD0EE350010F0B6EFE0EE3CF0CF077
:102BD800000E0C22F30EE3CFD9FFF40EE3CFDAFF99
:102BE8000BC0DEFF0CC0DDFF1BEF16F0E150FD0F40
:102BF800D96EE250DA6EFF0EDA22DECFF6FFDDCFB5
:102C0800F7FFF86A0800F550E66EF80EE3CFE6FF26
:102C1800E3CFE6FFE3CFE6FFE3CFE6FFF00EE3CF37
:102C2800E6FFE3CFE6FFB2EC00F05DEF16F0E1500F
:102C3800FD0FD96EE250DA6EFF0EDA22DECFF6FF14
:102C4800DDCFF7FFF86A0800F5500B6E0C6A0C50E0
:102C5800000AD8B432EF16F039EF16F00B50660AB6
:102C6800D8B4FAEF15F039EF16F0F30EE3CFD9FF29
:102C7800F40EE3CFDAFFDE2A000EDD225DEF16F058
:102C8800F50EE3CFE6FFE3CFE6FFF10EE3CFD9FF82
:102C9800F20EE3CFDAFFDECFF6FFDDCFF7FFF86AFB
:102CA8000800F550E66E000EE66ECCEC1EF039EF2B
:102CB80016F0F10EE126FF0EE22212000A0EE126BE
:102CC800000EE22229C009F02AC00AF02BC00BF03E
:102CD8002CC00CF0F60E09C0E3FFF70E0AC0E3FFA4
:102CE800F80E0BC0E3FFF90E0CC0E3FFF20EE3CFC2
:102CF80009F0F30EE3CF0AF0F40EE3CF0BF0F50E74
:102D0800E3CF0CF0F60E09C0E3FFF70E0AC0E3FFAD
:102D1800F80E0BC0E3FFF90E0CC0E3FF810E0B6E3B
:102D2800FF0E0C6EF60EE3CF05F0F70EE3CF06F0BC
:102D3800F80EE3CF07F0F90EE3CF08F0180EAAEF6C
:102D480016F0D8900832073206320532E82EA5EF81
:102D580016F005C009F006C00AF009500B24096EE8
:102D6800000E0C200A6EFE0E09C0E3FFFF0E0AC01B
:102D7800E3FFFF0EE3BECEEF16F0FF0EE3500CE1CB
:102D8800FE0EE3CF01F0170E015ED8A0CEEF16F0CD
:102D9800D0EF16F0DEEF16F0F20EE3CF01F0F30EEF
:102DA800E3CF02F0F40EE3CF03F0F50EE3CF04F027
:102DB800FBEF17F0FF0EE3BEE4EF16F0E6EF16F0B8
:102DC80097EF17F0FE0EE3CF0CF0FF0E056EFF0E27
:102DD800066E7F0E076E000E086E0C66F6EF16F094
:102DE800FEEF16F0083408320732063205320C2E90
:102DF800F1EF16F0FA0E05C0E3FFFB0E06C0E3FF85
:102E0800FC0E07C0E3FFFD0E08C0E3FFF60EE3CF9C
:102E180009F0F70EE3CF0AF0F80EE3CF0BF0F90E46
:102E2800E3CF0CF0FA0EE3500916FB0EE3500A1636
:102E3800FC0EE3500B16FD0EE3500C1609500A1059
:102E48000B100C10D8A42BEF17F02DEF17F02FEF65
:102E580017F0D0EF16F0F60EE3CF09F0F70EE3CF38
:102E68000AF0F80EE3CF0BF0F90EE3CF0CF0200ECA
:102E780043EF17F0D8900C320B320A320932E82EA1
:102E88003EEF17F00950D8B44CEF17F04EEF17F09B
:102E980072EF17F0F60EE350016EFA0EE3500126BA
:102EA800F60E01C0E3FFF70EE350016EFB0EE35090
:102EB8000122F70E01C0E3FFF80EE350016EFC0E8D
:102EC800E3500122F80E01C0E3FFF90EE350016E52
:102ED800FD0EE3500122F90E01C0E3FFFA0EE3CF25
:102EE80009F0FB0EE3CF0AF0FC0EE3CF0BF0FD0E6A
:102EF800E3CF0CF0091C056E0A1C066E0B1C076E4E
:102F08000C1C086EE150F60FD96EE250DA6EFF0E17
:102F1800DA220550DE160650DE160750DE16085077
:102F2800DE16EFEF17F0F60EE3CF09F0F70EE3CF5A
:102F38000AF0F80EE3CF0BF0F90EE3CF0CF0200EF9
:102F4800ABEF17F0D8900C320B320A320932E82E68
:102F5800A6EF17F00966BBEF17F0F60EE36AF70E57
:102F6800E36AF80EE36AF90EE36AEFEF17F0F60E7C
:102F7800E3CF09F0F70EE3CF0AF0F80EE3CF0BF03A
:102F8800F90EE3CF0CF0D8900934056E0A34066EBA
:102F98000B34076E0C34086E055006100710081025
:102FA800D8B4D9EF17F0DBEF17F0EFEF17F0000EFA
:102FB800096E000E0A6E800E0B6EBF0E0C6EF60EBA
:102FC80009C0E3FFF70E0AC0E3FFF80E0BC0E3FFEA
:102FD800F90E0CC0E3FFF60EE3CF01F0F70EE3CFD6
:102FE80002F0F80EE3CF03F0F90EE3CF04F0F20E8F
:102FF800E126FF0EE2221200050EE126000EE22273
:10300800FA0EE350D8B40BEF18F00DEF18F038EFC4
:1030180018F0F90EE3BE15EF18F013EF18F038EFBB
:1030280018F0F60EE3CF09F0F70EE3CF0AF0F80E2A
:10303800E3CF0BF0F90EE3CF0CF0091E0A1E0B1EAE
:103048000C1E092A000E0A220B220C22FB0E09C0B4
:10305800E3FFFC0E0AC0E3FFFD0E0BC0E3FFFE0E0C
:103068000CC0E3FF50EF18F0F60EE3CF09F0F70EAF
:10307800E3CF0AF0F80EE3CF0BF0F90EE3CF0CF034
:10308800FB0E09C0E3FFFC0E0AC0E3FFFD0E0BC0F8
:10309800E3FFFE0E0CC0E3FFF60EE3500DE1F70E62
:1030A800E3500AE1F80EE35007E1F90EE350D8A423
:1030B80060EF18F062EF18F06CEF18F0000E016E78
:1030C800000E026E000E036E000E046E2BEF19F058
:1030D800960E0C6EFF0E0CC0E3FF7EEF18F0FF0E8D
:1030E800E32AD890FE0EE332FD0EE332FC0EE33203
:1030F800FB0EE332E150FB0FD96EE250DA6EFF0EA1
:10310800DA22DE52DE52DE52FE0EDD14D8A48FEF34
:1031180018F091EF18F073EF18F0AAEF18F0FF0EFF
:10312800E32AE150FB0FD96EE250DA6EFF0EDA2285
:10313800DE2A000EDE22DE22DE22D890FE0EE332E8
:10314800FD0EE332FC0EE332FB0EE332E150FB0FDF
:10315800D96EE250DA6EFF0EDA22DE52DE52DE520D
:10316800FF0EDD14D8A4BBEF18F0BDEF18F093EFF5
:1031780018F0CAEF18F0FF0EE306D890FB0EE336FE
:10318800FC0EE336FD0EE336FE0EE336FD0EE3BE1F
:10319800D0EF18F0D2EF18F0DDEF18F0FF0EE3CF04
:1031A80001F0020E0160DBEF18F0DDEF18F0BFEF61
:1031B80018F0FF0EE3B0E3EF18F0E5EF18F0E7EFD3
:1031C80018F0FD0EE39EE150FF0FD96EE250DA6E63
:1031D800FF0EDA22D890DF32FF0EE3CF0CF00CC0DE
:1031E80005F0066A076A086A05C008F0076A066AF1
:1031F800056AE150FB0FD96EE250DA6EFF0EDA2253
:103208000550DE120650DE120750DE120850DE129C
:10321800FA0EE350D8B413EF19F015EF19F01FEFB9
:1032280019F0F90EE3BE1DEF19F01BEF19F01FEFAF
:1032380019F0FE0EE38EFB0EE3CF01F0FC0EE3CF98
:1032480002F0FD0EE3CF03F0FE0EE3CF04F0F60E1E
:10325800E126FF0EE2221200110EE126000EE22204
:1032680020EE47F0070E016EEF0EDECFE3FFE828F1
:10327800012EFBD7EB0EE3CF0BF0EC0EE3CF0CF0F7
:10328800FB0E0CC0E3FFFA0E0BC0E3FFFA0EE3CF10
:1032980001F0FB0EE3500110D8A455EF19F057EFD9
:1032A80019F063EF19F0EF0EE1240B6EFF0EE22028
:1032B8000C6EFB0E0CC0E3FFFA0E0BC0E3FFFA0E18
:1032C800E3CFE6FFE3CFE6FF63EC27F0F80E01C09B
:1032D800E3FFF90E02C0E3FFF60E37C0E3FFF70E77
:1032E80038C0E3FFF70EE3BE7CEF19F07EEF19F06C
:1032F800A4EF19F0E150F60FD96EE250DA6EFF0E26
:10330800DA22F80EE350DE5CDE50800A016EF90E18
:10331800E350800A0158D8A094EF19F096EF19F0FD
:1033280098EF19F0A4EF19F0F60EE3CF01F0F80EBC
:1033380001C0E3FFF70EE3CF01F0F90E01C0E3FF90
:10334800F80EE3CF01F0F60E01C0E3FFF90EE3CF6C
:1033580001F0F70E01C0E3FFFE0E35C0E3FFFF0EDC
:1033680036C0E3FFD2EF19F0ED0EE3CFE6FFE3CF6F
:10337800E6FF200EE66E000EE66ECCEC1EF0F80EB0
:10338800E350010F016EF80E01C0E3FF016AF90E68
:10339800E3500120016EF90E01C0E3FFE150F80F80
:1033A800D96EE250DA6EFF0EDA22FE0EE350DE5CD2
:1033B800DE50800A016EFF0EE350800A0158D8A043
:1033C800E8EF19F0EAEF19F0B8EF19F0FC0EE36A2C
:1033D800FD0EE36A1FEF1AF0ED0EE3CFE6FFE3CF31
:1033E800E6FFF80EE3CFD9FFF90EE3CFDAFFDF509F
:1033F800E66E000EE66ECCEC1EF0FA0EE350010FFE
:10340800016EFA0E01C0E3FF016AFB0EE3500120D2
:10341800016EFB0E01C0E3FFFC0EE350010F016ECD
:10342800FC0E01C0E3FF016AFD0EE3500120016EAE
:10343800FD0E01C0E3FFE150FC0FD96EE250DA6ED9
:10344800FF0EDA22F60EE350DE5CDE50800A016ED3
:10345800F70EE350800A0158D8A035EF1AF037EF7D
:103468001AF0F0EF19F0EB0EE126FF0EE22212003F
:10347800E652E652E652E652FA0EE3CF0BF0FB0EA6
:10348800E3CF0CF0FF0E0CC0E3FFFE0E0BC0E3FF12
:10349800F80EE3CF0BF0F90EE3CF0CF0FD0E0CC0E5
:1034A800E3FFFC0E0BC0E3FFF60EE3CF01F0010EC5
:1034B800015EF60E01C0E3FFF70EE3CF01F0000E48
:1034C800015AF70E01C0E3FFF60EE32807E1F70EF5
:1034D800E328D8A472EF1AF074EF1AF0A8EF1AF0E4
:1034E800000E016E000E026E27EF1BF0FE0EE35079
:1034F800010F016EFE0E01C0E3FF016AFF0EE350EB
:103508000120016EFF0E01C0E3FFFC0EE350010F26
:10351800016EFC0E01C0E3FF016AFD0EE3500120BD
:10352800016EFD0E01C0E3FFF60EE3CF01F0010EC0
:10353800015EF60E01C0E3FFF70EE3CF01F0000EC7
:10354800015AF70E01C0E3FFE150FE0FD96EE250B9
:10355800DA6EFF0EDA22DECFF6FFDDCFF7FFF86A6C
:103568000800F5500009D8B4BCEF1AF0BEEF1AF005
:1035780006EF1BF0E150FC0FD96EE250DA6EFF0E39
:10358800DA22DECFF6FFDDCFF7FFF86A0800F55044
:103598000009D8B4D2EF1AF0D4EF1AF006EF1BF0F6
:1035A800F60EE3CF01F0F70EE3500110D8B4DFEFC9
:1035B8001AF0E1EF1AF006EF1BF0E150FE0FD96E9A
:1035C800E250DA6EFF0EDA22DECFF6FFDDCFF7FF2C
:1035D800F86A0800F5CF0CF0E150FC0FD96EE25004
:1035E800DA6EFF0EDA22DECFF6FFDDCFF7FFF86ADC
:1035F8000800F5500C18D8B404EF1BF006EF1BF0C8
:103608007AEF1AF0E150FE0FD96EE250DA6EFF0E33
:10361800DA22DECFF6FFDDCFF7FFF86A0800F550B3
:10362800016E026AE150FC0FD96EE250DA6EFF0EAD
:10363800DA22DECFF6FFDDCFF7FFF86A0800F55093
:10364800015E000E025AF60EE126FF0EE22212007B
:10365800E652E652FA0EE3CF09F0FB0EE3CF0AF08A
:10366800FC0EE3CF0BF0FD0EE3CF0CF0180E42EF8B
:103678001BF0D8900C320B320A320932E82E3DEF9B
:103688001BF0FE0E09C0E3FFFE0EE350D8A44FEF77
:103698001BF051EF1BF058EF1BF0000E016E026A91
:1036A800036A046AFBEF1BF0FA0EE3CF09F0FB0E86
:1036B800E3CF0AF0FC0EE3CF0BF0FD0EE3CF0CF0E6
:1036C800200E6CEF1BF0D8900C320B320A32093204
:1036D800E82E67EF1BF0FF0E09C0E3FFFC0EE38E38
:1036E800E150FA0FD96EE250DA6EFF0EDA22FF0EC1
:1036F800DE16FF0EDE16FF0EDE16000EDE16FE0EBE
:10370800E3CF01F0960E015EFE0E01C0E3FFFE0E50
:10371800E3BE93EF1BF091EF1BF0B4EF1BF0FE0E2E
:10372800E350800A970FD8B09CEF1BF09EEF1BF078
:10373800A0EF1BF051EF1BF0D890FD0EE332FC0E0A
:10374800E332FB0EE332FA0EE332FE0EE32AD8A48C
:10375800B0EF1BF0B2EF1BF0A0EF1BF0D5EF1BF0A2
:10376800FE0EE3CF01F01F0E0164BDEF1BF0BFEFAB
:103778001BF0CCEF1BF051EF1BF0D890FA0EE3369C
:10378800FB0EE336FC0EE336FD0EE336FE0EE306D3
:10379800FE0EE350D8A4D3EF1BF0D5EF1BF0C1EF1A
:1037A8001BF0FF0EE350D8B4DCEF1BF0DEEF1BF08C
:1037B800EFEF1BF0FA0EE36CFB0EE31EFC0EE31EAC
:1037C800FD0EE31E08E3FB0EE32A05E3FC0EE32AE5
:1037D80002E3FD0EE32AFA0EE3CF01F0FB0EE3CF7E
:1037E80002F0FC0EE3CF03F0FD0EE3CF04F0FA0E77
:1037F800E126FF0EE2221200060EE126000EE2226A
:103808002DC009F02EC00AF02FC00BF030C00CF00C
:10381800FA0E09C0E3FFFB0E0AC0E3FFFC0E0BC063
:10382800E3FFFD0E0CC0E3FFF60EE3CF09F0F70E41
:10383800E3CF0AF0F80EE3CF0BF0F90EE3CF0CF06C
:10384800FA0E09C0E3FFFB0E0AC0E3FFFC0E0BC033
:10385800E3FFFD0E0CC0E3FFFA0EE3CF09F0FB0E09
:10386800E3CF0AF0FC0EE3CF0BF0FD0EE3CF0CF034
:10387800180E44EF1CF0D8900C320B320A32093281
:10388800E82E3FEF1CF009C007F00AC008F0FF0E51
:103898000716000E0816FE0E07C0E3FFFF0E08C04D
:1038A800E3FFFE0EE3CF01F0FF0EE3500110D8A4B2
:1038B80060EF1CF062EF1CF08EEF1CF0FA0EE3CF05
:1038C80009F0FB0EE3CF0AF0FC0EE3CF0BF0FD0E80
:1038D800E3CF0CF0D8900934056E0A34066E0B3429
:1038E800076E0C34086E0550061007100810D8A48F
:1038F80080EF1CF082EF1CF088EF1CF0020E016EC6
:10390800000E026EC4EF1CF0030E016E000E026E74
:10391800C4EF1CF0FE0EE32807E1FF0EE350D8A425
:1039280098EF1CF09AEF1CF0C0EF1CF0FA0EE3CFF2
:1039380009F0FB0EE3CF0AF0FC0EE3CF0BF0FD0E0F
:10394800E3CF0CF0090ED89009360A360B360C3640
:10395800E82EA7EF1CF009500A100B100C10D8B471
:10396800B8EF1CF0BBEF1CF0010EBCEF1CF0000E12
:10397800016E026AC4EF1CF0040E016E000E026EA6
:10398800F60EE126FF0EE2221200E150FC0FD96E7E
:10399800E250DA6EFF0EDA22000EDE14096E000E17
:1039A800DE140A6E800EDE140B6E7F0EDE140C6EB3
:1039B80009500A100B100C10D8A4E5EF1CF0E7EF23
:1039C8001CF0EFEF1CF0FC0EE36AFD0EE36AFE0E3E
:1039D800E36AFF0EE36AE150F80FD96EE250DA6E3F
:1039E800FF0EDA22000EDE14096E000EDE140A6ED7
:1039F800800EDE140B6E7F0EDE140C6E09500A105A
:103A08000B100C10D8A40BEF1DF00DEF1DF015EFE7
:103A18001DF0F80EE36AF90EE36AFA0EE36AFB0E8C
:103A2800E36AFF0EE3AE1BEF1DF01DEF1DF03DEF47
:103A38001DF0000E096E000E0A6E000E0B6E800E51
:103A48000C6EFC0EE350095EFD0EE3500A5AFE0EA2
:103A5800E3500B5AFF0EE3500C5AFC0E09C0E3FF6B
:103A6800FD0E0AC0E3FFFE0E0BC0E3FFFF0E0CC005
:103A7800E3FFFB0EE3AE43EF1DF045EF1DF065EFEE
:103A88001DF0000E096E000E0A6E000E0B6E800E01
:103A98000C6EF80EE350095EF90EE3500A5AFA0E5E
:103AA800E3500B5AFB0EE3500C5AF80E09C0E3FF23
:103AB800F90E0AC0E3FFFA0E0BC0E3FFFB0E0CC0C1
:103AC800E3FFFF0EE37EFB0EE37EE150FC0FD96EB1
:103AD800E250DA6EFF0EDA22F80EE350DE5CF90EE1
:103AE800E350DE58FA0EE350DE58FB0EE350DE5882
:103AF800D8B081EF1DF083EF1DF086EF1DF0019027
:103B080087EF1DF00180F80EE126FF0EE222120079
:103B1800110EE126000EE22213EF1EF0490EE66EAA
:103B2800FE0EE66E010EE66EDCEC21F03C0EE66E53
:103B3800FF0EE66E020EE66E72EC28F031EF1EF014
:103B4800800EE66EFF0EE66E020EE66E72EC28F050
:103B5800C5EC28F031EF1EF04E0EE66E460EE66E0E
:103B6800EB0EE3CFE6FFE3CFE6FF9DEC28F031EF65
:103B78001EF0000EE66E400EE66E4E0EE66E400E2D
:103B8800E66E050EE66E44EC28F001C00BF002C0AC
:103B98000CF00B50056E0C50066E076A086A05C0DB
:103BA800E6FF06C0E6FF07C0E6FF08C0E6FF000E16
:103BB800E66E00EC18F001C0E6FF02C0E6FF03C0A5
:103BC800E6FF04C0E6FFE9EC0CF001C0E6FF02C026
:103BD800E6FF03C0E6FF04C0E6FF620EE66EFE0ED7
:103BE800E66EE90EE124016EFF0EE220026E01C0CE
:103BF800E6FF02C0E6FF080EE66E94EC23F0EF0E37
:103C0800E124016EFF0EE220026E01C0E6FF02C051
:103C1800E6FF020EE66EDCEC21F031EF1EF0EC0E52
:103C2800E3500B6E0C6A0C50000AD8B41EEF1EF05D
:103C380031EF1EF00B50010AD8B492EF1DF0030AC1
:103C4800D8B4A4EF1DF0040AD8B4B0EF1DF00E0AE2
:103C5800D8B4BDEF1DF031EF1EF0EC0EE126FF0EDB
:103C6800E2221200FACF3CF0FBCF3DF0E1CF3EF06C
:103C7800E2CF3FF0D9CF40F0DACF41F001C042F0B7
:103C880009C043F00AC044F00BC045F00CC046F030
:103C980015EEBCF09EA053EF1EF055EF1EF065EF39
:103CA8001EF09DA05AEF1EF05CEF1EF065EF1EF0AF
:103CB800080EE66EEBEC29F0D80ECF6EEF0ECE6E46
:103CC8009E907EA46AEF1EF06CEF1EF092EF1EF03D
:103CD8007DA471EF1EF073EF1EF092EF1EF0FF0E41
:103CE8003126FF0E3222FF0E3322FF0E342234BE5D
:103CF8008AEF1EF034503310321006E13104D8B088
:103D080088EF1EF08AEF1EF090EF1EF0070EE66EA9
:103D1800EBEC29F00F014A958A7A7E949EAA97EFD8
:103D28001EF099EF1EF0B5EF1EF09DAA9EEF1EF053
:103D3800A0EF1EF0B5EF1EF039503A10D8B4A7EF37
:103D48001EF0A9EF1EF0B5EF1EF002D8B5EF1EF079
:103D58000500FA6E3950FD6E3A50FE6EFF6AFA5051
:103D6800120046C00CF045C00BF044C00AF043C036
:103D780009F042C001F041C0DAFF40C0D9FF3FC09E
:103D8800E2FF3EC0E1FF3DC0FBFF3CC0FAFF11006F
:103D9800FC0EE3CF01F0FD0EE3500110D8B4D7EFCD
:103DA8001EF0D9EF1EF0E6EF1EF0FC0EE3CF01F097
:103DB800FD0EE3500110D8A4E4EF1EF0E6EF1EF06C
:103DC800EDEF1EF0FE0EE350E66EDFEC29F05BEF40
:103DD8001FF0FC0EE3CF0BF0FD0EE3CF0CF00A0E44
:103DE8000B24D96E000E0C20DA6EDE50DE10D8B42B
:103DF80000EF1FF002EF1FF029EF1FF0FC0EE3CFDA
:103E08000BF0FD0EE3CF0CF00A0E0B24D96E000E5A
:103E18000C20DA6EFC0EE3CF0BF0FD0EE3CF0CF0B6
:103E2800030E0B24E96E000E0C20EA6EDE50EE5CE9
:103E3800EE50800A016EDE50800A0158D8B027EF94
:103E48001FF029EF1FF05BEF1FF0FC0EE3CF0BF024
:103E5800FD0EE3CF0CF0030E0B24D96E000E0C20E0
:103E6800DA6EDECF0BF0DDCF0CF0FC0EE3CFD9FF1E
:103E7800FD0EE3CFDAFFDECF09F0DDCF0AF00B50FD
:103E88000924D96E0C500A20DA6EFE0EE3CFDFFF4C
:103E9800FC0EE3CF0BF0FD0EE3CF0CF0030E0B246A
:103EA800D96E000E0C20DA6EDE2A000EDD22E552F5
:103EB800E552E552E5521200E652E652E652FE0E8F
:103EC800E36AFF0EE36AFB0EE3CFD9FFFC0EE3CFF4
:103ED800DAFFDECFF6FFDDCFF7FFF86A0800F5500E
:103EE8002A0AD8A47AEF1FF07CEF1FF0C6EF1FF064
:103EF800FB0EE3CFD9FFFC0EE3CFDAFFDE2A000E7C
:103F0800DD22F90EE3CFD9FFFA0EE3CFDAFF020E76
:103F1800DE5E000EDD5ADECF0BF0DDCF0CF00BC0FD
:103F2800D9FF0CC0DAFFDECF0BF0DDCF0CF0FE0EB0
:103F38000BC0E3FFFF0E0CC0E3FFE4EF1FF0FE0E23
:103F4800E3CF0BF0FF0EE3CF0CF00A0E0B02F3CF1A
:103F580009F0F4CF0AF00C02F3500A26FD0EE350E4
:103F68000926000E0A22FE0E09C0E3FFFF0E0AC052
:103F7800E3FFFB0EE3CFD9FFFC0EE3CFDAFFDE2A27
:103F8800000EDD22FB0EE3CFD9FFFC0EE3CFDAFFF4
:103F9800DECFF6FFDDCFF7FFF86A0800F5CF0CF0AB
:103FA800D00E0C26FD0E0CC0E3FFFD0EE3CF01F092
:103FB800090E0164E2EF1FF0E4EF1FF0A3EF1FF01A
:103FC800FE0EE3CF01F0FF0EE3CF02F0F90EE1267B
:103FD800FF0EE2221200E652F6EF1FF0000E016E0D
:103FE80072EF20F0FD0EE3CF0BF0FE0EE3CF0CF0E6
:103FF800200E0B24D96E000E0C20DA6EDF501F0B3A
:104008000C6EFD0EE3CF09F0FE0EE3CF0AF0210E91
:104018000924D96E000E0A20DA6EDF501F0B0C1827
:10402800D8B419EF20F01BEF20F0F2EF1FF0F2BE2A
:1040380020EF20F024EF20F00C6A0C2A25EF20F066
:104048000C6A010E0C16FF0E0CC0E3FFF29EFD0E6B
:10405800E3CF0BF0FE0EE3CF0CF0210E0B24D96E4C
:10406800000E0C20DA6EDF501F0B0C6EFD0EE3CF36
:1040780009F0FE0EE3CF0AF00C500924D96E000EA9
:104088000A20DA6EFB0EE3CFE9FFFC0EE3CFEAFF6E
:10409800DFCFEFFFFD0EE3CF0BF0FE0EE3CF0CF00A
:1040A800210E0B24D96E000E0C20DA6EDF501F0B88
:1040B8000C6E0C2ADF500C18E00B0C18DF6EFF0E8C
:1040C800E3CF0CF00C30D8B06CEF20F06FEF20F09D
:1040D800F28E70EF20F0F29E010E016EFB0EE126CB
:1040E800FF0EE22212000F013B913B9395809582CF
:1040F800929089806C50F00B08096C6E130E6E6EEE
:104108006C8A340E016EF20EE82EFED7012EFCD713
:104118006B806BB092EF20F094EF20F08DEF20F0E1
:10412800A49E7C0EE66EA2EC29F0800EE66EA2EC50
:1041380029F0380EE66EA2EC29F0800EE66EA2ECAD
:1041480029F0390EE66EA2EC29F0800EE66EA2EC9C
:1041580029F0170EE66EA2EC29F0800EE66EA2ECAE
:1041680029F07A0EE66EA2EC29F0800EE66EA2EC3B
:1041780029F05E0EE66EA2EC29F0800EE66EA2EC47
:1041880029F06B0EE66EA2EC29F0800EE66EA2EC2A
:1041980029F00C0EE66EA2EC29F0800EE66EA2EC79
:1041A80029F0010EE66EA2EC29F0800EE66EA2EC74
:1041B80029F0060EE66EA2EC29F0800EE66EA2EC5F
:1041C80029F0020EE66EA2EC29F06B846BB4EFEFD7
:1041D80020F0F1EF20F0EAEF20F0340E016EF20E3D
:1041E800E82EFED7012EFCD71200E150FC0FD96E45
:1041F800E250DA6EFF0EDA22000EDE14096E000EAF
:10420800DE140A6E800EDE140B6E7F0EDE140C6E4A
:1042180009500A100B100C10D8A415EF21F017EF55
:1042280021F01FEF21F0FC0EE36AFD0EE36AFE0E9B
:10423800E36AFF0EE36AE150F80FD96EE250DA6ED6
:10424800FF0EDA22000EDE14096E000EDE140A6E6E
:10425800800EDE140B6E7F0EDE140C6E09500A10F1
:104268000B100C10D8A43BEF21F03DEF21F045EFE7
:1042780021F0F80EE36AF90EE36AFA0EE36AFB0E20
:10428800E36AE150FC0FD96EE250DA6EFF0EDA22D3
:10429800F80EE350DE1812E1F90EE350DE180EE1D5
:1042A800FA0EE350DE180AE1FB0EE350DE18D8B42C
:1042B80060EF21F062EF21F065EF21F0019066EFE9
:1042C80021F00180F80EE126FF0EE2221200050E11
:1042D800E126000EE222F70EE3CF0BF0F80EE3CF53
:1042E8000CF0FC0E0CC0E3FFFB0E0BC0E3FFF90E55
:1042F800E3CF0BF0FA0EE3CF0CF0FE0E0CC0E3FF99
:10430800FD0E0BC0E3FFBBEF21F0FB0EE3CFD9FF9F
:10431800FC0EE3CFDAFFDF500C6EFF0E0CC0E3FF9C
:10432800FB0EE350010F016EFB0E01C0E3FF016AB3
:10433800FC0EE3500120016EFC0E01C0E3FFFD0EF0
:10434800E3CFD9FFFE0EE3CFDAFFFF0EE3CFDFFFA7
:10435800FD0EE350010F016EFD0E01C0E3FF016A7F
:10436800FE0EE3500120016EFE0E01C0E3FFF50EC4
:10437800E3CF01F0010E015EF50E01C0E3FFF60E7A
:10438800E3CF01F0000E015AF60E01C0E3FFF50E6F
:10439800E32807E1F60EE328D8A4D5EF21F0D7EFFC
:1043A80021F089EF21F0F50EE126FF0EE22212003E
:1043B800E6526B806BB0E3EF21F0E5EF21F0DEEF22
:1043C80021F0A49E7C0EE66EA2EC29F0800EE66E2B
:1043D800A2EC29F0FE0EE304D8A4F5EF21F0F7EFE4
:1043E80021F0FDEF21F0800EE66EA2EC29F00DEF32
:1043F80022F0FE0EE3CF01F0020E0118D8A407EF59
:1044080022F009EF22F00DEF22F0C00EE66EA2ECCA
:1044180029F0400EE66EA2EC29F0FF0EE36AFF0ECB
:10442800E3500B6E0C6AFC0EE3500B26FD0EE350B6
:104438000C220BC0F6FF0CC0F7FF000EF86E0F0E33
:10444800F76403D00800F55005D0F6CFE9FFF7CFA1
:10445800EAFFEF50E66EA2EC29F0FF0EE32AFF0E0A
:10446800E3CF01F00F0E01643CEF22F03EEF22F0A3
:1044780013EF22F06B846BB444EF22F046EF22F086
:104488003FEF22F0E552E552E552E552120093EF74
:1044980022F0BC0EE66EFE0EE66E010EE66EDCEC59
:1044A80021F0D20EE66EFE0EE66E020EE66EDCEC33
:1044B80021F0F40EE66E010EE66E000EE66E000EBA
:1044C800E66E8BEC29F0B5EF22F0BC0EE66EFF0E1F
:1044D800E66E020EE66E72EC28F08C8CC5EC28F0C5
:1044E800B5EF22F04E0EE66E460EE66EFC0EE3CFFA
:1044F800E6FFE3CFE6FF9DEC28F0B5EF22F0580E7B
:10450800E66E4A0EE66EFC0EE3CFE6FFE3CFE6FF6B
:104518009DEC28F0B5EF22F08C7C5DEF22F0FD0ECB
:10452800E3500B6E0C6A0C50000AD8B49EEF22F0D0
:10453800B5EF22F00B50010AD8B44DEF22F0030A70
:10454800D8B469EF22F0010AD8B476EF22F0070A4E
:10455800D8B483EF22F0030AD8B490EF22F0B5EF75
:1045680022F0E552E552E5521200FF0EE3A0BFEF3C
:1045780022F0C3EF22F00C6A0C2AC4EF22F00C6A76
:104588000C3A0C460C468C500C18BF0B0C188C6E51
:10459800FF0EE3A2D2EF22F0D6EF22F00C6A0C2A2B
:1045A800D7EF22F00C6A0C3A0C468C500C18DF0B33
:1045B8000C188C6EFF0EE3A4E4EF22F0E8EF22F073
:1045C8000C6A0C2AE9EF22F00C6A0C3A8C500C1891
:1045D800EF0B0C188C6EFF0EE3A6F5EF22F0F9EF47
:1045E80022F00C6A0C2AFAEF22F00C6A0C3A8B5073
:1045F8000C18EF0B0C188B6EFF0EE3A806EF23F0D8
:104608000AEF23F00C6A0C2A0BEF23F00C6A0C4615
:104618000C460C468C500C18F70B0C188C6EFF0EC1
:10462800E3AA19EF23F01DEF23F00C6A0C2A1EEF02
:1046380023F00C6A0C460C468C500C18FB0B0C181B
:104648008C6EE55212006EEF23F0E80EE66EFE0E59
:10465800E66E010EE66EDCEC21F0FE0EE66EFE0E56
:10466800E66E020EE66EDCEC21F090EF23F0CA0E47
:10467800E66EFF0EE66E020EE66E72EC28F0C5ECF2
:1046880028F090EF23F0900EE66E490EE66EFC0ED1
:10469800E3CFE6FFE3CFE6FF9DEC28F090EF23F0B1
:1046A800960EE66E440EE66EFC0EE3CFE6FFE3CF11
:1046B800E6FF9DEC28F090EF23F0180EE66E3B0E17
:1046C800E66EFC0EE3CFE6FFE3CFE6FF9DEC28F0B5
:1046D80090EF23F0FD0EE3500B6E0C6A0C50000AAD
:1046E800D8B479EF23F090EF23F00B50010AD8B437
:1046F80029EF23F0030AD8B43BEF23F0010AD8B41A
:1047080047EF23F0070AD8B454EF23F0010AD8B4CE
:1047180061EF23F090EF23F0E552E552E5521200E5
:104728000E0EE126000EE222ED0EE1240B6EFF0EC6
:10473800E2200C6EFF0E0CC0E3FFFE0E0BC0E3FF81
:10474800EF0EE3CF0BF0F00EE3CF0CF0F30E0CC03E
:10475800E3FFF20E0BC0E3FFF50EE124D96EFF0E66
:10476800E220DA6EDE6ADD6AFC0EE124D96EFF0E05
:10477800E220DA6EDE6ADD6AFE0EE124016EFF0ECB
:10478800E220026E01C0E6FF02C0E6FFEB0EE3CFB7
:10479800E6FFE3CFE6FFEE0EE124016EFF0EE22016
:1047A800026E01C0E6FF02C0E6FF1EEC27F0F50E20
:1047B800E124D96EFF0EE220DA6EDECF0BF0DDCFFA
:1047C8000CF0EF0EE3CF09F0F00EE3CF0AF00B5038
:1047D8000924D96E0C500A20DA6EDF6AF20EE1263F
:1047E800FF0EE222E552E750E15E000EE25A1200A7
:1047F800E652E652E652E652F70EE3BE06EF24F022
:1048080008EF24F016EF24F0F60EE3CF01F0FC0ECB
:1048180001C0E3FFF70EE3CF01F0FD0E01C0E3FF97
:104828001AEF24F0FC0EE36AFD0EE36AFE0EE36A5B
:10483800FF0EE36A3AEF24F0FA0EE3CFE6FFE3CF88
:10484800E6FF200EE66E000EE66ECCEC1EF0FE0EC5
:10485800E350010F016EFE0E01C0E3FF016AFF0E77
:10486800E3500120016EFF0E01C0E3FFE150FE0F8F
:10487800D96EE250DA6EFF0EDA22FC0EE350DE5CEF
:10488800DE50800A016EFD0EE350800A0158D8A060
:1048980050EF24F052EF24F020EF24F0FA0EE3CF8B
:1048A800E6FFE3CFE6FFF60EE3CFE6FFE3CFE6FF52
:1048B800D5EC26F0F60EE126FF0EE2221200A6EF56
:1048C80024F02A0EE66EFF0EE66E020EE66E72EC1D
:1048D80028F0790EE66EFE0EE66E010EE66EDCEC52
:1048E80021F09F0EE66EFF0EE66E020EE66E72EC8B
:1048F80028F0C4EF24F05E0EE66EFF0EE66E020EA0
:10490800E66E72EC28F0C5EC28F0C4EF24F0900EA7
:10491800E66E490EE66EFC0EE3CFE6FFE3CFE6FF58
:104928009DEC28F0C4EF24F0D20EE66E000EE66E81
:10493800E60EE66EFF0EE66E040EE66E72EC28F0EA
:10494800C4EF24F0FD0EE3500B6E0C6A0C50000A05
:10495800D8B4B1EF24F0C4EF24F00B50010AD8B456
:1049680065EF24F0030AD8B47FEF24F0040AD8B422
:104978008BEF24F00F0AD8B498EF24F0C4EF24F09A
:10498800E552E552E55212000AEF25F0900EE66E68
:10499800FF0EE66E020EE66E72EC28F0D20EE66EA0
:1049A800FE0EE66E010EE66EDCEC21F0140EE66EED
:1049B800FF0EE66E020EE66EDCEC21F028EF25F025
:1049C800D80EE66EFF0EE66E020EE66E72EC28F06A
:1049D800C5EC28F028EF25F04E0EE66E460EE66E82
:1049E800FC0EE3CFE6FFE3CFE6FF9DEC28F028EFCF
:1049F80025F0C60EE66E480EE66EFC0EE3CFE6FF27
:104A0800E3CFE6FF9DEC28F028EF25F0FD0EE350FC
:104A18000B6E0C6A0C50000AD8B415EF25F028EF7D
:104A280025F00B50010AD8B4CAEF24F0030AD8B411
:104A3800E4EF24F0060AD8B4F0EF24F0010AD8B461
:104A4800FDEF24F028EF25F0E552E552E55212007B
:104A580065EF25F0900EE66EFE0EE66E010EE66E30
:104A6800DCEC21F0A60EE66EFE0EE66E020EE66E99
:104A7800DCEC21F03B6A83EF25F0000EE66EB9EC22
:104A880022F0AE0EE66EFF0EE66E020EE66E72ECD9
:104A980028F083EF25F0960EE66E440EE66EFC0EC7
:104AA800E3CFE6FFE3CFE6FF9DEC28F083EF25F0A8
:104AB8003B283F0B3B6E3B50E66EB9EC22F083EF90
:104AC80025F0FD0EE3500B6E0C6A0C50000AD8B4AA
:104AD80070EF25F083EF25F00B50010AD8B42EEFC4
:104AE80025F0030AD8B441EF25F0010AD8B44FEFF6
:104AF80025F0060AD8B45CEF25F083EF25F0E552DF
:104B0800E552E5521200E652E652E652050E026EF2
:104B18000F0E016EF10EE82EFED7012EFCD7022EE5
:104B2800FAD700F014EC28F0D3EC29F0B6EC29F011
:104B380077EC20F0F28CF28EBA84CD80BE0EE66E51
:104B48004F0EE66EF6EC29F0FF0EE36A140EE66EE1
:104B58004D0EE66EFB0EE124016EFF0EE220026EA2
:104B680001C0E6FF02C0E6FF51EC29F0FF0EE12488
:104B7800016EFF0EE220026E01C0E6FF02C0E6FFF2
:104B8800C5EC29F00150D8B4CCEF25F0CEEF25F0D4
:104B9800BAEF25F0FF0EE350E66EFC0EE124016E3D
:104BA800FF0EE220026E01C0E6FF02C0E6FF10EC35
:104BB80029F0BAEF25F0AEEF00F0E652F2BEE7EFCB
:104BC80025F0EBEF25F00C6A0C2AECEF25F00C6AC7
:104BD800010E0C16FF0E0CC0E3FFF29EFD0EE3CF94
:104BE8000BF0FE0EE3CF0CF0200E0B24D96E000E56
:104BF8000C20DA6EDF501F0B0C6EFD0EE3CF09F0B0
:104C0800FE0EE3CF0AF00C500924D96E000E0A20DC
:104C1800DA6EFC0EE3CFDFFFFD0EE3CF0BF0FE0EE6
:104C2800E3CF0CF0200E0B24D96E000E0C20DA6EA8
:104C3800DF501F0B0C6E0C2ADF500C18E00B0C1801
:104C4800DF6EFF0EE3CF0CF00C30D8B02EEF26F05D
:104C580031EF26F0F28E32EF26F0F29EE552E55261
:104C6800E552E5521200E652E652E652E652F80ED6
:104C7800E3CF0BF0F90EE3CF0CF0FF0E0CC0E3FF0F
:104C8800FE0E0BC0E3FFFA0EE3CF0BF0FB0EE3CFF3
:104C98000CF0FD0E0CC0E3FFFC0E0BC0E3FFE1506F
:104CA800FE0FD96EE250DA6EFF0EDA22DFCF0BF07C
:104CB800010EDE26DFCF0CF0000EDD220BC0F6FF62
:104CC8000CC0F7FFF86AE150FC0FD96EE250DA6EBB
:104CD800FF0EDA22DFCF0BF0010EDE26DFCF0CF05D
:104CE800000EDD220BC0D9FF0CC0DAFF0800F5CF9B
:104CF800DFFFDF50D8A483EF26F085EF26F053EFCF
:104D080026F0F80EE126FF0EE2221200B7EF26F099
:104D18006F0EE66EFF0EE66E010EE66EDCEC21F01D
:104D2800B80EE66E0B0EE66E000EE66E000EE66E30
:104D38008BEC29F0D1EF26F04D0EE66EFF0EE66EF5
:104D4800020EE66E72EC28F0D1EF26F0580EE66EF1
:104D58004A0EE66EFC0EE3CFE6FFE3CFE6FF9DECDE
:104D680028F0D1EF26F0FD0EE3500B6E0C6A0C50C4
:104D7800000AD8B4C2EF26F0D1EF26F00B50010A92
:104D8800D8B48CEF26F0030AD8B4A0EF26F0050AB1
:104D9800D8B4AAEF26F0D1EF26F0E552E552E55255
:104DA8001200E652E652E652FD0EE36AFE0EE36A90
:104DB800F9EF26F0F90EE3CFE6FFE3CFE6FFFD0EAD
:104DC800E350E66E000EE66ECCEC1EF0FD0EE350EE
:104DD800010F016EFD0E01C0E3FF016AFE0EE350F4
:104DE8000120016EFE0E01C0E3FFFD0EE3CF0BF0C4
:104DF800FE0EE3CF0CF0FB0EE3CF09F0FC0EE3CF81
:104E08000AF00B500924D96E0C500A20DA6EDF50D4
:104E18000C6EFF0E0CC0E3FFFF0EE350D8A417EF93
:104E280027F019EF27F0DEEF26F0F90EE126FF0E46
:104E3800E2221200E652E652FA0EE3CF0BF0FB0E26
:104E4800E3CF0CF0FF0E0CC0E3FFFE0E0BC0E3FF38
:104E580044EF27F0F80EE3CFE6FFE3CFE6FFFC0EC2
:104E6800E124016EFF0EE220026E01C0E6FF02C0DF
:104E7800E6FFF80EE3CFE6FFE3CFE6FF27EC14F0FA
:104E8800E150FE0FD96EE250DA6EFF0EDA22DECF65
:104E9800F6FFDDCFF7FFF86A0800F5500009D8A43F
:104EA80058EF27F05AEF27F02EEF27F0000E016E8B
:104EB800000E026EF80EE126FF0EE2221200E65204
:104EC800E652FC0EE3CF0BF0FD0EE3CF0CF0FF0E25
:104ED8000CC0E3FFFE0E0BC0E3FF82EF27F0FC0ED1
:104EE800E350010F016EFC0E01C0E3FF016AFD0EE5
:104EF800E3500120016EFD0E01C0E3FFFC0EE3CF7D
:104F0800D9FFFD0EE3CFDAFFDF50D8A48EEF27F0EC
:104F180090EF27F073EF27F0FC0EE3CF01F0FD0EC2
:104F2800E3CF02F0FE0EE350015EFF0EE350025A9B
:104F3800E552E552E552E5521200FF0EE3BEB7EF27
:104F480027F0FF0EE3500DE1FE0EE3500AE1FD0EDF
:104F5800E35007E1FC0EE304D8B0B5EF27F0B7EF54
:104F680027F0CEEF27F0FC0EE3CF01F0FD0EE3CFE4
:104F780002F0FE0EE3CF03F0FF0EE3CF04F0011EB4
:104F8800021E031E041E012A000E0222032204220E
:104F9800DAEF27F0FC0EE3CF01F0FD0EE3CF02F0CD
:104FA800FE0EE3CF03F0FF0EE3CF04F0E552E55227
:104FB800E552E5521200E652FF0EAECFE3FFFF0EB8
:104FC800E3CF01F00A0E0118D8B4EDEF27F0EFEFA8
:104FD80027F005EF28F0D20E0001F225D96EDA6A23
:104FE800000EDA22FF0EE3CFDFFFF22B1F0EF26571
:104FF80000EF28F002EF28F012EF28F0F26B12EF22
:1050080028F0D20E0001F225D96EDA6A000EDA22F3
:10501800DF6AF26B090EE66EEBEC29F0E55212003E
:10502800948092889286928495949596949895986F
:10503800959A959C939A0F01386B8C848C868B88F3
:105048008C888C8A8C8C030EBA12BA50870B48094C
:10505800BA6EFA0EBB6E9F929D829E92030E4A1301
:105068004A51870B20094A6F640E4B6F7D847E94EA
:105078003F0ECD16300ECD129D809E90D08E120020
:10508800E652E652FD0EE3CF0CF00C460C46C25039
:105098000C18830B0C18C26EC282C2B256EF28F0ED
:1050A80058EF28F051EF28F0C350C4CF01F0026A3E
:1050B80001C002F0016A0112000E0212FE0E01C0C8
:1050C800E3FFFF0E02C0E3FFFE0EE3CF01F0FF0E89
:1050D800E3CF02F0E552E552E5521200E652E652FD
:1050E800FB0EE1240B6EFF0EE2200C6EFF0E0CC0CF
:1050F800E3FFFE0E0BC0E3FFFE0EE124016EFF0E80
:10510800E220026E01C0E6FF02C0E6FFF90EE3CF1F
:10511800E6FFE3CFE6FF000EE66E000EE66E1EEC3D
:1051280027F0E552E552E552E750E15E000EE25AFB
:105138001200020EE66EFD0EE3CFE6FFE3CFE6FFB8
:1051480010EC29F0E150FC0FD96EE250DA6EFF0E38
:10515800DA22FE0EE3CFE9FFFF0EE3CFEAFFDECF50
:10516800EEFFDDCFEDFF010EE66EFD0EE3CFE6FFAD
:10517800E3CFE6FF10EC29F0E552E552E552E5529F
:1051880012006B806BB0CBEF28F0CDEF28F0C6EFA4
:1051980028F0A49E7C0EE66EA2EC29F0800EE66E46
:1051A800A2EC29F0010EE66EA2EC29F06B846BB438
:1051B800E0EF28F0E2EF28F0DBEF28F0060E016EB2
:1051C800300EE82EFED7012EFCD700D01200FC0EC0
:1051D800E3500FE1FD0EE3500CE1FE0EE35009E150
:1051E800FF0EE350D8B4FBEF28F0FDEF28F0FFEFF7
:1051F80028F0FF0EE37EFC0EE3CF01F0FD0EE3CFB7
:1052080002F0FE0EE3CF03F0FF0EE3CF04F0E55209
:10521800E552E552E5521200FD0EE350E66EFD0E32
:10522800E3CFE6FFE3CFE6FFFB0EE3CFD9FFFC0EAB
:10523800E3CFDAFFDECF0BF0DDCF0CF002D82EEF94
:1052480029F00500FA6E0B50FD6E0C50FE6EFF6AD9
:10525800FA501200E552E552E5521200FE0EF66EC3
:10526800530EF76E000EF86E00EE47F020EE07F0D2
:105278000900F5CFEEFFDD50D950FAE100EE60F0FD
:10528800930EEE6AE806FDE100EE21F01B0EEE6AD1
:10529800E806FDE1000187EF25F0E150FC0FD96E2B
:1052A800E250DA6EFF0EDA22FE0EE3CFE9FFFF0EC0
:1052B800E3CFEAFFDECFEEFFDDCFEDFF010EE66EB6
:1052C800FD0EE3CFE6FFE3CFE6FF10EC29F0E55251
:1052D800E552E552E5521200FB0EE37EF80EE3CFED
:1052E800E6FFE3CFE6FFE3CFE6FFE3CFE6FFF80E06
:1052F800E3CFE6FFE3CFE6FFE3CFE6FFE3CFE6FF4A
:1053080077EC08F0F80EE126FF0EE2221200E150D9
:10531800FC0FD96EE250DA6EFF0EDA22DECF31F0E2
:10532800DECF32F0DECF33F0DECF34F00F014C6B3E
:105338004A85E552E552E552E5521200FF0EE3CFE9
:105348006FFF6DB0AAEF29F0ACEF29F0A5EF29F0B7
:10535800A4AEB1EF29F0B3EF29F0ACEF29F0A49E89
:10536800E55212000F01388B010E3C6FC08EC05001
:10537800F80B0609C06EC050C70B3009C06EC2805A
:105388001200FE0EE3CFE6FFE3CFE6FFB00EE66EB7
:10539800000EE66EEFEC1FF0E552E5521200948C19
:1053A800948E0F013A9F330EAF6EAC98AB8EAC8AD9
:1053B800AB889D8A12009EA8E4EF29F0E6EF29F059
:1053C800DFEF29F0FF0EE3CFADFFE5521200FF0E2D
:1053D800E350E66EB00EE66E000EE66EE1EC25F0E8
:1053E800E5521200FE0EE3CF39F0FF0EE3CF3AF09C
:0D53F800E552E5521200286E756C6C29001C
:10FE480000506F74656E63696F6D6574723A202037
:10FE580020202020202020202000504F543A202508
:10FE68002E3166206D5620202020202020202020A2
:10FE7800005A6164656A207A70726176753A20204A
:10FE880020202020202020003E3E3E205374617414
:10FE98006531202020202020202020202000202024
:10FEA80020205374617465322020202020202020D7
:10FEB800202020003E3E3E2053746174653220208D
:10FEC80020202020202020202000202020205374C3
:10FED800617465332020202020202020202020004D
:10FEE8003E3E3E205374617465332020202020203C
:10FEF80020202020200020202020537461746534A5
:10FF08002020202020202020202020003E3E3E20AF
:10FF18005374617465342020202020202020202064
:10FF28002000456E74657220737461746520556194
:10FF380072740A00456E746572207374617465206A
:10FF4800504F540A00496E697420737461746520B7
:10FF5800657869740A0045786974207374617465FA
:10FF680020556172740A0057656C636F6D652020B7
:10FF78002020202020202000457869742073746197
:10FF8800746520504F540A00456E7465722073746E
:10FF980061746520340A005A6164656A207A707257
:10FFA8006176753A0A0045786974207374617465DE
:10FFB80020310A00457869742073746174652032B1
:10FFC8000A004578697420737461746520330A00E7
:10FFD8004578697420737461746520340A005A7016
:10FFE800726176613A2025730A00696E66006E6157
:07FFF8006E006C6C73000049
:020000040020DA
:08000000FFFFFFFFFFFFFFFF00
:020000040030CA
:0E000000FF331F3CFFBF85FF0FC00FE00F4016
:00000001FF
