:0400000092EF00F08B
:06000800248201EF08F064
:100018002480D8CF0FF0E8CF10F0E0CF11F0D9CF7F
:1000280012F0DACF13F09EA21CEF00F01EEF00F0E2
:1000380086EF00F09DA223EF00F025EF00F086EF99
:1000480000F0D890173682B02CEF00F02FEF00F0B8
:10005800010E30EF00F0000E1712D890193680B854
:1000680038EF00F03BEF00F0010E3CEF00F0000E1F
:100078001912D8901B3680B644EF00F047EF00F015
:10008800010E48EF00F0000E1B12D8901D3680B408
:1000980050EF00F053EF00F0010E54EF00F0000EA7
:1000A8001D127F0E1718D8A45CEF00F05EEF00F069
:1000B80061EF00F0030E4FEC09F07F0E1918D8A479
:1000C80068EF00F06AEF00F06DEF00F0040E4FECFF
:1000D80009F07F0E1B18D8A474EF00F076EF00F03B
:1000E80079EF00F0050E4FEC09F07F0E1D18D8A42B
:1000F80080EF00F082EF00F085EF00F0060E4FEC85
:1001080009F09E9213C0DAFF12C0D9FF11C0E0FFB8
:1001180010C0E8FF0FC0D8FF2490100025EF09F0A9
:101000000000D9CF07F0DACF08F09EA00AEF08F071
:101010000CEF08F01BEF08F09DA011EF08F013EFA4
:1010200008F01BEF08F0080E59EC09F0D80ECF6E4F
:10103000EF0ECE6E9E907EA420EF08F022EF08F017
:1010400047EF08F07DA427EF08F029EF08F047EFFD
:1010500008F0FF0E1F26FF0E2022FF0E2122FF0E9A
:10106000222222BE40EF08F022502110201006E17B
:101070001F04D8B03EEF08F040EF08F045EF08F04D
:10108000070E59EC09F00F014A958A7A7E9408C040
:10109000DAFF07C0D9FF24921100146E14B053EF89
:1010A00008F056EF08F08C8457EF08F08C9414B2D7
:1010B0005CEF08F05FEF08F08C8660EF08F08C962C
:1010C00014B465EF08F068EF08F08B8869EF08F05A
:1010D0008B9814B66EEF08F071EF08F08C8872EF01
:1010E00008F08C9814B877EF08F07AEF08F08C8A43
:1010F0007BEF08F08C9A14BA80EF08F083EF08F0C9
:101100008C8C84EF08F08C9C1200948092889286DC
:1011100092849594959694989598959A959C939A7F
:10112000000E0F01386F8C848C868B888C888C8A9B
:101130008C8C030EBA12BA50870B4809BA6EFA0E9D
:10114000BB6E9F929D829E92030E4A134A51870B5B
:1011500020094A6F640E4B6F7D847E943F0ECD163E
:10116000300ECD129D809E90D08E1200000EF2BEE9
:10117000010E010B0D6EF29E21EE01F00950D926F1
:101180000A50DA22DF500C6E0C500924D96E000E82
:101190000A20DA6E0BC0DFFF21EE01F00950D926DC
:1011A0000A50DA22DF2A0DB0D8EF08F0DBEF08F0A2
:1011B000F28EDCEF08F0F29E1200000EF2BE010E7D
:1011C000010B056EF29E21EE01F00150D92602506E
:1011D000DA22DF50046E04500124D96E000E022082
:1011E000DA6E03C0DFFF21EE01F00150D926025074
:1011F000DA22DF2A05B0FFEF08F002EF09F0F28EE5
:1012000003EF09F0F29E120085EC08F080A80BEFC6
:1012100009F00DEF09F006EF09F03CEC09F080B899
:1012200014EF09F016EF09F00FEF09F0060E166E35
:10123000130E156EAE0EE82EFED7152EFCD7162E09
:10124000FAD706EF09F092EF00F00EEE36F011EE4D
:1012500002F0EE6AE550E150FCE1E250FAE100EE06
:1012600017F00D0EEE6AE806FDE124902492000EC0
:10127000F86E000104EF09F02350FF0A4DEC08F06E
:101280002350020DF328236E3F0E23644AEF09F02A
:101290004CEF09F04EEF09F0000E236E12000E6EB7
:1012A000360E096E0E0E0A6E0EC00BF0B6EC08F08C
:1012B0001200066E360E016E0E0E026E06C003F0B0
:0612C000DDEC08F0120055
:020000040030CA
:04000000FF331F3C6F
:00000001FF
