:04000000AEEF00F06F
:040008009CEF20F059
:10001800D8CFC8F0E8CFC9F0E0CFCAF0E1CFCBF035
:10002800E2CFCCF0D9CFCDF0DACFCEF009C0CFF007
:100038000AC0D0F00BC0D1F00CC0D2F01AEE96F086
:100048009EA229EF00F02BEF00F097EF00F09DA2A1
:1000580030EF00F032EF00F097EF00F0D890213643
:1000680082B039EF00F03CEF00F0010E3DEF00F0F8
:10007800000E2112D890233680B845EF00F048EFE3
:1000880000F0010E49EF00F0000E2312D89025363B
:1000980080B651EF00F054EF00F0010E55EF00F07C
:1000A800000E2512D890273680B45DEF00F060EF7F
:1000B80000F0010E61EF00F0000E27127F0E2118EC
:1000C800D8A469EF00F06BEF00F06FEF00F0030EBB
:1000D800E66E71EC2FF07F0E2318D8A476EF00F0AF
:1000E80078EF00F07CEF00F0040EE66E71EC2FF074
:1000F8007F0E2518D8A483EF00F085EF00F089EF74
:1001080000F0050EE66E71EC2FF07F0E2718D8A4CC
:1001180090EF00F092EF00F096EF00F0060EE66E1A
:1001280071EC2FF09E92D2C00CF0D1C00BF0D0C071
:100138000AF0CFC009F0CEC0DAFFCDC0D9FFCCC0DD
:10014800E2FFCBC0E1FFCAC0E0FFC9C0E8FFC8C0FA
:10015800D8FF100011EE50F06BEF2EF02C0EE126B8
:10016800000EE222FC0EE36ACE0EE3CF09F0CF0EBA
:10017800E3CF0AF0D00EE3CF0BF0D10EE3CF0CF0B3
:10018800DA0E09C0E3FFDB0E0AC0E3FFDC0E0BC08A
:10019800E3FFDD0E0CC0E3FFDD0EE3BED8EF00F099
:1001A800D6EF00F0F2EF00F0FC0EE36AE32ADA0E75
:1001B800E3CFE6FFE3CFE6FFE3CFE6FFE3CFE6FFDB
:1001C80090EC2EF0DA0E01C0E3FFDB0E02C0E3FF75
:1001D800DC0E03C0E3FFDD0E04C0E3FFEA0EE36AB2
:1001E800EB0EE36AEE0E35C0E3FFEF0E36C0E3FF19
:1001F800FC0EE350D8B403EF01F005EF01F02AEF4D
:1002080001F0FC0EE350D8A40CEF01F00EEF01F062
:100218001AEF01F02B0E0B6E000E0C6ED40E0BC0F5
:10022800E3FFD50E0CC0E3FF24EF01F02D0E0B6E9B
:10023800000E0C6ED40E0BC0E3FFD50E0CC0E3FF0E
:10024800D40EE3CF01F0FC0E01C0E3FFDA0EE3CFDA
:10025800E6FFE3CFE6FFE3CFE6FFE3CFE6FF58ECA8
:100268001EF001040210D8A43CEF01F03EEF01F0AB
:100278008FEF01F0FC0EE350D8B445EF01F047EFE3
:1002880001F05EEF01F0FC0EE3CF00F1E150EE0F5C
:10029800D96EE250DA6EFF0EDA22DE06000EDD5A63
:1002A800010E0B6E000E0C6EEA0E0BC0E3FFEB0E98
:1002B8000CC0E3FFF30EE66EFF0EE66E000E0B6E4B
:1002C800010E0C6EE80EE3500B26E90EE3500C22EB
:1002D8000BC0E6FF0CC0E6FFFCEC2BF0E150EE0F84
:1002E800D96EE250DA6EFF0EDA22FD0EDE26FF0E20
:1002F800DD22EE0EE3CFE6FFE3CFE6FF000EE66E6B
:10030800010EE66ECE0EE3CFE6FFE3CFE6FF14EC78
:100318002AF072EF08F0DA0EE3CFE6FFE3CFE6FF4C
:10032800E3CFE6FFE3CFE6FF58EC1EF001500210E2
:10033800D8A4A1EF01F0A3EF01F0D9EF01F0FC0E72
:10034800E350D8B4AAEF01F0ACEF01F0C3EF01F02D
:10035800FC0EE3CF00F1E150EE0FD96EE250DA6EF9
:10036800FF0EDA22DE06000EDD5A010E0B6E000EBD
:100378000C6EEA0E0BC0E3FFEB0E0CC0E3FFF70EAA
:10038800E66EFF0EE66E000E0B6E010E0C6EE80EAA
:10039800E3500B26E90EE3500C220BC0E6FF0CC01D
:1003A800E6FFFCEC2BF072EF01F0000E096E000E78
:1003B8000A6E800E0B6E3F0E0C6ED60E09C0E3FF60
:1003C800D70E0AC0E3FFD80E0BC0E3FFD90E0CC04E
:1003D800E3FFF00EE36AF10EE36A000EE66E000E2C
:1003E800E66E000EE66E000EE66ED60EE3CFE6FF72
:1003F800E3CFE6FFE3CFE6FFE3CFE6FF2EEC26F000
:1004080001B009EF02F00BEF02F064EF03F034EFF4
:1004180002F0E60EE3CF09F0E70EE3CF0AF0E80EAC
:10042800E3CF0BF0E90EE3CF0CF0D60E09C0E3FFE3
:10043800D70E0AC0E3FFD80E0BC0E3FFD90E0CC0DD
:10044800E3FFF00EE350010F016EF00E01C0E3FF71
:10045800016AF10EE3500120016EF10E01C0E3FFC5
:10046800000EE66E000EE66E200EE66E410EE66E9B
:10047800D20EE3CFE6FFE3CFE6FFE3CFE6FFE3CF1D
:10048800E6FFE9EC0CF0E60E01C0E3FFE70E02C060
:10049800E3FFE80E03C0E3FFE90E04C0E3FFDA0E52
:1004A800E3CF09F0DB0EE3CF0AF0DC0EE3CF0BF06D
:1004B800DD0EE3CF0CF0E60EE350095EE70EE350E5
:1004C8000A5AE80EE3500B5AE90EE3500C5A09C0D9
:1004D800E6FF0AC0E6FF0BC0E6FF0CC0E6FF1BEC18
:1004E8002DF004BE83EF02F004500310021009E15E
:1004F800020E015CD8A083EF02F085EF02F00DEF49
:1005080002F0DA0EE3CFE6FFE3CFE6FFE3CFE6FF44
:10051800E3CFE6FFE20EE3CFE6FFE3CFE6FFE3CF6C
:10052800E6FFE3CFE6FF21EC1FF001A09EEF02F00B
:10053800A0EF02F00DEF02F0DA0EE3CF09F0DB0EC8
:10054800E3CF0AF0DC0EE3CF0BF0DD0EE3CF0CF0C7
:10055800D60EE350095ED70EE3500A5AD80EE35080
:100568000B5AD90EE3500C5A09C0E6FF0AC0E6FF41
:100578000BC0E6FF0CC0E6FF1BEC2DF004BED2EF6B
:1005880002F004500310021007E1020E015CD8B01B
:10059800D0EF02F0D2EF02F049EF03F0D60EE3CF2E
:1005A80009F0D70EE3CF0AF0D80EE3CF0BF0D90E3F
:1005B800E3CF0CF0DA0E09C0E3FFDB0E0AC0E3FF5D
:1005C800DC0E0BC0E3FFDD0E0CC0E3FF64EF03F0AD
:1005D800000EE66E000EE66E200EE66E410EE66E2A
:1005E800D20EE3CFE6FFE3CFE6FFE3CFE6FFE3CFAC
:1005F800E6FF14EC11F0D60E01C0E3FFD70E02C0DF
:10060800E3FFD80E03C0E3FFD90E04C0E3FFE150B7
:10061800F00FD96EE250DA6EFF0EDA22DE06000E17
:10062800DD5ADA0EE3CF09F0DB0EE3CF0AF0DC0E79
:10063800E3CF0BF0DD0EE3CF0CF0D60EE350095EEE
:10064800D70EE3500A5AD80EE3500B5AD90EE3508E
:100658000C5A09C0E6FF0AC0E6FF0BC0E6FF0CC053
:10066800E6FF1BEC2DF004BE47EF03F00450031027
:10067800021007E1020E015CD8B045EF03F047EF26
:1006880003F049EF03F0D2EF02F0D60EE3CFE6FF16
:10069800E3CFE6FFE3CFE6FFE3CFE6FFD60EE3CFF7
:1006A800E6FFE3CFE6FFE3CFE6FFE3CFE6FF21EC8B
:1006B8001FF001A062EF03F064EF03F0ECEF02F02B
:1006C800CD0EE3CF01F0FE0E01C0E3FFFE0EE3CF37
:1006D80001F0FD0E01C0E3FF38BE75EF03F077EFC0
:1006E80003F07FEF03F0F80E37C0E3FFF90E38C0D0
:1006F800E3FF89EF03F0060E0B6E000E0C6EF80E8A
:100708000BC0E3FFF90E0CC0E3FFF80EE3CF01F0D6
:10071800F20E01C0E3FFF90EE3CF01F0F30E01C0C2
:10072800E3FFF20EE350010F016EF20E01C0E3FF8A
:10073800016AF30EE3500120016EF30E01C0E3FFDE
:10074800FD0EE3CF01F0660E0118D8A4AEEF03F05A
:10075800B0EF03F0EEEF03F0F10EE3BEB8EF03F0F5
:10076800B6EF03F0D0EF03F0000E096E000E0A6E2C
:10077800800E0B6E3F0E0C6ED60E09C0E3FFD70E2F
:100788000AC0E3FFD80E0BC0E3FFD90E0CC0E3FF8D
:10079800F00EE36AF10EE36AFE0EE3CF01F0670E96
:1007A8000118D8B4DAEF03F0DCEF03F0EEEF03F052
:1007B800F20EE350016EF00EE3500126F20E01C076
:1007C800E3FFF30EE350016EF10EE3500122F30E46
:1007D80001C0E3FFEC0EE36AED0EE36ADA0EE3CF45
:1007E80009F0DB0EE3CF0AF0DC0EE3CF0BF0DD0EF1
:1007F800E3CF0CF0E20E09C0E3FFE30E0AC0E3FF0B
:10080800E40E0BC0E3FFE50E0CC0E3FFD60EE3CF0A
:1008180009F0D70EE3CF0AF0D80EE3CF0BF0D90ECC
:10082800E3CF0CF0E60E09C0E3FFE70E0AC0E3FFD2
:10083800E80E0BC0E3FFE90E0CC0E3FFC4EF04F0C1
:10084800D60EE3CFE6FFE3CFE6FFE3CFE6FFE3CF45
:10085800E6FFDE0EE3CFE6FFE3CFE6FFE3CFE6FFFA
:10086800E3CFE6FF14EC11F001C0E6FF02C0E6FF9B
:1008780003C0E6FF04C0E6FF62EC16F0DE0E01C01E
:10088800E3FFDF0E02C0E3FFE00E03C0E3FFE10E6B
:1008980004C0E3FFDE0EE3CFE6FFE3CFE6FFE3CFDE
:1008A800E6FFE3CFE6FF84EC1DF001C00BF002C0C9
:1008B8000CF0F40E0BC0E3FFF50E0CC0E3FFDE0EE8
:1008C800E3CFE6FFE3CFE6FFE3CFE6FFE3CFE6FFC4
:1008D800D20EE3CFE6FFE3CFE6FFE3CFE6FFE3CFB9
:1008E800E6FFE9EC0CF001C0E6FF02C0E6FF03C03A
:1008F800E6FF04C0E6FFDE0EE3CFE6FFE3CFE6FF48
:10090800E3CFE6FFE3CFE6FFF6EC2EF0E20E01C000
:10091800E3FFE30E02C0E3FFE40E03C0E3FFE50ECE
:1009280004C0E3FF000EE66E000EE66E200EE66ED3
:10093800410EE66ED20EE3CFE6FFE3CFE6FFE3CF4C
:10094800E6FFE3CFE6FF14EC11F0D60E01C0E3FF9B
:10095800D70E02C0E3FFD80E03C0E3FFD90E04C0D0
:10096800E3FFEC0EE350010F016EEC0E01C0E3FF54
:10097800016AED0EE3500120016EED0E01C0E3FFA8
:10098800E150EC0FD96EE250DA6EFF0EDA22F20E69
:10099800E350DE5CDE50800A016EF30EE350800AFD
:1009A8000158D8A0DAEF04F0DCEF04F024EF04F0EB
:1009B800000EE66E000EE66EA00EE66E400EE66EC7
:1009C800D20EE3CFE6FFE3CFE6FFE3CFE6FFE3CFC8
:1009D800E6FFE9EC0CF0DE0E01C0E3FFDF0E02C01B
:1009E800E3FFE00E03C0E3FFE10E04C0E3FFDE0E09
:1009F800E3CFE6FFE3CFE6FFE3CFE6FFE3CFE6FF93
:100A0800DE0EE3CFE6FFE3CFE6FFE3CFE6FFE3CF7B
:100A1800E6FF21EC1FF001B014EF05F016EF05F02A
:100A28002CEF05F0000E096E000E0A6E000E0B6E1C
:100A3800000E0C6EDE0E09C0E3FFDF0E0AC0E3FFF6
:100A4800E00E0BC0E3FFE10E0CC0E3FF63EF05F01F
:100A5800DE0EE3CFE6FFE3CFE6FFE3CFE6FFE3CF2B
:100A6800E6FFDE0EE3CFE6FFE3CFE6FFE3CFE6FFE8
:100A7800E3CFE6FF2EEC26F001A045EF05F047EFA7
:100A880005F063EF05F0F40EE3B04DEF05F04FEF1E
:100A980005F063EF05F0000E096E000E0A6E000EF9
:100AA8000B6E000E0C6EDE0E09C0E3FFDF0E0AC0EF
:100AB800E3FFE00E0BC0E3FFE10E0CC0E3FFDE0E28
:100AC800E3CFE6FFE3CFE6FFE3CFE6FFE3CFE6FFC2
:100AD800D60EE3CFE6FFE3CFE6FFE3CFE6FFE3CFB3
:100AE800E6FF77EC08F0E20E01C0E3FFE30E02C078
:100AF800E3FFE40E03C0E3FFE50E04C0E3FF000ECE
:100B0800E66E000EE66E200EE66E410EE66EE20E12
:100B1800E3CFE6FFE3CFE6FFE3CFE6FFE3CFE6FF71
:100B2800E9EC0CF001C0E6FF02C0E6FF03C0E6FFF7
:100B380004C0E6FFDE0EE3CFE6FFE3CFE6FFE3CF38
:100B4800E6FFE3CFE6FF21EC1FF001A0AEEF05F0D2
:100B5800B0EF05F0F9EF05F0F00EE350010F016E6C
:100B6800F00E01C0E3FF016AF10EE3500120016EAF
:100B7800F10E01C0E3FF000EE66E000EE66E200ED9
:100B8800E66E410EE66EE20EE3CFE6FFE3CFE6FF48
:100B9800E3CFE6FFE3CFE6FFE9EC0CF0E60E01C099
:100BA800E3FFE70E02C0E3FFE80E03C0E3FFE90E30
:100BB80004C0E3FFFD0EE3CF01F0660E0118D8A4D0
:100BC800E8EF05F0EAEF05F0F9EF05F0F20EE35073
:100BD800010F016EF20E01C0E3FF016AF30EE3504C
:100BE8000120016EF30E01C0E3FFE60EE3CF09F02A
:100BF800E70EE3CF0AF0E80EE3CF0BF0E90EE3CF00
:100C08000CF0D60E09C0E3FFD70E0AC0E3FFD80EDA
:100C18000BC0E3FFD90E0CC0E3FFF00EE3CF01F0E9
:100C2800FA0E01C0E3FFF10EE3CF01F0FB0E01C0A5
:100C3800E3FFFF0EE36AF60EE36AF70EE36AEC0ED3
:100C4800E36AED0EE36AA0EF07F0D60EE3CFE6FF06
:100C5800E3CFE6FFE3CFE6FFE3CFE6FFDE0EE3CF29
:100C6800E6FFE3CFE6FFE3CFE6FFE3CFE6FF14ECD2
:100C780011F001C0E6FF02C0E6FF03C0E6FF04C0B2
:100C8800E6FF62EC16F0DE0E01C0E3FFDF0E02C0E5
:100C9800E3FFE00E03C0E3FFE10E04C0E3FFDE0E56
:100CA800E3CFE6FFE3CFE6FFE3CFE6FFE3CFE6FFE0
:100CB80084EC1DF001C00BF002C00CF00CBE70EF0C
:100CC80006F00C5007E10A0E0B5CD8B06EEF06F088
:100CD80070EF06F087EF06F0DE0EE3CFE6FFE3CF16
:100CE800E6FFE3CFE6FFE3CFE6FF84EC1DF001C0AB
:100CF8000BF002C00CF0F40E0BC0E3FFF50E0CC0B5
:100D0800E3FF91EF06F0090E0B6E000E0C6EF40E69
:100D18000BC0E3FFF50E0CC0E3FFFF0EE350D8A4B1
:100D280098EF06F09AEF06F0FFEF06F0FB0EE3BE31
:100D3800A2EF06F0A0EF06F0FFEF06F0EA0EE3CF11
:100D48000BF0EB0EE3CF0CF0000E0B24D96E010E66
:100D58000C20DA6E2E0EDF6EEA0EE350010F016EE4
:100D6800EA0E01C0E3FF016AEB0EE3500120016EB9
:100D7800EB0E01C0E3FFE150EE0FD96EE250DA6EE0
:100D8800FF0EDA22DE06000EDD5AFF0EE36AE32AC2
:100D9800FFEF06F0EA0EE3CF0BF0EB0EE3CF0CF01B
:100DA800000E0B24D96E010E0C20DA6E300EDF6EA9
:100DB800EA0EE350010F016EEA0E01C0E3FF016A7B
:100DC800EB0EE3500120016EEB0E01C0E3FFE15092
:100DD800EE0FD96EE250DA6EFF0EDA22DE06000E52
:100DE800DD5AE150F60FD96EE250DA6EFF0EDA22C4
:100DF800DE06000EDD5AF60EE3CF01F0F70EE350E3
:100E08000110D8A40AEF07F00CEF07F0CEEF06F0B8
:100E1800EA0EE3CF0BF0EB0EE3CF0CF0000E0B2441
:100E2800D96E010E0C20DA6EF40EE350300FDF6E2F
:100E3800EA0EE350010F016EEA0E01C0E3FF016AFA
:100E4800EB0EE3500120016EEB0E01C0E3FFE15011
:100E5800EE0FD96EE250DA6EFF0EDA22DE06000ED1
:100E6800DD5ADE0EE3CFE6FFE3CFE6FFE3CFE6FF92
:100E7800E3CFE6FFD20EE3CFE6FFE3CFE6FFE3CF13
:100E8800E6FFE3CFE6FFE9EC0CF001C0E6FF02C0A5
:100E9800E6FF03C0E6FF04C0E6FFDE0EE3CFE6FF91
:100EA800E3CFE6FFE3CFE6FFE3CFE6FFF6EC2EF075
:100EB800E20E01C0E3FFE30E02C0E3FFE40E03C04D
:100EC800E3FFE50E04C0E3FF000EE66E000EE66EDB
:100ED800200EE66E410EE66ED20EE3CFE6FFE3CFBC
:100EE800E6FFE3CFE6FFE3CFE6FF14EC11F0D60E02
:100EF80001C0E3FFD70E02C0E3FFD80E03C0E3FF33
:100F0800D90E04C0E3FFE150FA0FD96EE250DA6E51
:100F1800FF0EDA22DE06000EDD5AEC0EE350010F5A
:100F2800016EEC0E01C0E3FF016AED0EE3500120F3
:100F3800016EED0E01C0E3FFE150EC0FD96EE250F7
:100F4800DA6EFF0EDA22F20EE350DE5CDE50800A23
:100F5800016EF30EE350800A0158D8B0B6EF07F0DF
:100F6800B8EF07F0CBEF07F0EB0EE3BEC9EF07F0E1
:100F7800EB0EE3500CE1EA0EE3CF01F04B0E015EFD
:100F8800D8A0C9EF07F0CBEF07F029EF06F04F0E16
:100F98000B6E000E0C6EEC0E0BC0E3FFED0E0CC0DA
:100FA800E3FFEC0EE3CF0BF0ED0EE3CF0CF0000EF9
:100FB8000B24D96E010E0C20DA6EDF6AEA0EE3CF3D
:100FC800E6FFE3CFE6FF000EE66E010EE66E000ECA
:100FD8000B6E010E0C6EE60EE3500B5EE70EE3504F
:100FE8000C5AE80EE3500B26E90EE3500C220BC016
:100FF800E6FF0CC0E6FFF3EC27F0EC0EE3CF0BF0B6
:10100800ED0EE3CF0CF0EA0EE3500B5EEB0EE3506F
:101018000C5AEA0E0BC0E3FFEB0E0CC0E3FFFC0E0C
:10102800E350D8A41AEF08F01DEF08F0010E1EEFE8
:1010380008F0000E0B6E0C6AEC0E0BC0E3FFED0E11
:101048000CC0E3FFFC0EE350D8B42DEF08F02FEFEF
:1010580008F046EF08F0E150EA0FD96EE250DA6E78
:10106800FF0EDA22DE06000EDD5ADECF0BF0DDCFF2
:101078000CF0000E0B24D96E010E0C20DA6EFC0E5B
:10108800E3CFDFFFEE0EE350016EEC0EE350015E9E
:10109800EE0E01C0E3FFEF0EE350016EED0EE350DC
:1010A800015AEF0E01C0E3FFEE0EE3CFE6FFE3CFF8
:1010B800E6FF000E0B6E010E0C6EE80EE3500B26D9
:1010C800E90EE3500C220BC0E6FF0CC0E6FFCE0E83
:1010D800E3CFE6FFE3CFE6FF14EC2AF0CD0EE126DE
:1010E800FF0EE2221200E652E652E652E652FB0EEC
:1010F800E124D96EFF0EE220DA6EDF500C6E800E0E
:101108000C16FF0E0CC0E3FFFB0EE124D96EFF0E98
:10111800E220DA6EDF500C6ED8900C340B6EFD0EA8
:101128000BC0E3FFFA0EE124D96EFF0EE220DA6E5F
:10113800DFAEA1EF08F0A3EF08F0A5EF08F0FD0E71
:10114800E380FD0EE350D8B4ACEF08F0AEEF08F042
:10115800D6EF08F0FD0EE328D8A4B5EF08F0B7EFF6
:1011680008F0CBEF08F0000E096E000E0A6E000EB4
:101178000B6E000E0C6EF80E09C0E3FFF90E0AC0E4
:10118800E3FFFA0E0BC0E3FFFB0E0CC0E3FFFA0E01
:10119800E38EFB0EE124D96EFF0EE220DA6EDF6AE1
:1011A800EAEF08F0000E096E000E0A6E000E0B6ED4
:1011B800000E0C6EF80E09C0E3FFF90E0AC0E3FF3B
:1011C800FA0E0BC0E3FFFB0E0CC0E3FFF70EE124A1
:1011D800D96EFF0EE220DA6EDF500C6E800E0C1610
:1011E800FE0E0CC0E3FFE150FE0FD96EE250DA6E3E
:1011F800FF0EDA22FF0EE350DE18D8B406EF09F02E
:1012080008EF09F00AEF09F0FF0EE38CF70EE1246E
:10121800D96EFF0EE220DA6EDF500C6ED8900C34D7
:101228000B6EFE0E0BC0E3FFF60EE124D96EFF0E27
:10123800E220DA6EDFAE23EF09F025EF09F027EFA1
:1012480009F0FE0EE380FE0EE350D8B42EEF09F04D
:1012580030EF09F058EF09F0FE0EE328D8A437EF75
:1012680009F039EF09F04DEF09F0000E096E000E94
:101278000A6E000E0B6E000E0C6EF40E09C0E3FF32
:10128800F50E0AC0E3FFF60E0BC0E3FFF70E0CC025
:10129800E3FFF60EE38EF70EE124D96EFF0EE2208F
:1012A800DA6EDF6A6CEF09F0000E096E000E0A6E46
:1012B800000E0B6E000E0C6EF40E09C0E3FFF50E67
:1012C8000AC0E3FFF60E0BC0E3FFF70E0CC0E3FF06
:1012D800E150FE0FD96EE250DA6EFF0EDA22FD0EF3
:1012E800E350DE5CD8B07BEF09F07DEF09F011EF39
:1012F8000AF0FF0EE3AC83EF09F085EF09F087EF02
:1013080009F0FF0EE37EFD0EE3CF01F0FC0E01C0F5
:10131800E3FFFE0EE3CF01F0FD0E01C0E3FFFC0E7C
:10132800E3CF01F0FE0E01C0E3FFF80EE3CF01F0BA
:10133800FC0E01C0E3FFF40EE3CF01F0F80E01C08C
:10134800E3FFFC0EE3CF01F0F40E01C0E3FFF90E5A
:10135800E124D96EFF0EE220DA6EDF500C6EFC0E2F
:101368000CC0E3FFF50EE124D96EFF0EE220DA6E21
:10137800F90EE124E96EFF0EE220EA6EDFCFEFFFFF
:10138800F50EE124D96EFF0EE220DA6EFC0EE3CFF3
:10139800DFFFFA0EE124D96EFF0EE220DA6EDF508D
:1013A8000C6EFC0E0CC0E3FFF60EE124D96EFF0EA6
:1013B800E220DA6EFA0EE124E96EFF0EE220EA6E10
:1013C800DFCFEFFFF60EE124D96EFF0EE220DA6ED2
:1013D800FC0EE3CFDFFFFB0EE124D96EFF0EE22007
:1013E800DA6EDF500C6EFC0E0CC0E3FFF70EE12442
:1013F800D96EFF0EE220DA6EFB0EE124E96EFF0ED5
:10140800E220EA6EDFCFEFFFF70EE124D96EFF0E80
:10141800E220DA6EFC0EE3CFDFFFFC0EE36AFE0E7D
:10142800E3500B6E0C6AFD0EE3500B5E000E0C5A77
:101438000CBE28EF0AF00C5009E11A0E0B5CD8A07C
:1014480028EF0AF02AEF0AF093EF0AF0F80EE350BB
:101458000DE1F90EE3500AE1FA0EE35007E1FB0E45
:10146800E350D8A43AEF0AF03EEF0AF00C6A0C2ACF
:101478003FEF0AF00C6AFC0E0CC0E3FFF80EE36ABB
:10148800F90EE36AFA0EE36AFB0EE36AFE0EE3CF97
:1014980001F0FD0E01C0E3FFA4EF0AF0FC0EE3A08B
:1014A80058EF0AF05AEF0AF066EF0AF0FC0EE3CFA5
:1014B8000CF0D8900C32010E0C12FC0E0CC0E3FF9D
:1014C8006FEF0AF0E150FC0FD96EE250DA6EFF0EB2
:1014D800DA22D890DF32F80EE3A075EF0AF077EF42
:1014E8000AF079EF0AF0FC0EE38E010E0C6EE15063
:1014F800F80FD96EE250DA6EFF0EDA220C28DE52AF
:101508008EEF0AF0DE52D890DCBED880DD32DD32B4
:10151800DD32DE32E82E86EF0AF0FD0EE32AE150D6
:10152800FD0FD96EE250DA6EFF0EDA22FE0EE3509E
:10153800DE5CD8A0A2EF0AF0A4EF0AF052EF0AF09E
:10154800FF0EE3BCAAEF0AF0ACEF0AF02EEF0BF0A7
:10155800FD0EE350D8A4B3EF0AF0B5EF0AF0BFEFE1
:101568000AF0000E016E000E026E000E036E000EF1
:10157800046EE4EF0CF0F80EE350016EF40EE35045
:101588000126F80E01C0E3FFF90EE350016EF50ED7
:10159800E3500122F90E01C0E3FFFA0EE350016E99
:1015A800F60EE3500122FA0E01C0E3FFFB0EE350F2
:1015B800016EF70EE3500122FB0E01C0E3FFFB0EA4
:1015C800E3A0E9EF0AF0EBEF0AF018EF0CF0FC0EDD
:1015D800E3A0F1EF0AF0F3EF0AF0FFEF0AF0FC0ED8
:1015E800E3CF0CF0D8900C32010E0C12FC0E0CC09C
:1015F800E3FF08EF0BF0E150FC0FD96EE250DA6E12
:10160800FF0EDA22D890DF32F80EE3A00EEF0BF0CF
:1016180010EF0BF012EF0BF0FC0EE38E010E0C6EC8
:10162800E150F80FD96EE250DA6EFF0EDA220C287C
:10163800DE5227EF0BF0DE52D890DCBED880DD32C8
:10164800DD32DD32DE32E82E1FEF0BF0FD0EE32A2D
:1016580018EF0CF0E150F80FD96EE250DA6EFF0E79
:10166800DA22F40EE350DE5CF50EE350DE58F60E97
:10167800E350DE58DE50800A016EF70EE350800A10
:101688000158D8B04AEF0BF04CEF0BF09CEF0BF081
:10169800F40EE3CF09F0F50EE3CF0AF0F60EE3CF30
:1016A8000BF0F70EE3CF0CF0F80EE350095EF90EDD
:1016B800E3500A5AFA0EE3500B5AFB0EE3500C5A49
:1016C800FF0E0924056EFF0E0A20066EFF0E0B2082
:1016D800076EFF0E0C20086EF80E05C0E3FFF90E2A
:1016E80006C0E3FFFA0E07C0E3FFFB0E08C0E3FFE6
:1016F800FF0EE37EFC0EE35000080C6EFC0E0CC0DF
:10170800E3FFFC0EE350D8A48CEF0BF08EEF0BF048
:10171800AFEF0BF0E150F80FD96EE250DA6EFF0E22
:10172800DA22DE2A000EDE22DE22DE22AFEF0BF006
:10173800E150F80FD96EE250DA6EFF0EDA22F40E9D
:10174800E350DE5EF50EE350DE5AF60EE350DE5A45
:10175800F70EE350DE5AF80EE3500DE1F90EE350B0
:101768000AE1FA0EE35007E1FB0EE350D8A4BFEFFD
:101778000BF0C1EF0BF010EF0CF0FC0EE350D8A407
:10178800C8EF0BF0CAEF0BF010EF0CF0000E016E73
:10179800000E026E000E036E000E046EE4EF0CF0F5
:1017A800D890F80EE336F90EE336FA0EE336FB0E60
:1017B800E336FC0EE3AEE3EF0BF0E5EF0BF0E7EFFB
:1017C8000BF0F80EE380FC0EE3A0EDEF0BF0EFEF6B
:1017D8000BF0FCEF0BF0FC0EE3CF0CF0D8900C34C0
:1017E8000B6E010E0B12FC0E0BC0E3FF05EF0CF0A5
:1017F800E150FC0FD96EE250DA6EFF0EDA22D89073
:10180800DF36FD0EE350D8B40CEF0CF00EEF0CF001
:1018180010EF0CF0FD0EE306FA0EE3AE16EF0CF037
:1018280018EF0CF0D4EF0BF0FE0EE36AFC0EE3AEFB
:1018380020EF0CF022EF0CF03DEF0CF0FC0EE3CFA4
:101848000CF07F0E0C16D8B42CEF0CF02EEF0CF029
:1018580033EF0CF0FE0EE36AE32A3DEF0CF0F80ECE
:10186800E3A039EF0CF03BEF0CF03DEF0CF02EEF5E
:101878000CF0FE0EE350D8B444EF0CF046EF0CF039
:101888007DEF0CF0E150F80FD96EE250DA6EFF0EE2
:10189800DA22DE2A000EDE22DE22DE22FB0EE3A0A2
:1018A80058EF0CF05AEF0CF07DEF0CF0010E0C6EB7
:1018B800E150F80FD96EE250DA6EFF0EDA220C28EA
:1018C800DE526FEF0CF0DE52D890DCBED880DD32ED
:1018D800DD32DD32DE32E82E67EF0CF0FD0EE32854
:1018E800D8B479EF0CF07BEF0CF07DEF0CF0FD0E27
:1018F800E32AFD0EE328D8B484EF0CF086EF0CF051
:101908008FEF0CF0FD0EE350D8A48DEF0CF08FEFA5
:101918000CF0A2EF0CF0F80EE36AF90EE36AFA0E87
:10192800E36AFB0EE36AFD0EE350D8A49EEF0CF0C9
:10193800A0EF0CF0A2EF0CF0FF0EE36AFD0EE3A09F
:10194800A8EF0CF0AAEF0CF0B4EF0CF0FA0EE124BB
:10195800D96EFF0EE220DA6E000EDB8EBCEF0CF0C3
:10196800FA0EE124D96EFF0EE220DA6E7F0EDF1642
:10197800FB0EE124D96EFF0EE220DA6EFD0EE3CFF6
:101988000CF0D8900C30DF6EFF0EE3AECEEF0CF00B
:10199800D0EF0CF0D8EF0CF0FB0EE124D96EFF0E5F
:1019A800E220DA6E000EDB8EF80EE3CF01F0F90EBE
:1019B800E3CF02F0FA0EE3CF03F0FB0EE3CF04F01F
:1019C800F40EE126FF0EE22212000D0EE126000EB3
:1019D800E222F20EE124D96EFF0EE220DA6EDF5029
:1019E8000C6E800E0C16FF0E0CC0E3FFF20EE12405
:1019F800D96EFF0EE220DA6EDF500C6ED8900C34F0
:101A08000B6EFD0E0BC0E3FFF10EE124D96EFF0E45
:101A1800E220DA6EDFAE13EF0DF015EF0DF017EFE1
:101A28000DF0FD0EE380FD0EE350D8B41EEF0DF06F
:101A380020EF0DF041EF0DF0FD0EE328D8A427EFBD
:101A48000DF029EF0DF03DEF0DF0000E096E000EC0
:101A58000A6E000E0B6E000E0C6EEF0E09C0E3FF4F
:101A6800F00E0AC0E3FFF10E0BC0E3FFF20E0CC04C
:101A7800E3FFF10EE38E55EF0DF0000E096E000E38
:101A88000A6E000E0B6E000E0C6EEF0E09C0E3FF1F
:101A9800F00E0AC0E3FFF10E0BC0E3FFF20E0CC01C
:101AA800E3FFEE0EE124D96EFF0EE220DA6EDF507E
:101AB8000C6E800E0C16E150FF0FD96EE250DA6EF4
:101AC800FF0EDA220C50DF1AEE0EE124D96EFF0E5B
:101AD800E220DA6EDF500C6ED8900C340B6EFE0EDE
:101AE8000BC0E3FFED0EE124D96EFF0EE220DA6EA3
:101AF800DFAE81EF0DF083EF0DF085EF0DF0FE0EF8
:101B0800E380FE0EE350D8B48CEF0DF08EEF0DF0AD
:101B1800AFEF0DF0FE0EE328D8A495EF0DF097EF88
:101B28000DF0ABEF0DF0000E096E000E0A6E000E00
:101B38000B6E000E0C6EEB0E09C0E3FFEC0E0AC034
:101B4800E3FFED0E0BC0E3FFEE0E0CC0E3FFED0E5E
:101B5800E38EC3EF0DF0000E096E000E0A6E000E44
:101B68000B6E000E0C6EEB0E09C0E3FFEC0E0AC004
:101B7800E3FFED0E0BC0E3FFEE0E0CC0E3FFFE0E1D
:101B8800E350D8B4CAEF0DF0CCEF0DF0D5EF0DF05F
:101B9800FD0EE350D8A4D3EF0DF0D5EF0DF0DFEF35
:101BA8000DF0000E016E000E026E000E036E000EA8
:101BB800046E0FEF11F0EF0EE3CF0CF0ED0EE12401
:101BC800D96EFF0EE220DA6EDF500C02FB0EF3CF67
:101BD800E3FFFC0EF4CFE3FFFB0EE3CF0CF00CC0E9
:101BE80005F0066A076A086AF70E05C0E3FFF80EF3
:101BF80006C0E3FFF90E07C0E3FFFA0E08C0E3FFD3
:101C0800FC0EE124D96EFF0EE220DA6EDF500C6E76
:101C18000CC005F0066A076A086AF30E05C0E3FF00
:101C2800F40E06C0E3FFF50E07C0E3FFF60E08C08A
:101C3800E3FFF00EE124D96EFF0EE220DA6EDF50EA
:101C48000C6EEC0EE124D96EFF0EE220DA6EDF5046
:101C58000C02FB0EF3CFE3FFFC0EF4CFE3FFE150E1
:101C6800F70FD96EE250DA6EFF0EDA22FB0EE35060
:101C7800DE26000EDE22DE22DE22E150F30FD96ED0
:101C8800E250DA6EFF0EDA22FC0EE124E96EFF0E56
:101C9800E220EA6EEF50DE26000EDE22DE22DE2291
:101CA800F10EE124D96EFF0EE220DA6EDF500C6EE1
:101CB800EB0EE3500C02FB0EF3CFE3FFFC0EF4CF68
:101CC800E3FFE150F70FD96EE250DA6EFF0EDA2229
:101CD800FB0EE350DE26000EDE22DE22DE22E1507D
:101CE800F30FD96EE250DA6EFF0EDA22FC0EE12411
:101CF800E96EFF0EE220EA6EEF50DE26000EDE22CD
:101D0800DE22DE22E150F70FD96EE250DA6EFF0EC6
:101D1800DA22080ED890DE36DE36DE36DD36DD52C3
:101D2800DD52E82E8EEF0EF0F00EE124D96EFF0E94
:101D3800E220DA6EDF500C6EEB0EE3500C02FB0E65
:101D4800F3CFE3FFFC0EF4CFE3FFFB0EE3CF0BF082
:101D5800FC0EE3CF0CF0E150F70FD96EE250DA6ECB
:101D6800FF0EDA220B50DE260C50DE22000EDE2299
:101D7800DE22EF0EE3CF0CF0EC0EE124D96EFF0E5D
:101D8800E220DA6EDF500C02FB0EF3CFE3FFFC0E0D
:101D9800F4CFE3FFFB0EE3CF0BF0FC0EE3CF0CF028
:101DA800E150F70FD96EE250DA6EFF0EDA220B50CF
:101DB800DE260C50DE22000EDE22DE22E150F70F76
:101DC800D96EE250DA6EFF0EDA22080ED890DE36AF
:101DD800DE36DE36DD36DD52DD52E82EEAEF0EF075
:101DE800EF0EE3CF0CF0EB0EE3500C02FB0EF3CF3B
:101DF800E3FFFC0EF4CFE3FFFB0EE3CF0BF0FC0E8A
:101E0800E3CF0CF0E150F70FD96EE250DA6EFF0E17
:101E1800DA220B50DE260C50DE22000EDE22DE22F5
:101E2800F00EE124D96EFF0EE220DA6EDF500C6E60
:101E3800ED0EE124D96EFF0EE220DA6EDF500C02BF
:101E4800FB0EF3CFE3FFFC0EF4CFE3FFFB0EE3CF73
:101E58000BF0FC0EE3CF0CF0E150F30FD96EE2501B
:101E6800DA6EFF0EDA220B50DE260C50DE22000E50
:101E7800DE22DE22F10EE124D96EFF0EE220DA6EB8
:101E8800DF500C6EEC0EE124D96EFF0EE220DA6E04
:101E9800DF500C02FB0EF3CFE3FFFC0EF4CFE3FFA1
:101EA800FB0EE3CF0BF0FC0EE3CF0CF0E150F30F89
:101EB800D96EE250DA6EFF0EDA220B50DE260C5095
:101EC800DE22000EDE22DE22F10EE124D96EFF0EA4
:101ED800E220DA6EDF500C6EED0EE124D96EFF0EB3
:101EE800E220DA6EDF500C02FB0EF3CFE3FFFC0EAC
:101EF800F4CFE3FFFB0EE3CF0BF0FC0EE3CF0CF0C7
:101F08000B50056E0C50066E076A086A07C008F089
:101F180006C007F005C006F0056AE150F30FD96E58
:101F2800E250DA6EFF0EDA220550DE260650DE2277
:101F38000750DE220850DE22E150F30FD96EE2503E
:101F4800DA6EFF0EDA22FA0EE124E96EFF0EE220C5
:101F5800EA6EEF50DE26000EDE22DE22DE22E1509F
:101F6800F70FD96EE250DA6EFF0EDA22080ED8901B
:101F7800DE36DE36DE36DD36DD52DD52E82EBBEFEC
:101F88000FF0FD0EE3500B6E0C6AFE0EE3500B26AD
:101F9800000E0C22820E0B24096EFF0E0C200A6E16
:101FA800FB0E09C0E3FFFC0E0AC0E3FF02EF10F0CE
:101FB800D890F30EE336F40EE336F50EE336F60E5C
:101FC800E336FA0EE3AEEBEF0FF0EDEF0FF0EFEFC5
:101FD8000FF0F30EE380D890F70EE336F80EE336F1
:101FE800F90EE336FA0EE336E150FB0FD96EE250F4
:101FF800DA6EFF0EDA22DE06000EDD5AF50EE3AECB
:1020080008EF10F00AEF10F0DCEF0FF0FE0EE36AB5
:10201800FA0EE3AE12EF10F014EF10F041EF10F0EB
:10202800E150F70FD96EE250DA6EFF0EDA22FF0E9A
:10203800DE14096EFF0EDE140A6EFF0EDE140B6E40
:102048007F0EDE140C6E09500A100B100C10D8B459
:1020580030EF10F032EF10F037EF10F0FE0EE36AB9
:10206800E32A41EF10F0F30EE3A03DEF10F03FEF4D
:1020780010F041EF10F032EF10F0FE0EE350D8B43C
:1020880048EF10F04AEF10F085EF10F0E150F30F31
:10209800D96EE250DA6EFF0EDA22DE2A000EDE2258
:1020A800DE22DE22F60EE3A05CEF10F05EEF10F009
:1020B80085EF10F0010E0C6EE150F30FD96EE2506F
:1020C800DA6EFF0EDA220C28DE5273EF10F0DE52C1
:1020D800D890DCBED880DD32DD32DD32DE32E82E4B
:1020E8006BEF10F0FB0EE350010F016EFB0E01C009
:1020F800E3FF016AFC0EE3500120016EFC0E01C0F3
:10210800E3FFFC0EE3BE93EF10F0FC0EE35009E191
:10211800FB0EE328D8A093EF10F095EF10F0ABEF8B
:1021280010F0000E096E000E0A6E800E0B6E7F0E08
:102138000C6EF30E09C0E3FFF40E0AC0E3FFF50EC0
:102148000BC0E3FFF60E0CC0E3FFF8EF10F0FC0E37
:10215800E3BEBBEF10F0FC0EE35007E1FB0EE30417
:10216800D8B0B9EF10F0BBEF10F0C7EF10F0F30ED6
:10217800E36AF40EE36AF50EE36AF60EE36AFF0E0D
:10218800E36AF8EF10F0FB0EE3CF01F0FD0E01C09B
:10219800E3FFE150F30FD96EE250DA6EFF0EDA2258
:1021A800FF0EDE16FF0EDE167F0EDE16000EDE16A2
:1021B800FD0EE3A0E2EF10F0E4EF10F0ECEF10F00A
:1021C800F50EE124D96EFF0EE220DA6E000EDB8EEA
:1021D800F60EE124D96EFF0EE220DA6EFD0EE3CF93
:1021E8000CF0D8900C30DF6EFF0EE3CF0CF0F60E3B
:1021F800E124D96EFF0EE220DA6E0C50DF12F30EE6
:10220800E3CF01F0F40EE3CF02F0F50EE3CF03F0D5
:10221800F60EE3CF04F0EB0EE126FF0EE2221200E9
:102228000D0EE126000EE222F20EE124D96EFF0E19
:10223800E220DA6EDF500C6E800E0C16FF0E0CC01A
:10224800E3FFF20EE124D96EFF0EE220DA6EDF50D2
:102258000C6ED8900C340B6EFE0E0BC0E3FFF10E23
:10226800E124D96EFF0EE220DA6EDFAE3EEF11F008
:1022780040EF11F042EF11F0FE0EE380FE0EE35046
:10228800D8B449EF11F04BEF11F073EF11F0FE0ED7
:10229800E328D8A452EF11F054EF11F068EF11F0D1
:1022A800000E096E000E0A6E000E0B6E000E0C6E0C
:1022B800EF0E09C0E3FFF00E0AC0E3FFF10E0BC0FA
:1022C800E3FFF20E0CC0E3FFF10EE38EF20EE12401
:1022D800D96EFF0EE220DA6EDF6A87EF11F0000E8A
:1022E800096E000E0A6E000E0B6E000E0C6EEF0EDD
:1022F80009C0E3FFF00E0AC0E3FFF10E0BC0E3FFD5
:10230800F20E0CC0E3FFEE0EE124D96EFF0EE220C0
:10231800DA6EDF500C6E800E0C16E150FF0FD96E8E
:10232800E250DA6EFF0EDA220C50DF1AEE0EE124CC
:10233800D96EFF0EE220DA6EDF500C6ED8900C34A6
:102348000B6EFD0E0BC0E3FFED0EE124D96EFF0E00
:10235800E220DA6EDFAEB3EF11F0B5EF11F0B7EFB0
:1023680011F0FD0EE380FD0EE350D8B4BEEF11F07E
:10237800C0EF11F0E8EF11F0FD0EE328D8A4C7EF85
:1023880011F0C9EF11F0DDEF11F0000E096E000E2B
:102398000A6E000E0B6E000E0C6EEB0E09C0E3FF0A
:1023A800EC0E0AC0E3FFED0E0BC0E3FFEE0E0CC00F
:1023B800E3FFED0EE38EEE0EE124D96EFF0EE22070
:1023C800DA6EDF6AFCEF11F0000E096E000E0A6E7D
:1023D800000E0B6E000E0C6EEB0E09C0E3FFEC0E48
:1023E8000AC0E3FFED0E0BC0E3FFEE0E0CC0E3FFE7
:1023F800EB0EE3500DE1EC0EE3500AE1ED0EE35075
:1024080007E1EE0EE350D8A40CEF12F00EEF12F035
:1024180039EF12F0EF0EE36AF00EE36AF10EE36AA9
:10242800F20EE36AF10EE124D96EFF0EE220DA6EB5
:10243800800EDE127F0EDD12FF0EE3CF0CF0F20EDF
:10244800E124D96EFF0EE220DA6E0C50DF12EF0E97
:10245800E3CF01F0F00EE3CF02F0F10EE3CF03F08B
:10246800F20EE3CF04F022EF14F0FE0EE350D8A4EE
:1024780040EF12F042EF12F04CEF12F0000E016E36
:10248800000E026E000E036E000E046E22EF14F0B2
:10249800FE0EE3500B6E0C6AFD0EE3500B5E000E51
:1024A8000C5A7F0E0B26000E0C22FB0E0BC0E3FF0E
:1024B800FC0E0CC0E3FFEF0EE3CF09F0F00EE3CF04
:1024C8000AF0F10EE3CF0BF0F20EE3CF0CF0F70EAB
:1024D80009C0E3FFF80E0AC0E3FFF90E0BC0E3FFE3
:1024E800FA0E0CC0E3FFEF0EE36AF00EE36AF10E9A
:1024F800E36AF20EE36AF30EE36AF40EE36AF50E9A
:10250800E36AF60EE36AFD0EE36AEAEF12F0FD0EE7
:10251800E350D8B492EF12F094EF12F0B9EF12F042
:10252800D890F70EE336F80EE336F90EE336FA0ED6
:10253800E336D890EF0EE336F00EE336F10EE336CD
:10254800F20EE336F60EE3AEACEF12F0AEEF12F099
:10255800B0EF12F0EF0EE380D890F30EE336F40EEE
:10256800E336F50EE336F60EE336E150F70FD96E93
:10257800E250DA6EFF0EDA22EB0EE350DE5CEC0E70
:10258800E350DE58ED0EE350DE58EE0EE350DE5811
:10259800D8A0D1EF12F0D3EF12F0E8EF12F0F60E58
:1025A800E38CE150F70FD96EE250DA6EFF0EDA22B3
:1025B800EB0EE350DE5EEC0EE350DE5AED0EE35018
:1025C800DE5AEE0EE350DE5AFD0EE32AFD0EE3CF8F
:1025D80001F0190E0164F3EF12F0F5EF12F08BEF32
:1025E80012F0F70EE3500FE1F80EE3500CE1F90E8C
:1025F800E35009E1FA0EE350D8B405EF13F007EF02
:1026080013F031EF13F0F30EE38031EF13F0D890AD
:10261800EF0EE336F00EE336F10EE336F20EE33654
:10262800F60EE3AE1AEF13F01CEF13F01EEF13F0E3
:10263800EF0EE380D890F30EE336F40EE336F50E92
:10264800E336F60EE336E150FB0FD96EE250DA6E50
:10265800FF0EDA22DE06000EDD5AF10EE3AE37EF8A
:1026680013F039EF13F00BEF13F0FD0EE36AF60EDB
:10267800E3AE41EF13F043EF13F070EF13F0E150C6
:10268800F30FD96EE250DA6EFF0EDA22FF0EDE1477
:10269800096EFF0EDE140A6EFF0EDE140B6E7F0E3F
:1026A800DE140C6E09500A100B100C10D8B45FEF32
:1026B80013F061EF13F066EF13F0FD0EE36AE32AFF
:1026C80070EF13F0EF0EE3A06CEF13F06EEF13F062
:1026D80070EF13F061EF13F0FD0EE350D8B477EF0D
:1026E80013F079EF13F0B4EF13F0E150EF0FD96E58
:1026F800E250DA6EFF0EDA22DE2A000EDE22DE2239
:10270800DE22F20EE3A08BEF13F08DEF13F0B4EF9F
:1027180013F0010E0C6EE150EF0FD96EE250DA6E35
:10272800FF0EDA220C28DE52A2EF13F0DE52D89008
:10273800DCBED880DD32DD32DD32DE32E82E9AEFC3
:1027480013F0FB0EE350010F016EFB0E01C0E3FF17
:10275800016AFC0EE3500120016EFC0E01C0E3FF8C
:10276800FC0EE3BEC2EF13F0FC0EE35009E1FB0ED2
:10277800E328D8A0C2EF13F0C4EF13F0D6EF13F09C
:10278800FF0E0B6E000E0C6EFB0E0BC0E3FFFC0E73
:102798000CC0E3FFEF0EE36AF00EE36AF10EE36AA2
:1027A800F20EE36AFC0EE3BEE6EF13F0FC0EE35014
:1027B80007E1FB0EE304D8B0E4EF13F0E6EF13F003
:1027C800F4EF13F0FB0EE36AFC0EE36AEF0EE36A24
:1027D800F00EE36AF10EE36AF20EE36AFF0EE36AB3
:1027E800FB0EE3CF01F0FE0E01C0E3FFFE0EE3A0F7
:1027F80000EF14F002EF14F00CEF14F0F10EE124E6
:10280800D96EFF0EE220DA6E000EDB8E14EF14F0A4
:10281800F10EE124D96EFF0EE220DA6E7F0EDF168C
:10282800F20EE124D96EFF0EE220DA6EFE0EE3CF3F
:102838000CF0D8900C30DF6E20EF12F0EB0EE12692
:10284800FF0EE2221200090EE126000EE222F30E2C
:10285800E3CFD9FFF40EE3CFDAFFDECFF6FFDDCF0B
:10286800F7FFF86A0800F550250AD8A43EEF14F0DF
:1028780040EF14F044EF16F0F30EE3CFD9FFF40E57
:10288800E3CFDAFFDE2A000EDD22356A366A3768C2
:102898003868F30EE3CFD9FFF40EE3CFDAFFDECFCB
:1028A800F6FFDDCFF7FFF86A0800F5502E0AD8A426
:1028B80060EF14F062EF14F07BEF14F0F30EE3CF47
:1028C800D9FFF40EE3CFDAFFDE2A000EDD22F10E87
:1028D800E3CFE6FFE3CFE6FFF10EE3CFE6FFE3CF7A
:1028E800E6FFC6EC21F001C037F002C038F0F30E65
:1028F800E3CFD9FFF40EE3CFDAFFDECFF6FFDDCF6B
:10290800F7FFF86A0800F550730AD8B48EEF14F090
:1029180090EF14F0B1EF14F0030EE66E000EE66EC1
:10292800FB0EE66EFF0EE66EEF0EE3CFD9FFF00E5C
:10293800E3CFDAFFDECF0BF0DDCF0CF00BC0E6FF04
:102948000CC0E6FF94EC1CF001500210D8A4AFEFC5
:1029580014F0B1EF14F00FEF15F0F30EE3CFD9FF39
:10296800F40EE3CFDAFFDECFF6FFDDCFF7FFF86A2C
:102978000800F550730AD8B4C4EF14F0C6EF14F089
:10298800D2EF14F0030E0B6E000E0C6EF70E0BC098
:10299800E3FFF80E0CC0E3FFDCEF14F0010E0B6E42
:1029A800000E0C6EF70E0BC0E3FFF80E0CC0E3FF31
:1029B800F70EE3CF0BF0F80EE3CF0CF0F30EE3CFF6
:1029C800D9FFF40EE3CFDAFF0B50DE260C50DD22E0
:1029D800F10EE3CFD9FFF20EE3CFDAFF020EDE5E8F
:1029E800000EDD5ADECF0BF0DDCF0CF00BC0D9FFA7
:1029F8000CC0DAFFDECF0BF0DDCF0CF00BC0E6FF2A
:102A08000CC0E6FFF30EE3CFE6FFE3CFE6FF86EC6C
:102A18001AF05DEF16F0F30EE3CFD9FFF40EE3CF13
:102A2800DAFFDECF0BF0DDCF0CF0FE0E0CC0E3FFBB
:102A3800FD0E0BC0E3FFE150FD0FD96EE250DA6ED8
:102A4800FF0EDA22DECFF6FFDDCFF7FFF86A0800C7
:102A5800FF0EF5CFE3FF4DEF15F0FD0EE350010F2C
:102A6800016EFD0E01C0E3FF016AFE0EE350012076
:102A7800016EFE0E01C0E3FF67EF15F06C0E0C6EE1
:102A8800FF0E0CC0E3FF67EF15F0FF0EE36A67EF78
:102A980015F0FF0EE3500B6E0C6A0C50000AD8B408
:102AA80058EF15F049EF15F00B504C0AD8B431EF38
:102AB80015F02A0AD8B442EF15F00A0AD8B431EF53
:102AC80015F049EF15F0E150FD0FD96EE250DA6EBE
:102AD800FF0EDA22DECFF6FFDDCFF7FFF86A080037
:102AE800F550660AD8A47BEF15F07DEF15F039EFA5
:102AF80016F0CFEF15F0F10EE3CFD9FFF20EE3CFCA
:102B0800DAFF040EDE5E000EDD5ADECF0BF0DDCFFD
:102B18000CF00BC0D9FF0CC0DAFFDECF09F0DECF16
:102B28000AF0DECF0BF0DECF0CF0F90E09C0E3FFA0
:102B3800FA0E0AC0E3FFFB0E0BC0E3FFFC0E0CC04D
:102B4800E3FFE5EF15F0F10EE3CFD9FFF20EE3CF87
:102B5800DAFF040EDE5E000EDD5ADECF0BF0DDCFAD
:102B68000CF00BC0D9FF0CC0DAFFDECF09F0DECFC6
:102B78000AF0DECF0BF0DECF0CF0F90E09C0E3FF50
:102B8800FA0E0AC0E3FFFB0E0BC0E3FFFC0E0CC0FD
:102B9800E3FFE5EF15F0FF0EE3500B6E0C6A0C50E7
:102BA800000AD8B4DAEF15F0E5EF15F00B504C0A2F
:102BB800D8B4A7EF15F0200AD8B47FEF15F0E5EFE9
:102BC80015F0FD0EE350010F0B6EFE0EE3CF0CF077
:102BD800000E0C22F30EE3CFD9FFF40EE3CFDAFF99
:102BE8000BC0DEFF0CC0DDFF1BEF16F0E150FD0F40
:102BF800D96EE250DA6EFF0EDA22DECFF6FFDDCFB5
:102C0800F7FFF86A0800F550E66EF80EE3CFE6FF26
:102C1800E3CFE6FFE3CFE6FFE3CFE6FFF00EE3CF37
:102C2800E6FFE3CFE6FFB2EC00F05DEF16F0E1500F
:102C3800FD0FD96EE250DA6EFF0EDA22DECFF6FF14
:102C4800DDCFF7FFF86A0800F5500B6E0C6A0C50E0
:102C5800000AD8B432EF16F039EF16F00B50660AB6
:102C6800D8B4FAEF15F039EF16F0F30EE3CFD9FF29
:102C7800F40EE3CFDAFFDE2A000EDD225DEF16F058
:102C8800F50EE3CFE6FFE3CFE6FFF10EE3CFD9FF82
:102C9800F20EE3CFDAFFDECFF6FFDDCFF7FFF86AFB
:102CA8000800F550E66E000EE66E32EC21F039EFC2
:102CB80016F0F10EE126FF0EE22212000A0EE126BE
:102CC800000EE22229C009F02AC00AF02BC00BF03E
:102CD8002CC00CF0F60E09C0E3FFF70E0AC0E3FFA4
:102CE800F80E0BC0E3FFF90E0CC0E3FFF20EE3CFC2
:102CF80009F0F30EE3CF0AF0F40EE3CF0BF0F50E74
:102D0800E3CF0CF0F60E09C0E3FFF70E0AC0E3FFAD
:102D1800F80E0BC0E3FFF90E0CC0E3FF810E0B6E3B
:102D2800FF0E0C6EF60EE3CF05F0F70EE3CF06F0BC
:102D3800F80EE3CF07F0F90EE3CF08F0180EAAEF6C
:102D480016F0D8900832073206320532E82EA5EF81
:102D580016F005C009F006C00AF009500B24096EE8
:102D6800000E0C200A6EFE0E09C0E3FFFF0E0AC01B
:102D7800E3FFFF0EE3BECEEF16F0FF0EE3500CE1CB
:102D8800FE0EE3CF01F0170E015ED8A0CEEF16F0CD
:102D9800D0EF16F0DEEF16F0F20EE3CF01F0F30EEF
:102DA800E3CF02F0F40EE3CF03F0F50EE3CF04F027
:102DB800FBEF17F0FF0EE3BEE4EF16F0E6EF16F0B8
:102DC80097EF17F0FE0EE3CF0CF0FF0E056EFF0E27
:102DD800066E7F0E076E000E086E0C66F6EF16F094
:102DE800FEEF16F0083408320732063205320C2E90
:102DF800F1EF16F0FA0E05C0E3FFFB0E06C0E3FF85
:102E0800FC0E07C0E3FFFD0E08C0E3FFF60EE3CF9C
:102E180009F0F70EE3CF0AF0F80EE3CF0BF0F90E46
:102E2800E3CF0CF0FA0EE3500916FB0EE3500A1636
:102E3800FC0EE3500B16FD0EE3500C1609500A1059
:102E48000B100C10D8A42BEF17F02DEF17F02FEF65
:102E580017F0D0EF16F0F60EE3CF09F0F70EE3CF38
:102E68000AF0F80EE3CF0BF0F90EE3CF0CF0200ECA
:102E780043EF17F0D8900C320B320A320932E82EA1
:102E88003EEF17F00950D8B44CEF17F04EEF17F09B
:102E980072EF17F0F60EE350016EFA0EE3500126BA
:102EA800F60E01C0E3FFF70EE350016EFB0EE35090
:102EB8000122F70E01C0E3FFF80EE350016EFC0E8D
:102EC800E3500122F80E01C0E3FFF90EE350016E52
:102ED800FD0EE3500122F90E01C0E3FFFA0EE3CF25
:102EE80009F0FB0EE3CF0AF0FC0EE3CF0BF0FD0E6A
:102EF800E3CF0CF0091C056E0A1C066E0B1C076E4E
:102F08000C1C086EE150F60FD96EE250DA6EFF0E17
:102F1800DA220550DE160650DE160750DE16085077
:102F2800DE16EFEF17F0F60EE3CF09F0F70EE3CF5A
:102F38000AF0F80EE3CF0BF0F90EE3CF0CF0200EF9
:102F4800ABEF17F0D8900C320B320A320932E82E68
:102F5800A6EF17F00966BBEF17F0F60EE36AF70E57
:102F6800E36AF80EE36AF90EE36AEFEF17F0F60E7C
:102F7800E3CF09F0F70EE3CF0AF0F80EE3CF0BF03A
:102F8800F90EE3CF0CF0D8900934056E0A34066EBA
:102F98000B34076E0C34086E055006100710081025
:102FA800D8B4D9EF17F0DBEF17F0EFEF17F0000EFA
:102FB800096E000E0A6E800E0B6EBF0E0C6EF60EBA
:102FC80009C0E3FFF70E0AC0E3FFF80E0BC0E3FFEA
:102FD800F90E0CC0E3FFF60EE3CF01F0F70EE3CFD6
:102FE80002F0F80EE3CF03F0F90EE3CF04F0F20E8F
:102FF800E126FF0EE22212000D0EE126000EE2226B
:10300800FF0EE36AE388E38A2FEF19F0DA0EE66E23
:10301800FD0EE66E020EE66EF2EC2DF0FC0EE66E8C
:10302800FE0EE66E010EE66E64EC28F0DA0EE66E31
:10303800FE0EE66E020EE66E64EC28F051EF19F013
:103048005F0EE66EFE0EE66E020EE66EF2EC2DF0F8
:1030580045EC2EF0000EE66ED3EC28F051EF19F097
:10306800FD0EE36AFE0EE36AE150FF0FD96EE250EF
:10307800DA6EFF0EDA22D890DF32FF0EE350E66EEA
:10308800D3EC28F0010E096E0A6A0B6A0C6AF70E77
:1030980009C0E3FFF80E0AC0E3FFF90E0BC0E3FF17
:1030A800FA0E0CC0E3FFE150F70FD96EE250DA6E6A
:1030B800FF0EDA22DE2A000EDE22DE22DE22FA0EE1
:1030C800E3BE7CEF18F0FA0EE35014E1F90EE3507A
:1030D80011E1F70EE3CF01F0500E015EF80EE3CFD9
:1030E80001F0C30E015AD8A07CEF18F07EEF18F05B
:1030F80057EF18F0FD0EE350010F016EFD0E01C0F1
:10310800E3FF016AFE0EE3500120016EFE0E01C0CE
:10311800E3FFFE0EE3BE9EEF18F0FE0EE3500CE157
:10312800FD0EE3CF01F0040E015ED8A09EEF18F06B
:10313800A0EF18F038EF18F0FB0EE36AFC0EE36A14
:10314800E150FF0FD96EE250DA6EFF0EDA22D89006
:10315800DF36FF0EE350E66ED3EC28F0010E096E61
:103168000A6A0B6A0C6AF30E09C0E3FFF40E0AC080
:10317800E3FFF50E0BC0E3FFF60E0CC0E3FFE150D2
:10318800F30FD96EE250DA6EFF0EDA22DE2A000E55
:10319800DE22DE22DE22F60EE3BEE8EF18F0F60E9F
:1031A800E35014E1F50EE35011E1F30EE3CF01F023
:1031B800500E015EF40EE3CF01F0C30E015AD8A001
:1031C800E8EF18F0EAEF18F0C3EF18F0FB0EE35041
:1031D800010F016EFB0E01C0E3FF016AFC0EE35014
:1031E8000120016EFC0E01C0E3FFFC0EE3BE0AEFF6
:1031F80019F0FC0EE3500CE1FB0EE3CF01F0040ED6
:10320800015ED8A00AEF19F00CEF19F0A4EF18F03E
:1032180080A411EF19F013EF19F034EF18F051EF03
:1032280019F0B40EE66E480EE66EEF0EE3CFE6FF39
:10323800E3CFE6FF1DEC2EF051EF19F0000EE66E1D
:10324800300EE66EEF0EE3CFE6FFE3CFE6FF1DECB0
:103258002EF051EF19F0F00EE3500B6E0C6A0C5083
:10326800000AD8B43AEF19F051EF19F00B50010ADF
:10327800D8B40AEF18F0030AD8B424EF18F0060AF5
:10328800D8B40CEF19F0020AD8B415EF19F0010AF6
:10329800D8B422EF19F051EF19F0F00EE126FF0E25
:1032A800E2221200050EE126000EE222FA0EE35099
:1032B800D8B461EF19F063EF19F08EEF19F0F90E39
:1032C800E3BE6BEF19F069EF19F08EEF19F0F60E07
:1032D800E3CF09F0F70EE3CF0AF0F80EE3CF0BF0D7
:1032E800F90EE3CF0CF0091E0A1E0B1E0C1E092A4C
:1032F800000E0A220B220C22FB0E09C0E3FFFC0E73
:103308000AC0E3FFFD0E0BC0E3FFFE0E0CC0E3FF97
:10331800A6EF19F0F60EE3CF09F0F70EE3CF0AF0A7
:10332800F80EE3CF0BF0F90EE3CF0CF0FB0E09C05B
:10333800E3FFFC0E0AC0E3FFFD0E0BC0E3FFFE0E29
:103348000CC0E3FFF60EE3500DE1F70EE3500AE17F
:10335800F80EE35007E1F90EE350D8A4B6EF19F0E0
:10336800B8EF19F0C2EF19F0000E016E000E026EF0
:10337800000E036E000E046E81EF1AF0960E0C6EAE
:10338800FF0E0CC0E3FFD4EF19F0FF0EE32AD8902C
:10339800FE0EE332FD0EE332FC0EE332FB0EE332A7
:1033A800E150FB0FD96EE250DA6EFF0EDA22DE52E0
:1033B800DE52DE52FE0EDD14D8A4E5EF19F0E7EF79
:1033C80019F0C9EF19F000EF1AF0FF0EE32AE150E7
:1033D800FB0FD96EE250DA6EFF0EDA22DE2A000EFB
:1033E800DE22DE22DE22D890FE0EE332FD0EE3322C
:1033F800FC0EE332FB0EE332E150FB0FD96EE250D4
:10340800DA6EFF0EDA22DE52DE52DE52FF0EDD14D5
:10341800D8A411EF1AF013EF1AF0E9EF19F020EF22
:103428001AF0FF0EE306D890FB0EE336FC0EE336E7
:10343800FD0EE336FE0EE336FD0EE3BE26EF1AF070
:1034480028EF1AF033EF1AF0FF0EE3CF01F0020E67
:10345800016031EF1AF033EF1AF015EF1AF0FF0E92
:10346800E3B039EF1AF03BEF1AF03DEF1AF0FD0E1A
:10347800E39EE150FF0FD96EE250DA6EFF0EDA22BA
:10348800D890DF32FF0EE3CF0CF00CC005F0066ACF
:10349800076A086A05C008F0076A066A056AE15003
:1034A800FB0FD96EE250DA6EFF0EDA220550DE12FB
:1034B8000650DE120750DE120850DE12FA0EE350F4
:1034C800D8B469EF1AF06BEF1AF075EF1AF0F90E2D
:1034D800E3BE73EF1AF071EF1AF075EF1AF0FE0EF3
:1034E800E38EFB0EE3CF01F0FC0EE3CF02F0FD0EFE
:1034F800E3CF03F0FE0EE3CF04F0F60EE126FF0E55
:10350800E2221200110EE126000EE22220EE49F01E
:10351800070E016EEF0EDECFE3FFE828012EFBD782
:10352800EB0EE3CF0BF0EC0EE3CF0CF0FB0E0CC070
:10353800E3FFFA0E0BC0E3FFFA0EE3CF01F0FB0E38
:10354800E3500110D8A4ABEF1AF0ADEF1AF0B9EFC1
:103558001AF0EF0EE1240B6EFF0EE2200C6EFB0E4C
:103568000CC0E3FFFA0E0BC0E3FFFA0EE3CFE6FF51
:10357800E3CFE6FFDDEC2CF0F80E01C0E3FFF90E17
:1035880002C0E3FFF60E37C0E3FFF70E38C0E3FFD3
:10359800F70EE3BED2EF1AF0D4EF1AF0FAEF1AF0F2
:1035A800E150F60FD96EE250DA6EFF0EDA22F80E0D
:1035B800E350DE5CDE50800A016EF90EE350800AAB
:1035C8000158D8A0EAEF1AF0ECEF1AF0EEEF1AF073
:1035D800FAEF1AF0F60EE3CF01F0F80E01C0E3FFA0
:1035E800F70EE3CF01F0F90E01C0E3FFF80EE3CFC9
:1035F80001F0F60E01C0E3FFF90EE3CF01F0F70E7C
:1036080001C0E3FFFE0E35C0E3FFFF0E36C0E3FF47
:1036180028EF1BF0ED0EE3CFE6FFE3CFE6FF200E29
:10362800E66E000EE66E32EC21F0F80EE350010F64
:10363800016EF80E01C0E3FF016AF90EE3500120A4
:10364800016EF90E01C0E3FFE150F80FD96EE250A8
:10365800DA6EFF0EDA22FE0EE350DE5CDE50800AE0
:10366800016EFF0EE350800A0158D8A03EEF1BF010
:1036780040EF1BF00EEF1BF0FC0EE36AFD0EE36A51
:1036880075EF1BF0ED0EE3CFE6FFE3CFE6FFF80E94
:10369800E3CFD9FFF90EE3CFDAFFDF50E66E000E75
:1036A800E66E32EC21F0FA0EE350010F016EFA0ECD
:1036B80001C0E3FF016AFB0EE3500120016EFB0E1F
:1036C80001C0E3FFFC0EE350010F016EFC0E01C0C8
:1036D800E3FF016AFD0EE3500120016EFD0E01C0FB
:1036E800E3FFE150FC0FD96EE250DA6EFF0EDA22EA
:1036F800F60EE350DE5CDE50800A016EF70EE350F2
:10370800800A0158D8A08BEF1BF08DEF1BF046EF15
:103718001BF0EB0EE126FF0EE2221200110EE1264D
:10372800000EE22271EF1CF0220EE66EFC0EE66E31
:10373800010EE66E64EC28F0ED0EE66EFD0EE66E08
:10374800020EE66EF2EC2DF08FEF1CF0710EE66EB5
:10375800FE0EE66E020EE66EF2EC2DF045EC2EF053
:103768008FEF1CF09E0EE66E490EE66EEB0EE3CF71
:10377800E6FFE3CFE6FF1DEC2EF08FEF1CF06F0E97
:10378800E66E120EE66E830EE66E3A0EE66E000EDA
:10379800E66E400EE66E4E0EE66E400EE66E040EC7
:1037A800E66EC4EC2DF001C00BF002C00CF00B501B
:1037B800056E0C50066E076A086A05C0E6FF06C06B
:1037C800E6FF07C0E6FF08C0E6FF000EE66E56EC0F
:1037D80019F001C0E6FF02C0E6FF03C0E6FF04C01F
:1037E800E6FFE9EC0CF001C0E6FF02C0E6FF03C00B
:1037F800E6FF04C0E6FFE9EC0CF001C0E6FF02C0FA
:10380800E6FF03C0E6FF04C0E6FF6F0EE66E120E89
:10381800E66E830EE66E3A0EE66E000EE66E400E1B
:10382800E66E4E0EE66E400EE66E050EE66EC4ECD3
:103838002DF001C00BF002C00CF00B50056E0C50BF
:10384800066E076A086A05C0E6FF06C0E6FF07C0FD
:10385800E6FF08C0E6FF000EE66E56EC19F001C060
:10386800E6FF02C0E6FF03C0E6FF04C0E6FFE9EC9E
:103878000CF001C0E6FF02C0E6FF03C0E6FF04C08B
:10388800E6FFE9EC0CF001C0E6FF02C0E6FF03C06A
:10389800E6FF04C0E6FF4C0EE66EFE0EE66EE50E91
:1038A800E124016EFF0EE220026E01C0E6FF02C0B5
:1038B800E6FF0C0EE66EACEC29F0EF0EE124016E8B
:1038C800FF0EE220026E01C0E6FF02C0E6FF020E14
:1038D800E66E64EC28F08FEF1CF0EC0EE3500B6EF4
:1038E8000C6A0C50000AD8B47CEF1CF08FEF1CF067
:1038F8000B50010AD8B498EF1BF0030AD8B4AAEF0A
:103908001BF0040AD8B4B6EF1BF00E0AD8B4C3EF04
:103918001BF08FEF1CF0EC0EE126FF0EE2221200E6
:10392800E652E652E652E652FA0EE3CF0BF0FB0EF1
:10393800E3CF0CF0FF0E0CC0E3FFFE0E0BC0E3FF5D
:10394800F80EE3CF0BF0F90EE3CF0CF0FD0E0CC030
:10395800E3FFFC0E0BC0E3FFF60EE3CF01F0010E10
:10396800015EF60E01C0E3FFF70EE3CF01F0000E93
:10397800015AF70E01C0E3FFF60EE32807E1F70E40
:10398800E328D8A4CAEF1CF0CCEF1CF000EF1DF020
:10399800000E016E000E026E7FEF1DF0FE0EE3506A
:1039A800010F016EFE0E01C0E3FF016AFF0EE35036
:1039B8000120016EFF0E01C0E3FFFC0EE350010F72
:1039C800016EFC0E01C0E3FF016AFD0EE350012009
:1039D800016EFD0E01C0E3FFF60EE3CF01F0010E0C
:1039E800015EF60E01C0E3FFF70EE3CF01F0000E13
:1039F800015AF70E01C0E3FFE150FE0FD96EE25005
:103A0800DA6EFF0EDA22DECFF6FFDDCFF7FFF86AB7
:103A18000800F5500009D8B414EF1DF016EF1DF09A
:103A28005EEF1DF0E150FC0FD96EE250DA6EFF0E2A
:103A3800DA22DECFF6FFDDCFF7FFF86A0800F5508F
:103A48000009D8B42AEF1DF02CEF1DF05EEF1DF031
:103A5800F60EE3CF01F0F70EE3500110D8B437EFBC
:103A68001DF039EF1DF05EEF1DF0E150FE0FD96E2D
:103A7800E250DA6EFF0EDA22DECFF6FFDDCFF7FF77
:103A8800F86A0800F5CF0CF0E150FC0FD96EE2504F
:103A9800DA6EFF0EDA22DECFF6FFDDCFF7FFF86A27
:103AA8000800F5500C18D8B45CEF1DF05EEF1DF05F
:103AB800D2EF1CF0E150FE0FD96EE250DA6EFF0E25
:103AC800DA22DECFF6FFDDCFF7FFF86A0800F550FF
:103AD800016E026AE150FC0FD96EE250DA6EFF0EF9
:103AE800DA22DECFF6FFDDCFF7FFF86A0800F550DF
:103AF800015E000E025AF60EE126FF0EE2221200C7
:103B0800E652E652FA0EE3CF09F0FB0EE3CF0AF0D5
:103B1800FC0EE3CF0BF0FD0EE3CF0CF0180E9AEF7E
:103B28001DF0D8900C320B320A320932E82E95EF8C
:103B38001DF0FE0E09C0E3FFFE0EE350D8A4A7EF68
:103B48001DF0A9EF1DF0B0EF1DF0000E016E026A26
:103B5800036A046A53EF1EF0FA0EE3CF09F0FB0E76
:103B6800E3CF0AF0FC0EE3CF0BF0FD0EE3CF0CF031
:103B7800200EC4EF1DF0D8900C320B320A320932F5
:103B8800E82EBFEF1DF0FF0E09C0E3FFFC0EE38E29
:103B9800E150FA0FD96EE250DA6EFF0EDA22FF0E0C
:103BA800DE16FF0EDE16FF0EDE16000EDE16FE0E09
:103BB800E3CF01F0960E015EFE0E01C0E3FFFE0E9C
:103BC800E3BEEBEF1DF0E9EF1DF00CEF1EF0FE0E6B
:103BD800E350800A970FD8B0F4EF1DF0F6EF1DF010
:103BE800F8EF1DF0A9EF1DF0D890FD0EE332FC0EA2
:103BF800E332FB0EE332FA0EE332FE0EE32AD8A4D8
:103C080008EF1EF00AEF1EF0F8EF1DF02DEF1EF082
:103C1800FE0EE3CF01F01F0E016415EF1EF017EF43
:103C28001EF024EF1EF0A9EF1DF0D890FA0EE3362F
:103C3800FB0EE336FC0EE336FD0EE336FE0EE3061E
:103C4800FE0EE350D8A42BEF1EF02DEF1EF019EF57
:103C58001EF0FF0EE350D8B434EF1EF036EF1EF01E
:103C680047EF1EF0FA0EE36CFB0EE31EFC0EE31E9C
:103C7800FD0EE31E08E3FB0EE32A05E3FC0EE32A30
:103C880002E3FD0EE32AFA0EE3CF01F0FB0EE3CFC9
:103C980002F0FC0EE3CF03F0FD0EE3CF04F0FA0EC2
:103CA800E126FF0EE2221200060EE126000EE222B5
:103CB8002DC009F02EC00AF02FC00BF030C00CF058
:103CC800FA0E09C0E3FFFB0E0AC0E3FFFC0E0BC0AF
:103CD800E3FFFD0E0CC0E3FFF60EE3CF09F0F70E8D
:103CE800E3CF0AF0F80EE3CF0BF0F90EE3CF0CF0B8
:103CF800FA0E09C0E3FFFB0E0AC0E3FFFC0E0BC07F
:103D0800E3FFFD0E0CC0E3FFFA0EE3CF09F0FB0E54
:103D1800E3CF0AF0FC0EE3CF0BF0FD0EE3CF0CF07F
:103D2800180E9CEF1EF0D8900C320B320A32093272
:103D3800E82E97EF1EF009C007F00AC008F0FF0E42
:103D48000716000E0816FE0E07C0E3FFFF0E08C098
:103D5800E3FFFE0EE3CF01F0FF0EE3500110D8A4FD
:103D6800B8EF1EF0BAEF1EF0E6EF1EF0FA0EE3CF42
:103D780009F0FB0EE3CF0AF0FC0EE3CF0BF0FD0ECB
:103D8800E3CF0CF0D8900934056E0A34066E0B3474
:103D9800076E0C34086E0550061007100810D8A4DA
:103DA800D8EF1EF0DAEF1EF0E0EF1EF0020E016E03
:103DB800000E026E1CEF1FF0030E016E000E026E65
:103DC8001CEF1FF0FE0EE32807E1FF0EE350D8A416
:103DD800F0EF1EF0F2EF1EF018EF1FF0FA0EE3CF2F
:103DE80009F0FB0EE3CF0AF0FC0EE3CF0BF0FD0E5B
:103DF800E3CF0CF0090ED89009360A360B360C368C
:103E0800E82EFFEF1EF009500A100B100C10D8B462
:103E180010EF1FF013EF1FF0010E14EF1FF0000E4C
:103E2800016E026A1CEF1FF0040E016E000E026E96
:103E3800F60EE126FF0EE2221200E150FC0FD96EC9
:103E4800E250DA6EFF0EDA22000EDE14096E000E62
:103E5800DE140A6E800EDE140B6E7F0EDE140C6EFE
:103E680009500A100B100C10D8A43DEF1FF03FEFBB
:103E78001FF047EF1FF0FC0EE36AFD0EE36AFE0E2B
:103E8800E36AFF0EE36AE150F80FD96EE250DA6E8A
:103E9800FF0EDA22000EDE14096E000EDE140A6E22
:103EA800800EDE140B6E7F0EDE140C6E09500A10A5
:103EB8000B100C10D8A463EF1FF065EF1FF06DEF27
:103EC8001FF0F80EE36AF90EE36AFA0EE36AFB0ED6
:103ED800E36AFF0EE3AE73EF1FF075EF1FF095EF87
:103EE8001FF0000E096E000E0A6E000E0B6E800E9B
:103EF8000C6EFC0EE350095EFD0EE3500A5AFE0EEE
:103F0800E3500B5AFF0EE3500C5AFC0E09C0E3FFB6
:103F1800FD0E0AC0E3FFFE0E0BC0E3FFFF0E0CC050
:103F2800E3FFFB0EE3AE9BEF1FF09DEF1FF0BDEF2D
:103F38001FF0000E096E000E0A6E000E0B6E800E4A
:103F48000C6EF80EE350095EF90EE3500A5AFA0EA9
:103F5800E3500B5AFB0EE3500C5AF80E09C0E3FF6E
:103F6800F90E0AC0E3FFFA0E0BC0E3FFFB0E0CC00C
:103F7800E3FFFF0EE37EFB0EE37EE150FC0FD96EFC
:103F8800E250DA6EFF0EDA22F80EE350DE5CF90E2C
:103F9800E350DE58FA0EE350DE58FB0EE350DE58CD
:103FA800D8B0D9EF1FF0DBEF1FF0DEEF1FF0019064
:103FB800DFEF1FF00180F80EE126FF0EE22212006B
:103FC800110EE126000EE22279EF20F0C60EE66E11
:103FD800FD0EE66E020EE66EF2EC2DF0540EE66E65
:103FE800FC0EE66E010EE66E64EC28F0760EE66EC8
:103FF800FF0EE66E020EE66EF2EC2DF097EF20F063
:10400800390EE66EFE0EE66E020EE66EF2EC2DF04E
:1040180045EC2EF097EF20F0720EE66E4B0EE66E32
:10402800EB0EE3CFE6FFE3CFE6FF1DEC2EF097EFB4
:1040380020F00001A36B39EF20F020EE81F0DECFF5
:104048000BF0DDCF0CF0600E0B24D96E000E0C20A7
:10405800DA6E830EA325E96EEA6A000EEA22DFCF44
:10406800EFFF8107D8A08207A32B82BF40EF20F083
:104078003EEF20F021EF20F0830EA325D96EDA6AF7
:10408800000EDA22DF6A830EE66E000EE66EE70E99
:10409800E66EFF0EE66E040EE66EF2EC2DF0830E71
:1040A800E66E000EE66EC50EE66EFB0EE66EEB0ED5
:1040B800E124016EFF0EE220026E01C0E6FF02C09D
:1040C800E6FF060EE66EACEC29F0EF0EE124016E79
:1040D800FF0EE220026E01C0E6FF02C0E6FF020EFC
:1040E800E66E64EC28F097EF20F0EC0EE3500B6ED0
:1040F8000C6A0C50000AD8B484EF20F097EF20F037
:104108000B50010AD8B4EAEF1FF0030AD8B404EF41
:1041180020F0040AD8B410EF20F00F0AD8B41DEF2D
:1041280020F097EF20F0EC0EE126FF0EE2221200BD
:10413800FACF3EF0FBCF3FF0E1CF40F0E2CF41F0C5
:10414800D9CF42F0DACF43F001C044F009C045F0BE
:104158000AC046F00BC047F00CC048F015EEF4F06A
:104168009EA0B9EF20F0BBEF20F0CBEF20F09DA090
:10417800C0EF20F0C2EF20F0CBEF20F0080EE66E83
:1041880071EC2FF0D80ECF6EEF0ECE6E9E907EA4FF
:10419800D0EF20F0D2EF20F0F8EF20F07DA4D7EF99
:1041A80020F0D9EF20F0F8EF20F0FF0E3126FF0EB7
:1041B8003222FF0E3322FF0E342234BEF0EF20F0FD
:1041C80034503310321006E13104D8B0EEEF20F04D
:1041D800F0EF20F0F6EF20F0070EE66E71EC2FF00E
:1041E8000F014A958A7A7E949EAAFDEF20F0FFEF90
:1041F80020F01BEF21F09DAA04EF21F006EF21F03B
:104208001BEF21F039503A10D8B40DEF21F00FEF21
:1042180021F01BEF21F002D81BEF21F00500FA6E08
:104228003950FD6E3A50FE6EFF6AFA50120048C0CF
:104238000CF047C00BF046C00AF045C009F044C076
:1042480001F043C0DAFF42C0D9FF41C0E2FF40C0DD
:10425800E1FF3FC0FBFF3EC0FAFF1100FC0EE3CFB9
:1042680001F0FD0EE3500110D8B43DEF21F03FEF0F
:1042780021F04CEF21F0FC0EE3CF01F0FD0EE350EE
:104288000110D8A44AEF21F04CEF21F053EF21F0B0
:10429800FE0EE350E66E65EC2FF0C1EF21F0FC0E48
:1042A800E3CF0BF0FD0EE3CF0CF00A0E0B24D96E12
:1042B800000E0C20DA6EDE50DE10D8B466EF21F066
:1042C80068EF21F08FEF21F0FC0EE3CF0BF0FD0E2D
:1042D800E3CF0CF00A0E0B24D96E000E0C20DA6E18
:1042E800FC0EE3CF0BF0FD0EE3CF0CF0030E0B2416
:1042F800E96E000E0C20EA6EDE50EE5CEE50800A8D
:10430800016EDE50800A0158D8B08DEF21F08FEF92
:1043180021F0C1EF21F0FC0EE3CF0BF0FD0EE3CF4F
:104328000CF0030E0B24D96E000E0C20DA6EDECFD3
:104338000BF0DDCF0CF0FC0EE3CFD9FFFD0EE3CF81
:10434800DAFFDECF09F0DDCF0AF00B500924D96E71
:104358000C500A20DA6EFE0EE3CFDFFFFC0EE3CF2F
:104368000BF0FD0EE3CF0CF0030E0B24D96E000EFC
:104378000C20DA6EDE2A000EDD22E552E552E55207
:10438800E5521200E652E652E652FE0EE36AFF0ECE
:10439800E36AFB0EE3CFD9FFFC0EE3CFDAFFDECFF3
:1043A800F6FFDDCFF7FFF86A0800F5502A0AD8A40F
:1043B800E0EF21F0E2EF21F02CEF22F0FB0EE3CF4B
:1043C800D9FFFC0EE3CFDAFFDE2A000EDD22F90E5C
:1043D800E3CFD9FFFA0EE3CFDAFF020EDE5E000E5E
:1043E800DD5ADECF0BF0DDCF0CF00BC0D9FF0CC0CF
:1043F800DAFFDECF0BF0DDCF0CF0FE0E0BC0E3FFD3
:10440800FF0E0CC0E3FF4AEF22F0FE0EE3CF0BF0E5
:10441800FF0EE3CF0CF00A0E0B02F3CF09F0F4CF36
:104428000AF00C02F3500A26FD0EE3500926000E8E
:104438000A22FE0E09C0E3FFFF0E0AC0E3FFFB0ECF
:10444800E3CFD9FFFC0EE3CFDAFFDE2A000EDD2230
:10445800FB0EE3CFD9FFFC0EE3CFDAFFDECFF6FF8A
:10446800DDCFF7FFF86A0800F5CF0CF0D00E0C2668
:10447800FD0E0CC0E3FFFD0EE3CF01F0090E016451
:1044880048EF22F04AEF22F009EF22F0FE0EE3CFC8
:1044980001F0FF0EE3CF02F0F90EE126FF0EE22253
:1044A8001200E6525CEF22F0000E016ED8EF22F007
:1044B800FD0EE3CF0BF0FE0EE3CF0CF0200E0B2425
:1044C800D96E000E0C20DA6EDF501F0B0C6EFD0E3D
:1044D800E3CF09F0FE0EE3CF0AF0210E0924D96ECE
:1044E800000E0A20DA6EDF501F0B0C18D8B47FEFCD
:1044F80022F081EF22F058EF22F0F2BE86EF22F090
:104508008AEF22F00C6A0C2A8BEF22F00C6A010E5B
:104518000C16FF0E0CC0E3FFF29EFD0EE3CF0BF06E
:10452800FE0EE3CF0CF0210E0B24D96E000E0C20EA
:10453800DA6EDF501F0B0C6EFD0EE3CF09F0FE0E96
:10454800E3CF0AF00C500924D96E000E0A20DA6E67
:10455800FB0EE3CFE9FFFC0EE3CFEAFFDFCFEFFF6F
:10456800FD0EE3CF0BF0FE0EE3CF0CF0210E0B2473
:10457800D96E000E0C20DA6EDF501F0B0C6E0C2A61
:10458800DF500C18E00B0C18DF6EFF0EE3CF0CF0B9
:104598000C30D8B0D2EF22F0D5EF22F0F28ED6EF61
:1045A80022F0F29E010E016EFB0EE126FF0EE222C2
:1045B8001200E652E652E652050E026E0F0E016E2A
:1045C800F10EE82EFED7012EFCD7022EFAD700F006
:1045D80094EC2DF059EC2FF03CEC2FF063EC23F029
:1045E800F28CF28EBA84CD80B20EE66E5A0EE66E6A
:1045F8007CEC2FF0FF0EE36A860EE66E560EE66E32
:10460800FB0EE124016EFF0EE220026E01C0E6FF00
:1046180002C0E6FFD7EC2EF0958A9484FC0E0F01B9
:104628004917C70EBB6E3F0EBD16BD50F00B0C09E7
:10463800BD6EBE6AFC0EBA169E92BA849EA227EF81
:1046480023F029EF23F022EF23F0959A9494010E9A
:104658000F013C6FC09EC050F80B0609C06EC050D9
:10466800C70B3009C06EC280C250830B1409C26EDA
:10467800FF0EE124016EFF0EE220026E01C0E6FF8C
:1046880002C0E6FF4BEC2FF00150D8B44EEF23F0F8
:1046980050EF23F03CEF23F0FF0EE350E66EFC0EE4
:1046A800E124016EFF0EE220026E01C0E6FF02C0A7
:1046B800E6FFB5EC2EF03CEF23F0AEEF00F00F0173
:1046C8003B913B9395809582929089806C50F00B3A
:1046D80008096C6E130E6E6E6C8A340E016EF20E43
:1046E800E82EFED7012EFCD76B806BB07EEF23F04F
:1046F80080EF23F079EF23F0A49E7C0EE66E28EC81
:104708002FF0800EE66E28EC2FF0380EE66E28ECBF
:104718002FF0800EE66E28EC2FF0390EE66E28ECAE
:104728002FF0800EE66E28EC2FF0170EE66E28ECC0
:104738002FF0800EE66E28EC2FF07A0EE66E28EC4D
:104748002FF0800EE66E28EC2FF05E0EE66E28EC59
:104758002FF0800EE66E28EC2FF06B0EE66E28EC3C
:104768002FF0800EE66E28EC2FF00C0EE66E28EC8B
:104778002FF0800EE66E28EC2FF0010EE66E28EC86
:104788002FF0800EE66E28EC2FF0060EE66E28EC71
:104798002FF0800EE66E28EC2FF0020EE66E28EC65
:1047A8002FF06B846BB4DBEF23F0DDEF23F0D6EF53
:1047B80023F0340E016EF20EE82EFED7012EFCD740
:1047C800120034EF24F0580EE66EFF0EE66E020E6D
:1047D800E66EF2EC2DF0480EE66EFD0EE66E010E6A
:1047E800E66E64EC28F0820EE66EFC0EE66E020EB3
:1047F800E66E64EC28F056EF24F0CB0EE66EFF0E62
:10480800E66E020EE66EF2EC2DF045EC2EF056EF59
:1048180024F0B40EE66E480EE66EFC0EE3CFE6FF1B
:10482800E3CFE6FF1DEC2EF056EF24F0F60EE66E11
:10483800540EE66EFC0EE3CFE6FFE3CFE6FF1DEC79
:104848002EF056EF24F0220EE66E4E0EE66EFC0EAB
:10485800E3CFE6FFE3CFE6FF1DEC2EF056EF24F0A2
:10486800FD0EE3500B6E0C6A0C50000AD8B43FEFF3
:1048780024F056EF24F00B50010AD8B4E7EF23F0E8
:10488800030AD8B401EF24F0010AD8B40DEF24F0DC
:10489800070AD8B41AEF24F0010AD8B427EF24F095
:1048A80056EF24F0E552E552E5521200A9EF24F044
:1048B800490EE66EFF0EE66E020EE66EF2EC2DF085
:1048C800C40EE66EFC0EE66E010EE66E64EC28F091
:1048D800320EE66EFD0EE66E020EE66E64EC28F011
:1048E800CBEF24F0BD0EE66EFF0EE66E020EE66E0E
:1048F800F2EC2DF045EC2EF0CBEF24F09E0EE66E98
:10490800490EE66EFC0EE3CFE6FFE3CFE6FF1DECB3
:104918002EF0CBEF24F0CA0EE66E470EE66EFC0EC4
:10492800E3CFE6FFE3CFE6FF1DEC2EF0CBEF24F05C
:10493800000EE66E300EE66EFC0EE3CFE6FFE3CF28
:10494800E6FF1DEC2EF0CBEF24F0FD0EE3500B6ECE
:104958000C6A0C50000AD8B4B4EF24F0CBEF24F062
:104968000B50010AD8B45CEF24F0030AD8B476EFF0
:1049780024F0010AD8B482EF24F0070AD8B48FEFE4
:1049880024F0010AD8B49CEF24F0CBEF24F0E552D0
:10499800E552E55212001EEF25F03A0EE66EFF0EC4
:1049A800E66E020EE66EF2EC2DF0F00EE66EFC0EF0
:1049B800E66E010EE66E64EC28F0AE0EE66EFC0EB6
:1049C800E66E020EE66E64EC28F040EF25F0AF0EBE
:1049D800E66EFF0EE66E020EE66EF2EC2DF045EC8A
:1049E8002EF040EF25F0880EE66E4A0EE66EFC0EBD
:1049F800E3CFE6FFE3CFE6FF1DEC2EF040EF25F016
:104A0800B40EE66E480EE66EFC0EE3CFE6FFE3CF8B
:104A1800E6FF1DEC2EF040EF25F0240EE66E370E73
:104A2800E66EFC0EE3CFE6FFE3CFE6FF1DEC2EF0CB
:104A380040EF25F0FD0EE3500B6E0C6A0C50000A97
:104A4800D8B429EF25F040EF25F00B50010AD8B46F
:104A5800D1EF24F0030AD8B4EBEF24F0010AD8B45C
:104A6800F7EF24F0070AD8B404EF25F0010AD8B408
:104A780011EF25F040EF25F0E552E552E55212001E
:104A880093EF25F02B0EE66EFF0EE66E020EE66E35
:104A9800F2EC2DF01C0EE66EFD0EE66E010EE66ED3
:104AA80064EC28F0DA0EE66EFC0EE66E020EE66E98
:104AB80064EC28F0B5EF25F0A10EE66EFF0EE66E69
:104AC800020EE66EF2EC2DF045EC2EF0B5EF25F077
:104AD800720EE66E4B0EE66EFC0EE3CFE6FFE3CFFA
:104AE800E6FF1DEC2EF0B5EF25F09E0EE66E490EA2
:104AF800E66EFC0EE3CFE6FFE3CFE6FF1DEC2EF0FB
:104B0800B5EF25F0820EE66E520EE66EFC0EE3CF90
:104B1800E6FFE3CFE6FF1DEC2EF0B5EF25F0FD0E26
:104B2800E3500B6E0C6A0C50000AD8B49EEF25F0C7
:104B3800B5EF25F00B50010AD8B446EF25F0030A6B
:104B4800D8B460EF25F0010AD8B46CEF25F0070A55
:104B5800D8B479EF25F0010AD8B486EF25F0B5EF7F
:104B680025F0E552E552E552120008EF26F01C0E3A
:104B7800E66EFF0EE66E020EE66EF2EC2DF05E0EAD
:104B8800E66EFD0EE66E010EE66E64EC28F0060E8B
:104B9800E66EFD0EE66E020EE66E64EC28F02AEF75
:104BA80026F0930EE66EFF0EE66E020EE66EF2EC4F
:104BB8002DF045EC2EF02AEF26F0BE0EE66E550ECF
:104BC800E66EFC0EE3CFE6FFE3CFE6FF1DEC2EF02A
:104BD8002AEF26F0880EE66E4A0EE66EFC0EE3CF4C
:104BE800E6FFE3CFE6FF1DEC2EF02AEF26F0C80E15
:104BF800E66E3F0EE66EFC0EE3CFE6FFE3CFE6FF80
:104C08001DEC2EF02AEF26F0FD0EE3500B6E0C6A19
:104C18000C50000AD8B413EF26F02AEF26F00B50F8
:104C2800010AD8B4BBEF25F0030AD8B4D5EF25F0B4
:104C3800010AD8B4E1EF25F0070AD8B4EEEF25F061
:104C4800010AD8B4FBEF25F02AEF26F0E552E55229
:104C5800E5521200E150FC0FD96EE250DA6EFF0EF9
:104C6800DA22000EDE14096E000EDE140A6E800EC3
:104C7800DE140B6E7F0EDE140C6E09500A100B103A
:104C88000C10D8A44AEF26F04CEF26F054EF26F08B
:104C9800FC0EE36AFD0EE36AFE0EE36AFF0EE36AAA
:104CA800E150F80FD96EE250DA6EFF0EDA22000EEC
:104CB800DE14096E000EDE140A6E800EDE140B6E12
:104CC8007F0EDE140C6E09500A100B100C10D8A4BD
:104CD80070EF26F072EF26F07AEF26F0F80EE36A0E
:104CE800F90EE36AFA0EE36AFB0EE36AE150FC0F81
:104CF800D96EE250DA6EFF0EDA22F80EE350DE18B3
:104D080012E1F90EE350DE180EE1FA0EE350DE1858
:104D18000AE1FB0EE350DE18D8B495EF26F097EFC2
:104D280026F09AEF26F001909BEF26F00180F80E0E
:104D3800E126FF0EE2221200EFEF26F0950EE66E56
:104D4800FE0EE66E020EE66EF2EC2DF0FC0EE66E3E
:104D5800FE0EE66E010EE66E64EC28F0DA0EE66EE4
:104D6800FE0EE66E020EE66E64EC28F0C00E3B6E98
:104D78000DEF27F0A70EE66EFE0EE66E020EE66E4B
:104D8800F2EC2DF045EC2EF0000EE66ED3EC28F098
:104D98000DEF27F0D8903B323B50E66ED3EC28F06D
:104DA800800E3B263B28D8A4DCEF26F0DEEF26F069
:104DB8000DEF27F0800E3B6E0DEF27F0F60EE66E36
:104DC800540EE66EFC0EE3CFE6FFE3CFE6FF1DECE4
:104DD8002EF00DEF27F0FD0EE3500B6E0C6A0C5011
:104DE800000AD8B4FAEF26F00DEF27F00B50010AAD
:104DF800D8B4A2EF26F0030AD8B4BEEF26F0060A0C
:104E0800D8B4CEEF26F0020AD8B4E2EF26F00DEFC0
:104E180027F0E552E552E552120060EF27F09E0EAA
:104E2800E66EFD0EE66E020EE66EF2EC2DF0FC0E5E
:104E3800E66EFE0EE66E010EE66E64EC28F0DA0E03
:104E4800E66EFE0EE66E020EE66E64EC28F0C00E0C
:104E58003C6E7EEF27F0000EE66EFE0EE66E020E4A
:104E6800E66EF2EC2DF045EC2EF0000EE66ED3EC7B
:104E780028F07EEF27F0D8903C323C50E66ED3EC19
:104E880028F0800E3C263C28D8A44DEF27F04FEFA1
:104E980027F07EEF27F0800E3C6E7EEF27F0CA0EDB
:104EA800E66E470EE66EFC0EE3CFE6FFE3CFE6FFC5
:104EB8001DEC2EF07EEF27F0FD0EE3500B6E0C6A12
:104EC8000C50000AD8B46BEF27F07EEF27F00B5098
:104ED800010AD8B413EF27F0030AD8B42FEF27F04C
:104EE800060AD8B43FEF27F0020AD8B453EF27F0E8
:104EF8007EEF27F0E552E552E5521200D1EF27F098
:104F0800B20EE66EFD0EE66E020EE66EF2EC2DF0C7
:104F1800FC0EE66EFE0EE66E010EE66E64EC28F000
:104F2800DA0EE66EFE0EE66E020EE66E64EC28F011
:104F3800C00E3D6EEFEF27F0260EE66EFE0EE66E13
:104F4800020EE66EF2EC2DF045EC2EF0000EE66E49
:104F5800D3EC28F0EFEF27F0D8903D323D50E66EC5
:104F6800D3EC28F0800E3D263D28D8A4BEEF27F0CC
:104F7800C0EF27F0EFEF27F0800E3D6EEFEF27F040
:104F8800BE0EE66E550EE66EFC0EE3CFE6FFE3CFEF
:104F9800E6FF1DEC2EF0EFEF27F0FD0EE3500B6E51
:104FA8000C6A0C50000AD8B4DCEF27F0EFEF27F0BA
:104FB8000B50010AD8B484EF27F0030AD8B4A0EF45
:104FC80027F0060AD8B4B0EF27F0020AD8B4C4EF25
:104FD80027F0EFEF27F0E552E552E5521200050EF3
:104FE800E126000EE222F70EE3CF0BF0F80EE3CF36
:104FF8000CF0FC0E0CC0E3FFFB0E0BC0E3FFF90E38
:10500800E3CF0BF0FA0EE3CF0CF0FE0E0CC0E3FF7B
:10501800FD0E0BC0E3FF43EF28F0FB0EE3CFD9FFF3
:10502800FC0EE3CFDAFFDF500C6EFF0E0CC0E3FF7F
:10503800FB0EE350010F016EFB0E01C0E3FF016A96
:10504800FC0EE3500120016EFC0E01C0E3FFFD0ED3
:10505800E3CFD9FFFE0EE3CFDAFFFF0EE3CFDFFF8A
:10506800FD0EE350010F016EFD0E01C0E3FF016A62
:10507800FE0EE3500120016EFE0E01C0E3FFF50EA7
:10508800E3CF01F0010E015EF50E01C0E3FFF60E5D
:10509800E3CF01F0000E015AF60E01C0E3FFF50E52
:1050A800E32807E1F60EE328D8A45DEF28F05FEFC8
:1050B80028F011EF28F0F50EE126FF0EE22212008B
:1050C800E6526B806BB06BEF28F06DEF28F066EF5F
:1050D80028F0A49E7C0EE66E28EC2FF0800EE66E7B
:1050E80028EC2FF0FE0EE304D8A47DEF28F07FEF24
:1050F80028F085EF28F0800EE66E28EC2FF095EF6B
:1051080028F0FE0EE3CF01F0020E0118D8A48FEFAD
:1051180028F091EF28F095EF28F0C00EE66E28EC05
:105128002FF0400EE66E28EC2FF0FF0EE36AFF0E1C
:10513800E3500B6E0C6AFC0EE3500B26FD0EE35099
:105148000C220BC0F6FF0CC0F7FF000EF86E0F0E16
:10515800F76403D00800F55005D0F6CFE9FFF7CF84
:10516800EAFFEF50E66E28EC2FF0FF0EE32AFF0E61
:10517800E3CF01F00F0E0164C4EF28F0C6EF28F06A
:105188009BEF28F06B846BB4CCEF28F0CEEF28F0BF
:10519800C7EF28F0E552E552E552E5521200FF0E3E
:1051A800E3A0D9EF28F0DDEF28F00C6A0C2ADEEF37
:1051B80028F00C6A0C3A0C460C468C500C18BF0BA5
:1051C8000C188C6EFF0EE3A2ECEF28F0F0EF28F03D
:1051D8000C6A0C2AF1EF28F00C6A0C3A0C468C5039
:1051E8000C18DF0B0C188C6EFF0EE3A4FEEF28F0F2
:1051F80002EF29F00C6A0C2A03EF29F00C6A0C3A2A
:105208008C500C18EF0B0C188C6EFF0EE3A60FEFEA
:1052180029F013EF29F00C6A0C2A14EF29F00C6A14
:105228000C3A8B500C18EF0B0C188B6EFF0EE3A882
:1052380020EF29F024EF29F00C6A0C2A25EF29F039
:105248000C6A0C460C460C468C500C18F70B0C18C4
:105258008C6EFF0EE3AA33EF29F037EF29F00C6AC2
:105268000C2A38EF29F00C6A0C460C468C500C18A6
:10527800FB0B0C188C6EE55212008AEF29F0130E06
:10528800E66EFE0EE66E020EE66EF2EC2DF06B0E8A
:10529800E66EFC0EE66E010EE66E64EC28F03B0E40
:1052A800E66EFC0EE66E020EE66E64EC28F0030E67
:1052B800B912A8EF29F0830EE66EFE0EE66E020E16
:1052C800E66EF2EC2DF045EC2EF00C0EB916000E41
:1052D800E66ED3EC28F0A8EF29F0880EE66E4A0EA9
:1052E800E66EFC0EE3CFE6FFE3CFE6FF1DEC2EF003
:1052F800A8EF29F0C282C2B284EF29F086EF29F024
:105308007FEF29F0C4CFBEFFA8EF29F0FD0EE350D0
:105318000B6E0C6A0C50000AD8B495EF29F0A8EF70
:1053280029F00B50010AD8B443EF29F0030AD8B486
:105338005FEF29F0040AD8B471EF29F00E0AD8B447
:105348007EEF29F0A8EF29F0E552E552E552120068
:105358000E0EE126000EE222ED0EE1240B6EFF0E8A
:10536800E2200C6EFF0E0CC0E3FFFE0E0BC0E3FF45
:10537800EF0EE3CF0BF0F00EE3CF0CF0F30E0CC002
:10538800E3FFF20E0BC0E3FFF50EE124D96EFF0E2A
:10539800E220DA6EDE6ADD6AFC0EE124D96EFF0EC9
:1053A800E220DA6EDE6ADD6AFE0EE124016EFF0E8F
:1053B800E220026E01C0E6FF02C0E6FFEB0EE3CF7B
:1053C800E6FFE3CFE6FFEE0EE124016EFF0EE220DA
:1053D800026E01C0E6FF02C0E6FF98EC2CF0F50E65
:1053E800E124D96EFF0EE220DA6EDECF0BF0DDCFBE
:1053F8000CF0EF0EE3CF09F0F00EE3CF0AF00B50FC
:105408000924D96E0C500A20DA6EDF6AF20EE12602
:10541800FF0EE222E552E750E15E000EE25A12006A
:10542800E652E652E652E652F70EE3BE1EEF2AF0C7
:1054380020EF2AF02EEF2AF0F60EE3CF01F0FC0E53
:1054480001C0E3FFF70EE3CF01F0FD0E01C0E3FF5B
:1054580032EF2AF0FC0EE36AFD0EE36AFE0EE36A01
:10546800FF0EE36A52EF2AF0FA0EE3CFE6FFE3CF2E
:10547800E6FF200EE66E000EE66E32EC21F0FE0E20
:10548800E350010F016EFE0E01C0E3FF016AFF0E3B
:10549800E3500120016EFF0E01C0E3FFE150FE0F53
:1054A800D96EE250DA6EFF0EDA22FC0EE350DE5CB3
:1054B800DE50800A016EFD0EE350800A0158D8A024
:1054C80068EF2AF06AEF2AF038EF2AF0FA0EE3CFF5
:1054D800E6FFE3CFE6FFF60EE3CFE6FFE3CFE6FF16
:1054E8004FEC2CF0F60EE126FF0EE2221200BDEF83
:1054F8002AF0670EE66EFF0EE66E020EE66EF2EC1E
:105508002DF0320EE66EFD0EE66E010EE66E64ECD0
:1055180028F0980EE66EFC0EE66E020EE66E64EC5F
:1055280028F0DBEF2AF0D90EE66EFF0EE66E020ECB
:10553800E66EF2EC2DF045EC2EF0DBEF2AF0CA0E09
:10554800E66E470EE66EFC0EE3CFE6FFE3CFE6FF1E
:105558001DEC2EF0DBEF2AF0400EE66E4D0EE66EE7
:10556800FC0EE3CFE6FFE3CFE6FF1DEC2EF0DBEF0A
:105578002AF0FD0EE3500B6E0C6A0C50000AD8B4EA
:10558800C8EF2AF0DBEF2AF00B50010AD8B47DEF00
:105598002AF0030AD8B497EF2AF0010AD8B4A3EF87
:1055A8002AF0060AD8B4B0EF2AF0DBEF2AF0E55269
:1055B800E552E552120021EF2BF00D0EE66EFF0EBC
:1055C800E66E020EE66EF2EC2DF0740EE66EFD0E3F
:1055D800E66E010EE66E64EC28F0890EE66EFD0EAE
:1055E800E66E020EE66E64EC28F03FEF2BF0850EB7
:1055F800E66EFF0EE66E020EE66EF2EC2DF045EC5E
:105608002EF03FEF2BF0720EE66E4B0EE66EFC0EA0
:10561800E3CFE6FFE3CFE6FF1DEC2EF03FEF2BF0E4
:10562800040EE66E4F0EE66EFC0EE3CFE6FFE3CF08
:10563800E6FF1DEC2EF03FEF2BF0FD0EE3500B6E56
:105648000C6A0C50000AD8B42CEF2BF03FEF2BF06B
:105658000B50010AD8B4E1EF2AF0030AD8B4FBEFE3
:105668002AF0060AD8B407EF2BF0010AD8B414EFD1
:105678002BF03FEF2BF0E552E552E552120078EFA0
:105688002BF0C90EE66EFE0EE66E010EE66E64ECB9
:1056980028F0EB0EE66EFE0EE66E020EE66E64EC89
:1056A80028F0880EE66E130EE66E000EE66E000E0B
:1056B800E66E11EC2FF0A2EF2BF0B80EE66EFE0EA0
:1056C800E66E020EE66EF2EC2DF0A2EF2BF0BE0EA7
:1056D800E66E550EE66EFC0EE3CFE6FFE3CFE6FF7F
:1056E8001DEC2EF0A2EF2BF0FD0EE3500B6E0C6AB2
:1056F8000C50000AD8B483EF2BF0A2EF2BF00B501C
:10570800010AD8B445EF2BF0030AD8B461EF2BF0A7
:10571800010AD8B46BEF2BF0070AD8B46BEF2BF063
:10572800010AD8B46BEF2BF0030AD8B46BEF2BF057
:10573800010AD8B46BEF2BF0A2EF2BF0E552E5523B
:10574800E5521200E652F2BEACEF2BF0B0EF2BF0B0
:105758000C6A0C2AB1EF2BF00C6A010E0C16FF0E26
:105768000CC0E3FFF29EFD0EE3CF0BF0FE0EE3CF7D
:105778000CF0200E0B24D96E000E0C20DA6EDF50D0
:105788001F0B0C6EFD0EE3CF09F0FE0EE3CF0AF0FF
:105798000C500924D96E000E0A20DA6EFC0EE3CFF5
:1057A800DFFFFD0EE3CF0BF0FE0EE3CF0CF0200E73
:1057B8000B24D96E000E0C20DA6EDF501F0B0C6E16
:1057C8000C2ADF500C18E00B0C18DF6EFF0EE3CF2D
:1057D8000CF00C30D8B0F3EF2BF0F6EF2BF0F28E84
:1057E800F7EF2BF0F29EE552E552E552E552120032
:1057F800E652E652E652E652F80EE3CF0BF0F90E07
:10580800E3CF0CF0FF0E0CC0E3FFFE0E0BC0E3FF6E
:10581800FA0EE3CF0BF0FB0EE3CF0CF0FD0E0CC03D
:10582800E3FFFC0E0BC0E3FFE150FE0FD96EE25020
:10583800DA6EFF0EDA22DFCF0BF0010EDE26DFCFA5
:105848000CF0000EDD220BC0F6FF0CC0F7FFF86A63
:10585800E150FC0FD96EE250DA6EFF0EDA22DFCF8C
:105868000BF0010EDE26DFCF0CF0000EDD220BC0A0
:10587800D9FF0CC0DAFF0800F5CFDFFFDF50D8A44E
:1058880048EF2CF04AEF2CF018EF2CF0F80EE12638
:10589800FF0EE2221200E652E652E652FD0EE36ADD
:1058A800FE0EE36A73EF2CF0F90EE3CFE6FFE3CFC9
:1058B800E6FFFD0EE350E66E000EE66E32EC21F0D8
:1058C800FD0EE350010F016EFD0E01C0E3FF016AFA
:1058D800FE0EE3500120016EFE0E01C0E3FFFD0E37
:1058E800E3CF0BF0FE0EE3CF0CF0FB0EE3CF09F095
:1058F800FC0EE3CF0AF00B500924D96E0C500A2095
:10590800DA6EDF500C6EFF0E0CC0E3FFFF0EE350A3
:10591800D8A491EF2CF093EF2CF058EF2CF0F90E5F
:10592800E126FF0EE2221200E652E652FA0EE3CF1B
:105938000BF0FB0EE3CF0CF0FF0E0CC0E3FFFE0EE6
:105948000BC0E3FFBEEF2CF0F80EE3CFE6FFE3CF8A
:10595800E6FFFC0EE124016EFF0EE220026E01C09C
:10596800E6FF02C0E6FFF80EE3CFE6FFE3CFE6FF6F
:1059780027EC14F0E150FE0FD96EE250DA6EFF0EFC
:10598800DA22DECFF6FFDDCFF7FFF86A0800F55020
:105998000009D8A4D2EF2CF0D4EF2CF0A8EF2CF00B
:1059A800000E016E000E026EF80EE126FF0EE222D6
:1059B8001200E652E652FC0EE3CF0BF0FD0EE3CFE9
:1059C8000CF0FF0E0CC0E3FFFE0E0BC0E3FFFCEF74
:1059D8002CF0FC0EE350010F016EFC0E01C0E3FF3A
:1059E800016AFD0EE3500120016EFD0E01C0E3FFC8
:1059F800FC0EE3CFD9FFFD0EE3CFDAFFDF50D8A4CA
:105A080008EF2DF00AEF2DF0EDEF2CF0FC0EE3CFB0
:105A180001F0FD0EE3CF02F0FE0EE350015EFF0E33
:105A2800E350025AE552E552E552E5521200FF0EE4
:105A3800E3BE31EF2DF0FF0EE3500DE1FE0EE35013
:105A48000AE1FD0EE35007E1FC0EE304D8B02FEFA6
:105A58002DF031EF2DF048EF2DF0FC0EE3CF01F0E3
:105A6800FD0EE3CF02F0FE0EE3CF03F0FF0EE3CF0F
:105A780004F0011E021E031E041E012A000E02224B
:105A88000322042254EF2DF0FC0EE3CF01F0FD0EAB
:105A9800E3CF02F0FE0EE3CF03F0FF0EE3CF04F0F6
:105AA800E552E552E552E5521200E652FF0EAECF3E
:105AB800E3FFFF0EE3CF01F00A0E0118D8B467EF39
:105AC8002DF069EF2DF07FEF2DF0600E000180259D
:105AD800D96EDA6A000EDA22FF0EE3CFDFFF802BE1
