:04000000AEEF00F06F
:04000800E4EF1FF012
:10001800D8CFC8F0E8CFC9F0E0CFCAF0E1CFCBF035
:10002800E2CFCCF0D9CFCDF0DACFCEF009C0CFF007
:100038000AC0D0F00BC0D1F00CC0D2F01AEE96F086
:100048009EA229EF00F02BEF00F097EF00F09DA2A1
:1000580030EF00F032EF00F097EF00F0D890213643
:1000680082B039EF00F03CEF00F0010E3DEF00F0F8
:10007800000E2112D890233680B845EF00F048EFE3
:1000880000F0010E49EF00F0000E2312D89025363B
:1000980080B651EF00F054EF00F0010E55EF00F07C
:1000A800000E2512D890273680B45DEF00F060EF7F
:1000B80000F0010E61EF00F0000E27127F0E2118EC
:1000C800D8A469EF00F06BEF00F06FEF00F0030EBB
:1000D800E66E22EC2FF07F0E2318D8A476EF00F0FE
:1000E80078EF00F07CEF00F0040EE66E22EC2FF0C3
:1000F8007F0E2518D8A483EF00F085EF00F089EF74
:1001080000F0050EE66E22EC2FF07F0E2718D8A41B
:1001180090EF00F092EF00F096EF00F0060EE66E1A
:1001280022EC2FF09E92D2C00CF0D1C00BF0D0C0C0
:100138000AF0CFC009F0CEC0DAFFCDC0D9FFCCC0DD
:10014800E2FFCBC0E1FFCAC0E0FFC9C0E8FFC8C0FA
:10015800D8FF100011EE50F01CEF2EF02C0EE12607
:10016800000EE222FC0EE36ACE0EE3CF09F0CF0EBA
:10017800E3CF0AF0D00EE3CF0BF0D10EE3CF0CF0B3
:10018800DA0E09C0E3FFDB0E0AC0E3FFDC0E0BC08A
:10019800E3FFDD0E0CC0E3FFDD0EE3BED8EF00F099
:1001A800D6EF00F0F2EF00F0FC0EE36AE32ADA0E75
:1001B800E3CFE6FFE3CFE6FFE3CFE6FFE3CFE6FFDB
:1001C80041EC2EF0DA0E01C0E3FFDB0E02C0E3FFC4
:1001D800DC0E03C0E3FFDD0E04C0E3FFEA0EE36AB2
:1001E800EB0EE36AEE0E35C0E3FFEF0E36C0E3FF19
:1001F800FC0EE350D8B403EF01F005EF01F02AEF4D
:1002080001F0FC0EE350D8A40CEF01F00EEF01F062
:100218001AEF01F02B0E0B6E000E0C6ED40E0BC0F5
:10022800E3FFD50E0CC0E3FF24EF01F02D0E0B6E9B
:10023800000E0C6ED40E0BC0E3FFD50E0CC0E3FF0E
:10024800D40EE3CF01F0FC0E01C0E3FFDA0EE3CFDA
:10025800E6FFE3CFE6FFE3CFE6FFE3CFE6FF58ECA8
:100268001EF001040210D8A43CEF01F03EEF01F0AB
:100278008FEF01F0FC0EE350D8B445EF01F047EFE3
:1002880001F05EEF01F0FC0EE3CF00F1E150EE0F5C
:10029800D96EE250DA6EFF0EDA22DE06000EDD5A63
:1002A800010E0B6E000E0C6EEA0E0BC0E3FFEB0E98
:1002B8000CC0E3FFF20EE66EFF0EE66E000E0B6E4C
:1002C800010E0C6EE80EE3500B26E90EE3500C22EB
:1002D8000BC0E6FF0CC0E6FFADEC2BF0E150EE0FD3
:1002E800D96EE250DA6EFF0EDA22FD0EDE26FF0E20
:1002F800DD22EE0EE3CFE6FFE3CFE6FF000EE66E6B
:10030800010EE66ECE0EE3CFE6FFE3CFE6FF6BEC21
:1003180029F072EF08F0DA0EE3CFE6FFE3CFE6FF4D
:10032800E3CFE6FFE3CFE6FF58EC1EF001500210E2
:10033800D8A4A1EF01F0A3EF01F0D9EF01F0FC0E72
:10034800E350D8B4AAEF01F0ACEF01F0C3EF01F02D
:10035800FC0EE3CF00F1E150EE0FD96EE250DA6EF9
:10036800FF0EDA22DE06000EDD5A010E0B6E000EBD
:100378000C6EEA0E0BC0E3FFEB0E0CC0E3FFF60EAB
:10038800E66EFF0EE66E000E0B6E010E0C6EE80EAA
:10039800E3500B26E90EE3500C220BC0E6FF0CC01D
:1003A800E6FFADEC2BF072EF01F0000E096E000EC7
:1003B8000A6E800E0B6E3F0E0C6ED60E09C0E3FF60
:1003C800D70E0AC0E3FFD80E0BC0E3FFD90E0CC04E
:1003D800E3FFF00EE36AF10EE36A000EE66E000E2C
:1003E800E66E000EE66E000EE66ED60EE3CFE6FF72
:1003F800E3CFE6FFE3CFE6FFE3CFE6FF7FEC25F0B0
:1004080001B009EF02F00BEF02F064EF03F034EFF4
:1004180002F0E60EE3CF09F0E70EE3CF0AF0E80EAC
:10042800E3CF0BF0E90EE3CF0CF0D60E09C0E3FFE3
:10043800D70E0AC0E3FFD80E0BC0E3FFD90E0CC0DD
:10044800E3FFF00EE350010F016EF00E01C0E3FF71
:10045800016AF10EE3500120016EF10E01C0E3FFC5
:10046800000EE66E000EE66E200EE66E410EE66E9B
:10047800D20EE3CFE6FFE3CFE6FFE3CFE6FFE3CF1D
:10048800E6FFE9EC0CF0E60E01C0E3FFE70E02C060
:10049800E3FFE80E03C0E3FFE90E04C0E3FFDA0E52
:1004A800E3CF09F0DB0EE3CF0AF0DC0EE3CF0BF06D
:1004B800DD0EE3CF0CF0E60EE350095EE70EE350E5
:1004C8000A5AE80EE3500B5AE90EE3500C5A09C0D9
:1004D800E6FF0AC0E6FF0BC0E6FF0CC0E6FFCCEC67
:1004E8002CF004BE83EF02F004500310021009E15F
:1004F800020E015CD8A083EF02F085EF02F00DEF49
:1005080002F0DA0EE3CFE6FFE3CFE6FFE3CFE6FF44
:10051800E3CFE6FFE20EE3CFE6FFE3CFE6FFE3CF6C
:10052800E6FFE3CFE6FF21EC1FF001A09EEF02F00B
:10053800A0EF02F00DEF02F0DA0EE3CF09F0DB0EC8
:10054800E3CF0AF0DC0EE3CF0BF0DD0EE3CF0CF0C7
:10055800D60EE350095ED70EE3500A5AD80EE35080
:100568000B5AD90EE3500C5A09C0E6FF0AC0E6FF41
:100578000BC0E6FF0CC0E6FFCCEC2CF004BED2EFBB
:1005880002F004500310021007E1020E015CD8B01B
:10059800D0EF02F0D2EF02F049EF03F0D60EE3CF2E
:1005A80009F0D70EE3CF0AF0D80EE3CF0BF0D90E3F
:1005B800E3CF0CF0DA0E09C0E3FFDB0E0AC0E3FF5D
:1005C800DC0E0BC0E3FFDD0E0CC0E3FF64EF03F0AD
:1005D800000EE66E000EE66E200EE66E410EE66E2A
:1005E800D20EE3CFE6FFE3CFE6FFE3CFE6FFE3CFAC
:1005F800E6FF14EC11F0D60E01C0E3FFD70E02C0DF
:10060800E3FFD80E03C0E3FFD90E04C0E3FFE150B7
:10061800F00FD96EE250DA6EFF0EDA22DE06000E17
:10062800DD5ADA0EE3CF09F0DB0EE3CF0AF0DC0E79
:10063800E3CF0BF0DD0EE3CF0CF0D60EE350095EEE
:10064800D70EE3500A5AD80EE3500B5AD90EE3508E
:100658000C5A09C0E6FF0AC0E6FF0BC0E6FF0CC053
:10066800E6FFCCEC2CF004BE47EF03F00450031077
:10067800021007E1020E015CD8B045EF03F047EF26
:1006880003F049EF03F0D2EF02F0D60EE3CFE6FF16
:10069800E3CFE6FFE3CFE6FFE3CFE6FFD60EE3CFF7
:1006A800E6FFE3CFE6FFE3CFE6FFE3CFE6FF21EC8B
:1006B8001FF001A062EF03F064EF03F0ECEF02F02B
:1006C800CD0EE3CF01F0FE0E01C0E3FFFE0EE3CF37
:1006D80001F0FD0E01C0E3FF38BE75EF03F077EFC0
:1006E80003F07FEF03F0F80E37C0E3FFF90E38C0D0
:1006F800E3FF89EF03F0060E0B6E000E0C6EF80E8A
:100708000BC0E3FFF90E0CC0E3FFF80EE3CF01F0D6
:10071800F20E01C0E3FFF90EE3CF01F0F30E01C0C2
:10072800E3FFF20EE350010F016EF20E01C0E3FF8A
:10073800016AF30EE3500120016EF30E01C0E3FFDE
:10074800FD0EE3CF01F0660E0118D8A4AEEF03F05A
:10075800B0EF03F0EEEF03F0F10EE3BEB8EF03F0F5
:10076800B6EF03F0D0EF03F0000E096E000E0A6E2C
:10077800800E0B6E3F0E0C6ED60E09C0E3FFD70E2F
:100788000AC0E3FFD80E0BC0E3FFD90E0CC0E3FF8D
:10079800F00EE36AF10EE36AFE0EE3CF01F0670E96
:1007A8000118D8B4DAEF03F0DCEF03F0EEEF03F052
:1007B800F20EE350016EF00EE3500126F20E01C076
:1007C800E3FFF30EE350016EF10EE3500122F30E46
:1007D80001C0E3FFEC0EE36AED0EE36ADA0EE3CF45
:1007E80009F0DB0EE3CF0AF0DC0EE3CF0BF0DD0EF1
:1007F800E3CF0CF0E20E09C0E3FFE30E0AC0E3FF0B
:10080800E40E0BC0E3FFE50E0CC0E3FFD60EE3CF0A
:1008180009F0D70EE3CF0AF0D80EE3CF0BF0D90ECC
:10082800E3CF0CF0E60E09C0E3FFE70E0AC0E3FFD2
:10083800E80E0BC0E3FFE90E0CC0E3FFC4EF04F0C1
:10084800D60EE3CFE6FFE3CFE6FFE3CFE6FFE3CF45
:10085800E6FFDE0EE3CFE6FFE3CFE6FFE3CFE6FFFA
:10086800E3CFE6FF14EC11F001C0E6FF02C0E6FF9B
:1008780003C0E6FF04C0E6FF62EC16F0DE0E01C01E
:10088800E3FFDF0E02C0E3FFE00E03C0E3FFE10E6B
:1008980004C0E3FFDE0EE3CFE6FFE3CFE6FFE3CFDE
:1008A800E6FFE3CFE6FF84EC1DF001C00BF002C0C9
:1008B8000CF0F40E0BC0E3FFF50E0CC0E3FFDE0EE8
:1008C800E3CFE6FFE3CFE6FFE3CFE6FFE3CFE6FFC4
:1008D800D20EE3CFE6FFE3CFE6FFE3CFE6FFE3CFB9
:1008E800E6FFE9EC0CF001C0E6FF02C0E6FF03C03A
:1008F800E6FF04C0E6FFDE0EE3CFE6FFE3CFE6FF48
:10090800E3CFE6FFE3CFE6FFA7EC2EF0E20E01C04F
:10091800E3FFE30E02C0E3FFE40E03C0E3FFE50ECE
:1009280004C0E3FF000EE66E000EE66E200EE66ED3
:10093800410EE66ED20EE3CFE6FFE3CFE6FFE3CF4C
:10094800E6FFE3CFE6FF14EC11F0D60E01C0E3FF9B
:10095800D70E02C0E3FFD80E03C0E3FFD90E04C0D0
:10096800E3FFEC0EE350010F016EEC0E01C0E3FF54
:10097800016AED0EE3500120016EED0E01C0E3FFA8
:10098800E150EC0FD96EE250DA6EFF0EDA22F20E69
:10099800E350DE5CDE50800A016EF30EE350800AFD
:1009A8000158D8A0DAEF04F0DCEF04F024EF04F0EB
:1009B800000EE66E000EE66EA00EE66E400EE66EC7
:1009C800D20EE3CFE6FFE3CFE6FFE3CFE6FFE3CFC8
:1009D800E6FFE9EC0CF0DE0E01C0E3FFDF0E02C01B
:1009E800E3FFE00E03C0E3FFE10E04C0E3FFDE0E09
:1009F800E3CFE6FFE3CFE6FFE3CFE6FFE3CFE6FF93
:100A0800DE0EE3CFE6FFE3CFE6FFE3CFE6FFE3CF7B
:100A1800E6FF21EC1FF001B014EF05F016EF05F02A
:100A28002CEF05F0000E096E000E0A6E000E0B6E1C
:100A3800000E0C6EDE0E09C0E3FFDF0E0AC0E3FFF6
:100A4800E00E0BC0E3FFE10E0CC0E3FF63EF05F01F
:100A5800DE0EE3CFE6FFE3CFE6FFE3CFE6FFE3CF2B
:100A6800E6FFDE0EE3CFE6FFE3CFE6FFE3CFE6FFE8
:100A7800E3CFE6FF7FEC25F001A045EF05F047EF57
:100A880005F063EF05F0F40EE3B04DEF05F04FEF1E
:100A980005F063EF05F0000E096E000E0A6E000EF9
:100AA8000B6E000E0C6EDE0E09C0E3FFDF0E0AC0EF
:100AB800E3FFE00E0BC0E3FFE10E0CC0E3FFDE0E28
:100AC800E3CFE6FFE3CFE6FFE3CFE6FFE3CFE6FFC2
:100AD800D60EE3CFE6FFE3CFE6FFE3CFE6FFE3CFB3
:100AE800E6FF77EC08F0E20E01C0E3FFE30E02C078
:100AF800E3FFE40E03C0E3FFE50E04C0E3FF000ECE
:100B0800E66E000EE66E200EE66E410EE66EE20E12
:100B1800E3CFE6FFE3CFE6FFE3CFE6FFE3CFE6FF71
:100B2800E9EC0CF001C0E6FF02C0E6FF03C0E6FFF7
:100B380004C0E6FFDE0EE3CFE6FFE3CFE6FFE3CF38
:100B4800E6FFE3CFE6FF21EC1FF001A0AEEF05F0D2
:100B5800B0EF05F0F9EF05F0F00EE350010F016E6C
:100B6800F00E01C0E3FF016AF10EE3500120016EAF
:100B7800F10E01C0E3FF000EE66E000EE66E200ED9
:100B8800E66E410EE66EE20EE3CFE6FFE3CFE6FF48
:100B9800E3CFE6FFE3CFE6FFE9EC0CF0E60E01C099
:100BA800E3FFE70E02C0E3FFE80E03C0E3FFE90E30
:100BB80004C0E3FFFD0EE3CF01F0660E0118D8A4D0
:100BC800E8EF05F0EAEF05F0F9EF05F0F20EE35073
:100BD800010F016EF20E01C0E3FF016AF30EE3504C
:100BE8000120016EF30E01C0E3FFE60EE3CF09F02A
:100BF800E70EE3CF0AF0E80EE3CF0BF0E90EE3CF00
:100C08000CF0D60E09C0E3FFD70E0AC0E3FFD80EDA
:100C18000BC0E3FFD90E0CC0E3FFF00EE3CF01F0E9
:100C2800FA0E01C0E3FFF10EE3CF01F0FB0E01C0A5
:100C3800E3FFFF0EE36AF60EE36AF70EE36AEC0ED3
:100C4800E36AED0EE36AA0EF07F0D60EE3CFE6FF06
:100C5800E3CFE6FFE3CFE6FFE3CFE6FFDE0EE3CF29
:100C6800E6FFE3CFE6FFE3CFE6FFE3CFE6FF14ECD2
:100C780011F001C0E6FF02C0E6FF03C0E6FF04C0B2
:100C8800E6FF62EC16F0DE0E01C0E3FFDF0E02C0E5
:100C9800E3FFE00E03C0E3FFE10E04C0E3FFDE0E56
:100CA800E3CFE6FFE3CFE6FFE3CFE6FFE3CFE6FFE0
:100CB80084EC1DF001C00BF002C00CF00CBE70EF0C
:100CC80006F00C5007E10A0E0B5CD8B06EEF06F088
:100CD80070EF06F087EF06F0DE0EE3CFE6FFE3CF16
:100CE800E6FFE3CFE6FFE3CFE6FF84EC1DF001C0AB
:100CF8000BF002C00CF0F40E0BC0E3FFF50E0CC0B5
:100D0800E3FF91EF06F0090E0B6E000E0C6EF40E69
:100D18000BC0E3FFF50E0CC0E3FFFF0EE350D8A4B1
:100D280098EF06F09AEF06F0FFEF06F0FB0EE3BE31
:100D3800A2EF06F0A0EF06F0FFEF06F0EA0EE3CF11
:100D48000BF0EB0EE3CF0CF0000E0B24D96E010E66
:100D58000C20DA6E2E0EDF6EEA0EE350010F016EE4
:100D6800EA0E01C0E3FF016AEB0EE3500120016EB9
:100D7800EB0E01C0E3FFE150EE0FD96EE250DA6EE0
:100D8800FF0EDA22DE06000EDD5AFF0EE36AE32AC2
:100D9800FFEF06F0EA0EE3CF0BF0EB0EE3CF0CF01B
:100DA800000E0B24D96E010E0C20DA6E300EDF6EA9
:100DB800EA0EE350010F016EEA0E01C0E3FF016A7B
:100DC800EB0EE3500120016EEB0E01C0E3FFE15092
:100DD800EE0FD96EE250DA6EFF0EDA22DE06000E52
:100DE800DD5AE150F60FD96EE250DA6EFF0EDA22C4
:100DF800DE06000EDD5AF60EE3CF01F0F70EE350E3
:100E08000110D8A40AEF07F00CEF07F0CEEF06F0B8
:100E1800EA0EE3CF0BF0EB0EE3CF0CF0000E0B2441
:100E2800D96E010E0C20DA6EF40EE350300FDF6E2F
:100E3800EA0EE350010F016EEA0E01C0E3FF016AFA
:100E4800EB0EE3500120016EEB0E01C0E3FFE15011
:100E5800EE0FD96EE250DA6EFF0EDA22DE06000ED1
:100E6800DD5ADE0EE3CFE6FFE3CFE6FFE3CFE6FF92
:100E7800E3CFE6FFD20EE3CFE6FFE3CFE6FFE3CF13
:100E8800E6FFE3CFE6FFE9EC0CF001C0E6FF02C0A5
:100E9800E6FF03C0E6FF04C0E6FFDE0EE3CFE6FF91
:100EA800E3CFE6FFE3CFE6FFE3CFE6FFA7EC2EF0C4
:100EB800E20E01C0E3FFE30E02C0E3FFE40E03C04D
:100EC800E3FFE50E04C0E3FF000EE66E000EE66EDB
:100ED800200EE66E410EE66ED20EE3CFE6FFE3CFBC
:100EE800E6FFE3CFE6FFE3CFE6FF14EC11F0D60E02
:100EF80001C0E3FFD70E02C0E3FFD80E03C0E3FF33
:100F0800D90E04C0E3FFE150FA0FD96EE250DA6E51
:100F1800FF0EDA22DE06000EDD5AEC0EE350010F5A
:100F2800016EEC0E01C0E3FF016AED0EE3500120F3
:100F3800016EED0E01C0E3FFE150EC0FD96EE250F7
:100F4800DA6EFF0EDA22F20EE350DE5CDE50800A23
:100F5800016EF30EE350800A0158D8B0B6EF07F0DF
:100F6800B8EF07F0CBEF07F0EB0EE3BEC9EF07F0E1
:100F7800EB0EE3500CE1EA0EE3CF01F04B0E015EFD
:100F8800D8A0C9EF07F0CBEF07F029EF06F04F0E16
:100F98000B6E000E0C6EEC0E0BC0E3FFED0E0CC0DA
:100FA800E3FFEC0EE3CF0BF0ED0EE3CF0CF0000EF9
:100FB8000B24D96E010E0C20DA6EDF6AEA0EE3CF3D
:100FC800E6FFE3CFE6FF000EE66E010EE66E000ECA
:100FD8000B6E010E0C6EE60EE3500B5EE70EE3504F
:100FE8000C5AE80EE3500B26E90EE3500C220BC016
:100FF800E6FF0CC0E6FFB5EC27F0EC0EE3CF0BF0F4
:10100800ED0EE3CF0CF0EA0EE3500B5EEB0EE3506F
:101018000C5AEA0E0BC0E3FFEB0E0CC0E3FFFC0E0C
:10102800E350D8A41AEF08F01DEF08F0010E1EEFE8
:1010380008F0000E0B6E0C6AEC0E0BC0E3FFED0E11
:101048000CC0E3FFFC0EE350D8B42DEF08F02FEFEF
:1010580008F046EF08F0E150EA0FD96EE250DA6E78
:10106800FF0EDA22DE06000EDD5ADECF0BF0DDCFF2
:101078000CF0000E0B24D96E010E0C20DA6EFC0E5B
:10108800E3CFDFFFEE0EE350016EEC0EE350015E9E
:10109800EE0E01C0E3FFEF0EE350016EED0EE350DC
:1010A800015AEF0E01C0E3FFEE0EE3CFE6FFE3CFF8
:1010B800E6FF000E0B6E010E0C6EE80EE3500B26D9
:1010C800E90EE3500C220BC0E6FF0CC0E6FFCE0E83
:1010D800E3CFE6FFE3CFE6FF6BEC29F0CD0EE12688
:1010E800FF0EE2221200E652E652E652E652FB0EEC
:1010F800E124D96EFF0EE220DA6EDF500C6E800E0E
:101108000C16FF0E0CC0E3FFFB0EE124D96EFF0E98
:10111800E220DA6EDF500C6ED8900C340B6EFD0EA8
:101128000BC0E3FFFA0EE124D96EFF0EE220DA6E5F
:10113800DFAEA1EF08F0A3EF08F0A5EF08F0FD0E71
:10114800E380FD0EE350D8B4ACEF08F0AEEF08F042
:10115800D6EF08F0FD0EE328D8A4B5EF08F0B7EFF6
:1011680008F0CBEF08F0000E096E000E0A6E000EB4
:101178000B6E000E0C6EF80E09C0E3FFF90E0AC0E4
:10118800E3FFFA0E0BC0E3FFFB0E0CC0E3FFFA0E01
:10119800E38EFB0EE124D96EFF0EE220DA6EDF6AE1
:1011A800EAEF08F0000E096E000E0A6E000E0B6ED4
:1011B800000E0C6EF80E09C0E3FFF90E0AC0E3FF3B
:1011C800FA0E0BC0E3FFFB0E0CC0E3FFF70EE124A1
:1011D800D96EFF0EE220DA6EDF500C6E800E0C1610
:1011E800FE0E0CC0E3FFE150FE0FD96EE250DA6E3E
:1011F800FF0EDA22FF0EE350DE18D8B406EF09F02E
:1012080008EF09F00AEF09F0FF0EE38CF70EE1246E
:10121800D96EFF0EE220DA6EDF500C6ED8900C34D7
:101228000B6EFE0E0BC0E3FFF60EE124D96EFF0E27
:10123800E220DA6EDFAE23EF09F025EF09F027EFA1
:1012480009F0FE0EE380FE0EE350D8B42EEF09F04D
:1012580030EF09F058EF09F0FE0EE328D8A437EF75
:1012680009F039EF09F04DEF09F0000E096E000E94
:101278000A6E000E0B6E000E0C6EF40E09C0E3FF32
:10128800F50E0AC0E3FFF60E0BC0E3FFF70E0CC025
:10129800E3FFF60EE38EF70EE124D96EFF0EE2208F
:1012A800DA6EDF6A6CEF09F0000E096E000E0A6E46
:1012B800000E0B6E000E0C6EF40E09C0E3FFF50E67
:1012C8000AC0E3FFF60E0BC0E3FFF70E0CC0E3FF06
:1012D800E150FE0FD96EE250DA6EFF0EDA22FD0EF3
:1012E800E350DE5CD8B07BEF09F07DEF09F011EF39
:1012F8000AF0FF0EE3AC83EF09F085EF09F087EF02
:1013080009F0FF0EE37EFD0EE3CF01F0FC0E01C0F5
:10131800E3FFFE0EE3CF01F0FD0E01C0E3FFFC0E7C
:10132800E3CF01F0FE0E01C0E3FFF80EE3CF01F0BA
:10133800FC0E01C0E3FFF40EE3CF01F0F80E01C08C
:10134800E3FFFC0EE3CF01F0F40E01C0E3FFF90E5A
:10135800E124D96EFF0EE220DA6EDF500C6EFC0E2F
:101368000CC0E3FFF50EE124D96EFF0EE220DA6E21
:10137800F90EE124E96EFF0EE220EA6EDFCFEFFFFF
:10138800F50EE124D96EFF0EE220DA6EFC0EE3CFF3
:10139800DFFFFA0EE124D96EFF0EE220DA6EDF508D
:1013A8000C6EFC0E0CC0E3FFF60EE124D96EFF0EA6
:1013B800E220DA6EFA0EE124E96EFF0EE220EA6E10
:1013C800DFCFEFFFF60EE124D96EFF0EE220DA6ED2
:1013D800FC0EE3CFDFFFFB0EE124D96EFF0EE22007
:1013E800DA6EDF500C6EFC0E0CC0E3FFF70EE12442
:1013F800D96EFF0EE220DA6EFB0EE124E96EFF0ED5
:10140800E220EA6EDFCFEFFFF70EE124D96EFF0E80
:10141800E220DA6EFC0EE3CFDFFFFC0EE36AFE0E7D
:10142800E3500B6E0C6AFD0EE3500B5E000E0C5A77
:101438000CBE28EF0AF00C5009E11A0E0B5CD8A07C
:1014480028EF0AF02AEF0AF093EF0AF0F80EE350BB
:101458000DE1F90EE3500AE1FA0EE35007E1FB0E45
:10146800E350D8A43AEF0AF03EEF0AF00C6A0C2ACF
:101478003FEF0AF00C6AFC0E0CC0E3FFF80EE36ABB
:10148800F90EE36AFA0EE36AFB0EE36AFE0EE3CF97
:1014980001F0FD0E01C0E3FFA4EF0AF0FC0EE3A08B
:1014A80058EF0AF05AEF0AF066EF0AF0FC0EE3CFA5
:1014B8000CF0D8900C32010E0C12FC0E0CC0E3FF9D
:1014C8006FEF0AF0E150FC0FD96EE250DA6EFF0EB2
:1014D800DA22D890DF32F80EE3A075EF0AF077EF42
:1014E8000AF079EF0AF0FC0EE38E010E0C6EE15063
:1014F800F80FD96EE250DA6EFF0EDA220C28DE52AF
:101508008EEF0AF0DE52D890DCBED880DD32DD32B4
:10151800DD32DE32E82E86EF0AF0FD0EE32AE150D6
:10152800FD0FD96EE250DA6EFF0EDA22FE0EE3509E
:10153800DE5CD8A0A2EF0AF0A4EF0AF052EF0AF09E
:10154800FF0EE3BCAAEF0AF0ACEF0AF02EEF0BF0A7
:10155800FD0EE350D8A4B3EF0AF0B5EF0AF0BFEFE1
:101568000AF0000E016E000E026E000E036E000EF1
:10157800046EE4EF0CF0F80EE350016EF40EE35045
:101588000126F80E01C0E3FFF90EE350016EF50ED7
:10159800E3500122F90E01C0E3FFFA0EE350016E99
:1015A800F60EE3500122FA0E01C0E3FFFB0EE350F2
:1015B800016EF70EE3500122FB0E01C0E3FFFB0EA4
:1015C800E3A0E9EF0AF0EBEF0AF018EF0CF0FC0EDD
:1015D800E3A0F1EF0AF0F3EF0AF0FFEF0AF0FC0ED8
:1015E800E3CF0CF0D8900C32010E0C12FC0E0CC09C
:1015F800E3FF08EF0BF0E150FC0FD96EE250DA6E12
:10160800FF0EDA22D890DF32F80EE3A00EEF0BF0CF
:1016180010EF0BF012EF0BF0FC0EE38E010E0C6EC8
:10162800E150F80FD96EE250DA6EFF0EDA220C287C
:10163800DE5227EF0BF0DE52D890DCBED880DD32C8
:10164800DD32DD32DE32E82E1FEF0BF0FD0EE32A2D
:1016580018EF0CF0E150F80FD96EE250DA6EFF0E79
:10166800DA22F40EE350DE5CF50EE350DE58F60E97
:10167800E350DE58DE50800A016EF70EE350800A10
:101688000158D8B04AEF0BF04CEF0BF09CEF0BF081
:10169800F40EE3CF09F0F50EE3CF0AF0F60EE3CF30
:1016A8000BF0F70EE3CF0CF0F80EE350095EF90EDD
:1016B800E3500A5AFA0EE3500B5AFB0EE3500C5A49
:1016C800FF0E0924056EFF0E0A20066EFF0E0B2082
:1016D800076EFF0E0C20086EF80E05C0E3FFF90E2A
:1016E80006C0E3FFFA0E07C0E3FFFB0E08C0E3FFE6
:1016F800FF0EE37EFC0EE35000080C6EFC0E0CC0DF
:10170800E3FFFC0EE350D8A48CEF0BF08EEF0BF048
:10171800AFEF0BF0E150F80FD96EE250DA6EFF0E22
:10172800DA22DE2A000EDE22DE22DE22AFEF0BF006
:10173800E150F80FD96EE250DA6EFF0EDA22F40E9D
:10174800E350DE5EF50EE350DE5AF60EE350DE5A45
:10175800F70EE350DE5AF80EE3500DE1F90EE350B0
:101768000AE1FA0EE35007E1FB0EE350D8A4BFEFFD
:101778000BF0C1EF0BF010EF0CF0FC0EE350D8A407
:10178800C8EF0BF0CAEF0BF010EF0CF0000E016E73
:10179800000E026E000E036E000E046EE4EF0CF0F5
:1017A800D890F80EE336F90EE336FA0EE336FB0E60
:1017B800E336FC0EE3AEE3EF0BF0E5EF0BF0E7EFFB
:1017C8000BF0F80EE380FC0EE3A0EDEF0BF0EFEF6B
:1017D8000BF0FCEF0BF0FC0EE3CF0CF0D8900C34C0
:1017E8000B6E010E0B12FC0E0BC0E3FF05EF0CF0A5
:1017F800E150FC0FD96EE250DA6EFF0EDA22D89073
:10180800DF36FD0EE350D8B40CEF0CF00EEF0CF001
:1018180010EF0CF0FD0EE306FA0EE3AE16EF0CF037
:1018280018EF0CF0D4EF0BF0FE0EE36AFC0EE3AEFB
:1018380020EF0CF022EF0CF03DEF0CF0FC0EE3CFA4
:101848000CF07F0E0C16D8B42CEF0CF02EEF0CF029
:1018580033EF0CF0FE0EE36AE32A3DEF0CF0F80ECE
:10186800E3A039EF0CF03BEF0CF03DEF0CF02EEF5E
:101878000CF0FE0EE350D8B444EF0CF046EF0CF039
:101888007DEF0CF0E150F80FD96EE250DA6EFF0EE2
:10189800DA22DE2A000EDE22DE22DE22FB0EE3A0A2
:1018A80058EF0CF05AEF0CF07DEF0CF0010E0C6EB7
:1018B800E150F80FD96EE250DA6EFF0EDA220C28EA
:1018C800DE526FEF0CF0DE52D890DCBED880DD32ED
:1018D800DD32DD32DE32E82E67EF0CF0FD0EE32854
:1018E800D8B479EF0CF07BEF0CF07DEF0CF0FD0E27
:1018F800E32AFD0EE328D8B484EF0CF086EF0CF051
:101908008FEF0CF0FD0EE350D8A48DEF0CF08FEFA5
:101918000CF0A2EF0CF0F80EE36AF90EE36AFA0E87
:10192800E36AFB0EE36AFD0EE350D8A49EEF0CF0C9
:10193800A0EF0CF0A2EF0CF0FF0EE36AFD0EE3A09F
:10194800A8EF0CF0AAEF0CF0B4EF0CF0FA0EE124BB
:10195800D96EFF0EE220DA6E000EDB8EBCEF0CF0C3
:10196800FA0EE124D96EFF0EE220DA6E7F0EDF1642
:10197800FB0EE124D96EFF0EE220DA6EFD0EE3CFF6
:101988000CF0D8900C30DF6EFF0EE3AECEEF0CF00B
:10199800D0EF0CF0D8EF0CF0FB0EE124D96EFF0E5F
:1019A800E220DA6E000EDB8EF80EE3CF01F0F90EBE
:1019B800E3CF02F0FA0EE3CF03F0FB0EE3CF04F01F
:1019C800F40EE126FF0EE22212000D0EE126000EB3
:1019D800E222F20EE124D96EFF0EE220DA6EDF5029
:1019E8000C6E800E0C16FF0E0CC0E3FFF20EE12405
:1019F800D96EFF0EE220DA6EDF500C6ED8900C34F0
:101A08000B6EFD0E0BC0E3FFF10EE124D96EFF0E45
:101A1800E220DA6EDFAE13EF0DF015EF0DF017EFE1
:101A28000DF0FD0EE380FD0EE350D8B41EEF0DF06F
:101A380020EF0DF041EF0DF0FD0EE328D8A427EFBD
:101A48000DF029EF0DF03DEF0DF0000E096E000EC0
:101A58000A6E000E0B6E000E0C6EEF0E09C0E3FF4F
:101A6800F00E0AC0E3FFF10E0BC0E3FFF20E0CC04C
:101A7800E3FFF10EE38E55EF0DF0000E096E000E38
:101A88000A6E000E0B6E000E0C6EEF0E09C0E3FF1F
:101A9800F00E0AC0E3FFF10E0BC0E3FFF20E0CC01C
:101AA800E3FFEE0EE124D96EFF0EE220DA6EDF507E
:101AB8000C6E800E0C16E150FF0FD96EE250DA6EF4
:101AC800FF0EDA220C50DF1AEE0EE124D96EFF0E5B
:101AD800E220DA6EDF500C6ED8900C340B6EFE0EDE
:101AE8000BC0E3FFED0EE124D96EFF0EE220DA6EA3
:101AF800DFAE81EF0DF083EF0DF085EF0DF0FE0EF8
:101B0800E380FE0EE350D8B48CEF0DF08EEF0DF0AD
:101B1800AFEF0DF0FE0EE328D8A495EF0DF097EF88
:101B28000DF0ABEF0DF0000E096E000E0A6E000E00
:101B38000B6E000E0C6EEB0E09C0E3FFEC0E0AC034
:101B4800E3FFED0E0BC0E3FFEE0E0CC0E3FFED0E5E
:101B5800E38EC3EF0DF0000E096E000E0A6E000E44
:101B68000B6E000E0C6EEB0E09C0E3FFEC0E0AC004
:101B7800E3FFED0E0BC0E3FFEE0E0CC0E3FFFE0E1D
:101B8800E350D8B4CAEF0DF0CCEF0DF0D5EF0DF05F
:101B9800FD0EE350D8A4D3EF0DF0D5EF0DF0DFEF35
:101BA8000DF0000E016E000E026E000E036E000EA8
:101BB800046E0FEF11F0EF0EE3CF0CF0ED0EE12401
:101BC800D96EFF0EE220DA6EDF500C02FB0EF3CF67
:101BD800E3FFFC0EF4CFE3FFFB0EE3CF0CF00CC0E9
:101BE80005F0066A076A086AF70E05C0E3FFF80EF3
:101BF80006C0E3FFF90E07C0E3FFFA0E08C0E3FFD3
:101C0800FC0EE124D96EFF0EE220DA6EDF500C6E76
:101C18000CC005F0066A076A086AF30E05C0E3FF00
:101C2800F40E06C0E3FFF50E07C0E3FFF60E08C08A
:101C3800E3FFF00EE124D96EFF0EE220DA6EDF50EA
:101C48000C6EEC0EE124D96EFF0EE220DA6EDF5046
:101C58000C02FB0EF3CFE3FFFC0EF4CFE3FFE150E1
:101C6800F70FD96EE250DA6EFF0EDA22FB0EE35060
:101C7800DE26000EDE22DE22DE22E150F30FD96ED0
:101C8800E250DA6EFF0EDA22FC0EE124E96EFF0E56
:101C9800E220EA6EEF50DE26000EDE22DE22DE2291
:101CA800F10EE124D96EFF0EE220DA6EDF500C6EE1
:101CB800EB0EE3500C02FB0EF3CFE3FFFC0EF4CF68
:101CC800E3FFE150F70FD96EE250DA6EFF0EDA2229
:101CD800FB0EE350DE26000EDE22DE22DE22E1507D
:101CE800F30FD96EE250DA6EFF0EDA22FC0EE12411
:101CF800E96EFF0EE220EA6EEF50DE26000EDE22CD
:101D0800DE22DE22E150F70FD96EE250DA6EFF0EC6
:101D1800DA22080ED890DE36DE36DE36DD36DD52C3
:101D2800DD52E82E8EEF0EF0F00EE124D96EFF0E94
:101D3800E220DA6EDF500C6EEB0EE3500C02FB0E65
:101D4800F3CFE3FFFC0EF4CFE3FFFB0EE3CF0BF082
:101D5800FC0EE3CF0CF0E150F70FD96EE250DA6ECB
:101D6800FF0EDA220B50DE260C50DE22000EDE2299
:101D7800DE22EF0EE3CF0CF0EC0EE124D96EFF0E5D
:101D8800E220DA6EDF500C02FB0EF3CFE3FFFC0E0D
:101D9800F4CFE3FFFB0EE3CF0BF0FC0EE3CF0CF028
:101DA800E150F70FD96EE250DA6EFF0EDA220B50CF
:101DB800DE260C50DE22000EDE22DE22E150F70F76
:101DC800D96EE250DA6EFF0EDA22080ED890DE36AF
:101DD800DE36DE36DD36DD52DD52E82EEAEF0EF075
:101DE800EF0EE3CF0CF0EB0EE3500C02FB0EF3CF3B
:101DF800E3FFFC0EF4CFE3FFFB0EE3CF0BF0FC0E8A
:101E0800E3CF0CF0E150F70FD96EE250DA6EFF0E17
:101E1800DA220B50DE260C50DE22000EDE22DE22F5
:101E2800F00EE124D96EFF0EE220DA6EDF500C6E60
:101E3800ED0EE124D96EFF0EE220DA6EDF500C02BF
:101E4800FB0EF3CFE3FFFC0EF4CFE3FFFB0EE3CF73
:101E58000BF0FC0EE3CF0CF0E150F30FD96EE2501B
:101E6800DA6EFF0EDA220B50DE260C50DE22000E50
:101E7800DE22DE22F10EE124D96EFF0EE220DA6EB8
:101E8800DF500C6EEC0EE124D96EFF0EE220DA6E04
:101E9800DF500C02FB0EF3CFE3FFFC0EF4CFE3FFA1
:101EA800FB0EE3CF0BF0FC0EE3CF0CF0E150F30F89
:101EB800D96EE250DA6EFF0EDA220B50DE260C5095
:101EC800DE22000EDE22DE22F10EE124D96EFF0EA4
:101ED800E220DA6EDF500C6EED0EE124D96EFF0EB3
:101EE800E220DA6EDF500C02FB0EF3CFE3FFFC0EAC
:101EF800F4CFE3FFFB0EE3CF0BF0FC0EE3CF0CF0C7
:101F08000B50056E0C50066E076A086A07C008F089
:101F180006C007F005C006F0056AE150F30FD96E58
:101F2800E250DA6EFF0EDA220550DE260650DE2277
:101F38000750DE220850DE22E150F30FD96EE2503E
:101F4800DA6EFF0EDA22FA0EE124E96EFF0EE220C5
:101F5800EA6EEF50DE26000EDE22DE22DE22E1509F
:101F6800F70FD96EE250DA6EFF0EDA22080ED8901B
:101F7800DE36DE36DE36DD36DD52DD52E82EBBEFEC
:101F88000FF0FD0EE3500B6E0C6AFE0EE3500B26AD
:101F9800000E0C22820E0B24096EFF0E0C200A6E16
:101FA800FB0E09C0E3FFFC0E0AC0E3FF02EF10F0CE
:101FB800D890F30EE336F40EE336F50EE336F60E5C
:101FC800E336FA0EE3AEEBEF0FF0EDEF0FF0EFEFC5
:101FD8000FF0F30EE380D890F70EE336F80EE336F1
:101FE800F90EE336FA0EE336E150FB0FD96EE250F4
:101FF800DA6EFF0EDA22DE06000EDD5AF50EE3AECB
:1020080008EF10F00AEF10F0DCEF0FF0FE0EE36AB5
:10201800FA0EE3AE12EF10F014EF10F041EF10F0EB
:10202800E150F70FD96EE250DA6EFF0EDA22FF0E9A
:10203800DE14096EFF0EDE140A6EFF0EDE140B6E40
:102048007F0EDE140C6E09500A100B100C10D8B459
:1020580030EF10F032EF10F037EF10F0FE0EE36AB9
:10206800E32A41EF10F0F30EE3A03DEF10F03FEF4D
:1020780010F041EF10F032EF10F0FE0EE350D8B43C
:1020880048EF10F04AEF10F085EF10F0E150F30F31
:10209800D96EE250DA6EFF0EDA22DE2A000EDE2258
:1020A800DE22DE22F60EE3A05CEF10F05EEF10F009
:1020B80085EF10F0010E0C6EE150F30FD96EE2506F
:1020C800DA6EFF0EDA220C28DE5273EF10F0DE52C1
:1020D800D890DCBED880DD32DD32DD32DE32E82E4B
:1020E8006BEF10F0FB0EE350010F016EFB0E01C009
:1020F800E3FF016AFC0EE3500120016EFC0E01C0F3
:10210800E3FFFC0EE3BE93EF10F0FC0EE35009E191
:10211800FB0EE328D8A093EF10F095EF10F0ABEF8B
:1021280010F0000E096E000E0A6E800E0B6E7F0E08
:102138000C6EF30E09C0E3FFF40E0AC0E3FFF50EC0
:102148000BC0E3FFF60E0CC0E3FFF8EF10F0FC0E37
:10215800E3BEBBEF10F0FC0EE35007E1FB0EE30417
:10216800D8B0B9EF10F0BBEF10F0C7EF10F0F30ED6
:10217800E36AF40EE36AF50EE36AF60EE36AFF0E0D
:10218800E36AF8EF10F0FB0EE3CF01F0FD0E01C09B
:10219800E3FFE150F30FD96EE250DA6EFF0EDA2258
:1021A800FF0EDE16FF0EDE167F0EDE16000EDE16A2
:1021B800FD0EE3A0E2EF10F0E4EF10F0ECEF10F00A
:1021C800F50EE124D96EFF0EE220DA6E000EDB8EEA
:1021D800F60EE124D96EFF0EE220DA6EFD0EE3CF93
:1021E8000CF0D8900C30DF6EFF0EE3CF0CF0F60E3B
:1021F800E124D96EFF0EE220DA6E0C50DF12F30EE6
:10220800E3CF01F0F40EE3CF02F0F50EE3CF03F0D5
:10221800F60EE3CF04F0EB0EE126FF0EE2221200E9
:102228000D0EE126000EE222F20EE124D96EFF0E19
:10223800E220DA6EDF500C6E800E0C16FF0E0CC01A
:10224800E3FFF20EE124D96EFF0EE220DA6EDF50D2
:102258000C6ED8900C340B6EFE0E0BC0E3FFF10E23
:10226800E124D96EFF0EE220DA6EDFAE3EEF11F008
:1022780040EF11F042EF11F0FE0EE380FE0EE35046
:10228800D8B449EF11F04BEF11F073EF11F0FE0ED7
:10229800E328D8A452EF11F054EF11F068EF11F0D1
:1022A800000E096E000E0A6E000E0B6E000E0C6E0C
:1022B800EF0E09C0E3FFF00E0AC0E3FFF10E0BC0FA
:1022C800E3FFF20E0CC0E3FFF10EE38EF20EE12401
:1022D800D96EFF0EE220DA6EDF6A87EF11F0000E8A
:1022E800096E000E0A6E000E0B6E000E0C6EEF0EDD
:1022F80009C0E3FFF00E0AC0E3FFF10E0BC0E3FFD5
:10230800F20E0CC0E3FFEE0EE124D96EFF0EE220C0
:10231800DA6EDF500C6E800E0C16E150FF0FD96E8E
:10232800E250DA6EFF0EDA220C50DF1AEE0EE124CC
:10233800D96EFF0EE220DA6EDF500C6ED8900C34A6
:102348000B6EFD0E0BC0E3FFED0EE124D96EFF0E00
:10235800E220DA6EDFAEB3EF11F0B5EF11F0B7EFB0
:1023680011F0FD0EE380FD0EE350D8B4BEEF11F07E
:10237800C0EF11F0E8EF11F0FD0EE328D8A4C7EF85
:1023880011F0C9EF11F0DDEF11F0000E096E000E2B
:102398000A6E000E0B6E000E0C6EEB0E09C0E3FF0A
:1023A800EC0E0AC0E3FFED0E0BC0E3FFEE0E0CC00F
:1023B800E3FFED0EE38EEE0EE124D96EFF0EE22070
:1023C800DA6EDF6AFCEF11F0000E096E000E0A6E7D
:1023D800000E0B6E000E0C6EEB0E09C0E3FFEC0E48
:1023E8000AC0E3FFED0E0BC0E3FFEE0E0CC0E3FFE7
:1023F800EB0EE3500DE1EC0EE3500AE1ED0EE35075
:1024080007E1EE0EE350D8A40CEF12F00EEF12F035
:1024180039EF12F0EF0EE36AF00EE36AF10EE36AA9
:10242800F20EE36AF10EE124D96EFF0EE220DA6EB5
:10243800800EDE127F0EDD12FF0EE3CF0CF0F20EDF
:10244800E124D96EFF0EE220DA6E0C50DF12EF0E97
:10245800E3CF01F0F00EE3CF02F0F10EE3CF03F08B
:10246800F20EE3CF04F022EF14F0FE0EE350D8A4EE
:1024780040EF12F042EF12F04CEF12F0000E016E36
:10248800000E026E000E036E000E046E22EF14F0B2
:10249800FE0EE3500B6E0C6AFD0EE3500B5E000E51
:1024A8000C5A7F0E0B26000E0C22FB0E0BC0E3FF0E
:1024B800FC0E0CC0E3FFEF0EE3CF09F0F00EE3CF04
:1024C8000AF0F10EE3CF0BF0F20EE3CF0CF0F70EAB
:1024D80009C0E3FFF80E0AC0E3FFF90E0BC0E3FFE3
:1024E800FA0E0CC0E3FFEF0EE36AF00EE36AF10E9A
:1024F800E36AF20EE36AF30EE36AF40EE36AF50E9A
:10250800E36AF60EE36AFD0EE36AEAEF12F0FD0EE7
:10251800E350D8B492EF12F094EF12F0B9EF12F042
:10252800D890F70EE336F80EE336F90EE336FA0ED6
:10253800E336D890EF0EE336F00EE336F10EE336CD
:10254800F20EE336F60EE3AEACEF12F0AEEF12F099
:10255800B0EF12F0EF0EE380D890F30EE336F40EEE
:10256800E336F50EE336F60EE336E150F70FD96E93
:10257800E250DA6EFF0EDA22EB0EE350DE5CEC0E70
:10258800E350DE58ED0EE350DE58EE0EE350DE5811
:10259800D8A0D1EF12F0D3EF12F0E8EF12F0F60E58
:1025A800E38CE150F70FD96EE250DA6EFF0EDA22B3
:1025B800EB0EE350DE5EEC0EE350DE5AED0EE35018
:1025C800DE5AEE0EE350DE5AFD0EE32AFD0EE3CF8F
:1025D80001F0190E0164F3EF12F0F5EF12F08BEF32
:1025E80012F0F70EE3500FE1F80EE3500CE1F90E8C
:1025F800E35009E1FA0EE350D8B405EF13F007EF02
:1026080013F031EF13F0F30EE38031EF13F0D890AD
:10261800EF0EE336F00EE336F10EE336F20EE33654
:10262800F60EE3AE1AEF13F01CEF13F01EEF13F0E3
:10263800EF0EE380D890F30EE336F40EE336F50E92
:10264800E336F60EE336E150FB0FD96EE250DA6E50
:10265800FF0EDA22DE06000EDD5AF10EE3AE37EF8A
:1026680013F039EF13F00BEF13F0FD0EE36AF60EDB
:10267800E3AE41EF13F043EF13F070EF13F0E150C6
:10268800F30FD96EE250DA6EFF0EDA22FF0EDE1477
:10269800096EFF0EDE140A6EFF0EDE140B6E7F0E3F
:1026A800DE140C6E09500A100B100C10D8B45FEF32
:1026B80013F061EF13F066EF13F0FD0EE36AE32AFF
:1026C80070EF13F0EF0EE3A06CEF13F06EEF13F062
:1026D80070EF13F061EF13F0FD0EE350D8B477EF0D
:1026E80013F079EF13F0B4EF13F0E150EF0FD96E58
:1026F800E250DA6EFF0EDA22DE2A000EDE22DE2239
:10270800DE22F20EE3A08BEF13F08DEF13F0B4EF9F
:1027180013F0010E0C6EE150EF0FD96EE250DA6E35
:10272800FF0EDA220C28DE52A2EF13F0DE52D89008
:10273800DCBED880DD32DD32DD32DE32E82E9AEFC3
:1027480013F0FB0EE350010F016EFB0E01C0E3FF17
:10275800016AFC0EE3500120016EFC0E01C0E3FF8C
:10276800FC0EE3BEC2EF13F0FC0EE35009E1FB0ED2
:10277800E328D8A0C2EF13F0C4EF13F0D6EF13F09C
:10278800FF0E0B6E000E0C6EFB0E0BC0E3FFFC0E73
:102798000CC0E3FFEF0EE36AF00EE36AF10EE36AA2
:1027A800F20EE36AFC0EE3BEE6EF13F0FC0EE35014
:1027B80007E1FB0EE304D8B0E4EF13F0E6EF13F003
:1027C800F4EF13F0FB0EE36AFC0EE36AEF0EE36A24
:1027D800F00EE36AF10EE36AF20EE36AFF0EE36AB3
:1027E800FB0EE3CF01F0FE0E01C0E3FFFE0EE3A0F7
:1027F80000EF14F002EF14F00CEF14F0F10EE124E6
:10280800D96EFF0EE220DA6E000EDB8E14EF14F0A4
:10281800F10EE124D96EFF0EE220DA6E7F0EDF168C
:10282800F20EE124D96EFF0EE220DA6EFE0EE3CF3F
:102838000CF0D8900C30DF6E20EF12F0EB0EE12692
:10284800FF0EE2221200090EE126000EE222F30E2C
:10285800E3CFD9FFF40EE3CFDAFFDECFF6FFDDCF0B
:10286800F7FFF86A0800F550250AD8A43EEF14F0DF
:1028780040EF14F044EF16F0F30EE3CFD9FFF40E57
:10288800E3CFDAFFDE2A000EDD22356A366A3768C2
:102898003868F30EE3CFD9FFF40EE3CFDAFFDECFCB
:1028A800F6FFDDCFF7FFF86A0800F5502E0AD8A426
:1028B80060EF14F062EF14F07BEF14F0F30EE3CF47
:1028C800D9FFF40EE3CFDAFFDE2A000EDD22F10E87
:1028D800E3CFE6FFE3CFE6FFF10EE3CFE6FFE3CF7A
:1028E800E6FF9DEC21F001C037F002C038F0F30E8E
:1028F800E3CFD9FFF40EE3CFDAFFDECFF6FFDDCF6B
:10290800F7FFF86A0800F550730AD8B48EEF14F090
:1029180090EF14F0B1EF14F0030EE66E000EE66EC1
:10292800FA0EE66EFF0EE66EEF0EE3CFD9FFF00E5D
:10293800E3CFDAFFDECF0BF0DDCF0CF00BC0E6FF04
:102948000CC0E6FF94EC1CF001500210D8A4AFEFC5
:1029580014F0B1EF14F00FEF15F0F30EE3CFD9FF39
:10296800F40EE3CFDAFFDECFF6FFDDCFF7FFF86A2C
:102978000800F550730AD8B4C4EF14F0C6EF14F089
:10298800D2EF14F0030E0B6E000E0C6EF70E0BC098
:10299800E3FFF80E0CC0E3FFDCEF14F0010E0B6E42
:1029A800000E0C6EF70E0BC0E3FFF80E0CC0E3FF31
:1029B800F70EE3CF0BF0F80EE3CF0CF0F30EE3CFF6
:1029C800D9FFF40EE3CFDAFF0B50DE260C50DD22E0
:1029D800F10EE3CFD9FFF20EE3CFDAFF020EDE5E8F
:1029E800000EDD5ADECF0BF0DDCF0CF00BC0D9FFA7
:1029F8000CC0DAFFDECF0BF0DDCF0CF00BC0E6FF2A
:102A08000CC0E6FFF30EE3CFE6FFE3CFE6FF86EC6C
:102A18001AF05DEF16F0F30EE3CFD9FFF40EE3CF13
:102A2800DAFFDECF0BF0DDCF0CF0FE0E0CC0E3FFBB
:102A3800FD0E0BC0E3FFE150FD0FD96EE250DA6ED8
:102A4800FF0EDA22DECFF6FFDDCFF7FFF86A0800C7
:102A5800FF0EF5CFE3FF4DEF15F0FD0EE350010F2C
:102A6800016EFD0E01C0E3FF016AFE0EE350012076
:102A7800016EFE0E01C0E3FF67EF15F06C0E0C6EE1
:102A8800FF0E0CC0E3FF67EF15F0FF0EE36A67EF78
:102A980015F0FF0EE3500B6E0C6A0C50000AD8B408
:102AA80058EF15F049EF15F00B504C0AD8B431EF38
:102AB80015F02A0AD8B442EF15F00A0AD8B431EF53
:102AC80015F049EF15F0E150FD0FD96EE250DA6EBE
:102AD800FF0EDA22DECFF6FFDDCFF7FFF86A080037
:102AE800F550660AD8A47BEF15F07DEF15F039EFA5
:102AF80016F0CFEF15F0F10EE3CFD9FFF20EE3CFCA
:102B0800DAFF040EDE5E000EDD5ADECF0BF0DDCFFD
:102B18000CF00BC0D9FF0CC0DAFFDECF09F0DECF16
:102B28000AF0DECF0BF0DECF0CF0F90E09C0E3FFA0
:102B3800FA0E0AC0E3FFFB0E0BC0E3FFFC0E0CC04D
:102B4800E3FFE5EF15F0F10EE3CFD9FFF20EE3CF87
:102B5800DAFF040EDE5E000EDD5ADECF0BF0DDCFAD
:102B68000CF00BC0D9FF0CC0DAFFDECF09F0DECFC6
:102B78000AF0DECF0BF0DECF0CF0F90E09C0E3FF50
:102B8800FA0E0AC0E3FFFB0E0BC0E3FFFC0E0CC0FD
:102B9800E3FFE5EF15F0FF0EE3500B6E0C6A0C50E7
:102BA800000AD8B4DAEF15F0E5EF15F00B504C0A2F
:102BB800D8B4A7EF15F0200AD8B47FEF15F0E5EFE9
:102BC80015F0FD0EE350010F0B6EFE0EE3CF0CF077
:102BD800000E0C22F30EE3CFD9FFF40EE3CFDAFF99
:102BE8000BC0DEFF0CC0DDFF1BEF16F0E150FD0F40
:102BF800D96EE250DA6EFF0EDA22DECFF6FFDDCFB5
:102C0800F7FFF86A0800F550E66EF80EE3CFE6FF26
:102C1800E3CFE6FFE3CFE6FFE3CFE6FFF00EE3CF37
:102C2800E6FFE3CFE6FFB2EC00F05DEF16F0E1500F
:102C3800FD0FD96EE250DA6EFF0EDA22DECFF6FF14
:102C4800DDCFF7FFF86A0800F5500B6E0C6A0C50E0
:102C5800000AD8B432EF16F039EF16F00B50660AB6
:102C6800D8B4FAEF15F039EF16F0F30EE3CFD9FF29
:102C7800F40EE3CFDAFFDE2A000EDD225DEF16F058
:102C8800F50EE3CFE6FFE3CFE6FFF10EE3CFD9FF82
:102C9800F20EE3CFDAFFDECFF6FFDDCFF7FFF86AFB
:102CA8000800F550E66E000EE66E7AEC20F039EF7B
:102CB80016F0F10EE126FF0EE22212000A0EE126BE
:102CC800000EE22229C009F02AC00AF02BC00BF03E
:102CD8002CC00CF0F60E09C0E3FFF70E0AC0E3FFA4
:102CE800F80E0BC0E3FFF90E0CC0E3FFF20EE3CFC2
:102CF80009F0F30EE3CF0AF0F40EE3CF0BF0F50E74
:102D0800E3CF0CF0F60E09C0E3FFF70E0AC0E3FFAD
:102D1800F80E0BC0E3FFF90E0CC0E3FF810E0B6E3B
:102D2800FF0E0C6EF60EE3CF05F0F70EE3CF06F0BC
:102D3800F80EE3CF07F0F90EE3CF08F0180EAAEF6C
:102D480016F0D8900832073206320532E82EA5EF81
:102D580016F005C009F006C00AF009500B24096EE8
:102D6800000E0C200A6EFE0E09C0E3FFFF0E0AC01B
:102D7800E3FFFF0EE3BECEEF16F0FF0EE3500CE1CB
:102D8800FE0EE3CF01F0170E015ED8A0CEEF16F0CD
:102D9800D0EF16F0DEEF16F0F20EE3CF01F0F30EEF
:102DA800E3CF02F0F40EE3CF03F0F50EE3CF04F027
:102DB800FBEF17F0FF0EE3BEE4EF16F0E6EF16F0B8
:102DC80097EF17F0FE0EE3CF0CF0FF0E056EFF0E27
:102DD800066E7F0E076E000E086E0C66F6EF16F094
:102DE800FEEF16F0083408320732063205320C2E90
:102DF800F1EF16F0FA0E05C0E3FFFB0E06C0E3FF85
:102E0800FC0E07C0E3FFFD0E08C0E3FFF60EE3CF9C
:102E180009F0F70EE3CF0AF0F80EE3CF0BF0F90E46
:102E2800E3CF0CF0FA0EE3500916FB0EE3500A1636
:102E3800FC0EE3500B16FD0EE3500C1609500A1059
:102E48000B100C10D8A42BEF17F02DEF17F02FEF65
:102E580017F0D0EF16F0F60EE3CF09F0F70EE3CF38
:102E68000AF0F80EE3CF0BF0F90EE3CF0CF0200ECA
:102E780043EF17F0D8900C320B320A320932E82EA1
:102E88003EEF17F00950D8B44CEF17F04EEF17F09B
:102E980072EF17F0F60EE350016EFA0EE3500126BA
:102EA800F60E01C0E3FFF70EE350016EFB0EE35090
:102EB8000122F70E01C0E3FFF80EE350016EFC0E8D
:102EC800E3500122F80E01C0E3FFF90EE350016E52
:102ED800FD0EE3500122F90E01C0E3FFFA0EE3CF25
:102EE80009F0FB0EE3CF0AF0FC0EE3CF0BF0FD0E6A
:102EF800E3CF0CF0091C056E0A1C066E0B1C076E4E
:102F08000C1C086EE150F60FD96EE250DA6EFF0E17
:102F1800DA220550DE160650DE160750DE16085077
:102F2800DE16EFEF17F0F60EE3CF09F0F70EE3CF5A
:102F38000AF0F80EE3CF0BF0F90EE3CF0CF0200EF9
:102F4800ABEF17F0D8900C320B320A320932E82E68
:102F5800A6EF17F00966BBEF17F0F60EE36AF70E57
:102F6800E36AF80EE36AF90EE36AEFEF17F0F60E7C
:102F7800E3CF09F0F70EE3CF0AF0F80EE3CF0BF03A
:102F8800F90EE3CF0CF0D8900934056E0A34066EBA
:102F98000B34076E0C34086E055006100710081025
:102FA800D8B4D9EF17F0DBEF17F0EFEF17F0000EFA
:102FB800096E000E0A6E800E0B6EBF0E0C6EF60EBA
:102FC80009C0E3FFF70E0AC0E3FFF80E0BC0E3FFEA
:102FD800F90E0CC0E3FFF60EE3CF01F0F70EE3CFD6
:102FE80002F0F80EE3CF03F0F90EE3CF04F0F20E8F
:102FF800E126FF0EE22212000D0EE126000EE2226B
:10300800FF0EE36AE388E38A2FEF19F0EC0EE66E11
:10301800FD0EE66E020EE66EA3EC2DF0FB0EE66EDC
:10302800FE0EE66E010EE66E26EC28F0D90EE66E70
:10303800FE0EE66E020EE66E26EC28F051EF19F051
:103048005E0EE66EFE0EE66E020EE66EA3EC2DF048
:10305800F6EC2DF0000EE66E95EC28F051EF19F025
:10306800FD0EE36AFE0EE36AE150FF0FD96EE250EF
:10307800DA6EFF0EDA22D890DF32FF0EE350E66EEA
:1030880095EC28F0010E096E0A6A0B6A0C6AF70EB5
:1030980009C0E3FFF80E0AC0E3FFF90E0BC0E3FF17
:1030A800FA0E0CC0E3FFE150F70FD96EE250DA6E6A
:1030B800FF0EDA22DE2A000EDE22DE22DE22FA0EE1
:1030C800E3BE7CEF18F0FA0EE35014E1F90EE3507A
:1030D80011E1F70EE3CF01F0500E015EF80EE3CFD9
:1030E80001F0C30E015AD8A07CEF18F07EEF18F05B
:1030F80057EF18F0FD0EE350010F016EFD0E01C0F1
:10310800E3FF016AFE0EE3500120016EFE0E01C0CE
:10311800E3FFFE0EE3BE9EEF18F0FE0EE3500CE157
:10312800FD0EE3CF01F0040E015ED8A09EEF18F06B
:10313800A0EF18F038EF18F0FB0EE36AFC0EE36A14
:10314800E150FF0FD96EE250DA6EFF0EDA22D89006
:10315800DF36FF0EE350E66E95EC28F0010E096E9F
:103168000A6A0B6A0C6AF30E09C0E3FFF40E0AC080
:10317800E3FFF50E0BC0E3FFF60E0CC0E3FFE150D2
:10318800F30FD96EE250DA6EFF0EDA22DE2A000E55
:10319800DE22DE22DE22F60EE3BEE8EF18F0F60E9F
:1031A800E35014E1F50EE35011E1F30EE3CF01F023
:1031B800500E015EF40EE3CF01F0C30E015AD8A001
:1031C800E8EF18F0EAEF18F0C3EF18F0FB0EE35041
:1031D800010F016EFB0E01C0E3FF016AFC0EE35014
:1031E8000120016EFC0E01C0E3FFFC0EE3BE0AEFF6
:1031F80019F0FC0EE3500CE1FB0EE3CF01F0040ED6
:10320800015ED8A00AEF19F00CEF19F0A4EF18F03E
:1032180080A411EF19F013EF19F034EF18F051EF03
:1032280019F0560EE66E470EE66EEF0EE3CFE6FF98
:10323800E3CFE6FFCEEC2DF051EF19F0000EE66E6D
:10324800300EE66EEF0EE3CFE6FFE3CFE6FFCEECFF
:103258002DF051EF19F0F00EE3500B6E0C6A0C5084
:10326800000AD8B43AEF19F051EF19F00B50010ADF
:10327800D8B40AEF18F0030AD8B424EF18F0060AF5
:10328800D8B40CEF19F0020AD8B415EF19F0010AF6
:10329800D8B422EF19F051EF19F0F00EE126FF0E25
:1032A800E2221200050EE126000EE222FA0EE35099
:1032B800D8B461EF19F063EF19F08EEF19F0F90E39
:1032C800E3BE6BEF19F069EF19F08EEF19F0F60E07
:1032D800E3CF09F0F70EE3CF0AF0F80EE3CF0BF0D7
:1032E800F90EE3CF0CF0091E0A1E0B1E0C1E092A4C
:1032F800000E0A220B220C22FB0E09C0E3FFFC0E73
:103308000AC0E3FFFD0E0BC0E3FFFE0E0CC0E3FF97
:10331800A6EF19F0F60EE3CF09F0F70EE3CF0AF0A7
:10332800F80EE3CF0BF0F90EE3CF0CF0FB0E09C05B
:10333800E3FFFC0E0AC0E3FFFD0E0BC0E3FFFE0E29
:103348000CC0E3FFF60EE3500DE1F70EE3500AE17F
:10335800F80EE35007E1F90EE350D8A4B6EF19F0E0
:10336800B8EF19F0C2EF19F0000E016E000E026EF0
:10337800000E036E000E046E81EF1AF0960E0C6EAE
:10338800FF0E0CC0E3FFD4EF19F0FF0EE32AD8902C
:10339800FE0EE332FD0EE332FC0EE332FB0EE332A7
:1033A800E150FB0FD96EE250DA6EFF0EDA22DE52E0
:1033B800DE52DE52FE0EDD14D8A4E5EF19F0E7EF79
:1033C80019F0C9EF19F000EF1AF0FF0EE32AE150E7
:1033D800FB0FD96EE250DA6EFF0EDA22DE2A000EFB
:1033E800DE22DE22DE22D890FE0EE332FD0EE3322C
:1033F800FC0EE332FB0EE332E150FB0FD96EE250D4
:10340800DA6EFF0EDA22DE52DE52DE52FF0EDD14D5
:10341800D8A411EF1AF013EF1AF0E9EF19F020EF22
:103428001AF0FF0EE306D890FB0EE336FC0EE336E7
:10343800FD0EE336FE0EE336FD0EE3BE26EF1AF070
:1034480028EF1AF033EF1AF0FF0EE3CF01F0020E67
:10345800016031EF1AF033EF1AF015EF1AF0FF0E92
:10346800E3B039EF1AF03BEF1AF03DEF1AF0FD0E1A
:10347800E39EE150FF0FD96EE250DA6EFF0EDA22BA
:10348800D890DF32FF0EE3CF0CF00CC005F0066ACF
:10349800076A086A05C008F0076A066A056AE15003
:1034A800FB0FD96EE250DA6EFF0EDA220550DE12FB
:1034B8000650DE120750DE120850DE12FA0EE350F4
:1034C800D8B469EF1AF06BEF1AF075EF1AF0F90E2D
:1034D800E3BE73EF1AF071EF1AF075EF1AF0FE0EF3
:1034E800E38EFB0EE3CF01F0FC0EE3CF02F0FD0EFE
:1034F800E3CF03F0FE0EE3CF04F0F60EE126FF0E55
:10350800E2221200110EE126000EE22220EE4AF01D
:10351800070E016EEF0EDECFE3FFE828012EFBD782
:10352800EB0EE3CF0BF0EC0EE3CF0CF0FB0E0CC070
:10353800E3FFFA0E0BC0E3FFFA0EE3CF01F0FB0E38
:10354800E3500110D8A4ABEF1AF0ADEF1AF0B9EFC1
:103558001AF0EF0EE1240B6EFF0EE2200C6EFB0E4C
:103568000CC0E3FFFA0E0BC0E3FFFA0EE3CFE6FF51
:10357800E3CFE6FF8EEC2CF0F80E01C0E3FFF90E66
:1035880002C0E3FFF60E37C0E3FFF70E38C0E3FFD3
:10359800F70EE3BED2EF1AF0D4EF1AF0FAEF1AF0F2
:1035A800E150F60FD96EE250DA6EFF0EDA22F80E0D
:1035B800E350DE5CDE50800A016EF90EE350800AAB
:1035C8000158D8A0EAEF1AF0ECEF1AF0EEEF1AF073
:1035D800FAEF1AF0F60EE3CF01F0F80E01C0E3FFA0
:1035E800F70EE3CF01F0F90E01C0E3FFF80EE3CFC9
:1035F80001F0F60E01C0E3FFF90EE3CF01F0F70E7C
:1036080001C0E3FFFE0E35C0E3FFFF0E36C0E3FF47
:1036180028EF1BF0ED0EE3CFE6FFE3CFE6FF200E29
:10362800E66E000EE66E7AEC20F0F80EE350010F1D
:10363800016EF80E01C0E3FF016AF90EE3500120A4
:10364800016EF90E01C0E3FFE150F80FD96EE250A8
:10365800DA6EFF0EDA22FE0EE350DE5CDE50800AE0
:10366800016EFF0EE350800A0158D8A03EEF1BF010
:1036780040EF1BF00EEF1BF0FC0EE36AFD0EE36A51
:1036880075EF1BF0ED0EE3CFE6FFE3CFE6FFF80E94
:10369800E3CFD9FFF90EE3CFDAFFDF50E66E000E75
:1036A800E66E7AEC20F0FA0EE350010F016EFA0E86
:1036B80001C0E3FF016AFB0EE3500120016EFB0E1F
:1036C80001C0E3FFFC0EE350010F016EFC0E01C0C8
:1036D800E3FF016AFD0EE3500120016EFD0E01C0FB
:1036E800E3FFE150FC0FD96EE250DA6EFF0EDA22EA
:1036F800F60EE350DE5CDE50800A016EF70EE350F2
:10370800800A0158D8A08BEF1BF08DEF1BF046EF15
:103718001BF0EB0EE126FF0EE2221200110EE1264D
:10372800000EE22271EF1CF0640EE66EFC0EE66EEF
:10373800010EE66E26EC28F0FF0EE66EFD0EE66E34
:10374800020EE66EA3EC2DF08FEF1CF0700EE66E05
:10375800FE0EE66E020EE66EA3EC2DF0F6EC2DF0F2
:103768008FEF1CF0400EE66E480EE66EEB0EE3CFD0
:10377800E6FFE3CFE6FFCEEC2DF08FEF1CF06F0EE7
:10378800E66E120EE66E830EE66E3A0EE66E000EDA
:10379800E66E400EE66E4E0EE66E400EE66E040EC7
:1037A800E66E75EC2DF001C00BF002C00CF00B506A
:1037B800056E0C50066E076A086A05C0E6FF06C06B
:1037C800E6FF07C0E6FF08C0E6FF000EE66E56EC0F
:1037D80019F001C0E6FF02C0E6FF03C0E6FF04C01F
:1037E800E6FFE9EC0CF001C0E6FF02C0E6FF03C00B
:1037F800E6FF04C0E6FFE9EC0CF001C0E6FF02C0FA
:10380800E6FF03C0E6FF04C0E6FF6F0EE66E120E89
:10381800E66E830EE66E3A0EE66E000EE66E400E1B
:10382800E66E4E0EE66E400EE66E050EE66E75EC22
:103838002DF001C00BF002C00CF00B50056E0C50BF
:10384800066E076A086A05C0E6FF06C0E6FF07C0FD
:10385800E6FF08C0E6FF000EE66E56EC19F001C060
:10386800E6FF02C0E6FF03C0E6FF04C0E6FFE9EC9E
:103878000CF001C0E6FF02C0E6FF03C0E6FF04C08B
:10388800E6FFE9EC0CF001C0E6FF02C0E6FF03C06A
:10389800E6FF04C0E6FF470EE66EFC0EE66EE50E98
:1038A800E124016EFF0EE220026E01C0E6FF02C0B5
:1038B800E6FF0C0EE66E03EC29F0EF0EE124016E34
:1038C800FF0EE220026E01C0E6FF02C0E6FF020E14
:1038D800E66E26EC28F08FEF1CF0EC0EE3500B6E32
:1038E8000C6A0C50000AD8B47CEF1CF08FEF1CF067
:1038F8000B50010AD8B498EF1BF0030AD8B4AAEF0A
:103908001BF0040AD8B4B6EF1BF00E0AD8B4C3EF04
:103918001BF08FEF1CF0EC0EE126FF0EE2221200E6
:10392800E652E652E652E652FA0EE3CF0BF0FB0EF1
:10393800E3CF0CF0FF0E0CC0E3FFFE0E0BC0E3FF5D
:10394800F80EE3CF0BF0F90EE3CF0CF0FD0E0CC030
:10395800E3FFFC0E0BC0E3FFF60EE3CF01F0010E10
:10396800015EF60E01C0E3FFF70EE3CF01F0000E93
:10397800015AF70E01C0E3FFF60EE32807E1F70E40
:10398800E328D8A4CAEF1CF0CCEF1CF000EF1DF020
:10399800000E016E000E026E7FEF1DF0FE0EE3506A
:1039A800010F016EFE0E01C0E3FF016AFF0EE35036
:1039B8000120016EFF0E01C0E3FFFC0EE350010F72
:1039C800016EFC0E01C0E3FF016AFD0EE350012009
:1039D800016EFD0E01C0E3FFF60EE3CF01F0010E0C
:1039E800015EF60E01C0E3FFF70EE3CF01F0000E13
:1039F800015AF70E01C0E3FFE150FE0FD96EE25005
:103A0800DA6EFF0EDA22DECFF6FFDDCFF7FFF86AB7
:103A18000800F5500009D8B414EF1DF016EF1DF09A
:103A28005EEF1DF0E150FC0FD96EE250DA6EFF0E2A
:103A3800DA22DECFF6FFDDCFF7FFF86A0800F5508F
:103A48000009D8B42AEF1DF02CEF1DF05EEF1DF031
:103A5800F60EE3CF01F0F70EE3500110D8B437EFBC
:103A68001DF039EF1DF05EEF1DF0E150FE0FD96E2D
:103A7800E250DA6EFF0EDA22DECFF6FFDDCFF7FF77
:103A8800F86A0800F5CF0CF0E150FC0FD96EE2504F
:103A9800DA6EFF0EDA22DECFF6FFDDCFF7FFF86A27
:103AA8000800F5500C18D8B45CEF1DF05EEF1DF05F
:103AB800D2EF1CF0E150FE0FD96EE250DA6EFF0E25
:103AC800DA22DECFF6FFDDCFF7FFF86A0800F550FF
:103AD800016E026AE150FC0FD96EE250DA6EFF0EF9
:103AE800DA22DECFF6FFDDCFF7FFF86A0800F550DF
:103AF800015E000E025AF60EE126FF0EE2221200C7
:103B0800E652E652FA0EE3CF09F0FB0EE3CF0AF0D5
:103B1800FC0EE3CF0BF0FD0EE3CF0CF0180E9AEF7E
:103B28001DF0D8900C320B320A320932E82E95EF8C
:103B38001DF0FE0E09C0E3FFFE0EE350D8A4A7EF68
:103B48001DF0A9EF1DF0B0EF1DF0000E016E026A26
:103B5800036A046A53EF1EF0FA0EE3CF09F0FB0E76
:103B6800E3CF0AF0FC0EE3CF0BF0FD0EE3CF0CF031
:103B7800200EC4EF1DF0D8900C320B320A320932F5
:103B8800E82EBFEF1DF0FF0E09C0E3FFFC0EE38E29
:103B9800E150FA0FD96EE250DA6EFF0EDA22FF0E0C
:103BA800DE16FF0EDE16FF0EDE16000EDE16FE0E09
:103BB800E3CF01F0960E015EFE0E01C0E3FFFE0E9C
:103BC800E3BEEBEF1DF0E9EF1DF00CEF1EF0FE0E6B
:103BD800E350800A970FD8B0F4EF1DF0F6EF1DF010
:103BE800F8EF1DF0A9EF1DF0D890FD0EE332FC0EA2
:103BF800E332FB0EE332FA0EE332FE0EE32AD8A4D8
:103C080008EF1EF00AEF1EF0F8EF1DF02DEF1EF082
:103C1800FE0EE3CF01F01F0E016415EF1EF017EF43
:103C28001EF024EF1EF0A9EF1DF0D890FA0EE3362F
:103C3800FB0EE336FC0EE336FD0EE336FE0EE3061E
:103C4800FE0EE350D8A42BEF1EF02DEF1EF019EF57
:103C58001EF0FF0EE350D8B434EF1EF036EF1EF01E
:103C680047EF1EF0FA0EE36CFB0EE31EFC0EE31E9C
:103C7800FD0EE31E08E3FB0EE32A05E3FC0EE32A30
:103C880002E3FD0EE32AFA0EE3CF01F0FB0EE3CFC9
:103C980002F0FC0EE3CF03F0FD0EE3CF04F0FA0EC2
:103CA800E126FF0EE2221200060EE126000EE222B5
:103CB8002DC009F02EC00AF02FC00BF030C00CF058
:103CC800FA0E09C0E3FFFB0E0AC0E3FFFC0E0BC0AF
:103CD800E3FFFD0E0CC0E3FFF60EE3CF09F0F70E8D
:103CE800E3CF0AF0F80EE3CF0BF0F90EE3CF0CF0B8
:103CF800FA0E09C0E3FFFB0E0AC0E3FFFC0E0BC07F
:103D0800E3FFFD0E0CC0E3FFFA0EE3CF09F0FB0E54
:103D1800E3CF0AF0FC0EE3CF0BF0FD0EE3CF0CF07F
:103D2800180E9CEF1EF0D8900C320B320A32093272
:103D3800E82E97EF1EF009C007F00AC008F0FF0E42
:103D48000716000E0816FE0E07C0E3FFFF0E08C098
:103D5800E3FFFE0EE3CF01F0FF0EE3500110D8A4FD
:103D6800B8EF1EF0BAEF1EF0E6EF1EF0FA0EE3CF42
:103D780009F0FB0EE3CF0AF0FC0EE3CF0BF0FD0ECB
:103D8800E3CF0CF0D8900934056E0A34066E0B3474
:103D9800076E0C34086E0550061007100810D8A4DA
:103DA800D8EF1EF0DAEF1EF0E0EF1EF0020E016E03
:103DB800000E026E1CEF1FF0030E016E000E026E65
:103DC8001CEF1FF0FE0EE32807E1FF0EE350D8A416
:103DD800F0EF1EF0F2EF1EF018EF1FF0FA0EE3CF2F
:103DE80009F0FB0EE3CF0AF0FC0EE3CF0BF0FD0E5B
:103DF800E3CF0CF0090ED89009360A360B360C368C
:103E0800E82EFFEF1EF009500A100B100C10D8B462
:103E180010EF1FF013EF1FF0010E14EF1FF0000E4C
:103E2800016E026A1CEF1FF0040E016E000E026E96
:103E3800F60EE126FF0EE2221200E150FC0FD96EC9
:103E4800E250DA6EFF0EDA22000EDE14096E000E62
:103E5800DE140A6E800EDE140B6E7F0EDE140C6EFE
:103E680009500A100B100C10D8A43DEF1FF03FEFBB
:103E78001FF047EF1FF0FC0EE36AFD0EE36AFE0E2B
:103E8800E36AFF0EE36AE150F80FD96EE250DA6E8A
:103E9800FF0EDA22000EDE14096E000EDE140A6E22
:103EA800800EDE140B6E7F0EDE140C6E09500A10A5
:103EB8000B100C10D8A463EF1FF065EF1FF06DEF27
:103EC8001FF0F80EE36AF90EE36AFA0EE36AFB0ED6
:103ED800E36AFF0EE3AE73EF1FF075EF1FF095EF87
:103EE8001FF0000E096E000E0A6E000E0B6E800E9B
:103EF8000C6EFC0EE350095EFD0EE3500A5AFE0EEE
:103F0800E3500B5AFF0EE3500C5AFC0E09C0E3FFB6
:103F1800FD0E0AC0E3FFFE0E0BC0E3FFFF0E0CC050
:103F2800E3FFFB0EE3AE9BEF1FF09DEF1FF0BDEF2D
:103F38001FF0000E096E000E0A6E000E0B6E800E4A
:103F48000C6EF80EE350095EF90EE3500A5AFA0EA9
:103F5800E3500B5AFB0EE3500C5AF80E09C0E3FF6E
:103F6800F90E0AC0E3FFFA0E0BC0E3FFFB0E0CC00C
:103F7800E3FFFF0EE37EFB0EE37EE150FC0FD96EFC
:103F8800E250DA6EFF0EDA22F80EE350DE5CF90E2C
:103F9800E350DE58FA0EE350DE58FB0EE350DE58CD
:103FA800D8B0D9EF1FF0DBEF1FF0DEEF1FF0019064
:103FB800DFEF1FF00180F80EE126FF0EE22212006B
:103FC800FACF3FF0FBCF40F0E1CF41F0E2CF42F033
:103FD800D9CF43F0DACF44F001C045F009C046F02C
:103FE8000AC047F00BC048F00CC049F015EEF4F0D9
:103FF8009EA001EF20F003EF20F013EF20F09DA02A
:1040080008EF20F00AEF20F013EF20F0080EE66E1C
:1040180022EC2FF0D80ECF6EEF0ECE6E9E907EA4BF
:1040280018EF20F01AEF20F040EF20F07DA41FEFEA
:1040380020F021EF20F040EF20F0FF0E3126FF0E98
:104048003222FF0E3322FF0E342234BE38EF20F026
:1040580034503310321006E13104D8B036EF20F076
:1040680038EF20F03EEF20F0070EE66E22EC2FF03E
:104078000F014A958A7A7E949EAA45EF20F047EF71
:1040880020F063EF20F09DAA4CEF20F04EEF20F0D7
:1040980063EF20F039503A10D8B455EF20F057EFBD
:1040A80020F063EF20F002D863EF20F00500FA6EED
:1040B8003950FD6E3A50FE6EFF6AFA50120049C040
:1040C8000CF048C00BF047C00AF046C009F045C0E4
:1040D80001F044C0DAFF43C0D9FF42C0E2FF41C04B
:1040E800E1FF40C0FBFF3FC0FAFF1100FC0EE3CF29
:1040F80001F0FD0EE3500110D8B485EF20F087EFF2
:1041080020F094EF20F0FC0EE3CF01F0FD0EE35019
:104118000110D8A492EF20F094EF20F09BEF20F04C
:10412800FE0EE350E66E16EC2FF009EF21F0FC0EC0
:10413800E3CF0BF0FD0EE3CF0CF00A0E0B24D96E83
:10414800000E0C20DA6EDE50DE10D8B4AEEF20F090
:10415800B0EF20F0D7EF20F0FC0EE3CF0BF0FD0E10
:10416800E3CF0CF00A0E0B24D96E000E0C20DA6E89
:10417800FC0EE3CF0BF0FD0EE3CF0CF0030E0B2487
:10418800E96E000E0C20EA6EDE50EE5CEE50800AFE
:10419800016EDE50800A0158D8B0D5EF20F0D7EF75
:1041A80020F009EF21F0FC0EE3CF0BF0FD0EE3CF7A
:1041B8000CF0030E0B24D96E000E0C20DA6EDECF45
:1041C8000BF0DDCF0CF0FC0EE3CFD9FFFD0EE3CFF3
:1041D800DAFFDECF09F0DDCF0AF00B500924D96EE3
:1041E8000C500A20DA6EFE0EE3CFDFFFFC0EE3CFA1
:1041F8000BF0FD0EE3CF0CF0030E0B24D96E000E6E
:104208000C20DA6EDE2A000EDD22E552E552E55278
:10421800E55212007BEF21F0D80EE66EFD0EE66E39
:10422800020EE66EA3EC2DF07D0EE66EFC0EE66E39
:10423800010EE66E26EC28F0750EE66EFF0EE66EB1
:10424800020EE66EA3EC2DF099EF21F04B0EE66E10
:10425800FE0EE66E020EE66EA3EC2DF0F6EC2DF0E7
:1042680099EF21F0140EE66E4A0EE66EFC0EE3CFCF
:10427800E6FFE3CFE6FFCEEC2DF099EF21F0000149
:10428800A36B5FEF21F020EE81F0DECF0BF0DDCFE6
:104298000CF0600E0B24D96E000E0C20DA6E830E23
:1042A800A325E96EEA6A000EEA22DFCFEFFF810755
:1042B800D8A08207A32B82BF66EF21F064EF21F01C
:1042C80047EF21F0830EA325D96EDA6A000EDA22B1
:1042D800DF6A830EE66E000EE66EE60EE66EFF0EF1
:1042E800E66E040EE66EA3EC2DF099EF21F0FD0EBC
:1042F800E3500B6E0C6A0C50000AD8B486EF21F01C
:1043080099EF21F00B50010AD8B410EF21F0030AFD
:10431800D8B42AEF21F0040AD8B436EF21F00F0AF6
:10432800D8B443EF21F099EF21F0E552E552E55278
:104338001200E652E652E652FE0EE36AFF0EE36A08
:10434800FB0EE3CFD9FFFC0EE3CFDAFFDECFF6FF9B
:10435800DDCFF7FFF86A0800F5502A0AD8A4B7EFAE
:1043680021F0B9EF21F003EF22F0FB0EE3CFD9FFE4
:10437800FC0EE3CFDAFFDE2A000EDD22F90EE3CFD2
:10438800D9FFFA0EE3CFDAFF020EDE5E000EDD5A29
:10439800DECF0BF0DDCF0CF00BC0D9FF0CC0DAFF7D
:1043A800DECF0BF0DDCF0CF0FE0E0BC0E3FFFF0EEF
:1043B8000CC0E3FF21EF22F0FE0EE3CF0BF0FF0E5F
:1043C800E3CF0CF00A0E0B02F3CF09F0F4CF0AF09A
:1043D8000C02F3500A26FD0EE3500926000E0A22AD
:1043E800FE0E09C0E3FFFF0E0AC0E3FFFB0EE3CF9A
:1043F800D9FFFC0EE3CFDAFFDE2A000EDD22FB0E2A
:10440800E3CFD9FFFC0EE3CFDAFFDECFF6FFDDCF37
:10441800F7FFF86A0800F5CF0CF0D00E0C26FD0E59
:104428000CC0E3FFFD0EE3CF01F0090E01641FEF9E
:1044380022F021EF22F0E0EF21F0FE0EE3CF01F0B1
:10444800FF0EE3CF02F0F90EE126FF0EE222120082
:10445800E65233EF22F0000E016EAFEF22F0FD0EB0
:10446800E3CF0BF0FE0EE3CF0CF0200E0B24D96E39
:10447800000E0C20DA6EDF501F0B0C6EFD0EE3CF22
:1044880009F0FE0EE3CF0AF0210E0924D96E000EC2
:104498000A20DA6EDF501F0B0C18D8B456EF22F042
:1044A80058EF22F02FEF22F0F2BE5DEF22F061EF1D
:1044B80022F00C6A0C2A62EF22F00C6A010E0C162C
:1044C800FF0E0CC0E3FFF29EFD0EE3CF0BF0FE0ED5
:1044D800E3CF0CF0210E0B24D96E000E0C20DA6EFF
:1044E800DF501F0B0C6EFD0EE3CF09F0FE0EE3CF7D
:1044F8000AF00C500924D96E000E0A20DA6EFB0E61
:10450800E3CFE9FFFC0EE3CFEAFFDFCFEFFFFD0EBD
:10451800E3CF0BF0FE0EE3CF0CF0210E0B24D96E87
:10452800000E0C20DA6EDF501F0B0C6E0C2ADF50C9
:104538000C18E00B0C18DF6EFF0EE3CF0CF00C30FC
:10454800D8B0A9EF22F0ACEF22F0F28EADEF22F056
:10455800F29E010E016EFB0EE126FF0EE222120012
:104568000F013B913B9395809582929089806C5086
:10457800F00B08096C6E130E6E6E6C8A340E016EA9
:10458800F20EE82EFED7012EFCD76B806BB0CFEF72
:1045980022F0D1EF22F0CAEF22F0A49E7C0EE66E44
:1045A800D9EC2EF0800EE66ED9EC2EF0380EE66EC1
:1045B800D9EC2EF0800EE66ED9EC2EF0390EE66EB0
:1045C800D9EC2EF0800EE66ED9EC2EF0170EE66EC2
:1045D800D9EC2EF0800EE66ED9EC2EF07A0EE66E4F
:1045E800D9EC2EF0800EE66ED9EC2EF05E0EE66E5B
:1045F800D9EC2EF0800EE66ED9EC2EF06B0EE66E3E
:10460800D9EC2EF0800EE66ED9EC2EF00C0EE66E8C
:10461800D9EC2EF0800EE66ED9EC2EF0010EE66E87
:10462800D9EC2EF0800EE66ED9EC2EF0060EE66E72
:10463800D9EC2EF0800EE66ED9EC2EF0020EE66E66
:10464800D9EC2EF06B846BB42CEF23F02EEF23F013
:1046580027EF23F0340E016EF20EE82EFED7012E5E
:10466800FCD7120085EF23F0570EE66EFF0EE66EBC
:10467800020EE66EA3EC2DF05A0EE66EFD0EE66E07
:10468800010EE66E26EC28F0940EE66EFC0EE66E41
:10469800020EE66E26EC28F0A7EF23F0CA0EE66EAF
:1046A800FF0EE66E020EE66EA3EC2DF0F6EC2DF092
:1046B800A7EF23F0560EE66E470EE66EFC0EE3CF2C
:1046C800E6FFE3CFE6FFCEEC2DF0A7EF23F0A40E34
:1046D800E66E530EE66EFC0EE3CFE6FFE3CFE6FF91
:1046E800CEEC2DF0A7EF23F0C40EE66E4C0EE66E6E
:1046F800FC0EE3CFE6FFE3CFE6FFCEEC2DF0A7EF0D
:1047080023F0FD0EE3500B6E0C6A0C50000AD8B46F
:1047180090EF23F0A7EF23F00B50010AD8B438EF3D
:1047280023F0030AD8B452EF23F0010AD8B45EEF9D
:1047380023F0070AD8B46BEF23F0010AD8B478EF56
:1047480023F0A7EF23F0E552E552E5521200FAEF05
:1047580023F0480EE66EFF0EE66E020EE66EA3EC40
:104768002DF0D60EE66EFC0EE66E010EE66E26EC19
:1047780028F0440EE66EFD0EE66E020EE66E26EC9E
:1047880028F01CEF24F0BC0EE66EFF0EE66E020E5B
:10479800E66EA3EC2DF0F6EC2DF01CEF24F0400EA5
:1047A800E66E480EE66EFC0EE3CFE6FFE3CFE6FFCB
:1047B800CEEC2DF01CEF24F06C0EE66E460EE66E85
:1047C800FC0EE3CFE6FFE3CFE6FFCEEC2DF01CEFC7
:1047D80024F0000EE66E300EE66EFC0EE3CFE6FF28
:1047E800E3CFE6FFCEEC2DF01CEF24F0FD0EE350F6
:1047F8000B6E0C6A0C50000AD8B405EF24F01CEFBD
:1048080024F00B50010AD8B4ADEF23F0030AD8B452
:10481800C7EF23F0010AD8B4D3EF23F0070AD8B4BE
:10482800E0EF23F0010AD8B4EDEF23F01CEF24F0F9
:10483800E552E552E55212006FEF24F0390EE66EAC
:10484800FF0EE66E020EE66EA3EC2DF0020EE66E8B
:10485800FD0EE66E010EE66E26EC28F0C00EE66E42
:10486800FC0EE66E020EE66E26EC28F091EF24F0C0
:10487800AE0EE66EFF0EE66E020EE66EA3EC2DF0AF
:10488800F6EC2DF091EF24F02A0EE66E490EE66E56
:10489800FC0EE3CFE6FFE3CFE6FFCEEC2DF091EF81
:1048A80024F0560EE66E470EE66EFC0EE3CFE6FFEA
:1048B800E3CFE6FFCEEC2DF091EF24F0240EE66E68
:1048C800370EE66EFC0EE3CFE6FFE3CFE6FFCEEC55
:1048D8002DF091EF24F0FD0EE3500B6E0C6A0C5096
:1048E800000AD8B47AEF24F091EF24F00B50010AB3
:1048F800D8B422EF24F0030AD8B43CEF24F0010A1C
:10490800D8B448EF24F0070AD8B455EF24F0010AC8
:10491800D8B462EF24F091EF24F0E552E552E55265
:104928001200E4EF24F02A0EE66EFF0EE66E020E89
:10493800E66EA3EC2DF02E0EE66EFD0EE66E010E71
:10494800E66E26EC28F0EC0EE66EFC0EE66E020E25
:10495800E66E26EC28F006EF25F0A00EE66EFF0EB8
:10496800E66E020EE66EA3EC2DF0F6EC2DF006EFE7
:1049780025F0140EE66E4A0EE66EFC0EE3CFE6FF57
:10498800E3CFE6FFCEEC2DF006EF25F0400EE66E05
:10499800480EE66EFC0EE3CFE6FFE3CFE6FFCEEC73
:1049A8002DF006EF25F0A60EE66E4D0EE66EFC0E17
:1049B800E3CFE6FFE3CFE6FFCEEC2DF006EF25F0E0
:1049C800FD0EE3500B6E0C6A0C50000AD8B4EFEFE2
:1049D80024F006EF25F00B50010AD8B497EF24F025
:1049E800030AD8B4B1EF24F0010AD8B4BDEF24F01B
:1049F800070AD8B4CAEF24F0010AD8B4D7EF24F0D4
:104A080006EF25F0E552E552E552120059EF25F080
:104A18001B0EE66EFF0EE66E020EE66EA3EC2DF0A0
:104A2800700EE66EFD0EE66E010EE66E26EC28F0C0
:104A3800180EE66EFD0EE66E020EE66E26EC28F007
:104A48007BEF25F0920EE66EFF0EE66E020EE66E26
:104A5800A3EC2DF0F6EC2DF07BEF25F06C0EE66E56
:104A6800540EE66EFC0EE3CFE6FFE3CFE6FFCEEC96
:104A78002DF07BEF25F02A0EE66E490EE66EFC0E51
:104A8800E3CFE6FFE3CFE6FFCEEC2DF07BEF25F09A
:104A98001C0EE66E420EE66EFC0EE3CFE6FFE3CF99
:104AA800E6FFCEEC2DF07BEF25F0FD0EE3500B6E0C
:104AB8000C6A0C50000AD8B464EF25F07BEF25F09F
:104AC8000B50010AD8B40CEF25F0030AD8B426EF2E
:104AD80025F0010AD8B432EF25F0070AD8B43FEF21
:104AE80025F0010AD8B44CEF25F07BEF25F0E5520C
:104AF800E552E5521200E150FC0FD96EE250DA6E31
:104B0800FF0EDA22000EDE14096E000EDE140A6EA5
:104B1800800EDE140B6E7F0EDE140C6E09500A1028
:104B28000B100C10D8A49BEF25F09DEF25F0A5EFF6
:104B380025F0FC0EE36AFD0EE36AFE0EE36AFF0E43
:104B4800E36AE150F80FD96EE250DA6EFF0EDA220E
:104B5800000EDE14096E000EDE140A6E800EDE14DE
:104B68000B6E7F0EDE140C6E09500A100B100C1021
:104B7800D8A4C1EF25F0C3EF25F0CBEF25F0F80E50
:104B8800E36AF90EE36AFA0EE36AFB0EE36AE150A0
:104B9800FC0FD96EE250DA6EFF0EDA22F80EE350FF
:104BA800DE1812E1F90EE350DE180EE1FA0EE350BA
:104BB800DE180AE1FB0EE350DE18D8B4E6EF25F064
:104BC800E8EF25F0EBEF25F00190ECEF25F0018000
:104BD800F80EE126FF0EE222120040EF26F0940EB6
:104BE800E66EFE0EE66E020EE66EA3EC2DF0FB0EF0
:104BF800E66EFE0EE66E010EE66E26EC28F0D90E85
:104C0800E66EFE0EE66E020EE66E26EC28F0C00E8C
:104C18003B6E5EEF26F0A60EE66EFE0EE66E020E08
:104C2800E66EA3EC2DF0F6EC2DF0000EE66E95EC9A
:104C380028F05EEF26F0D8903B323B50E66E95ECBC
:104C480028F0800E3B263B28D8A42DEF26F02FEF26
:104C580026F05EEF26F0800E3B6E5EEF26F0A40E87
:104C6800E66E530EE66EFC0EE3CFE6FFE3CFE6FFFB
:104C7800CEEC2DF05EEF26F0FD0EE3500B6E0C6AC5
:104C88000C50000AD8B44BEF26F05EEF26F00B501C
:104C9800010AD8B4F3EF25F0030AD8B40FEF26F0D1
:104CA800060AD8B41FEF26F0020AD8B433EF26F06C
:104CB8005EEF26F0E552E552E5521200B1EF26F01C
:104CC800B00EE66EFD0EE66E020EE66EA3EC2DF05B
:104CD800FB0EE66EFE0EE66E010EE66E26EC28F082
:104CE800D90EE66EFE0EE66E020EE66E26EC28F093
:104CF800C00E3C6ECFEF26F0120EE66EFE0EE66E8C
:104D0800020EE66EA3EC2DF0F6EC2DF0000EE66E2A
:104D180095EC28F0CFEF26F0D8903C323C50E66E68
:104D280095EC28F0800E3C263C28D8A49EEF26F06F
:104D3800A0EF26F0CFEF26F0800E3C6ECFEF26F0E6
:104D48006C0EE66E460EE66EFC0EE3CFE6FFE3CF92
:104D5800E6FFCEEC2DF0CFEF26F0FD0EE3500B6E04
:104D68000C6A0C50000AD8B4BCEF26F0CFEF26F03E
:104D78000B50010AD8B464EF26F0030AD8B480EFC8
:104D880026F0060AD8B490EF26F0020AD8B4A4EFA9
:104D980026F0CFEF26F0E552E552E552120022EF59
:104DA80027F0250EE66EFE0EE66E020EE66EA3EC0A
:104DB8002DF0FB0EE66EFE0EE66E010EE66E26EC9C
:104DC80028F0D90EE66EFE0EE66E020EE66E26ECB2
:104DD80028F0C00E3D6E40EF27F0820EE66EFE0E04
:104DE800E66E020EE66EA3EC2DF0F6EC2DF0000E4A
:104DF800E66E95EC28F040EF27F0D8903D323D5014
:104E0800E66E95EC28F0800E3D263D28D8A40FEFDD
:104E180027F011EF27F040EF27F0800E3D6E40EFAE
:104E280027F02A0EE66E490EE66EFC0EE3CFE6FF8B
:104E3800E3CFE6FFCEEC2DF040EF27F0FD0EE35078
:104E48000B6E0C6A0C50000AD8B42DEF27F040EF17
:104E580027F00B50010AD8B4D5EF26F0030AD8B4CE
:104E6800F1EF26F0060AD8B401EF27F0020AD8B409
:104E780015EF27F040EF27F0E552E552E552120012
:104E880093EF27F0C40EE66EFD0EE66E020EE66E98
:104E9800A3EC2DF0FB0EE66EFE0EE66E010EE66E3E
:104EA80026EC28F0D90EE66EFE0EE66E020EE66ED1
:104EB80026EC28F0C00E3E6EB1EF27F0380EE66EF5
:104EC800FE0EE66E020EE66EA3EC2DF0F6EC2DF06B
:104ED800000EE66E95EC28F0B1EF27F0D8903E3240
:104EE8003E50E66E95EC28F0800E3E263E28D8A46B
:104EF80080EF27F082EF27F0B1EF27F0800E3E6EAB
:104F0800B1EF27F06C0EE66E540EE66EFC0EE3CFA2
:104F1800E6FFE3CFE6FFCEEC2DF0B1EF27F0FD0E74
:104F2800E3500B6E0C6A0C50000AD8B49EEF27F0C1
:104F3800B1EF27F00B50010AD8B446EF27F0030A67
:104F4800D8B462EF27F0060AD8B472EF27F0020A45
:104F5800D8B486EF27F0B1EF27F0E552E552E552D5
:104F68001200050EE126000EE222F70EE3CF0BF049
:104F7800F80EE3CF0CF0FC0E0CC0E3FFFB0E0BC0E9
:104F8800E3FFF90EE3CF0BF0FA0EE3CF0CF0FE0EC1
:104F98000CC0E3FFFD0E0BC0E3FF05EF28F0FB0E8E
:104FA800E3CFD9FFFC0EE3CFDAFFDF500C6EFF0E24
:104FB8000CC0E3FFFB0EE350010F016EFB0E01C0B6
:104FC800E3FF016AFC0EE3500120016EFC0E01C0F4
:104FD800E3FFFD0EE3CFD9FFFE0EE3CFDAFFFF0EAE
:104FE800E3CFDFFFFD0EE350010F016EFD0E01C0A0
:104FF800E3FF016AFE0EE3500120016EFE0E01C0C0
:10500800E3FFF50EE3CF01F0010E015EF50E01C0DE
:10501800E3FFF60EE3CF01F0000E015AF60E01C0D1
:10502800E3FFF50EE32807E1F60EE328D8A41FEF07
:1050380028F021EF28F0D3EF27F0F50EE126FF0E38
:10504800E2221200E6526B806BB02DEF28F02FEFB2
:1050580028F028EF28F0A49E7C0EE66ED9EC2EF0FE
:10506800800EE66ED9EC2EF0FE0EE304D8A43FEFD6
:1050780028F041EF28F047EF28F0800EE66ED9ECD3
:105088002EF057EF28F0FE0EE3CF01F0020E0118C4
:10509800D8A451EF28F053EF28F057EF28F0C00EAE
:1050A800E66ED9EC2EF0400EE66ED9EC2EF0FF0E2F
:1050B800E36AFF0EE3500B6E0C6AFC0EE3500B26FE
:1050C800FD0EE3500C220BC0F6FF0CC0F7FF000EDC
:1050D800F86E0F0EF76403D00800F55005D0F6CF30
:1050E800E9FFF7CFEAFFEF50E66ED9EC2EF0FF0E9E
:1050F800E32AFF0EE3CF01F00F0E016486EF28F0DC
:1051080088EF28F05DEF28F06B846BB48EEF28F001
:1051180090EF28F089EF28F0E552E552E552E55284
:105128001200FF0EE3A09BEF28F09FEF28F00C6A17
:105138000C2AA0EF28F00C6A0C3A0C460C468C504E
:105148000C18BF0B0C188C6EFF0EE3A2AEEF28F004
:10515800B2EF28F00C6A0C2AB3EF28F00C6A0C3A6C
:105168000C468C500C18DF0B0C188C6EFF0EE3A449
:10517800C0EF28F0C4EF28F00C6A0C2AC5EF28F01D
:105188000C6A0C3A8C500C18EF0B0C188C6EFF0E36
:10519800E3A6D1EF28F0D5EF28F00C6A0C2AD6EF59
:1051A80028F00C6A0C3A8B500C18EF0B0C188B6E0D
:1051B800FF0EE3A8E2EF28F0E6EF28F00C6A0C2ACD
:1051C800E7EF28F00C6A0C460C460C468C500C187D
:1051D800F70B0C188C6EFF0EE3AAF5EF28F0F9EF29
:1051E80028F00C6A0C2AFAEF28F00C6A0C460C46D8
:1051F8008C500C18FB0B0C188C6EE55212000E0E1E
:10520800E126000EE222ED0EE1240B6EFF0EE220F5
:105218000C6EFF0E0CC0E3FFFE0E0BC0E3FFEF0E9B
:10522800E3CF0BF0F00EE3CF0CF0F30E0CC0E3FF6E
:10523800F20E0BC0E3FFF50EE124D96EFF0EE2205B
:10524800DA6EDE6ADD6AFC0EE124D96EFF0EE2201A
:10525800DA6EDE6ADD6AFE0EE124016EFF0EE220E0
:10526800026E01C0E6FF02C0E6FFEB0EE3CFE6FFE9
:10527800E3CFE6FFEE0EE124016EFF0EE220026EA0
:1052880001C0E6FF02C0E6FF49EC2CF0F50EE12470
:10529800D96EFF0EE220DA6EDECF0BF0DDCF0CF018
:1052A800EF0EE3CF09F0F00EE3CF0AF00B5009241C
:1052B800D96E0C500A20DA6EDF6AF20EE126FF0E74
:1052C800E222E552E750E15E000EE25A1200E65291
:1052D800E652E652E652F70EE3BE75EF29F077EF95
:1052E80029F085EF29F0F60EE3CF01F0FC0E01C09E
:1052F800E3FFF70EE3CF01F0FD0E01C0E3FF89EFF6
:1053080029F0FC0EE36AFD0EE36AFE0EE36AFF0E67
:10531800E36AA9EF29F0FA0EE3CFE6FFE3CFE6FF51
:10532800200EE66E000EE66E7AEC20F0FE0EE350DC
:10533800010F016EFE0E01C0E3FF016AFF0EE3508C
:105348000120016EFF0E01C0E3FFE150FE0FD96E90
:10535800E250DA6EFF0EDA22FC0EE350DE5CDE501D
:10536800800A016EFD0EE350800A0158D8A0BFEFF5
:1053780029F0C1EF29F08FEF29F0FA0EE3CFE6FF0D
:10538800E3CFE6FFF60EE3CFE6FFE3CFE6FF00EC60
:105398002CF0F60EE126FF0EE222120014EF2AF09E
:1053A800660EE66EFF0EE66E020EE66EA3EC2DF0BC
:1053B800440EE66EFD0EE66E010EE66E26EC28F053
:1053C800AA0EE66EFC0EE66E020EE66E26EC28F0DD
:1053D80032EF2AF0D80EE66EFF0EE66E020EE66E8B
:1053E800A3EC2DF0F6EC2DF032EF2AF06C0EE66E01
:1053F800460EE66EFC0EE3CFE6FFE3CFE6FFCEEC0B
:105408002DF032EF2AF0E20EE66E4B0EE66EFC0E41
:10541800E3CFE6FFE3CFE6FFCEEC2DF032EF2AF044
:10542800FD0EE3500B6E0C6A0C50000AD8B41FEF47
:105438002AF032EF2AF00B50010AD8B4D4EF29F041
:10544800030AD8B4EEEF29F0010AD8B4FAEF29F02C
:10545800060AD8B407EF2AF032EF2AF0E552E552EF
:10546800E552120078EF2AF00C0EE66EFF0EE66E9B
:10547800020EE66EA3EC2DF0860EE66EFD0EE66ECD
:10548800010EE66E26EC28F09B0EE66EFD0EE66E2B
:10549800020EE66E26EC28F096EF2AF0840EE66EF1
:1054A800FF0EE66E020EE66EA3EC2DF0F6EC2DF084
:1054B80096EF2AF0140EE66E4A0EE66EFC0EE3CF67
:1054C800E6FFE3CFE6FFCEEC2DF096EF2AF0880E4C
:1054D800E66E4E0EE66EFC0EE3CFE6FFE3CFE6FF88
:1054E800CEEC2DF096EF2AF0FD0EE3500B6E0C6A11
:1054F8000C50000AD8B483EF2AF096EF2AF00B502C
:10550800010AD8B438EF2AF0030AD8B452EF2AF0C7
:10551800060AD8B45EEF2AF0010AD8B46BEF2AF075
:1055280096EF2AF0E552E552E5521200CFEF2AF045
:10553800C80EE66EFE0EE66E010EE66E26EC28F04C
:10554800EA0EE66EFE0EE66E020EE66E26EC28F019
:10555800880EE66E130EE66E000EE66E000EE66E20
:10556800C2EC2EF0F9EF2AF0B70EE66EFE0EE66EEC
:10557800020EE66EA3EC2DF0F9EF2AF06C0EE66E43
:10558800540EE66EFC0EE3CFE6FFE3CFE6FFCEEC6B
:105598002DF0F9EF2AF0FD0EE3500B6E0C6A0C505B
:1055A800000AD8B4DAEF2AF0F9EF2AF00B50010A12
:1055B800D8B49CEF2AF0030AD8B4B8EF2AF0010A4D
:1055C800D8B4C2EF2AF0070AD8B4C2EF2AF0010A09
:1055D800D8B4C2EF2AF0030AD8B4C2EF2AF0010AFD
:1055E800D8B4C2EF2AF0F9EF2AF0E552E552E552B5
:1055F8001200E652E652E652050E026E0F0E016EDA
:10560800F10EE82EFED7012EFCD7022EFAD700F0B5
:1056180045EC2DF00AEC2FF0EDEC2EF0B4EC22F076
:10562800F28CF28EBA84CD80140EE66E5A0EE66EB7
:105638002DEC2FF0FF0EE36A340EE66E550EE66E83
:10564800FB0EE124016EFF0EE220026E01C0E6FFB0
:1056580002C0E6FF88EC2EF0FF0EE124016EFF0E7B
:10566800E220026E01C0E6FF02C0E6FFFCEC2EF06D
:105678000150D8B442EF2BF044EF2BF030EF2BF071
:10568800FF0EE350E66EFC0EE124016EFF0EE220F1
:10569800026E01C0E6FF02C0E6FF66EC2EF030EFB6
:1056A8002BF0AEEF00F0E652F2BE5DEF2BF061EFAB
:1056B8002BF00C6A0C2A62EF2BF00C6A010E0C1608
:1056C800FF0E0CC0E3FFF29EFD0EE3CF0BF0FE0EC3
:1056D800E3CF0CF0200E0B24D96E000E0C20DA6EEE
:1056E800DF501F0B0C6EFD0EE3CF09F0FE0EE3CF6B
:1056F8000AF00C500924D96E000E0A20DA6EFC0E4E
:10570800E3CFDFFFFD0EE3CF0BF0FE0EE3CF0CF08F
:10571800200E0B24D96E000E0C20DA6EDF501F0B02
:105728000C6E0C2ADF500C18E00B0C18DF6EFF0E05
:10573800E3CF0CF00C30D8B0A4EF2BF0A7EF2BF090
:10574800F28EA8EF2BF0F29EE552E552E552E552B3
:105758001200E652E652E652E652F80EE3CF0BF09C
:10576800F90EE3CF0CF0FF0E0CC0E3FFFE0E0BC0EA
:10577800E3FFFA0EE3CF0BF0FB0EE3CF0CF0FD0EC8
:105788000CC0E3FFFC0E0BC0E3FFE150FE0FD96E27
:10579800E250DA6EFF0EDA22DFCF0BF0010EDE26C2
:1057A800DFCF0CF0000EDD220BC0F6FF0CC0F7FFB8
:1057B800F86AE150FC0FD96EE250DA6EFF0EDA2279
:1057C800DFCF0BF0010EDE26DFCF0CF0000EDD225E
:1057D8000BC0D9FF0CC0DAFF0800F5CFDFFFDF50A0
:1057E800D8A4F9EF2BF0FBEF2BF0C9EF2BF0F80E54
:1057F800E126FF0EE2221200E652E652E652FD0EC4
:10580800E36AFE0EE36A24EF2CF0F90EE3CFE6FF1D
:10581800E3CFE6FFFD0EE350E66E000EE66E7AEC8F
:1058280020F0FD0EE350010F016EFD0E01C0E3FFF5
:10583800016AFE0EE3500120016EFE0E01C0E3FF77
:10584800FD0EE3CF0BF0FE0EE3CF0CF0FB0EE3CF23
:1058580009F0FC0EE3CF0AF00B500924D96E0C5066
:105868000A20DA6EDF500C6EFF0E0CC0E3FFFF0E4D
:10587800E350D8A442EF2CF044EF2CF009EF2CF0C1
:10588800F90EE126FF0EE2221200E652E652FA0E67
:10589800E3CF0BF0FB0EE3CF0CF0FF0E0CC0E3FFE1
:1058A800FE0E0BC0E3FF6FEF2CF0F80EE3CFE6FF20
:1058B800E3CFE6FFFC0EE124016EFF0EE220026E4C
:1058C80001C0E6FF02C0E6FFF80EE3CFE6FFE3CF34
:1058D800E6FF27EC14F0E150FE0FD96EE250DA6EC5
:1058E800FF0EDA22DECFF6FFDDCFF7FFF86A0800F9
:1058F800F5500009D8A483EF2CF085EF2CF059EF70
:105908002CF0000E016E000E026EF80EE126FF0E5E
:10591800E2221200E652E652FC0EE3CF0BF0FD0E37
:10592800E3CF0CF0FF0E0CC0E3FFFE0E0BC0E3FF4D
:10593800ADEF2CF0FC0EE350010F016EFC0E01C020
:10594800E3FF016AFD0EE3500120016EFD0E01C068
:10595800E3FFFC0EE3CFD9FFFD0EE3CFDAFFDF5004
:10596800D8A4B9EF2CF0BBEF2CF09EEF2CF0FC0E76
:10597800E3CF01F0FD0EE3CF02F0FE0EE350015E2F
:10598800FF0EE350025AE552E552E552E552120085
:10599800FF0EE3BEE2EF2CF0FF0EE3500DE1FE0E2A
:1059A800E3500AE1FD0EE35007E1FC0EE304D8B032
:1059B800E0EF2CF0E2EF2CF0F9EF2CF0FC0EE3CF47
:1059C80001F0FD0EE3CF02F0FE0EE3CF03F0FF0E71
:1059D800E3CF04F0011E021E031E041E012A000E5E
:1059E80002220322042205EF2DF0FC0EE3CF01F082
:1059F800FD0EE3CF02F0FE0EE3CF03F0FF0EE3CF80
:105A080004F0E552E552E552E5521200E652FF0E67
:105A1800AECFE3FFFF0EE3CF01F00A0E0118D8B4B2
:105A280018EF2DF01AEF2DF030EF2DF0600E000179
:105A38008025D96EDA6A000EDA22FF0EE3CFDFFF87
:105A4800802B1F0E80652BEF2DF02DEF2DF043EFEF
:105A58002DF0806B43EF2DF0600E00018025D96E8C
:105A6800DA6A000EDA22DF6AFF0E8025816F826B08
:105A7800FF0E8223806B090EE66E22EC2FF0E552B2
:105A88001200948092889286928495949596949820
:105A98009598959A959C939A0F01386B8C848C866F
:105AA8008B888C888C8A8C8C030EBA12BA50870B20
:105AB8004809BA6EFA0EBB6E9F929D829E92030EA3
:105AC8004A134A51870B20094A6F640E4B6F7D8435
:105AD8007E943F0ECD16300ECD129D809E90D08EB6
