:040000001AEF00F003
:1000080005829DA00AEF00F00CEF00F018EF00F059
:100018009EA011EF00F013EF00F018EF00F0000EB3
:10002800CF6E000ECE6E9E900592110071EF08F013
:101000000000016E01B007EF08F00AEF08F08C84D1
:101010000BEF08F08C9401B210EF08F013EF08F01A
:101020008C8614EF08F08C9601B419EF08F01CEFD1
:1010300008F08B881DEF08F08B9801B622EF08F0BE
:1010400025EF08F08C8826EF08F08C9801B82BEF7C
:1010500008F02EEF08F08C8A2FEF08F08C9A01BA76
:1010600034EF08F037EF08F08C8C38EF08F08C9CE8
:10107000120066EC08F080A840EF08F042EF08F09C
:101080003BEF08F053EC08F0060E036E130E026EF1
:10109000AE0EE82EFED7022EFCD7032EFAD73BEF7A
:1010A00008F01AEF00F00450FF0A01EC08F00450B9
:1010B000020DF328046E3F0E046461EF08F063EF45
:1010C00008F065EF08F0000E046E120095949596F6
:1010D00094989598959A959C92860F013897389593
:0E10E0001200046A05900592000139EF08F035
:020000040030CA
:04000000FF331F3C6F
:00000001FF
