:04000000AEEF00F06F
:04000800A7EF21F04D
:10001800D8CFC8F0E8CFC9F0E0CFCAF0E1CFCBF035
:10002800E2CFCCF0D9CFCDF0DACFCEF009C0CFF007
:100038000AC0D0F00BC0D1F00CC0D2F01AEE96F086
:100048009EA229EF00F02BEF00F097EF00F09DA2A1
:1000580030EF00F032EF00F097EF00F0D890213643
:1000680082B039EF00F03CEF00F0010E3DEF00F0F8
:10007800000E2112D890233680B845EF00F048EFE3
:1000880000F0010E49EF00F0000E2312D89025363B
:1000980080B651EF00F054EF00F0010E55EF00F07C
:1000A800000E2512D890273680B45DEF00F060EF7F
:1000B80000F0010E61EF00F0000E27127F0E2118EC
:1000C800D8A469EF00F06BEF00F06FEF00F0030EBB
:1000D800E66E3CEC32F07F0E2318D8A476EF00F0E1
:1000E80078EF00F07CEF00F0040EE66E3CEC32F0A6
:1000F8007F0E2518D8A483EF00F085EF00F089EF74
:1001080000F0050EE66E3CEC32F07F0E2718D8A4FE
:1001180090EF00F092EF00F096EF00F0060EE66E1A
:100128003CEC32F09E92D2C00CF0D1C00BF0D0C0A3
:100138000AF0CFC009F0CEC0DAFFCDC0D9FFCCC0DD
:10014800E2FFCBC0E1FFCAC0E0FFC9C0E8FFC8C0FA
:10015800D8FF100011EE50F024EF31F02C0EE126FC
:10016800000EE222FC0EE36ACE0EE3CF09F0CF0EBA
:10017800E3CF0AF0D00EE3CF0BF0D10EE3CF0CF0B3
:10018800DA0E09C0E3FFDB0E0AC0E3FFDC0E0BC08A
:10019800E3FFDD0E0CC0E3FFDD0EE3BED8EF00F099
:1001A800D6EF00F0F2EF00F0FC0EE36AE32ADA0E75
:1001B800E3CFE6FFE3CFE6FFE3CFE6FFE3CFE6FFDB
:1001C80049EC31F0DA0E01C0E3FFDB0E02C0E3FFB9
:1001D800DC0E03C0E3FFDD0E04C0E3FFEA0EE36AB2
:1001E800EB0EE36AEE0E35C0E3FFEF0E36C0E3FF19
:1001F800FC0EE350D8B403EF01F005EF01F02AEF4D
:1002080001F0FC0EE350D8A40CEF01F00EEF01F062
:100218001AEF01F02B0E0B6E000E0C6ED40E0BC0F5
:10022800E3FFD50E0CC0E3FF24EF01F02D0E0B6E9B
:10023800000E0C6ED40E0BC0E3FFD50E0CC0E3FF0E
:10024800D40EE3CF01F0FC0E01C0E3FFDA0EE3CFDA
:10025800E6FFE3CFE6FFE3CFE6FFE3CFE6FFB8EC48
:100268001EF001040210D8A43CEF01F03EEF01F0AB
:100278008FEF01F0FC0EE350D8B445EF01F047EFE3
:1002880001F05EEF01F0FC0EE3CF00F1E150EE0F5C
:10029800D96EE250DA6EFF0EDA22DE06000EDD5A63
:1002A800010E0B6E000E0C6EEA0E0BC0E3FFEB0E98
:1002B8000CC0E3FFF30EE66EFF0EE66E000E0B6E4B
:1002C800010E0C6EE80EE3500B26E90EE3500C22EB
:1002D8000BC0E6FF0CC0E6FF5DEC2EF0E150EE0F20
:1002E800D96EE250DA6EFF0EDA22FD0EDE26FF0E20
:1002F800DD22EE0EE3CFE6FFE3CFE6FF000EE66E6B
:10030800010EE66ECE0EE3CFE6FFE3CFE6FFCBECC1
:100318002BF072EF08F0DA0EE3CFE6FFE3CFE6FF4B
:10032800E3CFE6FFE3CFE6FFB8EC1EF00150021082
:10033800D8A4A1EF01F0A3EF01F0D9EF01F0FC0E72
:10034800E350D8B4AAEF01F0ACEF01F0C3EF01F02D
:10035800FC0EE3CF00F1E150EE0FD96EE250DA6EF9
:10036800FF0EDA22DE06000EDD5A010E0B6E000EBD
:100378000C6EEA0E0BC0E3FFEB0E0CC0E3FFF70EAA
:10038800E66EFF0EE66E000E0B6E010E0C6EE80EAA
:10039800E3500B26E90EE3500C220BC0E6FF0CC01D
:1003A800E6FF5DEC2EF072EF01F0000E096E000E14
:1003B8000A6E800E0B6E3F0E0C6ED60E09C0E3FF60
:1003C800D70E0AC0E3FFD80E0BC0E3FFD90E0CC04E
:1003D800E3FFF00EE36AF10EE36A000EE66E000E2C
:1003E800E66E000EE66E000EE66ED60EE3CFE6FF72
:1003F800E3CFE6FFE3CFE6FFE3CFE6FF5AEC28F0D2
:1004080001B009EF02F00BEF02F064EF03F034EFF4
:1004180002F0E60EE3CF09F0E70EE3CF0AF0E80EAC
:10042800E3CF0BF0E90EE3CF0CF0D60E09C0E3FFE3
:10043800D70E0AC0E3FFD80E0BC0E3FFD90E0CC0DD
:10044800E3FFF00EE350010F016EF00E01C0E3FF71
:10045800016AF10EE3500120016EF10E01C0E3FFC5
:10046800000EE66E000EE66E200EE66E410EE66E9B
:10047800D20EE3CFE6FFE3CFE6FFE3CFE6FFE3CF1D
:10048800E6FFE9EC0CF0E60E01C0E3FFE70E02C060
:10049800E3FFE80E03C0E3FFE90E04C0E3FFDA0E52
:1004A800E3CF09F0DB0EE3CF0AF0DC0EE3CF0BF06D
:1004B800DD0EE3CF0CF0E60EE350095EE70EE350E5
:1004C8000A5AE80EE3500B5AE90EE3500C5A09C0D9
:1004D800E6FF0AC0E6FF0BC0E6FF0CC0E6FF7CECB7
:1004E8002FF004BE83EF02F004500310021009E15C
:1004F800020E015CD8A083EF02F085EF02F00DEF49
:1005080002F0DA0EE3CFE6FFE3CFE6FFE3CFE6FF44
:10051800E3CFE6FFE20EE3CFE6FFE3CFE6FFE3CF6C
:10052800E6FFE3CFE6FF81EC1FF001A09EEF02F0AB
:10053800A0EF02F00DEF02F0DA0EE3CF09F0DB0EC8
:10054800E3CF0AF0DC0EE3CF0BF0DD0EE3CF0CF0C7
:10055800D60EE350095ED70EE3500A5AD80EE35080
:100568000B5AD90EE3500C5A09C0E6FF0AC0E6FF41
:100578000BC0E6FF0CC0E6FF7CEC2FF004BED2EF08
:1005880002F004500310021007E1020E015CD8B01B
:10059800D0EF02F0D2EF02F049EF03F0D60EE3CF2E
:1005A80009F0D70EE3CF0AF0D80EE3CF0BF0D90E3F
:1005B800E3CF0CF0DA0E09C0E3FFDB0E0AC0E3FF5D
:1005C800DC0E0BC0E3FFDD0E0CC0E3FF64EF03F0AD
:1005D800000EE66E000EE66E200EE66E410EE66E2A
:1005E800D20EE3CFE6FFE3CFE6FFE3CFE6FFE3CFAC
:1005F800E6FF14EC11F0D60E01C0E3FFD70E02C0DF
:10060800E3FFD80E03C0E3FFD90E04C0E3FFE150B7
:10061800F00FD96EE250DA6EFF0EDA22DE06000E17
:10062800DD5ADA0EE3CF09F0DB0EE3CF0AF0DC0E79
:10063800E3CF0BF0DD0EE3CF0CF0D60EE350095EEE
:10064800D70EE3500A5AD80EE3500B5AD90EE3508E
:100658000C5A09C0E6FF0AC0E6FF0BC0E6FF0CC053
:10066800E6FF7CEC2FF004BE47EF03F004500310C4
:10067800021007E1020E015CD8B045EF03F047EF26
:1006880003F049EF03F0D2EF02F0D60EE3CFE6FF16
:10069800E3CFE6FFE3CFE6FFE3CFE6FFD60EE3CFF7
:1006A800E6FFE3CFE6FFE3CFE6FFE3CFE6FF81EC2B
:1006B8001FF001A062EF03F064EF03F0ECEF02F02B
:1006C800CD0EE3CF01F0FE0E01C0E3FFFE0EE3CF37
:1006D80001F0FD0E01C0E3FF38BE75EF03F077EFC0
:1006E80003F07FEF03F0F80E37C0E3FFF90E38C0D0
:1006F800E3FF89EF03F0060E0B6E000E0C6EF80E8A
:100708000BC0E3FFF90E0CC0E3FFF80EE3CF01F0D6
:10071800F20E01C0E3FFF90EE3CF01F0F30E01C0C2
:10072800E3FFF20EE350010F016EF20E01C0E3FF8A
:10073800016AF30EE3500120016EF30E01C0E3FFDE
:10074800FD0EE3CF01F0660E0118D8A4AEEF03F05A
:10075800B0EF03F0EEEF03F0F10EE3BEB8EF03F0F5
:10076800B6EF03F0D0EF03F0000E096E000E0A6E2C
:10077800800E0B6E3F0E0C6ED60E09C0E3FFD70E2F
:100788000AC0E3FFD80E0BC0E3FFD90E0CC0E3FF8D
:10079800F00EE36AF10EE36AFE0EE3CF01F0670E96
:1007A8000118D8B4DAEF03F0DCEF03F0EEEF03F052
:1007B800F20EE350016EF00EE3500126F20E01C076
:1007C800E3FFF30EE350016EF10EE3500122F30E46
:1007D80001C0E3FFEC0EE36AED0EE36ADA0EE3CF45
:1007E80009F0DB0EE3CF0AF0DC0EE3CF0BF0DD0EF1
:1007F800E3CF0CF0E20E09C0E3FFE30E0AC0E3FF0B
:10080800E40E0BC0E3FFE50E0CC0E3FFD60EE3CF0A
:1008180009F0D70EE3CF0AF0D80EE3CF0BF0D90ECC
:10082800E3CF0CF0E60E09C0E3FFE70E0AC0E3FFD2
:10083800E80E0BC0E3FFE90E0CC0E3FFC4EF04F0C1
:10084800D60EE3CFE6FFE3CFE6FFE3CFE6FFE3CF45
:10085800E6FFDE0EE3CFE6FFE3CFE6FFE3CFE6FFFA
:10086800E3CFE6FF14EC11F001C0E6FF02C0E6FF9B
:1008780003C0E6FF04C0E6FFDBEC16F0DE0E01C0A5
:10088800E3FFDF0E02C0E3FFE00E03C0E3FFE10E6B
:1008980004C0E3FFDE0EE3CFE6FFE3CFE6FFE3CFDE
:1008A800E6FFE3CFE6FFE4EC1DF001C00BF002C069
:1008B8000CF0F40E0BC0E3FFF50E0CC0E3FFDE0EE8
:1008C800E3CFE6FFE3CFE6FFE3CFE6FFE3CFE6FFC4
:1008D800D20EE3CFE6FFE3CFE6FFE3CFE6FFE3CFB9
:1008E800E6FFE9EC0CF001C0E6FF02C0E6FF03C03A
:1008F800E6FF04C0E6FFDE0EE3CFE6FFE3CFE6FF48
:10090800E3CFE6FFE3CFE6FFAFEC31F0E20E01C044
:10091800E3FFE30E02C0E3FFE40E03C0E3FFE50ECE
:1009280004C0E3FF000EE66E000EE66E200EE66ED3
:10093800410EE66ED20EE3CFE6FFE3CFE6FFE3CF4C
:10094800E6FFE3CFE6FF14EC11F0D60E01C0E3FF9B
:10095800D70E02C0E3FFD80E03C0E3FFD90E04C0D0
:10096800E3FFEC0EE350010F016EEC0E01C0E3FF54
:10097800016AED0EE3500120016EED0E01C0E3FFA8
:10098800E150EC0FD96EE250DA6EFF0EDA22F20E69
:10099800E350DE5CDE50800A016EF30EE350800AFD
:1009A8000158D8A0DAEF04F0DCEF04F024EF04F0EB
:1009B800000EE66E000EE66EA00EE66E400EE66EC7
:1009C800D20EE3CFE6FFE3CFE6FFE3CFE6FFE3CFC8
:1009D800E6FFE9EC0CF0DE0E01C0E3FFDF0E02C01B
:1009E800E3FFE00E03C0E3FFE10E04C0E3FFDE0E09
:1009F800E3CFE6FFE3CFE6FFE3CFE6FFE3CFE6FF93
:100A0800DE0EE3CFE6FFE3CFE6FFE3CFE6FFE3CF7B
:100A1800E6FF81EC1FF001B014EF05F016EF05F0CA
:100A28002CEF05F0000E096E000E0A6E000E0B6E1C
:100A3800000E0C6EDE0E09C0E3FFDF0E0AC0E3FFF6
:100A4800E00E0BC0E3FFE10E0CC0E3FF63EF05F01F
:100A5800DE0EE3CFE6FFE3CFE6FFE3CFE6FFE3CF2B
:100A6800E6FFDE0EE3CFE6FFE3CFE6FFE3CFE6FFE8
:100A7800E3CFE6FF5AEC28F001A045EF05F047EF79
:100A880005F063EF05F0F40EE3B04DEF05F04FEF1E
:100A980005F063EF05F0000E096E000E0A6E000EF9
:100AA8000B6E000E0C6EDE0E09C0E3FFDF0E0AC0EF
:100AB800E3FFE00E0BC0E3FFE10E0CC0E3FFDE0E28
:100AC800E3CFE6FFE3CFE6FFE3CFE6FFE3CFE6FFC2
:100AD800D60EE3CFE6FFE3CFE6FFE3CFE6FFE3CFB3
:100AE800E6FF77EC08F0E20E01C0E3FFE30E02C078
:100AF800E3FFE40E03C0E3FFE50E04C0E3FF000ECE
:100B0800E66E000EE66E200EE66E410EE66EE20E12
:100B1800E3CFE6FFE3CFE6FFE3CFE6FFE3CFE6FF71
:100B2800E9EC0CF001C0E6FF02C0E6FF03C0E6FFF7
:100B380004C0E6FFDE0EE3CFE6FFE3CFE6FFE3CF38
:100B4800E6FFE3CFE6FF81EC1FF001A0AEEF05F072
:100B5800B0EF05F0F9EF05F0F00EE350010F016E6C
:100B6800F00E01C0E3FF016AF10EE3500120016EAF
:100B7800F10E01C0E3FF000EE66E000EE66E200ED9
:100B8800E66E410EE66EE20EE3CFE6FFE3CFE6FF48
:100B9800E3CFE6FFE3CFE6FFE9EC0CF0E60E01C099
:100BA800E3FFE70E02C0E3FFE80E03C0E3FFE90E30
:100BB80004C0E3FFFD0EE3CF01F0660E0118D8A4D0
:100BC800E8EF05F0EAEF05F0F9EF05F0F20EE35073
:100BD800010F016EF20E01C0E3FF016AF30EE3504C
:100BE8000120016EF30E01C0E3FFE60EE3CF09F02A
:100BF800E70EE3CF0AF0E80EE3CF0BF0E90EE3CF00
:100C08000CF0D60E09C0E3FFD70E0AC0E3FFD80EDA
:100C18000BC0E3FFD90E0CC0E3FFF00EE3CF01F0E9
:100C2800FA0E01C0E3FFF10EE3CF01F0FB0E01C0A5
:100C3800E3FFFF0EE36AF60EE36AF70EE36AEC0ED3
:100C4800E36AED0EE36AA0EF07F0D60EE3CFE6FF06
:100C5800E3CFE6FFE3CFE6FFE3CFE6FFDE0EE3CF29
:100C6800E6FFE3CFE6FFE3CFE6FFE3CFE6FF14ECD2
:100C780011F001C0E6FF02C0E6FF03C0E6FF04C0B2
:100C8800E6FFDBEC16F0DE0E01C0E3FFDF0E02C06C
:100C9800E3FFE00E03C0E3FFE10E04C0E3FFDE0E56
:100CA800E3CFE6FFE3CFE6FFE3CFE6FFE3CFE6FFE0
:100CB800E4EC1DF001C00BF002C00CF00CBE70EFAC
:100CC80006F00C5007E10A0E0B5CD8B06EEF06F088
:100CD80070EF06F087EF06F0DE0EE3CFE6FFE3CF16
:100CE800E6FFE3CFE6FFE3CFE6FFE4EC1DF001C04B
:100CF8000BF002C00CF0F40E0BC0E3FFF50E0CC0B5
:100D0800E3FF91EF06F0090E0B6E000E0C6EF40E69
:100D18000BC0E3FFF50E0CC0E3FFFF0EE350D8A4B1
:100D280098EF06F09AEF06F0FFEF06F0FB0EE3BE31
:100D3800A2EF06F0A0EF06F0FFEF06F0EA0EE3CF11
:100D48000BF0EB0EE3CF0CF0000E0B24D96E010E66
:100D58000C20DA6E2E0EDF6EEA0EE350010F016EE4
:100D6800EA0E01C0E3FF016AEB0EE3500120016EB9
:100D7800EB0E01C0E3FFE150EE0FD96EE250DA6EE0
:100D8800FF0EDA22DE06000EDD5AFF0EE36AE32AC2
:100D9800FFEF06F0EA0EE3CF0BF0EB0EE3CF0CF01B
:100DA800000E0B24D96E010E0C20DA6E300EDF6EA9
:100DB800EA0EE350010F016EEA0E01C0E3FF016A7B
:100DC800EB0EE3500120016EEB0E01C0E3FFE15092
:100DD800EE0FD96EE250DA6EFF0EDA22DE06000E52
:100DE800DD5AE150F60FD96EE250DA6EFF0EDA22C4
:100DF800DE06000EDD5AF60EE3CF01F0F70EE350E3
:100E08000110D8A40AEF07F00CEF07F0CEEF06F0B8
:100E1800EA0EE3CF0BF0EB0EE3CF0CF0000E0B2441
:100E2800D96E010E0C20DA6EF40EE350300FDF6E2F
:100E3800EA0EE350010F016EEA0E01C0E3FF016AFA
:100E4800EB0EE3500120016EEB0E01C0E3FFE15011
:100E5800EE0FD96EE250DA6EFF0EDA22DE06000ED1
:100E6800DD5ADE0EE3CFE6FFE3CFE6FFE3CFE6FF92
:100E7800E3CFE6FFD20EE3CFE6FFE3CFE6FFE3CF13
:100E8800E6FFE3CFE6FFE9EC0CF001C0E6FF02C0A5
:100E9800E6FF03C0E6FF04C0E6FFDE0EE3CFE6FF91
:100EA800E3CFE6FFE3CFE6FFE3CFE6FFAFEC31F0B9
:100EB800E20E01C0E3FFE30E02C0E3FFE40E03C04D
:100EC800E3FFE50E04C0E3FF000EE66E000EE66EDB
:100ED800200EE66E410EE66ED20EE3CFE6FFE3CFBC
:100EE800E6FFE3CFE6FFE3CFE6FF14EC11F0D60E02
:100EF80001C0E3FFD70E02C0E3FFD80E03C0E3FF33
:100F0800D90E04C0E3FFE150FA0FD96EE250DA6E51
:100F1800FF0EDA22DE06000EDD5AEC0EE350010F5A
:100F2800016EEC0E01C0E3FF016AED0EE3500120F3
:100F3800016EED0E01C0E3FFE150EC0FD96EE250F7
:100F4800DA6EFF0EDA22F20EE350DE5CDE50800A23
:100F5800016EF30EE350800A0158D8B0B6EF07F0DF
:100F6800B8EF07F0CBEF07F0EB0EE3BEC9EF07F0E1
:100F7800EB0EE3500CE1EA0EE3CF01F04B0E015EFD
:100F8800D8A0C9EF07F0CBEF07F029EF06F04F0E16
:100F98000B6E000E0C6EEC0E0BC0E3FFED0E0CC0DA
:100FA800E3FFEC0EE3CF0BF0ED0EE3CF0CF0000EF9
:100FB8000B24D96E010E0C20DA6EDF6AEA0EE3CF3D
:100FC800E6FFE3CFE6FF000EE66E010EE66E000ECA
:100FD8000B6E010E0C6EE60EE3500B5EE70EE3504F
:100FE8000C5AE80EE3500B26E90EE3500C220BC016
:100FF800E6FF0CC0E6FF3DEC29F0EC0EE3CF0BF06A
:10100800ED0EE3CF0CF0EA0EE3500B5EEB0EE3506F
:101018000C5AEA0E0BC0E3FFEB0E0CC0E3FFFC0E0C
:10102800E350D8A41AEF08F01DEF08F0010E1EEFE8
:1010380008F0000E0B6E0C6AEC0E0BC0E3FFED0E11
:101048000CC0E3FFFC0EE350D8B42DEF08F02FEFEF
:1010580008F046EF08F0E150EA0FD96EE250DA6E78
:10106800FF0EDA22DE06000EDD5ADECF0BF0DDCFF2
:101078000CF0000E0B24D96E010E0C20DA6EFC0E5B
:10108800E3CFDFFFEE0EE350016EEC0EE350015E9E
:10109800EE0E01C0E3FFEF0EE350016EED0EE350DC
:1010A800015AEF0E01C0E3FFEE0EE3CFE6FFE3CFF8
:1010B800E6FF000E0B6E010E0C6EE80EE3500B26D9
:1010C800E90EE3500C220BC0E6FF0CC0E6FFCE0E83
:1010D800E3CFE6FFE3CFE6FFCBEC2BF0CD0EE12626
:1010E800FF0EE2221200E652E652E652E652FB0EEC
:1010F800E124D96EFF0EE220DA6EDF500C6E800E0E
:101108000C16FF0E0CC0E3FFFB0EE124D96EFF0E98
:10111800E220DA6EDF500C6ED8900C340B6EFD0EA8
:101128000BC0E3FFFA0EE124D96EFF0EE220DA6E5F
:10113800DFAEA1EF08F0A3EF08F0A5EF08F0FD0E71
:10114800E380FD0EE350D8B4ACEF08F0AEEF08F042
:10115800D6EF08F0FD0EE328D8A4B5EF08F0B7EFF6
:1011680008F0CBEF08F0000E096E000E0A6E000EB4
:101178000B6E000E0C6EF80E09C0E3FFF90E0AC0E4
:10118800E3FFFA0E0BC0E3FFFB0E0CC0E3FFFA0E01
:10119800E38EFB0EE124D96EFF0EE220DA6EDF6AE1
:1011A800EAEF08F0000E096E000E0A6E000E0B6ED4
:1011B800000E0C6EF80E09C0E3FFF90E0AC0E3FF3B
:1011C800FA0E0BC0E3FFFB0E0CC0E3FFF70EE124A1
:1011D800D96EFF0EE220DA6EDF500C6E800E0C1610
:1011E800FE0E0CC0E3FFE150FE0FD96EE250DA6E3E
:1011F800FF0EDA22FF0EE350DE18D8B406EF09F02E
:1012080008EF09F00AEF09F0FF0EE38CF70EE1246E
:10121800D96EFF0EE220DA6EDF500C6ED8900C34D7
:101228000B6EFE0E0BC0E3FFF60EE124D96EFF0E27
:10123800E220DA6EDFAE23EF09F025EF09F027EFA1
:1012480009F0FE0EE380FE0EE350D8B42EEF09F04D
:1012580030EF09F058EF09F0FE0EE328D8A437EF75
:1012680009F039EF09F04DEF09F0000E096E000E94
:101278000A6E000E0B6E000E0C6EF40E09C0E3FF32
:10128800F50E0AC0E3FFF60E0BC0E3FFF70E0CC025
:10129800E3FFF60EE38EF70EE124D96EFF0EE2208F
:1012A800DA6EDF6A6CEF09F0000E096E000E0A6E46
:1012B800000E0B6E000E0C6EF40E09C0E3FFF50E67
:1012C8000AC0E3FFF60E0BC0E3FFF70E0CC0E3FF06
:1012D800E150FE0FD96EE250DA6EFF0EDA22FD0EF3
:1012E800E350DE5CD8B07BEF09F07DEF09F011EF39
:1012F8000AF0FF0EE3AC83EF09F085EF09F087EF02
:1013080009F0FF0EE37EFD0EE3CF01F0FC0E01C0F5
:10131800E3FFFE0EE3CF01F0FD0E01C0E3FFFC0E7C
:10132800E3CF01F0FE0E01C0E3FFF80EE3CF01F0BA
:10133800FC0E01C0E3FFF40EE3CF01F0F80E01C08C
:10134800E3FFFC0EE3CF01F0F40E01C0E3FFF90E5A
:10135800E124D96EFF0EE220DA6EDF500C6EFC0E2F
:101368000CC0E3FFF50EE124D96EFF0EE220DA6E21
:10137800F90EE124E96EFF0EE220EA6EDFCFEFFFFF
:10138800F50EE124D96EFF0EE220DA6EFC0EE3CFF3
:10139800DFFFFA0EE124D96EFF0EE220DA6EDF508D
:1013A8000C6EFC0E0CC0E3FFF60EE124D96EFF0EA6
:1013B800E220DA6EFA0EE124E96EFF0EE220EA6E10
:1013C800DFCFEFFFF60EE124D96EFF0EE220DA6ED2
:1013D800FC0EE3CFDFFFFB0EE124D96EFF0EE22007
:1013E800DA6EDF500C6EFC0E0CC0E3FFF70EE12442
:1013F800D96EFF0EE220DA6EFB0EE124E96EFF0ED5
:10140800E220EA6EDFCFEFFFF70EE124D96EFF0E80
:10141800E220DA6EFC0EE3CFDFFFFC0EE36AFE0E7D
:10142800E3500B6E0C6AFD0EE3500B5E000E0C5A77
:101438000CBE28EF0AF00C5009E11A0E0B5CD8A07C
:1014480028EF0AF02AEF0AF093EF0AF0F80EE350BB
:101458000DE1F90EE3500AE1FA0EE35007E1FB0E45
:10146800E350D8A43AEF0AF03EEF0AF00C6A0C2ACF
:101478003FEF0AF00C6AFC0E0CC0E3FFF80EE36ABB
:10148800F90EE36AFA0EE36AFB0EE36AFE0EE3CF97
:1014980001F0FD0E01C0E3FFA4EF0AF0FC0EE3A08B
:1014A80058EF0AF05AEF0AF066EF0AF0FC0EE3CFA5
:1014B8000CF0D8900C32010E0C12FC0E0CC0E3FF9D
:1014C8006FEF0AF0E150FC0FD96EE250DA6EFF0EB2
:1014D800DA22D890DF32F80EE3A075EF0AF077EF42
:1014E8000AF079EF0AF0FC0EE38E010E0C6EE15063
:1014F800F80FD96EE250DA6EFF0EDA220C28DE52AF
:101508008EEF0AF0DE52D890DCBED880DD32DD32B4
:10151800DD32DE32E82E86EF0AF0FD0EE32AE150D6
:10152800FD0FD96EE250DA6EFF0EDA22FE0EE3509E
:10153800DE5CD8A0A2EF0AF0A4EF0AF052EF0AF09E
:10154800FF0EE3BCAAEF0AF0ACEF0AF02EEF0BF0A7
:10155800FD0EE350D8A4B3EF0AF0B5EF0AF0BFEFE1
:101568000AF0000E016E000E026E000E036E000EF1
:10157800046EE4EF0CF0F80EE350016EF40EE35045
:101588000126F80E01C0E3FFF90EE350016EF50ED7
:10159800E3500122F90E01C0E3FFFA0EE350016E99
:1015A800F60EE3500122FA0E01C0E3FFFB0EE350F2
:1015B800016EF70EE3500122FB0E01C0E3FFFB0EA4
:1015C800E3A0E9EF0AF0EBEF0AF018EF0CF0FC0EDD
:1015D800E3A0F1EF0AF0F3EF0AF0FFEF0AF0FC0ED8
:1015E800E3CF0CF0D8900C32010E0C12FC0E0CC09C
:1015F800E3FF08EF0BF0E150FC0FD96EE250DA6E12
:10160800FF0EDA22D890DF32F80EE3A00EEF0BF0CF
:1016180010EF0BF012EF0BF0FC0EE38E010E0C6EC8
:10162800E150F80FD96EE250DA6EFF0EDA220C287C
:10163800DE5227EF0BF0DE52D890DCBED880DD32C8
:10164800DD32DD32DE32E82E1FEF0BF0FD0EE32A2D
:1016580018EF0CF0E150F80FD96EE250DA6EFF0E79
:10166800DA22F40EE350DE5CF50EE350DE58F60E97
:10167800E350DE58DE50800A016EF70EE350800A10
:101688000158D8B04AEF0BF04CEF0BF09CEF0BF081
:10169800F40EE3CF09F0F50EE3CF0AF0F60EE3CF30
:1016A8000BF0F70EE3CF0CF0F80EE350095EF90EDD
:1016B800E3500A5AFA0EE3500B5AFB0EE3500C5A49
:1016C800FF0E0924056EFF0E0A20066EFF0E0B2082
:1016D800076EFF0E0C20086EF80E05C0E3FFF90E2A
:1016E80006C0E3FFFA0E07C0E3FFFB0E08C0E3FFE6
:1016F800FF0EE37EFC0EE35000080C6EFC0E0CC0DF
:10170800E3FFFC0EE350D8A48CEF0BF08EEF0BF048
:10171800AFEF0BF0E150F80FD96EE250DA6EFF0E22
:10172800DA22DE2A000EDE22DE22DE22AFEF0BF006
:10173800E150F80FD96EE250DA6EFF0EDA22F40E9D
:10174800E350DE5EF50EE350DE5AF60EE350DE5A45
:10175800F70EE350DE5AF80EE3500DE1F90EE350B0
:101768000AE1FA0EE35007E1FB0EE350D8A4BFEFFD
:101778000BF0C1EF0BF010EF0CF0FC0EE350D8A407
:10178800C8EF0BF0CAEF0BF010EF0CF0000E016E73
:10179800000E026E000E036E000E046EE4EF0CF0F5
:1017A800D890F80EE336F90EE336FA0EE336FB0E60
:1017B800E336FC0EE3AEE3EF0BF0E5EF0BF0E7EFFB
:1017C8000BF0F80EE380FC0EE3A0EDEF0BF0EFEF6B
:1017D8000BF0FCEF0BF0FC0EE3CF0CF0D8900C34C0
:1017E8000B6E010E0B12FC0E0BC0E3FF05EF0CF0A5
:1017F800E150FC0FD96EE250DA6EFF0EDA22D89073
:10180800DF36FD0EE350D8B40CEF0CF00EEF0CF001
:1018180010EF0CF0FD0EE306FA0EE3AE16EF0CF037
:1018280018EF0CF0D4EF0BF0FE0EE36AFC0EE3AEFB
:1018380020EF0CF022EF0CF03DEF0CF0FC0EE3CFA4
:101848000CF07F0E0C16D8B42CEF0CF02EEF0CF029
:1018580033EF0CF0FE0EE36AE32A3DEF0CF0F80ECE
:10186800E3A039EF0CF03BEF0CF03DEF0CF02EEF5E
:101878000CF0FE0EE350D8B444EF0CF046EF0CF039
:101888007DEF0CF0E150F80FD96EE250DA6EFF0EE2
:10189800DA22DE2A000EDE22DE22DE22FB0EE3A0A2
:1018A80058EF0CF05AEF0CF07DEF0CF0010E0C6EB7
:1018B800E150F80FD96EE250DA6EFF0EDA220C28EA
:1018C800DE526FEF0CF0DE52D890DCBED880DD32ED
:1018D800DD32DD32DE32E82E67EF0CF0FD0EE32854
:1018E800D8B479EF0CF07BEF0CF07DEF0CF0FD0E27
:1018F800E32AFD0EE328D8B484EF0CF086EF0CF051
:101908008FEF0CF0FD0EE350D8A48DEF0CF08FEFA5
:101918000CF0A2EF0CF0F80EE36AF90EE36AFA0E87
:10192800E36AFB0EE36AFD0EE350D8A49EEF0CF0C9
:10193800A0EF0CF0A2EF0CF0FF0EE36AFD0EE3A09F
:10194800A8EF0CF0AAEF0CF0B4EF0CF0FA0EE124BB
:10195800D96EFF0EE220DA6E000EDB8EBCEF0CF0C3
:10196800FA0EE124D96EFF0EE220DA6E7F0EDF1642
:10197800FB0EE124D96EFF0EE220DA6EFD0EE3CFF6
:101988000CF0D8900C30DF6EFF0EE3AECEEF0CF00B
:10199800D0EF0CF0D8EF0CF0FB0EE124D96EFF0E5F
:1019A800E220DA6E000EDB8EF80EE3CF01F0F90EBE
:1019B800E3CF02F0FA0EE3CF03F0FB0EE3CF04F01F
:1019C800F40EE126FF0EE22212000D0EE126000EB3
:1019D800E222F20EE124D96EFF0EE220DA6EDF5029
:1019E8000C6E800E0C16FF0E0CC0E3FFF20EE12405
:1019F800D96EFF0EE220DA6EDF500C6ED8900C34F0
:101A08000B6EFD0E0BC0E3FFF10EE124D96EFF0E45
:101A1800E220DA6EDFAE13EF0DF015EF0DF017EFE1
:101A28000DF0FD0EE380FD0EE350D8B41EEF0DF06F
:101A380020EF0DF041EF0DF0FD0EE328D8A427EFBD
:101A48000DF029EF0DF03DEF0DF0000E096E000EC0
:101A58000A6E000E0B6E000E0C6EEF0E09C0E3FF4F
:101A6800F00E0AC0E3FFF10E0BC0E3FFF20E0CC04C
:101A7800E3FFF10EE38E55EF0DF0000E096E000E38
:101A88000A6E000E0B6E000E0C6EEF0E09C0E3FF1F
:101A9800F00E0AC0E3FFF10E0BC0E3FFF20E0CC01C
:101AA800E3FFEE0EE124D96EFF0EE220DA6EDF507E
:101AB8000C6E800E0C16E150FF0FD96EE250DA6EF4
:101AC800FF0EDA220C50DF1AEE0EE124D96EFF0E5B
:101AD800E220DA6EDF500C6ED8900C340B6EFE0EDE
:101AE8000BC0E3FFED0EE124D96EFF0EE220DA6EA3
:101AF800DFAE81EF0DF083EF0DF085EF0DF0FE0EF8
:101B0800E380FE0EE350D8B48CEF0DF08EEF0DF0AD
:101B1800AFEF0DF0FE0EE328D8A495EF0DF097EF88
:101B28000DF0ABEF0DF0000E096E000E0A6E000E00
:101B38000B6E000E0C6EEB0E09C0E3FFEC0E0AC034
:101B4800E3FFED0E0BC0E3FFEE0E0CC0E3FFED0E5E
:101B5800E38EC3EF0DF0000E096E000E0A6E000E44
:101B68000B6E000E0C6EEB0E09C0E3FFEC0E0AC004
:101B7800E3FFED0E0BC0E3FFEE0E0CC0E3FFFE0E1D
:101B8800E350D8B4CAEF0DF0CCEF0DF0D5EF0DF05F
:101B9800FD0EE350D8A4D3EF0DF0D5EF0DF0DFEF35
:101BA8000DF0000E016E000E026E000E036E000EA8
:101BB800046E0FEF11F0EF0EE3CF0CF0ED0EE12401
:101BC800D96EFF0EE220DA6EDF500C02FB0EF3CF67
:101BD800E3FFFC0EF4CFE3FFFB0EE3CF0CF00CC0E9
:101BE80005F0066A076A086AF70E05C0E3FFF80EF3
:101BF80006C0E3FFF90E07C0E3FFFA0E08C0E3FFD3
:101C0800FC0EE124D96EFF0EE220DA6EDF500C6E76
:101C18000CC005F0066A076A086AF30E05C0E3FF00
:101C2800F40E06C0E3FFF50E07C0E3FFF60E08C08A
:101C3800E3FFF00EE124D96EFF0EE220DA6EDF50EA
:101C48000C6EEC0EE124D96EFF0EE220DA6EDF5046
:101C58000C02FB0EF3CFE3FFFC0EF4CFE3FFE150E1
:101C6800F70FD96EE250DA6EFF0EDA22FB0EE35060
:101C7800DE26000EDE22DE22DE22E150F30FD96ED0
:101C8800E250DA6EFF0EDA22FC0EE124E96EFF0E56
:101C9800E220EA6EEF50DE26000EDE22DE22DE2291
:101CA800F10EE124D96EFF0EE220DA6EDF500C6EE1
:101CB800EB0EE3500C02FB0EF3CFE3FFFC0EF4CF68
:101CC800E3FFE150F70FD96EE250DA6EFF0EDA2229
:101CD800FB0EE350DE26000EDE22DE22DE22E1507D
:101CE800F30FD96EE250DA6EFF0EDA22FC0EE12411
:101CF800E96EFF0EE220EA6EEF50DE26000EDE22CD
:101D0800DE22DE22E150F70FD96EE250DA6EFF0EC6
:101D1800DA22080ED890DE36DE36DE36DD36DD52C3
:101D2800DD52E82E8EEF0EF0F00EE124D96EFF0E94
:101D3800E220DA6EDF500C6EEB0EE3500C02FB0E65
:101D4800F3CFE3FFFC0EF4CFE3FFFB0EE3CF0BF082
:101D5800FC0EE3CF0CF0E150F70FD96EE250DA6ECB
:101D6800FF0EDA220B50DE260C50DE22000EDE2299
:101D7800DE22EF0EE3CF0CF0EC0EE124D96EFF0E5D
:101D8800E220DA6EDF500C02FB0EF3CFE3FFFC0E0D
:101D9800F4CFE3FFFB0EE3CF0BF0FC0EE3CF0CF028
:101DA800E150F70FD96EE250DA6EFF0EDA220B50CF
:101DB800DE260C50DE22000EDE22DE22E150F70F76
:101DC800D96EE250DA6EFF0EDA22080ED890DE36AF
:101DD800DE36DE36DD36DD52DD52E82EEAEF0EF075
:101DE800EF0EE3CF0CF0EB0EE3500C02FB0EF3CF3B
:101DF800E3FFFC0EF4CFE3FFFB0EE3CF0BF0FC0E8A
:101E0800E3CF0CF0E150F70FD96EE250DA6EFF0E17
:101E1800DA220B50DE260C50DE22000EDE22DE22F5
:101E2800F00EE124D96EFF0EE220DA6EDF500C6E60
:101E3800ED0EE124D96EFF0EE220DA6EDF500C02BF
:101E4800FB0EF3CFE3FFFC0EF4CFE3FFFB0EE3CF73
:101E58000BF0FC0EE3CF0CF0E150F30FD96EE2501B
:101E6800DA6EFF0EDA220B50DE260C50DE22000E50
:101E7800DE22DE22F10EE124D96EFF0EE220DA6EB8
:101E8800DF500C6EEC0EE124D96EFF0EE220DA6E04
:101E9800DF500C02FB0EF3CFE3FFFC0EF4CFE3FFA1
:101EA800FB0EE3CF0BF0FC0EE3CF0CF0E150F30F89
:101EB800D96EE250DA6EFF0EDA220B50DE260C5095
:101EC800DE22000EDE22DE22F10EE124D96EFF0EA4
:101ED800E220DA6EDF500C6EED0EE124D96EFF0EB3
:101EE800E220DA6EDF500C02FB0EF3CFE3FFFC0EAC
:101EF800F4CFE3FFFB0EE3CF0BF0FC0EE3CF0CF0C7
:101F08000B50056E0C50066E076A086A07C008F089
:101F180006C007F005C006F0056AE150F30FD96E58
:101F2800E250DA6EFF0EDA220550DE260650DE2277
:101F38000750DE220850DE22E150F30FD96EE2503E
:101F4800DA6EFF0EDA22FA0EE124E96EFF0EE220C5
:101F5800EA6EEF50DE26000EDE22DE22DE22E1509F
:101F6800F70FD96EE250DA6EFF0EDA22080ED8901B
:101F7800DE36DE36DE36DD36DD52DD52E82EBBEFEC
:101F88000FF0FD0EE3500B6E0C6AFE0EE3500B26AD
:101F9800000E0C22820E0B24096EFF0E0C200A6E16
:101FA800FB0E09C0E3FFFC0E0AC0E3FF02EF10F0CE
:101FB800D890F30EE336F40EE336F50EE336F60E5C
:101FC800E336FA0EE3AEEBEF0FF0EDEF0FF0EFEFC5
:101FD8000FF0F30EE380D890F70EE336F80EE336F1
:101FE800F90EE336FA0EE336E150FB0FD96EE250F4
:101FF800DA6EFF0EDA22DE06000EDD5AF50EE3AECB
:1020080008EF10F00AEF10F0DCEF0FF0FE0EE36AB5
:10201800FA0EE3AE12EF10F014EF10F041EF10F0EB
:10202800E150F70FD96EE250DA6EFF0EDA22FF0E9A
:10203800DE14096EFF0EDE140A6EFF0EDE140B6E40
:102048007F0EDE140C6E09500A100B100C10D8B459
:1020580030EF10F032EF10F037EF10F0FE0EE36AB9
:10206800E32A41EF10F0F30EE3A03DEF10F03FEF4D
:1020780010F041EF10F032EF10F0FE0EE350D8B43C
:1020880048EF10F04AEF10F085EF10F0E150F30F31
:10209800D96EE250DA6EFF0EDA22DE2A000EDE2258
:1020A800DE22DE22F60EE3A05CEF10F05EEF10F009
:1020B80085EF10F0010E0C6EE150F30FD96EE2506F
:1020C800DA6EFF0EDA220C28DE5273EF10F0DE52C1
:1020D800D890DCBED880DD32DD32DD32DE32E82E4B
:1020E8006BEF10F0FB0EE350010F016EFB0E01C009
:1020F800E3FF016AFC0EE3500120016EFC0E01C0F3
:10210800E3FFFC0EE3BE93EF10F0FC0EE35009E191
:10211800FB0EE328D8A093EF10F095EF10F0ABEF8B
:1021280010F0000E096E000E0A6E800E0B6E7F0E08
:102138000C6EF30E09C0E3FFF40E0AC0E3FFF50EC0
:102148000BC0E3FFF60E0CC0E3FFF8EF10F0FC0E37
:10215800E3BEBBEF10F0FC0EE35007E1FB0EE30417
:10216800D8B0B9EF10F0BBEF10F0C7EF10F0F30ED6
:10217800E36AF40EE36AF50EE36AF60EE36AFF0E0D
:10218800E36AF8EF10F0FB0EE3CF01F0FD0E01C09B
:10219800E3FFE150F30FD96EE250DA6EFF0EDA2258
:1021A800FF0EDE16FF0EDE167F0EDE16000EDE16A2
:1021B800FD0EE3A0E2EF10F0E4EF10F0ECEF10F00A
:1021C800F50EE124D96EFF0EE220DA6E000EDB8EEA
:1021D800F60EE124D96EFF0EE220DA6EFD0EE3CF93
:1021E8000CF0D8900C30DF6EFF0EE3CF0CF0F60E3B
:1021F800E124D96EFF0EE220DA6E0C50DF12F30EE6
:10220800E3CF01F0F40EE3CF02F0F50EE3CF03F0D5
:10221800F60EE3CF04F0EB0EE126FF0EE2221200E9
:102228000D0EE126000EE222F20EE124D96EFF0E19
:10223800E220DA6EDF500C6E800E0C16FF0E0CC01A
:10224800E3FFF20EE124D96EFF0EE220DA6EDF50D2
:102258000C6ED8900C340B6EFE0E0BC0E3FFF10E23
:10226800E124D96EFF0EE220DA6EDFAE3EEF11F008
:1022780040EF11F042EF11F0FE0EE380FE0EE35046
:10228800D8B449EF11F04BEF11F073EF11F0FE0ED7
:10229800E328D8A452EF11F054EF11F068EF11F0D1
:1022A800000E096E000E0A6E000E0B6E000E0C6E0C
:1022B800EF0E09C0E3FFF00E0AC0E3FFF10E0BC0FA
:1022C800E3FFF20E0CC0E3FFF10EE38EF20EE12401
:1022D800D96EFF0EE220DA6EDF6A87EF11F0000E8A
:1022E800096E000E0A6E000E0B6E000E0C6EEF0EDD
:1022F80009C0E3FFF00E0AC0E3FFF10E0BC0E3FFD5
:10230800F20E0CC0E3FFEE0EE124D96EFF0EE220C0
:10231800DA6EDF500C6E800E0C16E150FF0FD96E8E
:10232800E250DA6EFF0EDA220C50DF1AEE0EE124CC
:10233800D96EFF0EE220DA6EDF500C6ED8900C34A6
:102348000B6EFD0E0BC0E3FFED0EE124D96EFF0E00
:10235800E220DA6EDFAEB3EF11F0B5EF11F0B7EFB0
:1023680011F0FD0EE380FD0EE350D8B4BEEF11F07E
:10237800C0EF11F0E8EF11F0FD0EE328D8A4C7EF85
:1023880011F0C9EF11F0DDEF11F0000E096E000E2B
:102398000A6E000E0B6E000E0C6EEB0E09C0E3FF0A
:1023A800EC0E0AC0E3FFED0E0BC0E3FFEE0E0CC00F
:1023B800E3FFED0EE38EEE0EE124D96EFF0EE22070
:1023C800DA6EDF6AFCEF11F0000E096E000E0A6E7D
:1023D800000E0B6E000E0C6EEB0E09C0E3FFEC0E48
:1023E8000AC0E3FFED0E0BC0E3FFEE0E0CC0E3FFE7
:1023F800EB0EE3500DE1EC0EE3500AE1ED0EE35075
:1024080007E1EE0EE350D8A40CEF12F00EEF12F035
:1024180039EF12F0EF0EE36AF00EE36AF10EE36AA9
:10242800F20EE36AF10EE124D96EFF0EE220DA6EB5
:10243800800EDE127F0EDD12FF0EE3CF0CF0F20EDF
:10244800E124D96EFF0EE220DA6E0C50DF12EF0E97
:10245800E3CF01F0F00EE3CF02F0F10EE3CF03F08B
:10246800F20EE3CF04F022EF14F0FE0EE350D8A4EE
:1024780040EF12F042EF12F04CEF12F0000E016E36
:10248800000E026E000E036E000E046E22EF14F0B2
:10249800FE0EE3500B6E0C6AFD0EE3500B5E000E51
:1024A8000C5A7F0E0B26000E0C22FB0E0BC0E3FF0E
:1024B800FC0E0CC0E3FFEF0EE3CF09F0F00EE3CF04
:1024C8000AF0F10EE3CF0BF0F20EE3CF0CF0F70EAB
:1024D80009C0E3FFF80E0AC0E3FFF90E0BC0E3FFE3
:1024E800FA0E0CC0E3FFEF0EE36AF00EE36AF10E9A
:1024F800E36AF20EE36AF30EE36AF40EE36AF50E9A
:10250800E36AF60EE36AFD0EE36AEAEF12F0FD0EE7
:10251800E350D8B492EF12F094EF12F0B9EF12F042
:10252800D890F70EE336F80EE336F90EE336FA0ED6
:10253800E336D890EF0EE336F00EE336F10EE336CD
:10254800F20EE336F60EE3AEACEF12F0AEEF12F099
:10255800B0EF12F0EF0EE380D890F30EE336F40EEE
:10256800E336F50EE336F60EE336E150F70FD96E93
:10257800E250DA6EFF0EDA22EB0EE350DE5CEC0E70
:10258800E350DE58ED0EE350DE58EE0EE350DE5811
:10259800D8A0D1EF12F0D3EF12F0E8EF12F0F60E58
:1025A800E38CE150F70FD96EE250DA6EFF0EDA22B3
:1025B800EB0EE350DE5EEC0EE350DE5AED0EE35018
:1025C800DE5AEE0EE350DE5AFD0EE32AFD0EE3CF8F
:1025D80001F0190E0164F3EF12F0F5EF12F08BEF32
:1025E80012F0F70EE3500FE1F80EE3500CE1F90E8C
:1025F800E35009E1FA0EE350D8B405EF13F007EF02
:1026080013F031EF13F0F30EE38031EF13F0D890AD
:10261800EF0EE336F00EE336F10EE336F20EE33654
:10262800F60EE3AE1AEF13F01CEF13F01EEF13F0E3
:10263800EF0EE380D890F30EE336F40EE336F50E92
:10264800E336F60EE336E150FB0FD96EE250DA6E50
:10265800FF0EDA22DE06000EDD5AF10EE3AE37EF8A
:1026680013F039EF13F00BEF13F0FD0EE36AF60EDB
:10267800E3AE41EF13F043EF13F070EF13F0E150C6
:10268800F30FD96EE250DA6EFF0EDA22FF0EDE1477
:10269800096EFF0EDE140A6EFF0EDE140B6E7F0E3F
:1026A800DE140C6E09500A100B100C10D8B45FEF32
:1026B80013F061EF13F066EF13F0FD0EE36AE32AFF
:1026C80070EF13F0EF0EE3A06CEF13F06EEF13F062
:1026D80070EF13F061EF13F0FD0EE350D8B477EF0D
:1026E80013F079EF13F0B4EF13F0E150EF0FD96E58
:1026F800E250DA6EFF0EDA22DE2A000EDE22DE2239
:10270800DE22F20EE3A08BEF13F08DEF13F0B4EF9F
:1027180013F0010E0C6EE150EF0FD96EE250DA6E35
:10272800FF0EDA220C28DE52A2EF13F0DE52D89008
:10273800DCBED880DD32DD32DD32DE32E82E9AEFC3
:1027480013F0FB0EE350010F016EFB0E01C0E3FF17
:10275800016AFC0EE3500120016EFC0E01C0E3FF8C
:10276800FC0EE3BEC2EF13F0FC0EE35009E1FB0ED2
:10277800E328D8A0C2EF13F0C4EF13F0D6EF13F09C
:10278800FF0E0B6E000E0C6EFB0E0BC0E3FFFC0E73
:102798000CC0E3FFEF0EE36AF00EE36AF10EE36AA2
:1027A800F20EE36AFC0EE3BEE6EF13F0FC0EE35014
:1027B80007E1FB0EE304D8B0E4EF13F0E6EF13F003
:1027C800F4EF13F0FB0EE36AFC0EE36AEF0EE36A24
:1027D800F00EE36AF10EE36AF20EE36AFF0EE36AB3
:1027E800FB0EE3CF01F0FE0E01C0E3FFFE0EE3A0F7
:1027F80000EF14F002EF14F00CEF14F0F10EE124E6
:10280800D96EFF0EE220DA6E000EDB8E14EF14F0A4
:10281800F10EE124D96EFF0EE220DA6E7F0EDF168C
:10282800F20EE124D96EFF0EE220DA6EFE0EE3CF3F
:102838000CF0D8900C30DF6E20EF12F0EB0EE12692
:10284800FF0EE2221200090EE126000EE222F30E2C
:10285800E3CFD9FFF40EE3CFDAFFDECFF6FFDDCF0B
:10286800F7FFF86A0800F550250AD8A43EEF14F0DF
:1028780040EF14F0BDEF16F0F30EE3CFD9FFF40EDE
:10288800E3CFDAFFDE2A000EDD22356A366A3768C2
:102898003868F30EE3CFD9FFF40EE3CFDAFFDECFCB
:1028A800F6FFDDCFF7FFF86A0800F5502E0AD8A426
:1028B80060EF14F062EF14F07BEF14F0F30EE3CF47
:1028C800D9FFF40EE3CFDAFFDE2A000EDD22F10E87
:1028D800E3CFE6FFE3CFE6FFF10EE3CFE6FFE3CF7A
:1028E800E6FFF2EC23F001C037F002C038F0F30E37
:1028F800E3CFD9FFF40EE3CFDAFFDECF0BF0DDCF65
:102908000CF0FE0E0CC0E3FFFD0E0BC0E3FFE15020
:10291800FD0FD96EE250DA6EFF0EDA22DECFF6FF37
:10292800DDCFF7FFF86A0800F550640AD8B49FEFC6
:1029380014F0A1EF14F0B7EF14F0E150FD0FD96EC9
:10294800E250DA6EFF0EDA22DECFF6FFDDCFF7FFB8
:10295800F86A0800F550690AD8A4B5EF14F0B7EF83
:1029680014F0F4EF14F0F10EE3CFD9FFF20EE3CF39
:10297800DAFF020EDE5E000EDD5ADECF0BF0DDCF91
:102988000CF00BC0D9FF0CC0DAFFDECF0BF0DDCFA7
:102998000CF0F90E0BC0E3FFFA0E0CC0E3FFFD0EBE
:1029A800E350010F0B6EFE0EE3CF0CF0000E0C226D
:1029B800F30EE3CFD9FFF40EE3CFDAFF0BC0DEFF4F
:1029C8000CC0DDFFF90EE3CFE6FFE3CFE6FFF30E21
:1029D800E3CFE6FFE3CFE6FF79EC18F0D6EF16F089
:1029E800F30EE3CFD9FFF40EE3CFDAFFDECFF6FF25
:1029F800DDCFF7FFF86A0800F550730AD8B407EF7F
:102A080015F009EF15F02AEF15F0030EE66E000E2B
:102A1800E66EFB0EE66EFF0EE66EEF0EE3CFD9FF15
:102A2800F00EE3CFDAFFDECF0BF0DDCF0CF00BC0FA
:102A3800E6FF0CC0E6FFF4EC1CF001500210D8A42D
:102A480028EF15F02AEF15F088EF15F0F30EE3CF15
:102A5800D9FFF40EE3CFDAFFDECFF6FFDDCFF7FFC5
:102A6800F86A0800F550730AD8B43DEF15F03FEF47
:102A780015F04BEF15F0030E0B6E000E0C6EF70EF3
:102A88000BC0E3FFF80E0CC0E3FF55EF15F0010E85
:102A98000B6E000E0C6EF70E0BC0E3FFF80E0CC0A9
:102AA800E3FFF70EE3CF0BF0F80EE3CF0CF0F30ED5
:102AB800E3CFD9FFF40EE3CFDAFF0B50DE260C503C
:102AC800DD22F10EE3CFD9FFF20EE3CFDAFF020EDB
:102AD800DE5E000EDD5ADECF0BF0DDCF0CF00BC052
:102AE800D9FF0CC0DAFFDECF0BF0DDCF0CF00BC046
:102AF800E6FF0CC0E6FFF30EE3CFE6FFE3CFE6FF09
:102B0800ECEC1AF0D6EF16F0F30EE3CFD9FFF40E83
:102B1800E3CFDAFFDECF0BF0DDCF0CF0FE0E0CC0FA
:102B2800E3FFFD0E0BC0E3FFE150FD0FD96EE2504D
:102B3800DA6EFF0EDA22DECFF6FFDDCFF7FFF86A96
:102B48000800FF0EF5CFE3FFC6EF15F0FD0EE350CA
:102B5800010F016EFD0E01C0E3FF016AFE0EE35096
:102B68000120016EFE0E01C0E3FFE0EF15F06C0ED0
:102B78000C6EFF0E0CC0E3FFE0EF15F0FF0EE36AEA
:102B8800E0EF15F0FF0EE3500B6E0C6A0C50000AD4
:102B9800D8B4D1EF15F0C2EF15F00B504C0AD8B4E9
:102BA800AAEF15F02A0AD8B4BBEF15F00A0AD8B470
:102BB800AAEF15F0C2EF15F0E150FD0FD96EE25003
:102BC800DA6EFF0EDA22DECFF6FFDDCFF7FFF86A06
:102BD8000800F550660AD8A4F4EF15F0F6EF15F0E2
:102BE800B2EF16F048EF16F0F10EE3CFD9FFF20E70
:102BF800E3CFDAFF040EDE5E000EDD5ADECF0BF007
:102C0800DDCF0CF00BC0D9FF0CC0DAFFDECF09F026
:102C1800DECF0AF0DECF0BF0DECF0CF0F90E09C0E4
:102C2800E3FFFA0E0AC0E3FFFB0E0BC0E3FFFC0E46
:102C38000CC0E3FF5EEF16F0F10EE3CFD9FFF20E02
:102C4800E3CFDAFF040EDE5E000EDD5ADECF0BF0B6
:102C5800DDCF0CF00BC0D9FF0CC0DAFFDECF09F0D6
:102C6800DECF0AF0DECF0BF0DECF0CF0F90E09C094
:102C7800E3FFFA0E0AC0E3FFFB0E0BC0E3FFFC0EF6
:102C88000CC0E3FF5EEF16F0FF0EE3500B6E0C6A0C
:102C98000C50000AD8B453EF16F05EEF16F00B5044
:102CA8004C0AD8B420EF16F0200AD8B4F8EF15F083
:102CB8005EEF16F0FD0EE350010F0B6EFE0EE3CF34
:102CC8000CF0000E0C22F30EE3CFD9FFF40EE3CF85
:102CD800DAFF0BC0DEFF0CC0DDFF94EF16F0E15009
:102CE800FD0FD96EE250DA6EFF0EDA22DECFF6FF64
:102CF800DDCFF7FFF86A0800F550E66EF80EE3CF6F
:102D0800E6FFE3CFE6FFE3CFE6FFE3CFE6FFF00E13
:102D1800E3CFE6FFE3CFE6FFB2EC00F0D6EF16F024
:102D2800E150FD0FD96EE250DA6EFF0EDA22DECFE7
:102D3800F6FFDDCFF7FFF86A0800F5500B6E0C6A56
:102D48000C50000AD8B4ABEF16F0B2EF16F00B50E7
:102D5800660AD8B473EF16F0B2EF16F0F30EE3CFAD
:102D6800D9FFF40EE3CFDAFFDE2A000EDD22D6EF1C
:102D780016F0F50EE3CFE6FFE3CFE6FFF10EE3CF63
:102D8800D9FFF20EE3CFDAFFDECFF6FFDDCFF7FF94
:102D9800F86A0800F550E66E000EE66E3DEC22F08B
:102DA800B2EF16F0F10EE126FF0EE22212000A0E33
:102DB800E126000EE22229C009F02AC00AF02BC041
:102DC8000BF02CC00CF0F60E09C0E3FFF70E0AC09A
:102DD800E3FFF80E0BC0E3FFF90E0CC0E3FFF20EA1
:102DE800E3CF09F0F30EE3CF0AF0F40EE3CF0BF0D4
:102DF800F50EE3CF0CF0F60E09C0E3FFF70E0AC09C
:102E0800E3FFF80E0BC0E3FFF90E0CC0E3FF810EE1
:102E18000B6EFF0E0C6EF60EE3CF05F0F70EE3CF48
:102E280006F0F80EE3CF07F0F90EE3CF08F0180E1E
:102E380023EF17F0D8900832073206320532E82E11
:102E48001EEF17F005C009F006C00AF009500B2460
:102E5800096E000E0C200A6EFE0E09C0E3FFFF0E7D
:102E68000AC0E3FFFF0EE3BE47EF17F0FF0EE35083
:102E78000CE1FE0EE3CF01F0170E015ED8A047EF7C
:102E880017F049EF17F057EF17F0F20EE3CF01F004
:102E9800F30EE3CF02F0F40EE3CF03F0F50EE3CF29
:102EA80004F074EF18F0FF0EE3BE5DEF17F05FEF6C
:102EB80017F010EF18F0FE0EE3CF0CF0FF0E056EC2
:102EC800FF0E066E7F0E076E000E086E0C666FEF23
:102ED80017F077EF17F00834083207320632053258
:102EE8000C2E6AEF17F0FA0E05C0E3FFFB0E06C0C2
:102EF800E3FFFC0E07C0E3FFFD0E08C0E3FFF60E7C
:102F0800E3CF09F0F70EE3CF0AF0F80EE3CF0BF0AA
:102F1800F90EE3CF0CF0FA0EE3500916FB0EE3505E
:102F28000A16FC0EE3500B16FD0EE3500C16095062
:102F38000A100B100C10D8A4A4EF17F0A6EF17F086
:102F4800A8EF17F049EF17F0F60EE3CF09F0F70EE8
:102F5800E3CF0AF0F80EE3CF0BF0F90EE3CF0CF055
:102F6800200EBCEF17F0D8900C320B320A3209321F
:102F7800E82EB7EF17F00950D8B4C5EF17F0C7EF30
:102F880017F0EBEF17F0F60EE350016EFA0EE35070
:102F98000126F60E01C0E3FFF70EE350016EFB0EAB
:102FA800E3500122F70E01C0E3FFF80EE350016E73
:102FB800FC0EE3500122F80E01C0E3FFF90EE350C6
:102FC800016EFD0EE3500122F90E01C0E3FFFA0E77
:102FD800E3CF09F0FB0EE3CF0AF0FC0EE3CF0BF0D2
:102FE800FD0EE3CF0CF0091C056E0A1C066E0B1CC7
:102FF800076E0C1C086EE150F60FD96EE250DA6EBF
:10300800FF0EDA220550DE160650DE160750DE16D1
:103018000850DE1668EF18F0F60EE3CF09F0F70E49
:10302800E3CF0AF0F80EE3CF0BF0F90EE3CF0CF084
:10303800200E24EF18F0D8900C320B320A320932E5
:10304800E82E1FEF18F0096634EF18F0F60EE36A61
:10305800F70EE36AF80EE36AF90EE36A68EF18F010
:10306800F60EE3CF09F0F70EE3CF0AF0F80EE3CF40
:103078000BF0F90EE3CF0CF0D8900934056E0A3442
:10308800066E0B34076E0C34086E055006100710D8
:103098000810D8B452EF18F054EF18F068EF18F091
:1030A800000E096E000E0A6E800E0B6EBF0E0C6EBF
:1030B800F60E09C0E3FFF70E0AC0E3FFF80E0BC0D7
:1030C800E3FFF90E0CC0E3FFF60EE3CF01F0F70EB5
:1030D800E3CF02F0F80EE3CF03F0F90EE3CF04F0EC
:1030E800F20EE126FF0EE2221200090EE126000E82
:1030F800E222F40EE3BE83EF18F087EF18F00C6AB3
:103108000C2A88EF18F00C6AFF0E0CC0E3FFFF0EC4
:10311800E350D8B492EF18F094EF18F09AEF18F043
:10312800F30EE36CF40EE31ED8B0E32A38BEA1EF29
:1031380018F09FEF18F0ADEF18F0010E0B6E000EAF
:103148000C6EFD0E0BC0E3FFFE0E0CC0E3FFB3EFE9
:1031580018F0FD0E37C0E3FFFE0E38C0E3FFFB0E8C
:1031680035C0E3FFFC0E36C0E3FFFF0EE350D8B4D2
:10317800C0EF18F0C2EF18F0F1EF18F0E150FB0FB4
:10318800D96EE250DA6EFF0EDA22DE06000EDD5A44
:10319800FF0EE350D8A4D3EF18F0D5EF18F0E1EF05
:1031A80018F02B0E0B6E000E0C6EF70E0BC0E3FF23
:1031B800F80E0CC0E3FFEBEF18F02D0E0B6E000EAF
:1031C8000C6EF70E0BC0E3FFF80E0CC0E3FFF70E12
:1031D800E3CF01F0FF0E01C0E3FF4F0E0B6E000EB0
:1031E8000C6EF90E0BC0E3FFFA0E0CC0E3FF0101F1
:1031F8004F6B4EEF19F0E150F90FD96EE250DA6ECD
:10320800FF0EDA22DE06000EDD5AF90EE3CF0BF0D0
:10321800FA0EE3CF0CF0000E0B24D96E010E0C2031
:10322800DA6E0A0EE66E000EE66EF10EE3CFE6FFEA
:10323800E3CFE6FF02EC21F001C0E6FF02C0E6FFA3
:10324800D8EC30F00150300FDF6EE150FD0FD96E31
:10325800E250DA6EFF0EDA22DE06000EDD5AE15089
:10326800FB0FD96EE250DA6EFF0EDA22DE06000E90
:10327800DD5A0A0EE66E000EE66EF10EE3CFE6FFAB
:10328800E3CFE6FF44EC20F0F30E01C0E3FFF40EB9
:1032980002C0E3FFFA0EE3BE5CEF19F0FA0EE3504A
:1032A80009E1F90EE304D8A05CEF19F05EEF19F01C
:1032B8007BEF19F0F30EE3CF01F0F40EE3500110A9
:1032C800D8A469EF19F06BEF19F0FFEF18F0FE0EB4
:1032D800E3BE7BEF19F0FE0EE35007E1FD0EE304B9
:1032E800D8B079EF19F07BEF19F0FFEF18F0FF0E67
:1032F800E350D8B482EF19F084EF19F09DEF19F07C
:10330800E150F90FD96EE250DA6EFF0EDA22DE06CE
:10331800000EDD5AF90EE3CF0BF0FA0EE3CF0CF0F6
:10332800000E0B24D96E010E0C20DA6EFF0EE3CFCF
:10333800DFFFFB0EE3CFE6FFE3CFE6FF000E0B6EE9
:10334800010E0C6EF70EE3500B26F80EE3500C221C
:103358000BC0E6FF0CC0E6FFF10EE3CFE6FFE3CFBC
:10336800E6FFCBEC2BF0F30EE126FF0EE222120073
:10337800050EE126000EE222FA0EE350D8B4C7EF9C
:1033880019F0C9EF19F0F4EF19F0F90EE3BED1EF17
:1033980019F0CFEF19F0F4EF19F0F60EE3CF09F0BA
:1033A800F70EE3CF0AF0F80EE3CF0BF0F90EE3CFF8
:1033B8000CF0091E0A1E0B1E0C1E092A000E0A22FA
:1033C8000B220C22FB0E09C0E3FFFC0E0AC0E3FF30
:1033D800FD0E0BC0E3FFFE0E0CC0E3FF0CEF1AF06E
:1033E800F60EE3CF09F0F70EE3CF0AF0F80EE3CFBD
:1033F8000BF0F90EE3CF0CF0FB0E09C0E3FFFC0E57
:103408000AC0E3FFFD0E0BC0E3FFFE0E0CC0E3FF96
:10341800F60EE3500DE1F70EE3500AE1F80EE35023
:1034280007E1F90EE350D8A41CEF1AF01EEF1AF0CA
:1034380028EF1AF0000E016E000E026E000E036EE9
:10344800000E046EE7EF1AF0960E0C6EFF0E0CC01D
:10345800E3FF3AEF1AF0FF0EE32AD890FE0EE332AC
:10346800FD0EE332FC0EE332FB0EE332E150FB0FBC
:10347800D96EE250DA6EFF0EDA22DE52DE52DE52EA
:10348800FE0EDD14D8A44BEF1AF04DEF1AF02FEF13
:103498001AF066EF1AF0FF0EE32AE150FB0FD96E1F
:1034A800E250DA6EFF0EDA22DE2A000EDE22DE227B
:1034B800DE22D890FE0EE332FD0EE332FC0EE3323C
:1034C800FB0EE332E150FB0FD96EE250DA6EFF0ECD
:1034D800DA22DE52DE52DE52FF0EDD14D8A477EF78
:1034E8001AF079EF1AF04FEF1AF086EF1AF0FF0E84
:1034F800E306D890FB0EE336FC0EE336FD0EE3360A
:10350800FE0EE336FD0EE3BE8CEF1AF08EEF1AF0D6
:1035180099EF1AF0FF0EE3CF01F0020E016097EF6A
:103528001AF099EF1AF07BEF1AF0FF0EE3B09FEF55
:103538001AF0A1EF1AF0A3EF1AF0FD0EE39EE15086
:10354800FF0FD96EE250DA6EFF0EDA22D890DF3222
:10355800FF0EE3CF0CF00CC005F0066A076A086A94
:1035680005C008F0076A066A056AE150FB0FD96EC4
:10357800E250DA6EFF0EDA220550DE120650DE1235
:103588000750DE120850DE12FA0EE350D8B4CFEF1F
:103598001AF0D1EF1AF0DBEF1AF0F90EE3BED9EF0B
:1035A8001AF0D7EF1AF0DBEF1AF0FE0EE38EFB0EDF
:1035B800E3CF01F0FC0EE3CF02F0FD0EE3CF03F002
:1035C800FE0EE3CF04F0F60EE126FF0EE222120013
:1035D800110EE126000EE22220EE4BF0070E016EDE
:1035E800EF0EDECFE3FFE828012EFBD7EB0EE3CF8B
:1035F8000BF0EC0EE3CF0CF0FB0E0CC0E3FFFA0E61
:103608000BC0E3FFFA0EE3CF01F0FB0EE35001100D
:10361800D8A411EF1BF013EF1BF01FEF1BF0EF0EF8
:10362800E1240B6EFF0EE2200C6EFB0E0CC0E3FFD4
:10363800FA0E0BC0E3FFFA0EE3CFE6FFE3CFE6FF97
:103648003EEC2FF0F80E01C0E3FFF90E02C0E3FFD5
:10365800F60E37C0E3FFF70E38C0E3FFF70EE3BE00
:1036680038EF1BF03AEF1BF060EF1BF0E150F60F5C
:10367800D96EE250DA6EFF0EDA22F80EE350DE5C05
:10368800DE50800A016EF90EE350800A0158D8A076
:1036980050EF1BF052EF1BF054EF1BF060EF1BF0E4
:1036A800F60EE3CF01F0F80E01C0E3FFF70EE3CF0B
:1036B80001F0F90E01C0E3FFF80EE3CF01F0F60EBA
:1036C80001C0E3FFF90EE3CF01F0F70E01C0E3FFFD
:1036D800FE0E35C0E3FFFF0E36C0E3FF8EEF1BF092
:1036E800ED0EE3CFE6FFE3CFE6FF200EE66E000E19
:1036F800E66E3DEC22F0F80EE350010F016EF80E75
:1037080001C0E3FF016AF90EE3500120016EF90ED2
:1037180001C0E3FFE150F80FD96EE250DA6EFF0EF8
:10372800DA22FE0EE350DE5CDE50800A016EFF0EE8
:10373800E350800A0158D8A0A4EF1BF0A6EF1BF0B5
:1037480074EF1BF0FC0EE36AFD0EE36ADBEF1BF07F
:10375800ED0EE3CFE6FFE3CFE6FFF80EE3CFD9FFA8
:10376800F90EE3CFDAFFDF50E66E000EE66E3DECB1
:1037780022F0FA0EE350010F016EFA0E01C0E3FFCA
:10378800016AFB0EE3500120016EFB0E01C0E3FF4E
:10379800FC0EE350010F016EFC0E01C0E3FF016A4D
:1037A800FD0EE3500120016EFD0E01C0E3FFE15064
:1037B800FC0FD96EE250DA6EFF0EDA22F60EE350F5
:1037C800DE5CDE50800A016EF70EE350800A015875
:1037D800D8A0F1EF1BF0F3EF1BF0ACEF1BF0EB0EF2
:1037E800E126FF0EE2221200190EE126000EE22267
:1037F800D1EF1CF0CD0EE66EFB0EE66E010EE66E06
:10380800AEEC29F0980EE66EFD0EE66E020EE66E40
:1038180085EC30F0EFEF1CF01C0EE66EFE0EE66E47
:10382800020EE66E85EC30F0FEEC30F0EFEF1CF0A7
:10383800F60EE66E4D0EE66EE30EE3CFE6FFE3CF3F
:10384800E6FFB0EC30F0EFEF1CF0110EE66ED20E92
:10385800E66E530EE66E380EE66E050EE66E57EC13
:1038680030F001C00BF002C00CF0800E0B24056E86
:10387800FF0E0C20066E076A086A05C0E6FF06C040
:10388800E6FF07C0E6FF08C0E6FF000EE66EBCECE8
:1038980019F001C0E6FF02C0E6FF03C0E6FF04C05E
:1038A800E6FFE9EC0CF0FC0E01C0E3FFFD0E02C0E0
:1038B800E3FFFE0E03C0E3FFFF0E04C0E3FF110E9B
:1038C800E66ED20EE66E530EE66E380EE66E040E07
:1038D800E66E57EC30F001C00BF002C00CF0800E21
:1038E8000B24056EFF0E0C20066E076A086A05C0D9
:1038F800E6FF06C0E6FF07C0E6FF08C0E6FF000EC9
:10390800E66EBCEC19F001C0E6FF02C0E6FF03C09A
:10391800E6FF04C0E6FFE9EC0CF0F80E01C0E3FF97
:10392800F90E02C0E3FFFA0E03C0E3FFFB0E04C06A
:10393800E3FFF80EE3CFE6FFE3CFE6FFE3CFE6FFD2
:10394800E3CFE6FFF80EE3CFE6FFE3CFE6FFE3CFF2
:10395800E6FFE3CFE6FFF70EE66EFD0EE66EDD0E40
:10396800E124016EFF0EE220026E01C0E6FF02C0F4
:10397800E6FF0C0EE66E63EC2BF0E70EE124016E19
:10398800FF0EE220026E01C0E6FF02C0E6FF020E53
:10399800E66EAEEC29F0EFEF1CF0E40EE3500B6E90
:1039A8000C6A0C50000AD8B4DCEF1CF0EFEF1CF0E6
:1039B8000B50010AD8B4FEEF1BF0030AD8B410EF7D
:1039C8001CF0040AD8B41CEF1CF00E0AD8B429EF76
:1039D8001CF0EFEF1CF0E40EE126FF0EE2221200CD
:1039E800E652E652E652E652FA0EE3CF0BF0FB0E31
:1039F800E3CF0CF0FF0E0CC0E3FFFE0E0BC0E3FF9D
:103A0800F80EE3CF0BF0F90EE3CF0CF0FD0E0CC06F
:103A1800E3FFFC0E0BC0E3FFF60EE3CF01F0010E4F
:103A2800015EF60E01C0E3FFF70EE3CF01F0000ED2
:103A3800015AF70E01C0E3FFF60EE32807E1F70E7F
:103A4800E328D8A42AEF1DF02CEF1DF060EF1DF03D
:103A5800000E016E000E026EDFEF1DF0FE0EE35049
:103A6800010F016EFE0E01C0E3FF016AFF0EE35075
:103A78000120016EFF0E01C0E3FFFC0EE350010FB1
:103A8800016EFC0E01C0E3FF016AFD0EE350012048
:103A9800016EFD0E01C0E3FFF60EE3CF01F0010E4B
:103AA800015EF60E01C0E3FFF70EE3CF01F0000E52
:103AB800015AF70E01C0E3FFE150FE0FD96EE25044
:103AC800DA6EFF0EDA22DECFF6FFDDCFF7FFF86AF7
:103AD8000800F5500009D8B474EF1DF076EF1DF01A
:103AE800BEEF1DF0E150FC0FD96EE250DA6EFF0E0A
:103AF800DA22DECFF6FFDDCFF7FFF86A0800F550CF
:103B08000009D8B48AEF1DF08CEF1DF0BEEF1DF050
:103B1800F60EE3CF01F0F70EE3500110D8B497EF9B
:103B28001DF099EF1DF0BEEF1DF0E150FE0FD96EAC
:103B3800E250DA6EFF0EDA22DECFF6FFDDCFF7FFB6
:103B4800F86A0800F5CF0CF0E150FC0FD96EE2508E
:103B5800DA6EFF0EDA22DECFF6FFDDCFF7FFF86A66
:103B68000800F5500C18D8B4BCEF1DF0BEEF1DF0DE
:103B780032EF1DF0E150FE0FD96EE250DA6EFF0E03
:103B8800DA22DECFF6FFDDCFF7FFF86A0800F5503E
:103B9800016E026AE150FC0FD96EE250DA6EFF0E38
:103BA800DA22DECFF6FFDDCFF7FFF86A0800F5501E
:103BB800015E000E025AF60EE126FF0EE222120006
:103BC800E652E652FA0EE3CF09F0FB0EE3CF0AF015
:103BD800FC0EE3CF0BF0FD0EE3CF0CF0180EFAEF5E
:103BE8001DF0D8900C320B320A320932E82EF5EF6C
:103BF8001DF0FE0E09C0E3FFFE0EE350D8A407EF48
:103C08001EF009EF1EF010EF1EF0000E016E026AA2
:103C1800036A046AB3EF1EF0FA0EE3CF09F0FB0E55
:103C2800E3CF0AF0FC0EE3CF0BF0FD0EE3CF0CF070
:103C3800200E24EF1EF0D8900C320B320A320932D3
:103C4800E82E1FEF1EF0FF0E09C0E3FFFC0EE38E07
:103C5800E150FA0FD96EE250DA6EFF0EDA22FF0E4B
:103C6800DE16FF0EDE16FF0EDE16000EDE16FE0E48
:103C7800E3CF01F0960E015EFE0E01C0E3FFFE0EDB
:103C8800E3BE4BEF1EF049EF1EF06CEF1EF0FE0E88
:103C9800E350800A970FD8B054EF1EF056EF1EF08D
:103CA80058EF1EF009EF1EF0D890FD0EE332FC0E1F
:103CB800E332FB0EE332FA0EE332FE0EE32AD8A417
:103CC80068EF1EF06AEF1EF058EF1EF08DEF1EF041
:103CD800FE0EE3CF01F01F0E016475EF1EF077EFC3
:103CE8001EF084EF1EF009EF1EF0D890FA0EE336AE
:103CF800FB0EE336FC0EE336FD0EE336FE0EE3065E
:103D0800FE0EE350D8A48BEF1EF08DEF1EF079EF76
:103D18001EF0FF0EE350D8B494EF1EF096EF1EF09D
:103D2800A7EF1EF0FA0EE36CFB0EE31EFC0EE31E7B
:103D3800FD0EE31E08E3FB0EE32A05E3FC0EE32A6F
:103D480002E3FD0EE32AFA0EE3CF01F0FB0EE3CF08
:103D580002F0FC0EE3CF03F0FD0EE3CF04F0FA0E01
:103D6800E126FF0EE2221200060EE126000EE222F4
:103D78002DC009F02EC00AF02FC00BF030C00CF097
:103D8800FA0E09C0E3FFFB0E0AC0E3FFFC0E0BC0EE
:103D9800E3FFFD0E0CC0E3FFF60EE3CF09F0F70ECC
:103DA800E3CF0AF0F80EE3CF0BF0F90EE3CF0CF0F7
:103DB800FA0E09C0E3FFFB0E0AC0E3FFFC0E0BC0BE
:103DC800E3FFFD0E0CC0E3FFFA0EE3CF09F0FB0E94
:103DD800E3CF0AF0FC0EE3CF0BF0FD0EE3CF0CF0BF
:103DE800180EFCEF1EF0D8900C320B320A32093252
:103DF800E82EF7EF1EF009C007F00AC008F0FF0E22
:103E08000716000E0816FE0E07C0E3FFFF0E08C0D7
:103E1800E3FFFE0EE3CF01F0FF0EE3500110D8A43C
:103E280018EF1FF01AEF1FF046EF1FF0FA0EE3CF5E
:103E380009F0FB0EE3CF0AF0FC0EE3CF0BF0FD0E0A
:103E4800E3CF0CF0D8900934056E0A34066E0B34B3
:103E5800076E0C34086E0550061007100810D8A419
:103E680038EF1FF03AEF1FF040EF1FF0020E016E1F
:103E7800000E026E7CEF1FF0030E016E000E026E44
:103E88007CEF1FF0FE0EE32807E1FF0EE350D8A4F5
:103E980050EF1FF052EF1FF078EF1FF0FA0EE3CF4C
:103EA80009F0FB0EE3CF0AF0FC0EE3CF0BF0FD0E9A
:103EB800E3CF0CF0090ED89009360A360B360C36CB
:103EC800E82E5FEF1FF009500A100B100C10D8B441
:103ED80070EF1FF073EF1FF0010E74EF1FF0000E6C
:103EE800016E026A7CEF1FF0040E016E000E026E76
:103EF800F60EE126FF0EE2221200E150FC0FD96E09
:103F0800E250DA6EFF0EDA22000EDE14096E000EA1
:103F1800DE140A6E800EDE140B6E7F0EDE140C6E3D
:103F280009500A100B100C10D8A49DEF1FF09FEF3A
:103F38001FF0A7EF1FF0FC0EE36AFD0EE36AFE0E0A
:103F4800E36AFF0EE36AE150F80FD96EE250DA6EC9
:103F5800FF0EDA22000EDE14096E000EDE140A6E61
:103F6800800EDE140B6E7F0EDE140C6E09500A10E4
:103F78000B100C10D8A4C3EF1FF0C5EF1FF0CDEF46
:103F88001FF0F80EE36AF90EE36AFA0EE36AFB0E15
:103F9800E36AFF0EE3AED3EF1FF0D5EF1FF0F5EFA6
:103FA8001FF0000E096E000E0A6E000E0B6E800EDA
:103FB8000C6EFC0EE350095EFD0EE3500A5AFE0E2D
:103FC800E3500B5AFF0EE3500C5AFC0E09C0E3FFF6
:103FD800FD0E0AC0E3FFFE0E0BC0E3FFFF0E0CC090
:103FE800E3FFFB0EE3AEFBEF1FF0FDEF1FF01DEF4D
:103FF80020F0000E096E000E0A6E000E0B6E800E89
:104008000C6EF80EE350095EF90EE3500A5AFA0EE8
:10401800E3500B5AFB0EE3500C5AF80E09C0E3FFAD
:10402800F90E0AC0E3FFFA0E0BC0E3FFFB0E0CC04B
:10403800E3FFFF0EE37EFB0EE37EE150FC0FD96E3B
:10404800E250DA6EFF0EDA22F80EE350DE5CF90E6B
:10405800E350DE58FA0EE350DE58FB0EE350DE580C
:10406800D8B039EF20F03BEF20F03EEF20F0019080
:104078003FEF20F00180F80EE126FF0EE222120049
:10408800E652E652E652E652FE0EE36AF90EE3BE47
:1040980052EF20F050EF20F05BEF20F0F80EE36CC9
:1040A800F90EE31ED8B0E32AFE0EE36AE32AFB0EFC
:1040B800E3BE63EF20F061EF20F06BEF20F0FA0E23
:1040C800E36CFB0EE31ED8B0E32AFE0EE370FC0E91
:1040D800E36AFD0EE36AF80EE3CF01F0F90EE35050
:1040E8000110D8B47AEF20F07CEF20F0E8EF20F050
:1040F800FF0EE36AE32A92EF20F0F80EE350D8901F
:10410800E834016EF80E01C0E3FFF90EE350E8341D
:10411800016EF90E01C0E3FFFF0EE32AF90EE3AECC
:1041280098EF20F09AEF20F081EF20F0FC0EE3509A
:10413800D890E834016EFC0E01C0E3FFFD0EE35099
:10414800E834016EFD0E01C0E3FFF80EE3CF0BF07B
:10415800F90EE3CF0CF0FA0EE3CF09F0FB0EE3CF34
:104168000AF00B50095C0C500A58D8A0BEEF20F09A
:10417800C0EF20F0D4EF20F0FA0EE350016EF80EF5
:10418800E350015EFA0E01C0E3FFFB0EE350016E3F
:10419800F90EE350015AFB0E01C0E3FFFC0EE38069
:1041A800D890F90EE332F80EE332FF0EE350016EB9
:1041B800010E015EFF0E01C0E3FFD8A4E6EF20F078
:1041C800E8EF20F09AEF20F0FE0EE350D8B4EFEFBE
:1041D80020F0F1EF20F0F7EF20F0FC0EE36CFD0E7D
:1041E800E31ED8B0E32AFC0EE3CF01F0FD0EE3CFC7
:1041F80002F0F80EE126FF0EE2221200E652E65225
:10420800FE0EE36AFD0EE3BE0EEF21F00CEF21F087
:1042180017EF21F0FC0EE36CFD0EE31ED8B0E32A85
:10422800FE0EE36AE32AFB0EE3BE1FEF21F01DEF4B
:1042380021F025EF21F0FA0EE36CFB0EE31ED8B057
:10424800E32AFA0EE3CF01F0FB0EE3500110D8B4D5
:1042580030EF21F032EF21F08DEF21F0FF0EE36A0D
:10426800E32A48EF21F0FA0EE350D890E834016EC3
:10427800FA0E01C0E3FFFB0EE350E834016EFB0EBB
:1042880001C0E3FFFF0EE32AFB0EE3AE4EEF21F081
:1042980050EF21F037EF21F0FA0EE3CF0BF0FB0ED1
:1042A800E3CF0CF0FC0EE3CF09F0FD0EE3CF0AF0EC
:1042B8000B50095C0C500A58D8A065EF21F067EF45
:1042C80021F079EF21F0FC0EE350016EFA0EE35075
:1042D800015EFC0E01C0E3FFFD0EE350016EFB0E14
:1042E800E350015AFD0E01C0E3FFD890FB0EE33204
:1042F800FA0EE332FF0EE350016E010E015EFF0E6F
:1043080001C0E3FFD8A48BEF21F08DEF21F050EF2F
:1043180021F0FE0EE350D8B494EF21F096EF21F08F
:104328009CEF21F0FC0EE36CFD0EE31ED8B0E32AEF
:10433800FC0EE3CF01F0FD0EE3CF02F0FA0EE1260A
:10434800FF0EE2221200FACF40F0FBCF41F0E1CF9E
:1043580042F0E2CF43F0D9CF44F0DACF45F001C0C4
:1043680046F009C047F00AC048F00BC049F00CC03D
:104378004AF015EEF4F09EA0C4EF21F0C6EF21F04C
:10438800D6EF21F09DA0CBEF21F0CDEF21F0D6EFB5
:1043980021F0080EE66E3CEC32F0D80ECF6EEF0E30
:1043A800CE6E9E907EA4DBEF21F0DDEF21F003EFCF
:1043B80022F07DA4E2EF21F0E4EF21F003EF22F0F8
:1043C800FF0E3126FF0E3222FF0E3322FF0E34225B
:1043D80034BEFBEF21F034503310321006E13104C3
:1043E800D8B0F9EF21F0FBEF21F001EF22F0070E32
:1043F800E66E3CEC32F00F014A958A7A7E949EAACA
:1044080008EF22F00AEF22F026EF22F09DAA0FEF24
:1044180022F011EF22F026EF22F039503A10D8B4EA
:1044280018EF22F01AEF22F026EF22F002D826EF3A
:1044380022F00500FA6E3950FD6E3A50FE6EFF6AA2
:10444800FA5012004AC00CF049C00BF048C00AF0FC
:1044580047C009F046C001F045C0DAFF44C0D9FFA3
:1044680043C0E2FF42C0E1FF41C0FBFF40C0FAFF8A
:104478001100FC0EE3CF01F0FD0EE3500110D8B49B
:1044880048EF22F04AEF22F057EF22F0FC0EE3CF7C
:1044980001F0FD0EE3500110D8A455EF22F057EFBC
:1044A80022F05EEF22F0FE0EE350E66E30EC32F0C2
:1044B800CCEF22F0FC0EE3CF0BF0FD0EE3CF0CF0B7
:1044C8000A0E0B24D96E000E0C20DA6EDE50DE10B8
:1044D800D8B471EF22F073EF22F09AEF22F0FC0EBD
:1044E800E3CF0BF0FD0EE3CF0CF00A0E0B24D96ED0
:1044F800000E0C20DA6EFC0EE3CF0BF0FD0EE3CFBE
:104508000CF0030E0B24E96E000E0C20EA6EDE5050
:10451800EE5CEE50800A016EDE50800A0158D8B079
:1045280098EF22F09AEF22F0CCEF22F0FC0EE3CFC6
:104538000BF0FD0EE3CF0CF0030E0B24D96E000E2A
:104548000C20DA6EDECF0BF0DDCF0CF0FC0EE3CFE3
:10455800D9FFFD0EE3CFDAFFDECF09F0DDCF0AF099
:104568000B500924D96E0C500A20DA6EFE0EE3CFE8
:10457800DFFFFC0EE3CF0BF0FD0EE3CF0CF0030ED4
:104588000B24D96E000E0C20DA6EDE2A000EDD2216
:10459800E552E552E552E5521200120EE126000EF0
:1045A800E22240EF23F0490EE66EFD0EE66E020EA3
:1045B800E66E85EC30F0FD0EE66EFE0EE66E010E40
:1045C800E66EAEEC29F0390EE66E300EE66EF5ECCE
:1045D80031F0F5EC2FF0030E0116010E0126EE0E58
:1045E80001C0E3FFEE0EE350E66E000EE66E520EDB
:1045F800E66EFE0EE66EEB0EE124016EFF0EE22083
:10460800026E01C0E6FF02C0E6FF060EE66E63EC2E
:104618002BF0EF0EE124016EFF0EE220026E01C0C6
:10462800E6FF02C0E6FF020EE66EAEEC29F0880E49
:10463800E66E130EE66E000EE66E000EE66ECAEC2F
:1046480031F05EEF23F0AB0EE66EFD0EE66E020E65
:10465800E66E85EC30F0FEEC30F05EEF23F0220ED3
:10466800E66E4C0EE66EEA0EE3CFE6FFE3CFE6FF1A
:10467800B0EC30F05EEF23F0EB0EE3500B6E0C6AFB
:104688000C50000AD8B44BEF23F05EEF23F00B5028
:10469800010AD8B4D7EF22F0030AD8B427EF23F0E1
:1046A800040AD8B433EF23F0010AD8B433EF23F067
:1046B8005EEF23F0EB0EE126FF0EE2221200D0EFB0
:1046C80023F0710EE66EFD0EE66E020EE66E85ECC8
:1046D80030F0FF0EE66EFB0EE66E010EE66EAEECF7
:1046E80029F0760EE66EFF0EE66E020EE66E85EC9B
:1046F80030F0EEEF23F0E40EE66EFD0EE66E020EED
:10470800E66E85EC30F0FEEC30F0EEEF23F0CA0EEA
:10471800E66E4F0EE66EFC0EE3CFE6FFE3CFE6FF54
:10472800B0EC30F0EEEF23F00001A36BB4EF23F010
:1047380020EE81F0DECF0BF0DDCF0CF0600E0B2405
:10474800D96E000E0C20DA6E830EA325E96EEA6A94
:10475800000EEA22DFCFEFFF8107D8A08207A32B44
:1047680082BFBBEF23F0B9EF23F09CEF23F0830E59
:10477800A325D96EDA6A000EDA22DF6A830EE66EA6
:10478800000EE66EE70EE66EFF0EE66E040EE66EAF
:1047980085EC30F0EEEF23F0FD0EE3500B6E0C6A63
:1047A8000C50000AD8B4DBEF23F0EEEF23F00B50E7
:1047B800010AD8B465EF23F0030AD8B47FEF23F0D9
:1047C800040AD8B48BEF23F00F0AD8B498EF23F07B
:1047D800EEEF23F0E552E552E5521200E652E652BA
:1047E800E652FE0EE36AFF0EE36AFB0EE3CFD9FF43
:1047F800FC0EE3CFDAFFDECFF6FFDDCFF7FFF86A76
:104808000800F5502A0AD8A40CEF24F00EEF24F083
:1048180058EF24F0FB0EE3CFD9FFFC0EE3CFDAFF0D
:10482800DE2A000EDD22F90EE3CFD9FFFA0EE3CF20
:10483800DAFF020EDE5E000EDD5ADECF0BF0DDCFB2
:104848000CF00BC0D9FF0CC0DAFFDECF0BF0DDCFC8
:104858000CF0FE0E0BC0E3FFFF0E0CC0E3FF76EF7B
:1048680024F0FE0EE3CF0BF0FF0EE3CF0CF00A0EA0
:104878000B02F3CF09F0F4CF0AF00C02F3500A262A
:10488800FD0EE3500926000E0A22FE0E09C0E3FFC2
:10489800FF0E0AC0E3FFFB0EE3CFD9FFFC0EE3CF08
:1048A800DAFFDE2A000EDD22FB0EE3CFD9FFFC0E75
:1048B800E3CFDAFFDECFF6FFDDCFF7FFF86A0800B7
:1048C800F5CF0CF0D00E0C26FD0E0CC0E3FFFD0E4C
:1048D800E3CF01F0090E016474EF24F076EF24F0C1
:1048E80035EF24F0FE0EE3CF01F0FF0EE3CF02F028
:1048F800F90EE126FF0EE2221200E65288EF24F0BC
:10490800000E016E04EF25F0FD0EE3CF0BF0FE0E56
:10491800E3CF0CF0200E0B24D96E000E0C20DA6EBB
:10492800DF501F0B0C6EFD0EE3CF09F0FE0EE3CF38
:104938000AF0210E0924D96E000E0A20DA6EDF5023
:104948001F0B0C18D8B4ABEF24F0ADEF24F084EFB4
:1049580024F0F2BEB2EF24F0B6EF24F00C6A0C2A71
:10496800B7EF24F00C6A010E0C16FF0E0CC0E3FF23
:10497800F29EFD0EE3CF0BF0FE0EE3CF0CF0210EFE
:104988000B24D96E000E0C20DA6EDF501F0B0C6E54
:10499800FD0EE3CF09F0FE0EE3CF0AF00C50092418
:1049A800D96E000E0A20DA6EFB0EE3CFE9FFFC0E8B
:1049B800E3CFEAFFDFCFEFFFFD0EE3CF0BF0FE0EF4
:1049C800E3CF0CF0210E0B24D96E000E0C20DA6E0A
:1049D800DF501F0B0C6E0C2ADF500C18E00B0C1864
:1049E800DF6EFF0EE3CF0CF00C30D8B0FEEF24F0F2
:1049F80001EF25F0F28E02EF25F0F29E010E016E16
:104A0800FB0EE126FF0EE2221200E652E652E652C3
:104A1800050E026E0F0E016EF10EE82EFED7012E66
:104A2800FCD7022EFAD700F027EC30F024EC32F055
:104A380007EC32F08FEC25F0F28CF28EBA84CD8040
:104A4800740EE66E5F0EE66E47EC32F0FF0EE36A18
:104A5800F40EE66E590EE66EFB0EE124016EFF0EB3
:104A6800E220026E01C0E6FF02C0E6FF90EC31F0E2
:104A7800958A9484FC0E0F014917C70EBB6E3F0E32
:104A8800BD16BD50F00B0C09BD6EBE6AFC0EBA1601
:104A98009E92BA849EA253EF25F055EF25F04EEF73
:104AA80025F0959A9494010E0F013C6FC09EC0505A
:104AB800F80B0609C06EC050C70B3009C06EC28023
:104AC800C250830B1409C26EFF0EE124016EFF0E63
:104AD800E220026E01C0E6FF02C0E6FF16EC32F0EB
:104AE8000150D8B47AEF25F07CEF25F068EF25F077
:104AF800FF0EE350E66EFC0EE124016EFF0EE2208D
:104B0800026E01C0E6FF02C0E6FF6EEC31F068EF0E
:104B180025F0AEEF00F00F013B913B939580958215
:104B2800929089806C50F00B08096C6E130E6E6EB3
:104B38006C8A340E016EF20EE82EFED7012EFCD7D9
:104B48006B806BB0AAEF25F0ACEF25F0A5EF25F050
:104B5800A49E7C0EE66EE1EC31F0800EE66EE1EC90
:104B680031F0380EE66EE1EC31F0800EE66EE1ECE5
:104B780031F0390EE66EE1EC31F0800EE66EE1ECD4
:104B880031F0170EE66EE1EC31F0800EE66EE1ECE6
:104B980031F07A0EE66EE1EC31F0800EE66EE1EC73
:104BA80031F05E0EE66EE1EC31F0800EE66EE1EC7F
:104BB80031F06B0EE66EE1EC31F0800EE66EE1EC62
:104BC80031F00C0EE66EE1EC31F0800EE66EE1ECB1
:104BD80031F0010EE66EE1EC31F0800EE66EE1ECAC
:104BE80031F0060EE66EE1EC31F0800EE66EE1EC97
:104BF80031F0020EE66EE1EC31F06B846BB407EF36
:104C080026F009EF26F002EF26F0340E016EF20EC0
:104C1800E82EFED7012EFCD7120060EF26F0580EC2
:104C2800E66EFF0EE66E020EE66E85EC30F0F30ED1
:104C3800E66EFC0EE66E010EE66EAEEC29F02D0E69
:104C4800E66EFC0EE66E020EE66EAEEC29F082EF22
:104C580026F0CB0EE66EFF0EE66E020EE66E85ECD3
:104C680030F0FEEC30F082EF26F00C0EE66E4D0EC2
:104C7800E66EFC0EE3CFE6FFE3CFE6FFB0EC30F0E4
:104C880082EF26F0640EE66E580EE66EFC0EE3CF59
:104C9800E6FFE3CFE6FFB0EC30F082EF26F0A20E9D
:104CA800E66E450EE66EFC0EE3CFE6FFE3CFE6FFC9
:104CB800B0EC30F082EF26F0FD0EE3500B6E0C6A7C
:104CC8000C50000AD8B46BEF26F082EF26F00B5098
:104CD800010AD8B413EF26F0030AD8B42DEF26F052
:104CE800010AD8B439EF26F0070AD8B446EF26F0FF
:104CF800010AD8B453EF26F082EF26F0E552E552C8
:104D0800E5521200D5EF26F0490EE66EFF0EE66E6C
:104D1800020EE66E85EC30F06F0EE66EFC0EE66E67
:104D2800010EE66EAEEC29F0DD0EE66EFC0EE66EC8
:104D3800020EE66EAEEC29F0F7EF26F0BD0EE66E39
:104D4800FF0EE66E020EE66E85EC30F0FEEC30F0FB
:104D5800F7EF26F0F60EE66E4D0EE66EFC0EE3CF8C
:104D6800E6FFE3CFE6FFB0EC30F0F7EF26F0220ED7
:104D7800E66E4C0EE66EFC0EE3CFE6FFE3CFE6FFF1
:104D8800B0EC30F0F7EF26F0BA0EE66E5A0EE66E8B
:104D9800FC0EE3CFE6FFE3CFE6FFB0EC30F0F7EF31
:104DA80026F0FD0EE3500B6E0C6A0C50000AD8B4C6
:104DB800E0EF26F0F7EF26F00B50010AD8B488EFA1
:104DC80026F0030AD8B4A2EF26F0010AD8B4AEEF51
:104DD80026F0070AD8B4BBEF26F0010AD8B4C8EF0A
:104DE80026F0F7EF26F0E552E552E55212004AEFB9
:104DF80027F03A0EE66EFF0EE66E020EE66E85ECC2
:104E080030F09B0EE66EFC0EE66E010EE66EAEEC22
:104E180029F0590EE66EFC0EE66E020EE66EAEEC5A
:104E280029F06CEF27F0AF0EE66EFF0EE66E020E6D
:104E3800E66E85EC30F0FEEC30F06CEF27F0E00E1B
:104E4800E66E4E0EE66EFC0EE3CFE6FFE3CFE6FF1E
:104E5800B0EC30F06CEF27F00C0EE66E4D0EE66EFF
:104E6800FC0EE3CFE6FFE3CFE6FFB0EC30F06CEFEB
:104E780027F0F00EE66E370EE66EFC0EE3CFE6FF87
:104E8800E3CFE6FFB0EC30F06CEF27F0FD0EE35017
:104E98000B6E0C6A0C50000AD8B455EF27F06CEF73
:104EA80027F00B50010AD8B4FDEF26F0030AD8B456
:104EB80017EF27F0010AD8B423EF27F0070AD8B470
:104EC80030EF27F0010AD8B43DEF27F06CEF27F058
:104ED800E552E552E5521200BFEF27F02B0EE66EC1
:104EE800FF0EE66E020EE66E85EC30F0C70EE66E3B
:104EF800FC0EE66E010EE66EAEEC29F0850EE66E4F
:104F0800FC0EE66E020EE66EAEEC29F0E1EF27F03D
:104F1800A10EE66EFF0EE66E020EE66E85EC30F030
:104F2800FEEC30F0E1EF27F0CA0EE66E4F0EE66EAB
:104F3800FC0EE3CFE6FFE3CFE6FFB0EC30F0E1EFA5
:104F480027F0F60EE66E4D0EE66EFC0EE3CFE6FF9A
:104F5800E3CFE6FFB0EC30F0E1EF27F0F00EE66EBD
:104F6800550EE66EFC0EE3CFE6FFE3CFE6FFB0ECAE
:104F780030F0E1EF27F0FD0EE3500B6E0C6A0C5099
:104F8800000AD8B4CAEF27F0E1EF27F00B50010A66
:104F9800D8B472EF27F0030AD8B48CEF27F0010ACF
:104FA800D8B498EF27F0070AD8B4A5EF27F0010A7C
:104FB800D8B4B2EF27F0E1EF27F0E552E552E55219
:104FC800120034EF28F01C0EE66EFF0EE66E020E9D
:104FD800E66E85EC30F0090EE66EFD0EE66E010E0B
:104FE800E66EAEEC29F0B10EE66EFC0EE66E020E31
:104FF800E66EAEEC29F056EF28F0930EE66EFF0E43
:10500800E66E020EE66E85EC30F0FEEC30F056EF00
:1050180028F02C0EE66E590EE66EFC0EE3CFE6FF86
:10502800E3CFE6FFB0EC30F056EF28F0E00EE66E86
:105038004E0EE66EFC0EE3CFE6FFE3CFE6FFB0ECE4
:1050480030F056EF28F0C60EE66E460EE66EFC0E01
:10505800E3CFE6FFE3CFE6FFB0EC30F056EF28F001
:10506800FD0EE3500B6E0C6A0C50000AD8B43FEFEB
:1050780028F056EF28F00B50010AD8B4E7EF27F0D4
:10508800030AD8B401EF28F0010AD8B40DEF28F0CC
:10509800070AD8B41AEF28F0010AD8B427EF28F085
:1050A80056EF28F0E552E552E5521200E150FC0FA8
:1050B800D96EE250DA6EFF0EDA22000EDE14096EA7
:1050C800000EDE140A6E800EDE140B6E7F0EDE14E8
:1050D8000C6E09500A100B100C10D8A476EF28F0AB
:1050E80078EF28F080EF28F0FC0EE36AFD0EE36A03
:1050F800FE0EE36AFF0EE36AE150F80FD96EE25044
:10510800DA6EFF0EDA22000EDE14096E000EDE14CF
:105118000A6E800EDE140B6E7F0EDE140C6E0950C4
:105128000A100B100C10D8A49CEF28F09EEF28F062
:10513800A6EF28F0F80EE36AF90EE36AFA0EE36ABE
:10514800FB0EE36AE150FC0FD96EE250DA6EFF0EF7
:10515800DA22F80EE350DE1812E1F90EE350DE18F9
:105168000EE1FA0EE350DE180AE1FB0EE350DE18FA
:10517800D8B4C1EF28F0C3EF28F0C6EF28F00190AB
:10518800C7EF28F00180F80EE126FF0EE222120098
:105198001BEF29F05D0EE66EFD0EE66E020EE66E62
:1051A80085EC30F0DB0EE66EFE0EE66E010EE66E66
:1051B800AEEC29F0970EE66EFE0EE66E020EE66E77
:1051C800AEEC29F0C00E3B6E39EF29F0D10EE66E39
:1051D800FD0EE66E020EE66E85EC30F0FEEC30F069
:1051E800000EE66E1DEC2AF039EF29F0D8903B321C
:1051F8003B50E66E1DEC2AF0800E3B263B28D8A4D7
:1052080008EF29F00AEF29F039EF29F0800E3B6EFC
:1052180039EF29F02C0EE66E590EE66EFC0EE3CF40
:10522800E6FFE3CFE6FFB0EC30F039EF29F0FD0EF2
:10523800E3500B6E0C6A0C50000AD8B426EF29F024
:1052480039EF29F00B50010AD8B4CEEF28F0030A41
:10525800D8B4EAEF28F0060AD8B4FAEF28F0020A20
:10526800D8B40EEF29F039EF29F0E552E552E552AE
:105278001200050EE126000EE222F70EE3CF0BF036
:10528800F80EE3CF0CF0FC0E0CC0E3FFFB0E0BC0D6
:10529800E3FFF90EE3CF0BF0FA0EE3CF0CF0FE0EAE
:1052A8000CC0E3FFFD0E0BC0E3FF8DEF29F0FB0EF2
:1052B800E3CFD9FFFC0EE3CFDAFFDF500C6EFF0E11
:1052C8000CC0E3FFFB0EE350010F016EFB0E01C0A3
:1052D800E3FF016AFC0EE3500120016EFC0E01C0E1
:1052E800E3FFFD0EE3CFD9FFFE0EE3CFDAFFFF0E9B
:1052F800E3CFDFFFFD0EE350010F016EFD0E01C08D
:10530800E3FF016AFE0EE3500120016EFE0E01C0AC
:10531800E3FFF50EE3CF01F0010E015EF50E01C0CB
:10532800E3FFF60EE3CF01F0000E015AF60E01C0BE
:10533800E3FFF50EE32807E1F60EE328D8A4A7EF6C
:1053480029F0A9EF29F05BEF29F0F50EE126FF0E11
:10535800E2221200E6526B806BB0B5EF29F0B7EF8E
:1053680029F0B0EF29F0A49E7C0EE66EE1EC31F056
:10537800800EE66EE1EC31F0FE0EE304D8A4C7EF30
:1053880029F0C9EF29F0CFEF29F0800EE66EE1ECA5
:1053980031F0DFEF29F0FE0EE3CF01F0020E011825
:1053A800D8A4D9EF29F0DBEF29F0DFEF29F0C00E00
:1053B800E66EE1EC31F0400EE66EE1EC31F0FF0E06
:1053C800E36AFF0EE3500B6E0C6AFC0EE3500B26EB
:1053D800FD0EE3500C220BC0F6FF0CC0F7FF000EC9
:1053E800F86E0F0EF76403D00800F55005D0F6CF1D
:1053F800E9FFF7CFEAFFEF50E66EE1EC31F0FF0E80
:10540800E32AFF0EE3CF01F00F0E01640EEF2AF03E
:1054180010EF2AF0E5EF29F06B846BB416EF2AF051
:1054280018EF2AF011EF2AF0E552E552E552E5525D
:105438001200FF0EE3A023EF2AF027EF2AF00C6AF0
:105448000C2A28EF2AF00C6A0C3A0C460C468C50B1
:105458000C18BF0B0C188C6EFF0EE3A236EF2AF067
:105468003AEF2AF00C6A0C2A3BEF2AF00C6A0C3A45
:105478000C468C500C18DF0B0C188C6EFF0EE3A436
:1054880048EF2AF04CEF2AF00C6A0C2A4DEF2AF06C
:105498000C6A0C3A8C500C18EF0B0C188C6EFF0E23
:1054A800E3A659EF2AF05DEF2AF00C6A0C2A5EEFAA
:1054B8002AF00C6A0C3A8B500C18EF0B0C188B6EF8
:1054C800FF0EE3A86AEF2AF06EEF2AF00C6A0C2AA6
:1054D8006FEF2AF00C6A0C460C460C468C500C18E0
:1054E800F70B0C188C6EFF0EE3AA7DEF2AF081EF04
:1054F8002AF00C6A0C2A82EF2AF00C6A0C460C4639
:105508008C500C18FB0B0C188C6EE5521200E652EE
:10551800E652E652E652FC0EE36AFD0EE36AFE0E20
:10552800E36AFF0EE36AF80EE3A09DEF2AF09FEF0F
:105538002AF0C3EF2AF0FC0EE350016EF40EE3509C
:105548000126FC0E01C0E3FFFD0EE350016EF50ECF
:10555800E3500122FD0E01C0E3FFFE0EE350016E91
:10556800F60EE3500122FE0E01C0E3FFFF0EE350EA
:10557800016EF70EE3500122FF0E01C0E3FFD89041
:10558800F40EE336F50EE336F60EE336F70EE336A1
:10559800D890FB0EE332FA0EE332F90EE332F80E3E
:1055A800E332F80EE3500DE1F90EE3500AE1FA0E8A
:1055B800E35007E1FB0EE350D8A4E5EF2AF0E7EF4C
:1055C8002AF097EF2AF0FC0EE3CF01F0FD0EE3CFAF
:1055D80002F0FE0EE3CF03F0FF0EE3CF04F0F40E6B
:1055E800E126FF0EE222120041EF2BF0BE0EE66E1E
:1055F800FD0EE66E020EE66E85EC30F0160EE66ED7
:10560800FC0EE66E010EE66EAEEC29F0E60EE66ED6
:10561800FB0EE66E020EE66EAEEC29F0030EB91232
:105628005FEF2BF02E0EE66EFE0EE66E020EE66EB5
:1056380085EC30F0FEEC30F00C0EB916000EE66E7C
:105648001DEC2AF05FEF2BF0E00EE66E4E0EE66ED4
:10565800FC0EE3CFE6FFE3CFE6FFB0EC30F05FEF00
:105668002BF0C282C2B23BEF2BF03DEF2BF036EFAE
:105678002BF0C4CFBEFF5FEF2BF0FD0EE3500B6E97
:105688000C6A0C50000AD8B44CEF2BF05FEF2BF0EB
:105698000B50010AD8B4FAEF2AF0030AD8B416EF6F
:1056A8002BF0040AD8B428EF2BF00E0AD8B435EF43
:1056B8002BF05FEF2BF0E552E552E55212000E0E8B
:1056C800E126000EE222ED0EE1240B6EFF0EE22031
:1056D8000C6EFF0E0CC0E3FFFE0E0BC0E3FFEF0ED7
:1056E800E3CF0BF0F00EE3CF0CF0F30E0CC0E3FFAA
:1056F800F20E0BC0E3FFF50EE124D96EFF0EE22097
:10570800DA6EDE6ADD6AFC0EE124D96EFF0EE22055
:10571800DA6EDE6ADD6AFE0EE124016EFF0EE2201B
:10572800026E01C0E6FF02C0E6FFEB0EE3CFE6FF24
:10573800E3CFE6FFEE0EE124016EFF0EE220026EDB
:1057480001C0E6FF02C0E6FFF9EC2EF0F50EE124F9
:10575800D96EFF0EE220DA6EDECF0BF0DDCF0CF053
:10576800EF0EE3CF09F0F00EE3CF0AF00B50092457
:10577800D96E0C500A20DA6EDF6AF20EE126FF0EAF
:10578800E222E552E750E15E000EE25A1200E652CC
:10579800E652E652E652F70EE3BED5EF2BF0D7EF0E
:1057A8002BF0E5EF2BF0F60EE3CF01F0FC0E01C075
:1057B800E3FFF70EE3CF01F0FD0E01C0E3FFE9EFD1
:1057C8002BF0FC0EE36AFD0EE36AFE0EE36AFF0EA1
:1057D800E36A09EF2CF0FA0EE3CFE6FFE3CFE6FF2A
:1057E800200EE66E000EE66E3DEC22F0FE0EE35053
:1057F800010F016EFE0E01C0E3FF016AFF0EE350C8
:105808000120016EFF0E01C0E3FFE150FE0FD96ECB
:10581800E250DA6EFF0EDA22FC0EE350DE5CDE5058
:10582800800A016EFD0EE350800A0158D8A01FEFD0
:105838002CF021EF2CF0EFEF2BF0FA0EE3CFE6FF80
:10584800E3CFE6FFF60EE3CFE6FFE3CFE6FFB0ECEB
:105858002EF0F60EE126FF0EE222120074EF2CF075
:10586800670EE66EFF0EE66E020EE66E85EC30F011
:10587800DD0EE66EFC0EE66E010EE66EAEEC29F06D
:10588800430EE66EFC0EE66E020EE66EAEEC29F0F6
:1058980092EF2CF0D90EE66EFF0EE66E020EE66E63
:1058A80085EC30F0FEEC30F092EF2CF0220EE66E34
:1058B8004C0EE66EFC0EE3CFE6FFE3CFE6FFB0EC5E
:1058C80030F092EF2CF0140EE66E5C0EE66EFC0ED5
:1058D800E3CFE6FFE3CFE6FFB0EC30F092EF2CF039
:1058E800FD0EE3500B6E0C6A0C50000AD8B47FEF23
:1058F8002CF092EF2CF00B50010AD8B434EF2CF0B6
:10590800030AD8B44EEF2CF0010AD8B45AEF2CF0A1
:10591800060AD8B467EF2CF092EF2CF0E552E55266
:10592800E5521200D8EF2CF00D0EE66EFF0EE66E73
:10593800020EE66E85EC30F01F0EE66EFD0EE66E8A
:10594800010EE66EAEEC29F0340EE66EFD0EE66E44
:10595800020EE66EAEEC29F0F6EF2CF0850EE66E40
:10596800FF0EE66E020EE66E85EC30F0FEEC30F0CF
:10597800F6EF2CF0CA0EE66E4F0EE66EFC0EE3CF85
:10598800E6FFE3CFE6FFB0EC30F0F6EF2CF0980E30
:10599800E66E510EE66EFC0EE3CFE6FFE3CFE6FFC0
:1059A800B0EC30F0F6EF2CF0FD0EE3500B6E0C6A05
:1059B8000C50000AD8B4E3EF2CF0F6EF2CF00B50A3
:1059C800010AD8B498EF2CF0030AD8B4B2EF2CF03F
:1059D800060AD8B4BEEF2CF0010AD8B4CBEF2CF0ED
:1059E800F6EF2CF0E552E552E55212002FEF2DF0BC
:1059F800860EE66EFE0EE66E010EE66EAEEC29F041
:105A0800B90EE66EFE0EE66E020EE66EAEEC29F0FC
:105A1800880EE66E130EE66E000EE66E000EE66E5B
:105A2800CAEC31F059EF2DF0750EE66EFE0EE66EFB
:105A3800020EE66E85EC30F059EF2DF02C0EE66E76
:105A4800590EE66EFC0EE3CFE6FFE3CFE6FFB0ECBF
:105A580030F059EF2DF0FD0EE3500B6E0C6A0C5030
:105A6800000AD8B43AEF2DF059EF2DF00B50010A87
:105A7800D8B4FCEF2CF0030AD8B418EF2DF0010AC3
:105A8800D8B422EF2DF0070AD8B422EF2DF0010A7E
:105A9800D8B422EF2DF0030AD8B422EF2DF0010A72
:105AA800D8B422EF2DF059EF2DF0E552E552E5522A
:105AB800120096EF2DF0850EE66EFD0EE66E020ED4
:105AC800E66E85EC30F0CA0EE66EFE0EE66E010E4E
:105AD800E66EAEEC29F0A80EE66EFE0EE66E020E3D
